S01800004144435F515549434B5F5354415254312E737265634A
S113000048200020690A0000650A0000650A000013
S113001000000000000000000000000000000000DC
S1130020000000000000000000000000650A00005D
S11300300000000000000000650A0000650A0000DE
S1130040650A0000650A0000650A0000650A0000F0
S1130050650A0000650A0000650A0000650A0000E0
S1130060650A0000650A0000650A0000650A0000D0
S1130070650A0000650A0000650A0000650A0000C0
S1130080650A0000650A0000650A0000650A0000B0
S1130090650A0000650A0000650A0000650A0000A0
S11300A0650A0000650A0000650A0000650A000090
S11300B00000000010B5064C2378002B07D1054B37
S11300C0002B02D0044800E000BF0123237010BDC0
S11300D00400002000000000E40D0000084B10B5EF
S11300E0002B03D00749084800E000BF0748036815
S11300F0002B00D110BD064B002BFBD09847F9E72D
S11301000000000008000020E40D0000E40D0000E1
S1130110000000000C4B1B68002B06D1EFF310838A
S1130120002B07D00022094B1A70074A13680133C9
S11301301360704772B6BFF35F8F0022044B1A70CE
S11301400132024B1A70F0E7200000202400002046
S113015000000020084B1A68013A1A601B68002B43
S113016009D1064B1B78002B05D00122044B1A70D1
S1130170BFF35F8F62B67047200000202400002088
S113018000000020F0B583B001AC012565700027A4
S1130190A770257021003E20064EB0478022D2056C
S11301A0054B9A612770657021000F20B04703B09A
S11301B0F0BDC046F50500008044004110B50022A2
S11301C000230270427000214280017103760262B2
S11301D0C26182600373C0246401C48103744374E4
S11301E08374C37403752A24035543758375063CCD
S11301F00355C2840285C1752B23C1540133C154F4
S113020010BD0000F0B5D6464F464646C0B596B080
S1130210070016000160CB4A106A80235B02034387
S113022013620B780520DB0705D516B01CBC90467D
S11302309946A246F0BD0B7817309B07F5D4737826
S11302403B71002B04D1C04A136C04210B4313648B
S11302503B68984633786A46137069461E20BB4B48
S113026098471E20BA4B98472C23F25C002A54D09E
S1130270013BF55C337BEB18DBB2D118C9B28B427E
S113028021D25219D3B29946B24B9A4603E00135B2
S1130290EDB2A94517D00F242C40337BE41850222B
S11302A0AD4902A8D047132CF1D8A40002ABE05802
S11302B001A900234B70CB708B7001330B70C0B25B
S11302C0A64B9847E3E7F4895022A34902A8A14B1F
S11302D09847132C13D9737D9B00DBB242461370ED
S11302E0B37DDB0172781343DBB24246537033793A
S11302F0342B00D978E19B00994AD3589F46A40037
S113030002ABE05801A900234B70CB708B70013312
S11303100B70C0B2914B9847DDE7347B50228E4975
S113032002A88C4B9847132C15D9F48950228A497A
S113033002A8884B9847132CCDD8A40002ABE058F0
S113034001A900234B70CB708B7001330B70C0B2CA
S1130350824B9847BFE7A40002ABE05801A90023F1
S11303604B70CB708B7001330B70C0B27B4B9847D2
S1130370DBE70423102402211AE0717C337C10246F
S113038016E006231024012112E008231024002182
S11303900EE00023302400210AE000232024002161
S11303A006E000230024002102E00223102401219E
S11303B0090170220A40134342469370F37D1720CB
S11303C03F2B00D931E7D3703A68537E5BB2002BE0
S11303D0FBDBF37C728813432422B25CD200134308
S11303E0327D92001343B27C5200134323434246AE
S11303F09380337E002B20D0102C00D1D6E000D87F
S113040080E0202C00D1B3E0302C16D1F27C002AFD
S11304100AD0F26980321720FF2A00D905E7326A30
S11304208032FF2A00D900E71720F269FF2A00DD95
S1130430FBE6326AFF2A00DDF7E639684A7E52B2EB
S1130440002AFBDB424613723A68537E5BB2002BF0
S1130450FBDBB38B424693833A68537E5BB2002B3B
S1130460FBDB338C424613842C23F35C002B05D036
S1130470013BDBB217200F2B00D9D6E62B22B15C4F
S113048017200F2900D9D0E63868427E52B2002ADC
S1130490FBDBF289307B0243B068024309050A435F
S11304A01B041343424613612A23F35C13750F2381
S11304B093751533F35C002B12D0F38C294A172063
S11304C0934200D9B1E642469384328D80231B01C6
S11304D0D31824499BB28B4200D9A6E64346DA845A
S11304E0214B1B685B01E022D20013401F4A516874
S11304F049011268D20E0A43D2B21343424613850D
S1130500002092E6002C98D1F27C002A0FD0F269E8
S1130510802109018C466244124917208A4200D97D
S113052083E6326A62440F498A4200D97DE60D4A65
S11305301720F169914200DD77E6316A914200DDCE
S113054073E67AE700040040000800404109000017
S1130550B5080000690C0000500D0000050A0000F9
S11305607C0C0000FF0F00002460800020608000ED
S1130570F27C002A0FD0F269802189008C46624403
S11305801A4917208A4200D94FE6326A6244174951
S11305908A4200D949E6154A1720F169914200DDE3
S11305A043E6316A914200DD3FE646E7F27C002AE9
S11305B00FD0F269802109028C4662440C4917204D
S11305C08A4200D931E6326A624409498A4200D932
S11305D02BE6074A1720F169914200DD25E6316ACE
S11305E0914200DD21E628E717201EE6FF03000004
S11305F0FFFF000000B583B001AB80221A700A78B7
S11306005A704A789A708A78DA701900014B9847C0
S113061003B000BD050A000070B50C490B6A0478EC
S1130620857840780122104080014026B34303437B
S11306302A40D20180208343134303222240120222
S11306400348034013430B6270BDC04600080040DA
S1130650FFFCFFFF082803D88000254B1B589F464A
S1130660172044E0234A136A02210B43136200203B
S11306703DE0204A936902210B439361002036E058
S11306801C4A138A02210B43138200202FE0194ACB
S1130690938A02210B439382002028E016490B68B9
S11306A0022213430B60134B9A8419000E32CB6859
S11306B01A42FCD0104A91680E4BD96252689A6271
S11306C000229A8419001032CB681A42FCD00A4BDB
S11306D01B689BB2074A9384002008E00549442222
S11306E08B5C022003438B54002000E00020704701
S11306F0A00D0000000800402800002030B585B09F
S1130700C222D2001A4B9A601A4A53681E218B43A4
S1130710536001236A4613700024174DE0B2694602
S1130720A8470134252CF9D103A8002444700125DD
S113073085700470114B98470620114B9847114B54
S11307409847114B1C725C729C72DC7201956B466B
S11307505C7006236A461370147254726946002052
S11307600A4B984700200A4B984705B030BDC04655
S11307700008004000400041410900001906000043
S1130780550600009507000000040040B90700006A
S113079071080000064A936908210B439361012202
S11307A0044B1A7019000B781342FCD17047C046F1
S11307B000040040000C004070B5060004000D78F1
S11307C02D0205434B78002B02D08023DB021D430E
S11307D04B7A002B02D080231B031D434868012859
S11307E010D9431E184234D1022830D902230022E2
S11307F001325B009842FBD812023243140080237A
S11308005B031D430B7A002B02D080239B031D4303
S1130810134A53785BB2002BFBDB124B9847124B05
S11308201E700F4A53785BB2002BFBDB0C4B9C60B1
S11308301A0053785BB2002BFBDB094A5368802112
S113084049020B401D435560084B984770BD002278
S1130850D2E70402344380239B021D43D2E7C046FF
S1130860000C004015010000080C00405501000078
S113087010B504000B4A53785BB2002BFBDB0A4B28
S113088098470A4B1C70074A53785BB2002BFBDB7A
S1130890044A516880235B020B435360044B98471E
S11308A010BDC046000C004015010000040C0040BF
S11308B05501000010B50400064B9847064B1C7008
S11308C0064A53888021C9010B435380044B98473F
S11308D010BDC04615010000020C0040000C004091
S11308E05501000010B504000F4B98470F4B1C70C6
S11308F00F4A53881B05180F53880E490B40538029
S113090053880D490B40538011008022D2014B883B
S11309101342FCD106494A880302064802401343A5
S11309204B80064B984710BD15010000020C004097
S1130930000C0040FFF0FFFFFFBFFFFF5501000068
S113094010B50C7824020443024B9847A4B2024B1E
S11309505C8010BDE5080000000C004030B5D37881
S1130960002B35D11378802B29D01B0680246402F8
S1130970234354780225AC4306D19478002C20D12B
S11309808024A402234341605478013C012C1CD9E7
S11309900D042D0CA024E4052C431C4384620D0C8F
S11309A0D02424062C431C438462D478002C22D106
S11309B05B031CD59378012B1ED0416117E0002303
S11309C0D7E7C024E4022343DDE70D4C2340DFE7EF
S11309D041600C04240CA023DB05234383620C0C2C
S11309E0D0231B0623438362D378002B03D153788F
S11309F0013B012B02D930BD8161F8E78160FAE740
S1130A00FFFFFBFF10B50A00C1090023002904D130
S1130A104309DB0105498C4663441F24204001211E
S1130A2081401800024B984710BDC0460044004165
S1130A305D0900007047000010B5054B9847054B51
S1130A409847054B9847054B9847054B984710BD69
S1130A50FD06000085010000350A0000350A00008B
S1130A60350A0000FEE70000F8B52A4A2A4B9A42EC
S1130A7011D01A00294B9A420DD2294A03339B1AEA
S1130A809B0801339B000022234822498C58845040
S1130A9004329A42FAD1234A234B9A420AD2D343CC
S1130AA021495B1803218B4304339B18002102C2A4
S1130AB09342FCD11D4AFF211D4B8B439360FD39AA
S1130AC090235B001B4AD1501B4AD3780325AB43C8
S1130AD002242343D370D3780C27BB430826334323
S1130AE0D370164B987B3022904320221043987386
S1130AF0997BB943314399739A7BAA4322439A73EE
S1130B000F4A536880210B4353600E4B98470E4B9A
S1130B109847FEE7E40D00000000002004000020D8
S1130B2004000020040000204800002000ED00E044
S1130B3000000000007000410050004100480041E6
S1130B4000400041210C00009D0B000010B58CB04A
S1130B5068460E4B98470E4C6A460E4920000E4BD1
S1130B6098472268537E5BB2002BFBDB0F239375FF
S1130B701376137802210B431370054B1A68537EC6
S1130B805BB2002BFBDB0CB010BDC046BD01000006
S1130B9040000020004000420502000070B51D4BDB
S1130BA098471D4B98471D4B1B685A7E52B2002A2A
S1130BB0FBDB1A7B02210A431A735A7E52B2002AC3
S1130BC0FBDB01250424022001E015420AD1197E31
S1130BD0C9B22A000A400C4200D002430842F4D0B1
S1130BE02243F2E75A7E52B2002AFBDB5A8B0122DF
S1130BF01A76197EC9B20A40480701D50220024379
S1130C00890701D504210A43520701D502221A7625
S1130C10FEE7C046390A00004D0B000040000020EA
S1130C2070B500260C4D0D4C641BA410A64209D1CE
S1130C30002600F0C7F80A4D0A4C641BA410A64213
S1130C4005D170BDB300EB5898470136EEE7B30009
S1130C50EB5898470136F2E7D00D0000D00D0000A4
S1130C60D00D0000D40D0000002310B59A4200D12D
S1130C7010BDCC5CC4540133F8E70000A2030000AB
S1130C80E8050000E8050000E8050000E8050000AC
S1130C90E8050000E8050000E8050000E80500009C
S1130CA0E8050000E8050000E8050000E80500008C
S1130CB0E8050000E8050000E80500008A030000DC
S1130CC0E8050000E8050000E8050000E80500006C
S1130CD0E8050000E8050000E8050000E80500005C
S1130CE0E8050000E8050000E8050000E80500004C
S1130CF0E8050000E8050000E80500009A0300008C
S1130D00E8050000E8050000E8050000E80500002B
S1130D10E8050000E8050000E8050000E80500001B
S1130D20E8050000E8050000E8050000E80500000B
S1130D30E8050000E8050000E80500009203000053
S1130D40AA03000072030000820300007A0300007B
S1130D500200000003000000280000002900000039
S1130D600400000005000000060000000700000069
S1130D7020000000210000002200000023000000E9
S1130D8024000000250000002600000027000000C9
S1130D9008000000090000000A0000000B00000029
S1130DA0800600006006000060060000EC060000FB
S1130DB0720600008E060000640600009C06000017
S1130DC0DC060000F8B5C046F8BC08BC9E46704777
S1130DD0DD000000F8B5C046F8BC08BC9E4670476C
S1070DE0B500000056
S1070DE40100000006
S9030A6989
