S011000065766572677265656E2E7372656350
S214000000482A00205D9B0000599B0000599B000079
S21400001000000000000000000000000000000000DB
S214000020000000000000000000000000599B0000D7
S2140000300000000000000000599B0000599B0000D3
S214000040599B0000599B0000599B0000599B0000DB
S214000050455C0000599B0000599B0000599B00001E
S214000060599B0000795B0000895B0000995B0000EB
S214000070A95B0000B95B0000C95B0000994900005D
S214000080A9490000B9490000599B0000599B00008F
S214000090599B0000000000000000000055280000EA
S2140000A0599B0000599B0000599B0000599B00007B
S2140000B00000000010B5064C2378002B07D1054B36
S2140000C0002B02D0044800E000BF0123237010BDBF
S2140000D0DC01002000000000382E0100084B10B59F
S2140000E0002B03D00749084800E000BF0748036814
S2140000F0002B00D110BD064B002BFBD09847F9E72C
S21400010000000000E0010020382E0100382E01001B
S2140001100000000070B582B005000E0000226B469D
S214000120DA80064C6B46991D2800A0470028F9D1B6
S2140001306B4606331B88337002B070BD394D000025
S21400014070B505008CB2034E21002800B047002889
S214000150FAD170BD0D4D0000F0B591B08023DB05DF
S214000160009300230193FF2269460A8100228B72C6
S214000170CB72012424216846445401314454013191
S2140001804354013143540A930531435401314354D7
S21400019005930382C376027602774276132383762C
S2140001A04277E1235B020893C4239B030393012356
S2140001B05B420C930D93174B0E93174B0F93174DF3
S2140001C0174B1D60174A184B1A60184A184B1A60CE
S2140001D06A4618492800184B9847184F3B68986895
S2140001E00021174EB0473B6858680021B0472E687C
S2140001F03000144B98471F2318408440124B1C6055
S2140002002A68D369002BFCD133680222134333607B
S21400021011B0F0BD03002A0003002B00EC090020FB
S21400022094080020410100009008002015010000FD
S2140002308C08002000180042C94900000C0000206D
S21400024091BC0000495B000000E100E070B590B092
S21400025002AC012525700023039304932374637472
S214000260A574E57423752422A354183A002108A81F
S214000270234B9847234BA36180235B02E360224B0A
S214000280A36201235B42E362204B2363204B63633C
S214000290204E220020493000204B9847346820002A
S2140002A01F4B98471F23184085401E4B1D60326821
S2140002B0D369002BFCD123680222134323601A4C17
S2140002C00423237103336371124B236001A90123B6
S2140002D04B7000228A700B700720144B9847627987
S2140002E0D1090023002904D15309DB0110498C46AB
S2140002F063441F21114001228A409A6110B070BDEC
S214000300FBB0000040420F00020010000200120086
S2140003100200130000070020000C00423D4F0000C2
S214000320495B000000E100E00C0600202593000079
S2140003300044004100B583B000226B461A70074B9C
S2140003405B68DB061B0F69468B70CA700A714A70C1
S2140003506846034B984703B000BDC04600400041C6
S2140003603590000010B58EB001AA642301931F4B90
S2140003705360002393601373137680218903116101
S21400038001214942D182918225315354936208312A
S21400039053540131535401315354D7331386144BFD
S2140003A0D361144B136214491448154B9847002820
S2140003B016D1124B1A680721D3691942FCD113686B
S2140003C002210B4313600D4BDC8800231020518B59
S2140003D0014208D10133A342F9D31023538302E02C
S2140003E00848094B98470EB010BDC046480D00009F
S2140003F0020016000200170000140042C00200208F
S214000400312A0000F405010059BC000070B584B024
S214000410022203AB1A70012803D0022827D004B0AA
S21400042070BD0422012924D0002925D00229F6D146
S21400043010231A4352B203AD6A700024AC70002336
S21400044002210F480F4EB04740236A4613803D3BBB
S2140004505380019514725472947269460A480B4B85
S21400046098470028DBD00A480A4B9847D7E700226F
S214000470D8E701231A43DBE702231A43D8E7C0462E
S2140004808C0601003DBB0000C00200201D300000AD
S214000490B006010059BC000030B587B00400132335
S2140004A06B44187001A940220A803F3A4A804B608C
S2140004B000230B724B728B721248134B984700281E
S2140004C006D021001148124B9847124807B030BD9D
S2140004D001AD05AB029302236B8023200E4B984799
S2140004E0290008480D4B9847002805D105AA13781F
S2140004F01B0250781843E9E721000948044B984747
S2140005000448E3E7C0020020313000001C0601006A
S2140005103DBB0000FFFF0000055D00000930000045
S2140005205C06010010B50120054B9847054B98471F
S214000530054C0022054BA0470022054BA04710BDE6
S21400054099040000A50401004DF800000000F03EEC
S2140005500000594010B50020074B9847074B9847B6
S214000560074C0022074BA0470022074BA04700225B
S214000570064B074CA04710BD99040000A5040100D7
S2140005804DF800000000F03E00A06440000044402B
S2140005904DFD0000F0B5CE46474680B587B0040056
S2140005A01500012937D014DD052960D0062961D150
S2140005B01368002B5ED09368002B5BD0304B1B7803
S2140005C0002B57DD2F4C00262F4B99462F4B984675
S2140005D034E000294ED11368002B10DB002305936E
S2140005E00493039302930193294B00930023002264
S2140005F00121284CA0470122274B1A603AE0274DDC
S2140006002B6819692648214B98472B6819692000E2
S214000610244B98472EE01178002905D14322835CAD
S21400062008318B43835425E01F48184B984721E038
S21400063001364434124B1B78B3421BDD2F686A68C0
S21400064021003800C8470028F2D139001748C047B3
S214000650A9681748C0470B491648C047216C16487A
S214000660C047276CA868154B9847B847E0E714487A
S214000670144B984707B00CBC90469946F0BDC04650
S214000680FC010020AC030020ADBE00003DBB000016
S214000690FC28010011A50000F801002050030020EE
S2140006A074070100FDA30000AC070100E00701008D
S2140006B0F8070100080801002808010049B00000FA
S2140006C04408010059BC000010B5014B984710BD06
S2140006D0A9A3000010B5014B984710BD49AF000014
S2140006E030B583B02C2803D0322822D003B030BDDA
S2140006F00B78012B17D0002BF8D11748174B9847CB
S214000700174B1C6825682800164B9847A368227963
S214000710C1B2FF2000902800134CA04701211348C7
S214000720134B9847E2E713480C4B9847124B9847F1
S214000730DCE78B784A780878C978009101000F4882
S2140007400F4CA047064B1B68196908480D4B984785
S21400075001220D4B1A60C9E7EC09010059BC0000E4
S214000760500300209FBE0000017100009405002089
S21400077009AC0000D80901001D710000000A010044
S2140007803DBB0000FDA300000002002010B588B0AD
S21400079001AC2000104B9847104B6360104BE36091
S2140007A0802323610F4B1B689B89238021000E4802
S2140007B00E4B9847011E07DB0D490B480D4B98471B
S2140007C0011E05DB08B010BD0B480C4B9847FEE732
S2140007D00B480A4B9847FEE791A2000054030020FE
S2140007E0CC0200205003002094050020B5A2000093
S2140007F09505000085A30000D40601003DBB00005F
S2140008000807010010B5094C2000094B9847200046
S214000810084B984701212000074B9847074B9847FD
S2140008200020074B9847074B984710BD94050020BB
S21400083041A3000095A3000009AC0000A1890000B8
S214000840496E0000455D000010B588B01C4B18606E
S21400085001A81C4B98471C4C01A920001B4B98472D
S21400086020001B4B98471B481B4CA0471B4B984728
S2140008701B4B98471B48A0471822002102A81A4B7A
S21400088098471A4B02931A48A04702A8194B984754
S21400089000280FD100211848184B9847184B984746
S2140008A018491948194B984719480B4B9847002088
S2140008B008B010BD01001748104B98470120F7E715
S2140008C050030020BD41000054030020C941000031
S2140008D0754200005808010059BC00008D07000052
S2140008E0B55D000068080100FBB00000E1060000EE
S2140008F07C080100156D0000B80801003DBB000033
S2140009005D890000C9060000D5060000DD890000EC
S214000910E008010090080100F0B5A5B005000F0042
S2140009201600214B1B78062B39D8204B984704001D
S2140009300195290013A81E4DA84713AB19001D48A2
S2140009401D4B9847019902A8A84702AB1F559C4625
S214000950644400236370002261461848184B984789
S214000960002804D002A91748134B98471AE023968C
S2140009700D4A13785C1CE4B21470134D1801C018AD
S21400098080002818442213A9104B9847013C2101E7
S2140009900919890049190E48074B984702E00D4887
S2140009A00D4B984725B0F0BDFC0100209FBE00000F
S2140009B055BE0000040901003DBB00009405002060
S2140009C069A9000020090100AC030020C5B00000A2
S2140009D0400901009409010059BC000070B582B0BE
S2140009E004000D0013000021019100912A0001006F
S2140009F00448054EB0472A0021000448044B984797
S214000A0002B070BD94050020C1A70000F8080100E0
S214000A103DBB0000054B036002234360044B83602C
S214000A20044B8381044B03617047C0463C070100BA
S214000A30500701005B07000060070100024A1388A8
S214000A40834313807047C0461406002010B50A4A38
S214000A501388034313800200103A084B1A4202D050
S214000A60082804D010BD0648064B9847FAE7044805
S214000A70054B9847F6E7C04614060020EFFF000037
S214000A800C060020CD2200005923000070B5C4B02B
S214000A908024A401A0421BD08224E402A04201D0FC
S214000AA044B070BD8024E40241A801804292439382
S214000AB001AA130062C862C380235B0021000648B7
S214000AC0064CA0470028EBD00548064B9847E7E7BA
S214000AD080246401E8E7C0460C060020891B00005D
S214000AE05413010059BC0000F0B5C7B043A82B4B07
S214000AF098473F212A482B4DA847FF212A48A84758
S214000B00FC24A40121002948A84703212848A84717
S214000B10284E8027FF01284BE51803AB9C4665440A
S214000B20402229002000B0470028F9D14034BC42BA
S214000B30F1D103A921481B4B9847FC25AD01204C59
S214000B402800A0470028FBD101AC33AD23002A00C3
S214000B5003CA03C30123E37021781A48114FB8472C
S214000B6061781848B847A1781648B8470CCC0CC529
S214000B70FC24A401144E8027FF010F4BE51803AB9D
S214000B809C466544402229002000B0470028F9D141
S214000B904034BC42F1D147B0F0BDC046CD92000013
S214000BA0CC1001003DBB0000F41001001C11010038
S214000BB0441101000592000000C1FFFF6C11010006
S214000BC071920000781101005D91000010B5014B94
S214000BD0984710BD5D3F000070B582B005000C0060
S214000BE00B0AFF210B400A002240200E0190200C29
S214000BF00140009129000448044EB0472100280017
S214000C00034B984702B070BD500C01003DBB00007E
S214000C100D33000010B582B0204B1B88DA0712D5C2
S214000C209A0715D55A0717D41A0719D45A061BD48B
S214000C301A0626D4DB0509D519481A4B9847102002
S214000C40194B984702E01948164B984702B010BD5A
S214000C501748144B9847F9E71648124B9847F5E79C
S214000C601548104B9847F1E714480E4B9847144B1D
S214000C701B68D9680023009301221248124CA04733
S214000C80E4E71248074B98470D4B1B681969002389
S214000C90009301220B480C4CA047D7E7140600200F
S214000CA0B40D010059BC00004D0A0000800C010084
S214000CB0A80C0100D40C0100000D01002C0D010051
S214000CC04407002018060020613800006C0D010063
S214000CD030B583B02C2806D0322834D00100224804
S214000CE0224B98473DE00B78012B1ED0002B38D1C5
S214000CF01F48204B984702201F4B98471F4B1B88C6
S214000D001B0718D41D4B1B885B0718D41C4B1C688C
S214000D10256828001B4B9847A3682279C1B2FF209C
S214000D2000902800184CA0471BE01848114B984725
S214000D30174B984715E008200F4B9847E2E704202A
S214000D400D4B9847E2E78B784A780878C978009187
S214000D5001001048054CA04702200F4B98470F4B48
S214000D60984703B030BDC0462C1301003DBB0000C1
S214000D70A812010059BC00003D0A0000140600201D
S214000D80440700209FBE00000171000068120100A9
S214000D901D710000E81201004D0A0000150C00004D
S214000DA0F0B5C64600B584B0019000230393002139
S214000DB02E482F4B98472F4B1B68FF2B30D9822489
S214000DC0E40200272C4D2D4E18E001002C48284B3D
S214000DD09847002045E003AA802149002648294B71
S214000DE09847039A39002848214B98470137214BEA
S214000DF01B680134FF341A0ABA4211D980235B00FB
S214000E002A0021002148B0470028DED1039B002B92
S214000E10E1D103AA8021490017481A4B9847E0E71A
S214000E20FF241C4021001A48114FB847A3B2124DA8
S214000E30104A11688222D20294466144091B2A0095
S214000E4012480E4EB04703AA210028000D4B9847C3
S214000E5003991048B847039B019A9E1A7042704146
S214000E60C0B204B004BC9046F0BDC046A811010054
S214000E703DBB00000806002048070020911A00002D
S214000E80C01101005D8F0000F81101000C06002063
S214000E90181201003C120100F0B5DE4657464E46D9
S214000EA04546E0B585B080460E0000280CD00029E7
S214000EB00AD0BB4B1B885A063DD506290ED00C22FD
S214000EC0B848B94B984702E0B848B94B984705B0C0
S214000ED03CBC90469946A246AB46F0BD01AC022209
S214000EE001002000B34DA84741460231042202A863
S214000EF0A8472488029E2100AF48AB4DA847310082
S214000F00AE48A847002C09D10020AD4B98470020DA
S214000F10AC4B98471020AB4B9847D8E70420A84D19
S214000F20A8474020A8478020A64B9847A64B1E609F
S214000F30A64B1C80EEE71A06C9D51B0706D500256A
S214000F40A34B9A469B46A34B9946DCE0A249A3488E
S214000F50954B9847A24C2000A24B98472000A24BE6
S214000F609847002845D100219D48A04B9847002867
S214000F7056D1022298499A489D4B9847002857D147
S214000F8002229C4996489A4B9847002858D102223C
S214000F9099499348964B9847002856D1012297497D
S214000FA08F48934B9847002857D1002294498C4885
S214000FB08F4B9847002858D10022924988488C4B7E
S214000FC09847002859D100228F498548884B984772
S214000FD000285AD100228D498148854B9847002821
S214000FE05BD02020774B9847884989486E4B9847B6
S214000FF002E088486E4B98470023874A1360822198
S214001000C902864A1160724A1370854A1360854B7E
S21400101019688548644B984708206A4B98478EE7BE
S2140010202020684B9847814981485F4B9847E3E703
S2140010302020644B9847684975485B4B9847DBE728
S2140010406C497348584B9847D6E720205D4B984725
S21400105069496F48544B9847CEE72020594B98472C
S21400106066496B48504B9847C6E72020554B984733
S214001070634967484C4B9847BEE72020514B98473A
S21400108060496348484B9847B6E720204D4B984741
S2140010905D495F48444B9847AEE700226549504893
S2140010A0534B9847002815D1002263494C48504BB3
S2140010B09847002816D10022604949484C4B98476B
S2140010C0002817D020203F4B984750495048364BB1
S2140010D0984791E720203B4B984756494C48324B5F
S2140010E0984789E72020374B9847534948482E4B66
S2140010F0984781E73A48524B98477DE7771BBFB23F
S2140011000FE0FF2C1FD02900AE4200D8A0E02B0035
S214001110FF339E42F2D953461A7880246400A41AFC
S214001120A7B25B461C784B46E01841443A00214B78
S2140011309847ED19E419E4B25B461C70002CE0D128
S214001140FF22234B1A70354B196880235B00214A17
S21400115023483C4CA047002812D100221C4B1A7092
S2140011602E4A13680133FF3313602E4B1B68002B87
S2140011700FD12C4A802149001648334B9847C2E7C6
S2140011802020104B9847254B19683048064B984747
S2140011909DE6244A802149000E482B4B9847B2E72B
S2140011A014060020FC0D01003DBB0000DC0D010014
S2140011B059BC0000C5B00000580E0100740E0100B6
S2140011C03D0A00004D0A00000C020020100200201C
S2140011D04007002048070020FCFF0300940E010093
S2140011E00C0600205923000085190000DD210000B0
S2140011F0C51F0000FBFF0400FAFF0500F9FF06000C
S214001200F97F0600F88F0600F79F0600F6AF060087
S214001210140F0100AC0E0100140200203C07002051
S2140012200806002004020020500F0100FFFF000007
S214001230D00E0100F5BF0600F4CF0600F3DF06006F
S214001240CD220000891B00005D8F0000600F0100AA
S2140012502D4B1A689446614419602C4C2368F1188B
S21400126021602B4D2A682B482B4B984722682B6809
S2140012709A4200D22BE6294B1B78294A1168294A44
S21400128029482A4CA04700281ED1294C234B197800
S21400129022002448274B98472748284B9847206821
S2140012A0274B9847002818D02648244B9847204BB1
S2140012B01A68254B19688A4216D02448164B984758
S2140012C02020234B984702E62020214B9847144BBA
S2140012D019682048104B9847F9E51F48174B984760
S2140012E020201B4B9847F2E51C4B9847074B1B6882
S2140012F0154A12681A49098880208001194CA047AF
S2140013001020134B9847E2E5080600201402002040
S21400131008020020980F01003DBB00004007002097
S2140013203C070020480700200C060020891B000010
S214001330040200205D8F0000CC0F010059BC0000A5
S214001340A10D0000001001000C0200206810010032
S2140013504D0A0000600F010040100100E90A00007D
S214001360100200208D0A000010B51400042906D8CB
S2140013708900214B5B589F462048214B984710BD5B
S21400138020481F4B984704201F4B9847F7E71188C3
S21400139052681E481E4B98472388C82B0CD161689C
S2140013A01C4B196000221C4B1A601C4B9942E6D855
S2140013B0A0681B4B9847E2E72020134B9847DEE7D0
S2140013C011685068164B9847D9E711681548104BB6
S2140013D0984723680B33D2D1134B1B881B0707D4BF
S2140013E0114B1B885B07CAD50420104B9847C6E7ED
S2140013F008200E4B9847F3E71C0A0100800B0100FB
S21400140059BC0000B80B01004D0A0000E40B0100B7
S2140014103DBB00000802002014020020DC0500008E
S214001420990E0000200C0100140600203D0A000062
S21400143000B589B001A80B4B98470B4B05930B4B97
S214001440029301A90A480B4B9847011E05DB0A497F
S21400145007480A4B984709B000BD0948094B98470A
S214001460FEE7C04645310000DC05000054030020BE
S214001470180600206D31000069130000613200007C
S214001480300A01003DBB0000054B036002234360A9
S214001490044B8360044BC360044B03617047C04633
S2140014A03C070100500701000C0B0100440B010033
S2140014B030B58BB004000022244B1A804020244D07
S2140014C0A8470120A84703A8224B9847224D03A906
S2140014D02800224B98472800214B9847214B9847D5
S2140014E0214B98471822002104A8204B9847204BF0
S2140014F0049304A81F4B984700281CD11E4B9847FE
S2140015001E491F481F4B98471F48204B9847216885
S2140015101F48204B9847256828001F4B984722797C
S214001520C1B2FF230093A36828001C4DA8470028DB
S21400153005D00BB030BD1A48144B9847F9E7194848
S214001540124B9847184B1C60F3E7C0461406002061
S2140015504D0A0000BD41000054030020C9410000B0
S2140015607542000031140000B55D0000FBB00000BD
S214001570D10C0000156D00005D890000D90B00003D
S214001580CD0B0000DD890000A00A010059BC000058
S214001590D00A01003DBB00009FBE000001710000A4
S2140015A0780A0100F40A01004407002010B5094B30
S2140015B09847094C2000094B98472000084B98474D
S2140015C02000084B98470020074B9847074B984742
S2140015D010BDC046A1890000180600207132000028
S2140015E09D33000021320000496E0000455D00007A
S2140015F070B50E4B98470E4B1B8830221A420BD103
S2140016000C4E0D4C0D4D0020B0472000A847084B4F
S2140016101B8830221A42F6D000201B0600D470BD6C
S2140016201030074B98470120F9E7C0461D710000AF
S21400163014060020656E0000540300200D430000D1
S2140016403D0A000070B5114B1B8800201B0600D415
S21400165070BD0F4B98470D4B1B8830221A4211D194
S2140016600C4E0D4C0D4D0020B0472000A847074BF0
S214001670188830230342F6D0203B1840431E98417A
S214001680C0B2E5E710201840F8E7C0461406002070
S214001690150C0000656E0000540300200D4300008A
S2140016A030B58FB0040001AA642301931F4B53602A
S2140016B0002393601373137680218903116101213F
S2140016C04942D18291822531535493620831535452
S2140016D00131535401315354D7331386144BD3611D
S2140016E0144B136214491548154B9847002819D116
S2140016F0124B1A680721D3691942FCD113680221DC
S2140017000B4313600D4BDD8800231020518B0142E4
S21400171004D10133AB42F9D310235383094B1C7019
S2140017200FB030BD0848094B9847F9E7480D000050
S2140017300200080002000900000800428805002098
S214001740312A0000180200208813010059BC00004E
S21400175000B585B00E236B441870184A1278694697
S2140017600A8001224A80019300230B724B728B720F
S2140017701348144B9847002808D00E236B4419785A
S2140017801148124B9847FF2005B000BD0F236B444D
S214001790019301236A465380694609480C4B9847D3
S2140017A0002803D10F236B441878EDE70E236B4413
S2140017B019780848054B9847FF20E5E718020020EF
S2140017C0880500201D300000B01301003DBB00005E
S2140017D0093000005C06010000B585B003AB187048
S2140017E059700C4A127869460A8002224A80019390
S2140017F000230B724B728B720748084B98470028E1
S21400180001D105B000BD03AB59780548054B984794
S214001810F7E7C04618020020880500203130000097
S214001820B01301003DBB000010B50221014381202A
S214001830014B984710BDC046D917000010B50321CC
S2140018408020034B98471020024B984710BDC04697
S214001850D91700002918000010B500218020014B80
S214001860984710BDD917000010B58A20014B98473D
S21400187010BDC0465117000070B5BC20FF30064BA7
S21400188098478C20054CA04705008D20A0470002F5
S214001890284380B270BDC046055D000051170000A9
S2140018A070B5BC20FF30064B98478E20054CA047ED
S2140018B005008F20A0470002284380B270BDC046B6
S2140018C0055D00005117000070B5264B98470400D0
S2140018D0254B98470500002C1BD080022100234B87
S2140018E0984701304008402820D9802823D9C028AE
S2140018F025D980235B00984224D93833984225D9CD
S2140019006233984227D91A4B984227D900230020E1
S21400191003E0DF235B00F920400060438022920151
S214001920944660445D43401B800B70BDDF235B0024
S214001930F9204000F1E70F4B85208000EDE70E4BC5
S2140019400E48EAE70E4B9C208000E6E7FE235B008D
S2140019507020FF30E1E7FB23D220DEE712231820B9
S214001960DBE7C04679180000A1180000ADE10000D2
S2140019709A020000D10200007B0300003F02000034
S214001980FE03000030B585B004000023039305680D
S2140019902F4B98472B79002B56D101332B712D4BAB
S2140019A098479F2201AB1A706279D109002300295B
S2140019B004D15309DB0128498C4663441F2111409A
S2140019C001228A405A61012201A92068234B9847C8
S2140019D00023032203A92068214DA8476279D10974
S2140019E00023002904D15309DB011B498C466344BC
S2140019F01F21114001228A409A6100232268137138
S214001A002379092B15D89B00164AD3589F46164BA8
S214001A1012E0164B10E0164B0EE0164B0CE0164B81
S214001A200AE0164B08E0164B06E0164B04E0164B91
S214001A3002E0002300E0154B039A9A4202D01420DD
S214001A4005B030BD0020FBE7024B98470520F7E7BE
S214001A504D9300008D930000004400416153000048
S214001A6051510000E81301001F4300001F4401000D
S214001A701F4502001F4501001F4602001F460300C7
S214001A801F8600001F4701001F4800001F6500005A
S214001A90F0B585B004000E0001921F005A180379B5
S214001AA0092B15D89B003249CB589F468023DB0272
S214001AB012E080231B030FE080235B030CE08023EF
S214001AC09B0309E08023DB0306E080231B0403E07E
S214001AD0002301E080235B0217209A4201D905B05B
S214001AE0F0BD2568234B98472B79002B3CD101335A
S214001AF02B71214B98470B2302AA1370D670330A1A
S214001B009370360C56706279D1090023002904D1EF
S214001B105309DB0119498C4663441F2111400122F9
S214001B208A405A61052202A92068154B9847002F63
S214001B3013D16279D1090023002904D15309DB01AE
S214001B400E498C4663441F21114001228A409A6147
S214001B50236800221A710020C1E700233A00019989
S214001B602068084DA847E4E7034B98470520B6E7EA
S214001B70101401004D9300008D93000000440041B6
S214001B806153000051510000F0B5DE4657464E4600
S214001B904546E0B585B005000E0001921F005A18B4
S214001BA00379092B15D89B00AE49CB589F46802356
S214001BB0DB0212E080231B030FE080235B030CE0B4
S214001BC080239B0309E08023DB0306E080231B04BD
S214001BD003E0002301E080235B0217209A4206D927
S214001BE005B03CBC90469946A246AB46F0BD2C6874
S214001BF09D4B98472379002B00D02EE101332371AB
S214001C009A4B9847062302AA13706A79D1090023D3
S214001C10002904D15309DB0195498C4663441F21F2
S214001C20114001228A405A61012202A92868914B7C
S214001C3098476A79D1090023002904D15309DB01AA
S214001C408B498C4663441F21114001228A409A61C9
S214001C50FF22324080235B009B1A1A1C9BB2BB42B9
S214001C6000D93A1C93B29A46022302AA1370D67081
S214001C70330A9370330C53706A79D1090023002914
S214001C8004D15309DB017A498C4663441F21114075
S214001C9001228A405A61042202A92868754B984797
S214001CA05346002B45D16A79D1090023002904D177
S214001CB05309DB016E498C4663441F211140012203
S214001CC08A409A612B68196801220B7E1342FCD069
S214001CD06A79D1090023002904D15309DB0164493C
S214001CE08C4663441F21114001228A405A612B68AA
S214001CF01B681A7ED20701D505229A6228680268F8
S214001D000421137E0B42FCD0137E00245B0709D50A
S214001D10538B5B0701D5042353838379012B0ED0A5
S214001D20946AE4B20121002398460420B4462E00AB
S214001D3010E05246019928684E4B9847B3E7936ADD
S214001D40DB05DC0DEEE7AB79012B1AD0946AE4B222
S214001D5021421AD033681A68137E0B42FCD0137ED9
S214001D600B4201D04346936235682A68137E0342CD
S214001D70FCD0137E0342EBD0538B0342E3D0508358
S214001D80E1E7946AE405E40DE2E7350066466A7921
S214001D90D1090023002904D15309DB0134498C46BC
S214001DA063441F21114001228A409A611020A30635
S214001DB04FD45346FF1ABBB21900019A9146002031
S214001DC0002B46D01F239B4601242A4B9846534699
S214001DD001938A4658E01A0049462868254B9847DA
S214001DE0A4E0906AC005C00DE1E0BB79012B1AD0D3
S214001DF0906AC0B204421AD02B681A68137E234237
S214001E00FCD0137E234201D0002393622F683A68E9
S214001E10137E0B42FCD0137E0B42EBD0538B0B424F
S214001E20E3D05183E1E7906AC005C00DE2E76B7925
S214001E30D9090022002904D15A09D2010C498C463E
S214001E40624459460B40210099409161830613D5A0
S214001E5010202B6800221A71C2E6044B9847052012
S214001E60BEE6C0463C1401004D9300008D93000072
S214001E7000440041615300005346019A9B1A9BB2EE
S214001E809A46002B00D194E002AB06221A706B79BA
S214001E90D9090022002904D15A09D20146498C46A4
S214001EA0624459460B40210099405161220002A924
S214001EB02868C0476B79D9090022002904D15A093D
S214001EC0D2013D498C46624459460B402100994058
S214001ED09161019A94466644E144574680235B002C
S214001EE09A4501D9354B1F88BBB20193022302AA3B
S214001EF01370D670330A9370330C53706B79D9090C
S214001F000022002904D15A09D2012B498C4662448A
S214001F1059460B40210099405161042202A92868C5
S214001F20274B9847019B002B00D054E76B79D909C3
S214001F300022002904D15A09D2011F498C46624466
S214001F4059460B402100994091612B681A68137E10
S214001F502342FCD06B79D9090022002904D15A0902
S214001F60D20115498C46624459460B4021009940DF
S214001F7051612B681B681A7E224201D005229A62A4
S214001F802B689C461A680421137E0B42FCD0137EF5
S214001F9000205B070BD5538B5B0701D504235383C7
S214001FA063469B79012B00D11BE7906AC0B20421DF
S214001FB022E700204DE7C0460044004138140100E7
S214001FC061530000F0B583B004000E0015000379DD
S214001FD0092B00D9F2E09B007B4AD3589F4680230A
S214001FE0DB0210E080231B030DE080235B030AE086
S214001FF080239B0307E08023DB0304E080231B048D
S21400200001E080235B021720B34201D803B0F0BD85
S21400201027686E4B98473B79002B00D0D0E0013301
S2140020203B716B4B984706236A4613706279D10959
S2140020300023002904D15309DB0166498C4663441A
S2140020401F21114001228A405A61012269462068F8
S214002050614B98476279D1090023002904D15309BE
S214002060DB015C498C4663441F21114001228A40F3
S2140020709A61012D06D0002D63D0D823022D02D000
S214002080002300E052236A461370D670330A93701A
S214002090360C56706279D1090023002904D1530901
S2140020A0DB014C498C4663441F21114001228A40C3
S2140020B05A61042269462068474B98476279D109DD
S2140020C00023002904D15309DB0142498C466344AE
S2140020D01F21114001228A409A6123681968012253
S2140020E00B7E1342FCD06279D1090023002904D16B
S2140020F05309DB0137498C4663441F2111400122F6
S2140021008A405A6123681B681A7ED20701D50522C9
S2140021109A62206802680421137E0B42FCD0137E6C
S21400212000255B0709D5538B5B0701D50423538332
S2140021308379012B07D0956AEDB201210027042090
S2140021400CE020239FE7956AED05ED0DF5E7B379E2
S214002150012B19D0956AEDB2294219D023681A6866
S214002160137E0B42FCD0137E0B4200D0976226688B
S2140021703268137E0342FCD0137E0342ECD0538BAE
S2140021800342E4D05083E2E7956AED05ED0DE3E700
S2140021906279D1090023002904D15309DB010D49D6
S2140021A08C4663441F21114001228A409A61A8068A
S2140021B0C00F0001236800221A7127E7172025E7C1
S2140021C0034B9847052021E7641401004D93000057
S2140021D08D930000004400416153000070B582B04A
S2140021E004000D000668354B98473379002B60D104
S2140021F001333371324B984706236A46137062796F
S214002200D1090023002904D15309DB012D498C464E
S21400221063441F21114001228A405A610122694607
S2140022202068294B98476279D1090023002904D1F8
S2140022305309DB0123498C4663441F2111400122C8
S2140022408A409A613C236A1E95416D422B406A463D
S214002250D37101236A4613706279D10900230029DD
S21400226004D15309DB0117498C4663441F211140F2
S21400227001228A405A61012269462068124DA84709
S21400228001226B46D91D2068A8476279D109002330
S214002290002904D15309DB010A498C4663441F21F7
S2140022A0114001228A409A61236800221A71002098
S2140022B002E0034B9847052002B070BD4D93000026
S2140022C08D930000004400416153000030B583B098
S2140022D0040005681C4B98472B79002B2ED1013340
S2140022E02B711A4B9847B9236A4613706279D10945
S2140022F00023002904D15309DB0115498C466344A9
S2140023001F21114001228A405A6101226946206835
S214002310104B98476279D1090023002904D153094C
S214002320DB010B498C4663441F21114001228A4081
S2140023309A61236800221A71002002E0034B984736
S214002340052003B030BDC0464D9300008D930000BD
S214002350004400416153000030B583B004000568B6
S2140023601C4B98472B79002B2ED101332B711A4B1F
S2140023709847AB236A4613706279D1090023002977
S21400238004D15309DB0115498C4663441F211140D3
S21400239001228A405A61012269462068104B9847FC
S2140023A06279D1090023002904D15309DB010B49C6
S2140023B08C4663441F21114001228A409A6123689B
S2140023C000221A71002002E0034B9847052003B054
S2140023D030BDC0464D9300008D9300000044004180
S2140023E06153000010B500220023027042700021E5
S2140023F04280017103760262C26182600373C02468
S2140024006401C481037443748374C37403752A24FB
S214002410035543758375063C0355C2840285C17512
S2140024202B23C1540133C15410BD0000F0B5D6466D
S2140024304F464646C0B596B0070016000160C64A2D
S214002440106A80235B02034313620B780520DB07C8
S21400245005D516B01CBC90469946A246F0BD0B7832
S21400246017309B07F5D473783B71002B04D1BB4A19
S214002470136C04210B4313640023BB60FB603B61B9
S214002480BB76FB763B833B77B54B1F602A23F35C1A
S214002490002B05D1337D002B02D101337B7701E081
S2140024A000237B773B68984633786A461370694604
S2140024B01E20AC4B98471E20AB4B98472C23F25C53
S2140024C0002A54D0013BF55C337BEB18DBB2D11805
S2140024D0C9B28B4221D25219D3B29946A34B9A461F
S2140024E003E00135EDB24D4517D00F242C40337B69
S2140024F0E41850229E4902A8D047132CF1D8A40015
S21400250002ABE05801A900234B70CB708B700133EF
S2140025100B70C0B2974B9847E3E7F4895022944972
S21400252002A8924B9847132C13D9737D9B00DBB2FD
S21400253042461370B37DDB0172781343DBB242462A
S21400254053703379342B00D97BE19B008A4AD358E9
S2140025509F46A40002ABE05801A900234B70CB7045
S2140025608B7001330B70C0B2824B9847DDE7347B2B
S21400257050227F4902A87D4B9847132C15D9F48921
S21400258050227B4902A8794B9847132CCDD8A4003B
S21400259002ABE05801A900234B70CB708B7001335F
S2140025A00B70C0B2734B9847BFE7A40002ABE0586D
S2140025B001A900234B70CB708B7001330B70C0B237
S2140025C06C4B9847DBE70423102402211AE0717C49
S2140025D0337C102416E006231024012112E0082381
S2140025E0102400210EE00023302400210AE00023FE
S2140025F02024002106E000230024002102E002231C
S21400260010240121090170220A40134342469370A8
S214002610F37D17203F2B00D91BE7D3703A68537E13
S2140026205BB2002BFBDBF37C728813432422B25C84
S214002630D2001343327D92001343B27C5200134300
S214002640234342469380337E002B20D0102C00D1AB
S214002650D9E000D898E0202C00D1B6E0302C16D176
S214002660F27C002A0AD0F26980321720FF2A00D9AD
S214002670EFE6326A8032FF2A00D9EAE61720F269CE
S214002680FF2A00DDE5E6326AFF2A00DDE1E639686A
S2140026904A7E52B2002AFBDB424613723A68537EE9
S2140026A05BB2002BFBDBB38B424693833A68537EC8
S2140026B05BB2002BFBDB338C424613842C23F35C8B
S2140026C0002B05D0013BDBB217200F2B00D9C0E64C
S2140026D02B22B15C17200F2900D9BAE63868427E53
S2140026E052B2002AFBDBF289307B0243B068024319
S2140026F009050A431B041343424613612A23F35C6D
S21400270013750F2393751533F35C002B12D0F38CDF
S2140027101A4A1720934200D99BE642469384328D8C
S21400272080231B01D31815499BB28B4200D990E633
S2140027304346DA84124B1B685B01E022D20013404A
S214002740104A516849011268D20E0A43D2B21343A6
S2140027504246138500207CE6000400400008004046
S21400276048080020019A000075990000C5B00000D6
S21400277060150100F99A00008C140100FF0F00009C
S2140027802460800020608000002C00D07FE7F27C70
S214002790002A0FD0F269802109018C4662442A493A
S2140027A017208A4200D954E6326A624426498A4291
S2140027B000D94EE6244A1720F169914200DD48E62A
S2140027C0316A914200DD44E661E7F27C002A0FD0D0
S2140027D0F269802189008C4662441C4917208A428F
S2140027E000D936E6326A624418498A4200D930E691
S2140027F0164A1720F169914200DD2AE6316A9142B5
S21400280000DD26E643E7F27C002A0FD0F26980213D
S21400281009028C4662440E4917208A4200D918E6FF
S214002820326A62440A498A4200D912E6084A1720E8
S214002830F169914200DD0CE6316A914200DD08E65E
S21400284025E7172005E6C046FF0F0000FF0300003F
S214002850FFFF000070B52E4B1C6823681D7EEDB28E
S214002860EA0705D5E27ED20702D5A27ED20716D4A5
S2140028706B0708D5042322681376E37E9B0702D5F0
S214002880A37E9B073CD4AB0708D5022322681376A9
S214002890E37E5B0702D5A37E5B0735D470BD0122BD
S2140028A01A762268537E5BB2002BFBDB61698B1CB9
S2140028B06361538B9BB20B80238B013B9BB22383BC
S2140028C0002B11D0637F002BD2D02268537E5BB2E0
S2140028D0002BFBDB137B02210B4313732268537E12
S2140028E05BB2002BFBDBC3E7237F052BC0D10023A5
S2140028F023770133226893752000A3689847B7E7CB
S2140029002000E3689847BEE7236920009847C5E79C
S21400291048080020044A137802210B4313705378AA
S2140029205BB2002BFBDB70470018004000B583B09D
S214002930124A936940210B43936101A900230B704F
S21400294005200F4B984705200E4B98470E4A1378E4
S21400295001210B43137053785BB2002BFBDB0B4B50
S21400296019004031002204C39942FCD11022084BC2
S2140029701A60084B984703B000BDC04600040040EC
S214002980019A000075990000001800404C080020CD
S21400299000E100E0152900000023036043600122E7
S2140029A00272427283720233C3727047F0B583B00C
S2140029B005000C0001A900234B70CB7023790B7027
S2140029C0237A8B702078154B984700201F2D00D84F
S2140029D0134807222A409200E77AA37A002B01D0F8
S2140029E008231F43EB089B00C31899690F269640DF
S2140029F0B14397403A000A439A61637A002B06D1A6
S214002A0043690122AA409343436103B0F0BD426983
S214002A100123AB4013434361F7E7C046F99A000031
S214002A200018004001680722CB691A42FCD17047A3
S214002A30F0B5D6464F464646C0B58AB006000F00EB
S214002A40140031600800974B9847974A116A851C16
S214002A500123AB400B43136209A9237B0B70143090
S214002A60C5B22800914B98472800914B9847207B89
S214002A700021904B98473B681C209B0705D50AB061
S214002A801CBC90469946A246F0BD3B681738DB074B
S214002A90F5D414233B60336898461800814B98475A
S214002AA00500802308AA137000235370012208A98A
S214002AB08A70CB70E069276A002800D1AFE008ABC7
S214002AC01870022308AA5370000CC0B211007A4B8B
S214002AD09847002F00D1A7E008AB1F70022308AA72
S214002AE053703F0CF8B21100734B9847A38AF380DB
S214002AF0E38A3381237E8022002B04D16F4B9B78A0
S214002B009B07DB0FDA01A16823690B4313432422DA
S214002B10A25C002A02D08022D2051343A26A134385
S214002B202C22A25C002A03D180229204914202D178
S214002B308022120513432D22A25C002A02D0802296
S214002B40120413432E22A25C002A02D08022D20353
S214002B5013434246126813434246136080235B00C9
S214002B60536028001430C0B2554B98470790FA239C
S214002B709B0022685A43914663689A46514DA8477F
S214002B80009001914B465800A84702900391208E72
S214002B90A847049005914C4F4C4A4D4B009801991C
S214002BA0B84702000B0004980599B847494E002222
S214002BB0494BB047049005914846A84702000B00D1
S214002BC004980599B84702000B00444D00980199F7
S214002BD0A847029A039BB0470022414BA847029A97
S214002BE0039B404DA847404B9847050080239B0415
S214002BF0A2689A421ED003004020FF2D00D93EE76F
S214002C0000240020FF251D40240625430004FF2342
S214002C101B04184005434346DD6000202FE70021D3
S214002C204046324B98474AE7012140462F4B98478B
S214002C30070051E7FA26B60053465E43009801990E
S214002C4002000B00234CA0470090019130001D4B62
S214002C5098470022264BB84702000B0000980199BF
S214002C60204CA04700221E4B1C4CA0471E4B9847EA
S214002C70041E0CD0310007981E4B98470238001BE4
S214002C802B00FF2D0CD8FF28BCD94020F7E671009A
S214002C90481E079B9C466044164B98470138EFE752
S214002CA04020ECE6D15A000000040040019A0000E3
S214002CB0759900000D590000F99A000000200041A7
S214002CC01D9A0000A50401004DF8000095D626E8E0
S214002CD00B2E113EC5E90000000024404DFD00000B
S214002CE00000F03FE5EF0000B9030100595900006D
S214002CF00000084099E0000003681A7E920707D596
S214002D0002221A765B8B9B074120DB171840704720
S214002D105A8B520706D55968C02292020A435A6057
S214002D201820F4E70020F2E730B5026800230124FB
S214002D300225117E21420BD1117E294206D1013394
S214002D409BB201899942F4D8122002E0002000E0EC
S214002D50002030BD10B5046862688023DB02134390
S214002D6063606162024B98470123237610BDC0461C
S214002D70292D0000F0B5DE4657464E464546E0B5DE
S214002D8083B00600894605684C882B681B01DB0F5C
S214002D909A464B7A002B2BD16B68584A13406B60CF
S214002DA04B461B7A002B27D14B461B885B004A46B6
S214002DB0527A92031343012213436B623000504B46
S214002DC0984701905346002B03D04B465B88012B57
S214002DD03BD06B68494A13406B60019B002B3AD08E
S214002DE0019803B03CBC90469946A246AB46F0BD5F
S214002DF0897A444B9847CFE74B461B885B004A4688
S214002E00527A920313438022120213436B623000FD
S214002E103B4B984701906B68384A13406B6000281C
S214002E20DED13000384B984701900028D8D14B4669
S214002E301B881B0A782213435B004A46527A920389
S214002E4001210A4313436B62B8E76A688023DB02FA
S214002E5013436B60C1E730002B4B98470190002866
S214002E60BED1013CA4B28046284B9B4615E0012CFF
S214002E7020D03000264B984743465F1CBFB228231D
S214002E80EB5C4A4652684146535430001C4B984708
S214002E90013CA4B2002815D1B8465C4514D06B8B13
S214002EA09B0627D5F37A002BE3D05346002BDED1C2
S214002EB0002CDED16A688023DB0213436B60013C82
S214002EC0A4B2EAE7B8460190B37A002B09D13000E5
S214002ED00F4B98472823EA5C4B465B6841465A549A
S214002EE07EE730000A4B98476A68C0239B0213436C
S214002EF06B60ECE74123019372E7C046FFFFFBFFE0
S214002F00292D0000552D0000F92C0000FFFF0000C1
S214002F10252A0000F0B5DE4657464E464546E0B543
S214002F2083B006000F0005684C88324B98477B7AC2
S214002F30002B1DD16B68304A13406B603B7A002B28
S214002F401BD03B885B007A7A9203134380221202DE
S214002F5013436B623000294B98470190002813D02A
S214002F60019803B03CBC90469946A246AB46F0BDDD
S214002F70B97A3000224B9847DCE73B885B007A7AC8
S214002F80920313436B62E5E730001E4B9847031E1F
S214002F900190E5D1A046002420339946154B9B4668
S214002FA0164B9A46444515D06B8B4A4613421DD0A5
S214002FB03000D8477B681A5D2823EA543000D04793
S214002FC0002806D16B8B01345B07EBD51E230193DB
S214002FD000E00190B37A002BC2D03000054B984732
S214002FE06A68C0239B0213436B60B9E741230193D1
S214002FF0B6E7C046252A0000FFFFFBFF292D00008C
S214003000552D0000F92C000010B501238372C37201
S214003010014B984710BDC046752D000010B5012322
S2140030208372C372014B984710BDC046152F00002F
S21400303010B5002383720133C372014B984710BD4D
S214003040152F0000F0B5C64600B50C0090460028C7
S2140030500FD1002A11DD8F18094E0A4D3068210065
S2140030602B6898470134BC42F8D1404604BC9046D1
S214003070F0BD01235B429846F7E78046F5E7C04679
S214003080940800208C080020F0B5C64600B50E0057
S21400309015000138022810D8002A11D000240C4B45
S2140030A098460C4F43461868315D3B6898470028A1
S2140030B008DB0134A542F5D106E00124644203E0B2
S2140030C0140001E001246442200004BC9046F0BDD8
S2140030D09408002090080020F8B504004120235CE6
S2140030E001252B43235492B2002020560023124D74
S2140030F0A847002816DB4123E35CDB0718D5E36E00
S2140031000020022B17D90D4F0D4E41250020B84741
S214003110606DB047635DDB070CD5E36E022BF5D818
S214003120002008E04122A35C01218B43A35402E067
S214003130002000E00020F8BD058C0000656E000051
S2140031400D4300005023038000238370054A02814C
S2140031504360C3600133FF330361AE3B4361024B00
S21400316083617047204E00007817010070B5040098
S2140031700D00002838D0002939D00B69002B39D033
S2140031804B68002B39D04B69512B39D9E8220021E6
S2140031901E4B9847200050301C2229001C4B984795
S2140031A0E36D002B08D02B89002B11D10023E3669A
S2140031B0D822A350002070BD2869164B9847E065BA
S2140031C0002820D04122A35C04210B43A354EAE745
S2140031D06868002322001049104DA847A064002804
S2140031E0E4DA1C204042E6E716204042E3E71620D9
S2140031F04042E0E716204042DDE716204042DAE78C
S21400320016204042D7E70C204042D4E7FBB000002F
S214003210C5B000009DB00000853300008942000064
S21400322010B5041E14D04123C35C5B070CD4D42312
S214003230E058002801D0084B9847E82200212000DB
S214003240064B9847002010BDC06D034B9847EEE72D
S21400325016204042F7E7C046B1B00000FBB00000C1
S214003260002802D0C1640020704716204042FBE7C9
S214003270002803D00023C364002070471620404275
S214003280FBE70000F0B585B004000E00C023C3586D
S214003290002B02D0C422805898472000B030182255
S2140032A00021174B9847E36E002B24D10023E356EA
S2140032B09B000025134A9D5020006C306C22002194
S2140032C00F4FB8472000D83010220021B847E566D7
S2140032D0D823E5504122A35C01218B4301318B4367
S2140032E0A3540196E36C002B03D001AA0231200000
S2140032F0984705B0F0BD00202056034B9847D5E709
S214003300FBB000001C020020318D0000F0B587B035
S21400331000900191174C26001C36174F15E002232B
S21400332002AA13804E33EB5A1A021B0A134302AA50
S2140033305380019B039300202856102202A90F4BAE
S214003340984715E00434B44212D02568002DF9D011
S214003350691C0098B8470028F4D1EB6E012BF1D118
S214003360019B002BDBD1762149422800044B98476D
S21400337007B0F0BD1C02002041BE0000758B0000A7
S2140033808532000010B5002A04D03E2149421000C4
S214003390014B984710BDC0468532000010B5002886
S2140033A007D0C36E012B07D90021044B9847002095
S2140033B010BD16204042FBE70020F9E785320000EA
S2140033C0F0B5DE46574680B595B002AF0400EB4632
S2140033D010230822BA18D218B14B23CB23C21B687D
S2140033E01360626ED31DDB08DB006946CB1A9D4670
S2140033F002AE002C00D1F0E14123E35CDB0700D5F0
S214003400EBE1E36E032B04D0042B00D120E1DD4674
S214003410E4E10023CC216350043163500094A14BB7
S21400342031002C200825AC46BC4460449E4DA8477D
S214003430C823E35C012B00D1A9E0022B00D1AFE04A
S214003440032B00D1B5E0042B00D1BBE0052B00D147
S214003450C1E0062B00D1C7E0250070352800934B4D
S2140034609A469847020029002C2308203818C018CE
S2140034708F4DA8470B228F492C2308203818C018D8
S214003480A8470C228C492C2308203818C018A847B7
S214003490A36E7B601800D047020079682C230820B2
S2140034A03818C018A847022284492C230820381848
S2140034B0C018A847062282492C2308203818C018AE
S2140034C0A847631C7B601800D047020079682C234D
S2140034D008203818C018A847022278492C2308204C
S2140034E03818C018A847182276492C230820381800
S2140034F0C018A847132274492C2308203818C0186F
S214003500A847172271492C2308203818C018A84746
S2140035102300B033DB68002B7BD0B023E35C002BAA
S2140035206BD12300B0339B68002B72D02200B032E0
S21400353050699847CC23E050002800DAACE002003F
S2140035406349202308203818C018624B9847102279
S21400355061492C2308203818C018554DA847202349
S2140035600822BA18D018514B984702002023082189
S2140035707918C9180C3308203818C018A847022232
S2140035804E492C2308203818C018A84741E00422CA
S21400359052492B3308203818C018454B98475BE72C
S2140035A005224F492A3308203818C018404B984740
S2140035B052E707224B49293308203818C0183C4BDD
S2140035C0984749E704224849283308203818C01885
S2140035D0374B984740E708224449273308203818D5
S2140035E0C018334B984737E7052241492633082051
S2140035F03818C0182E4B98472EE701225242CC238B
S214003600E2501D323B49A03B08203818C018284B12
S2140036109847D423E558002D0AD02800234B984716
S214003620020029002C2308203818C018204B984781
S214003630022222492C2308203818C0181C4B984711
S2140036402C230822BA18D0182B4B98470423E3667D
S214003650CC23E258002A51DB00DCF0E02300B03334
S214003660DD68002D00D1EAE0D023E3589A4200DD61
S214003670BAE0C023E358002B02D0C422A0589847D3
S2140036800223E366E36C002B00D1C0E60C22BA18D6
S214003690012120009847BAE60022E250B9E7C0466A
S2140036A060160100D93000001D4100009FBE0000DA
S2140036B089410000D4160100E01601007C280100B4
S2140036C0F0160100F8160100141701002817010073
S2140036D060170100FDBD000064170100A016010080
S2140036E0A8160100B0160100B8160100C0160100A9
S2140036F0CC160100401701002D4100002300B03316
S214003700DD68002D00D19AE0D023E358626E073AB8
S214003710711D2000B0304069A8470500C343DB1781
S2140037201D400A2232710D21F170731959719A7178
S2140037300F232B40063205398C46BC446244D35CCA
S214003740B370B11C0F2D0DDD711CEB170F2213404B
S2140037505B191B111340013208208446BC446244A6
S214003760D35C7370FF2D0DDDEA17FF2313405B1942
S2140037701B051B0F102208218C46BC446244D35CF8
S21400378033703100CA1C921B2B1DD21892B2002037
S21400379020560023304EB047002819DBD022A3580D
S2140037A05B19A350002D00D031E6C023E358002B50
S2140037B002D00C3AA05898470223E366E36C002B2D
S2140037C000D124E60C22BA180121200098471EE6F4
S2140037D0052149422000214B9847DD46BD4613B0DF
S2140037E00CBC92469B46F0BD2200B0325069626E19
S2140037F03100A847002816DBCC23E5580433E358ED
S214003800ED1A854200DD0500AAB2002020560023EE
S2140038103100114EB04700280BDBD023E258944607
S2140038206544E550F3E50521494220000B4B9847D7
S214003830EDE5052149422000084B9847CDE70223D5
S214003840E366E36C002B00D1E1E50C22BA180121F7
S21400385020009847DBE5C046058C00008532000056
S214003860F0B5D64600B588B004000F009246039324
S214003870002800D1D3E0C36E022B00D9D3E0072284
S21400388081493800814B98470726002807D0082230
S2140038907F4938007D4B984746424641F600631CF8
S2140038A0BD19029318007B4B984702002900029826
S2140038B0764B984701902B78002B52D02F2B52D066
S2140038C0711C791800220132A3540D000B78002BCE
S2140038D002D001312F2BF6D1A21800235370637843
S2140038E0002B00D1A3E028006A4B98473F2800D958
S2140038F0A1E0D423E058002801D0674B98470E9BE0
S214003900002B32D01800654B9847D423E05000288F
S21400391000D194E04122A35C01218B43A3540023F1
S21400392063642B782F2B24D02F227023E2542B781D
S214003930002B24D1039B002B27D02000B030182268
S2140039401900574B9847C8235246E254E36E012BA2
S21400395022D0002B27D0022B3AD00B235B420193B8
S2140039608DE00022B8E70022B6E70022D423E2501A
S214003970D0E72000703029004A4B9847DAE7290044
S21400398020007130474B9847D4E72000B03018220B
S2140039900021454B9847D6E7019B002B6FD00021AE
S2140039A02000424B98475223E25C531E9A41D2B203
S2140039B0012102203E4B98472070002843DB800000
S2140039C03C4BC450029D00212026012030270CE0ED
S2140039D0019B002BE3D10333E3662000364B984768
S2140039E04DE0002901D012E001002A78002A2ED0EE
S2140039F001351300B343413B052BF5D93A2A0AD0CB
S214003A002F2A0AD02E2AECD03A40302AEDD002983F
S214003A102A4B98472FE00100E7E70100E5E7162369
S214003A205B4201932BE010235B42019327E01623B1
S214003A305B42019323E05B235B4201931FE00C2370
S214003A405B4201931BE01C235B42019317E00223B9
S214003A5004AA13804E33E35A1A021B0A134304AA1D
S214003A6053800298164B9847059000202056102247
S214003A7004A9144B98470123E36600230193019899
S214003A8008B004BC9246F0BD84170100ADBE00002D
S214003A908C1701009FBE0000B1B0000065BE00009C
S214003AA0C5B0000055BE0000FBB000008532000027
S214003AB0F18900001C020020C1330000398E00008E
S214003AC0CD8D0000758B000010B500280DD0416C20
S214003AD0026E91420AD2521A92B2C36D9C4661445B
S214003AE0007840B20023044CA04710BD8B21494209
S214003AF0024B9847F9E7C0469D8C000085320000CF
S214003B0070B50500C06D6B6C5C1A0419002C02DCE5
S214003B1000236B6470BD2200014B98476C64F9E784
S214003B20D7B00000F0B5CE4600B584B00700C46D2F
S214003B30624B994649E021003800614B98470026C1
S214003B40300004B004BC9146F0BDA11C38005C4BAC
S214003B509847FB6C002B0AD0E422B95A002906D0FD
S214003B60083AB858002807DB3A6E904210DC01226B
S214003B70D823FA500126E3E701AA118001219170AB
S214003B800021E02039509160023138009847EEE776
S214003B9001AA1180506000219160E0203950023166
S214003BA038009847E3E720001030464B9847DC2360
S214003BB0F85009E00132954206D01378202B2BD11D
S214003BC0F8E7213A8933FA50AC1C3F492000C84731
S214003BD0051EB0D0FB6D7A6C944663449842AAD218
S214003BE0022239492000394B98470028ADD01022D0
S214003BF037492000354B98470028D4D01322354942
S214003C002000324B9847061E10D1220013329542F0
S214003C10DAD9E37C202BCDD020229343432BD0D07F
S214003C208621494238002C4B984789E70C222B49BD
S214003C302000264B984700281DD122000C329542C2
S214003C40C2D9237B202B09D0202293434B2B0CD0A8
S214003C504122BB5C02218B43BB54B5E7013295423F
S214003C60B2D01378202BEFD1F8E72132BB5C0221CB
S214003C700B43BB54A8E7052219492000134B98476D
S214003C800028A1D1200009300E4B9847E423F852B3
S214003C900022083BFA506379312B02D8E379302BA7
S214003CA005D94122BB5C02210B43BB548CE7412261
S214003CB0BB5C02218B43BB5486E7C046CFBE0000E8
S214003CC0013B000049B000007C280100ADBE0000AA
S214003CD06417010074160100853200008816010082
S214003CE098160100F0B5CE4600B586B00400C56D46
S214003CF0DC23C358002B69DB026E93422BDC0020CA
S214003D00626C93424EDCE66C002E03D0E422A15A8D
S214003D1000290ED10023D822A3500C32A3524133DF
S214003D20E35C9B070FD400212000714B98470020CE
S214003D3038E003AA1180002191705360956002312B
S214003D402000B047E6E7DC23E15869182000694BFD
S214003D509847606C26E0426C03920495E021405838
S214003D60844662446250934220DC0023D822A3504B
S214003D700C32A352E33A03AB1A72E36C002B07D063
S214003D8003AE3200032120009847337A012B03D17B
S214003D904123E35C9B0710D5636CE9182000554B64
S214003DA09847002006B004BC9146F0BD002203AB45
S214003DB01A72E36C002BEFD0E2E74F484F4B984760
S214003DC0002120004A4B98470020EBE7476C002371
S214003DD09946E0260AE04123E35C9B071BD5A91C15
S214003DE02000444B9847636C002B73D0A359002BDC
S214003DF030DB16D1D822A3500C32A352E33A6946E0
S214003E000A7200930193E36C002BE4D06A46032108
S214003E1020009847DFE700212000354B9847002018
S214003E20C0E7BB42DFDC0093019500236A461372AD
S214003E30E36C002B02D0032120009847A359991C5D
S214003E40691820002B4B9847676CE56D01235B4291
S214003E50A351C8E70023A351002F04DD2B780A2BBB
S214003E601CD10135013FA359226E934239DC002F45
S214003E70B9D101225242E023E250D0E71A00613A5B
S214003E80052A18D8A2591201D318613BA35101354F
S214003E90013F002F20D02B780A2BE2D04A46002A7A
S214003EA0F5D11A00303A092AE8D8A2591201D318D7
S214003EB0303BA351EBE71A00413A052A05D8A25930
S214003EC01201D318413BA351E1E73B3B5A425A410A
S214003ED09146DCE7002065E7E023E358226E934234
S214003EE0C7DD8B2149422000014B984797E7C04623
S214003EF085320000013B00007016010059BC00002E
S214003F0010B5D823C358002B03D0012B04D00020B3
S214003F1001E0034B984710BD024B9847FBE7C046AD
S214003F20253B0000E53C000070B50400436C9C4651
S214003F30614441645823C35A002B05D1054D200027
S214003F40A8470028FBD170BD816C406D024B984796
S214003F50F4E7C046013F0000FD42000010B584B003
S214003F608000654BC458002C06D0062951D007297E
S214003F7000D18AE0052901D004B010BD0123D35634
S214003F801A1E019315DBE36C002B03D001AA002157
S214003F90200098470323E3665533E25AA16C606D10
S214003FA0564B98472000564B98472000554B98474D
S214003FB0E2E70E33D9B20E291ED88B005249CB58F1
S214003FC09F46022149421DE0702149421AE00C2119
S214003FD0494217E01621494214E00C21494211E0FB
S214003FE0792149420EE0682149420BE00B21494203
S214003FF008E01021494205E0002A07DB002101E025
S214004000052149422000414B9847B5E70521494222
S214004010F8E70423D15E002906DD20003C4B9847D4
S2140040202000374B9847A7E70B000E339AB20E2AAC
S2140040301ED89300374AD3589F46022149421DE0B6
S214004040702149421AE00C21494217E016214942E4
S21400405014E00C21494211E0792149420EE0682122
S21400406049420BE00B21494208E01021494205E095
S214004070002907DB002101E0052149422000234BEF
S2140040809847CDE705214942F8E70023D35E002B89
S21400409008DB20001B4B98474122A35C01218B4381
S2140040A0A35469E70E339AB20D2A1ED893001A4A13
S2140040B0D3589F460221494219E07021494216E032
S2140040C00C21494213E01621494210E00C214942D6
S2140040D00DE0792149420AE06821494207E00B21B8
S2140040E0494204E01021494201E0052149422000EE
S2140040F0064B9847D0E7C0461C020020D14200007D
S214004100C93A0000C1330000B01501008532000036
S214004110293F0000EC15010028160100026001612D
S214004120002242608360009BC360704710B50400A5
S2140041304268002A00D110BD0169C068A36898478C
S21400414000236360F7E7000070B504000D00036805
S21400415042689B1A002B05DD22696368591C616062
S214004160D55470BD014B9847F6E7C0462D41000078
S21400417070B506000C000912024DA84761B2300067
S214004180A84770BD49410000F8B506000C00002A9B
S21400419008D08D18044F002161563000B84701340E
S2140041A0A542F8D1F8BDC04649410000024A13684E
S2140041B0013313607047C0463802002064234380F2
S2140041C00023037043707047F0B5C64600B5ACB028
S2140041D00D006E461D4B6A4692CB92C26B884365B5
S2140041E0143004002B789B00995917001000184BC8
S2140041F098470020174B9847174B1B7ADBB2D840DE
S21400420080466988FA200002144B98470100404611
S214004210134B984778600523FB722B789B009959BF
S2140042203A0020000F4B98476A780832D2B20E49FF
S21400423020000E4B984769780831C9B220000C4B15
S21400424098472CB004BC9046F0BDC04698170100B5
S2140042509D430000E998000000040040ADE1000026
S21400426099E00000E9440000AD410000F548000078
S2140042700D4900004269022193681942FCD1136877
S21400428002210B431360704770B504000578E807F9
S21400429002D50120404270BD6160290002208143A2
S2140042A02170A260616D1800044B9847E060237887
S2140042B00122134323700020EDE7C04699E000007A
S2140042C08B00591889000B5C012293430B547047EE
S2140042D070B58B005D18AD00295C02263143295469
S2140042E04419416D1000034B9847034B1B68C018D8
S2140042F0206170BD99E00000380200208B0059183C
S21400430089000B5C022293430B54704770B504007F
S2140043100378DB0707D503789B0704D5114B1B688A
S2140043200269D31A00D470BD03785B07FBD4037808
S214004330042213430370C368826800214568A847B7
S214004340E368002B08D0074A1268D3182361237845
S214004350042293432370E6E72378022293432370D4
S214004360F5E7C04638020020094B98420CD0094BAE
S214004370984207D0084A0023904201D018007047A0
S214004380023302E0012300E00023DBB2F6E7C0467A
S21400439000200042002400420028004210B504001D
S2140043A008004F4B98470023236080004D4A8258F0
S2140043B06260A372E372237363722372E361236203
S2140043C06362A36223756375A375E37523766376CC
S2140043D023746374A374E3742C22A3540132A3548D
S2140043E00132A3540132A3540132A3540132A35420
S2140043F00132A3540132A3540132A3540132A35410
S2140044000132A3540132A3540132A3540132A354FF
S2140044100132A3540132A3540132A3540132A354EF
S2140044200132A3540132A3540132A3540132A354DF
S2140044300132A3540132A3540132A3540132A354CF
S2140044400132A3540132A3540132A3540132A354BF
S2140044500132A3540132A3540132A3540132A354AF
S2140044600132A3540132A3540132A3540132A3549F
S2140044700132A3540132A3540132A3540132A3548F
S2140044800132A3540132A3544132A354A365A36757
S2140044900132A354E365E3670132A35423661A3A54
S2140044A0A3501B32A3546366173AA3501832A35482
S2140044B0A366143AA3501532A354E366113AA350E8
S2140044C01232A35423670E3AA3500F32A3546367E5
S2140044D00B3AA35001210C32A1540132A35410BD53
S2140044E069430000B8170100F0B5DE4657464E4651
S2140044F04546E0B591B001900C0015000800C34B8E
S214004500984703000100C248026A9E00C14FF7594F
S2140045103A43026222681C20920706D511B03CBCC2
S21400452090469946A246AB46F0BD22680127174042
S214004530F4D1B948325817202E68B242EED36E68CE
S214004540B242EBD3E869824200D2B9E1286A8242DD
S21400455000D2B7E1686A824200D2B5E1A86A824218
S21400456000D2B3E198229446AC44624608920020FA
S21400457003E001300132082808D01678002EF8D063
S214004580A64E765C8642F4DC1720C7E7002202922D
S21400459080204004844602E00132042A0ED0A81887
S2140045A0007C0128F8D19E48405C904200DA8FE1FA
S2140045B060469040029E06430296EDE79D32AA5C56
S2140045C0002A04D0802212010299114302912A7A0D
S2140045D0511E8A41920006926A7A012A22D0904A97
S2140045E0D25C110005923522AA5C8A4200D379E19A
S2140045F02C21695C0F2900D974E1287B0A90E87A9F
S2140046000B902D208246AA44002004970EAE0796F3
S214004610C0263601B1468446A04628005546099372
S214004620824635E0069911430691D8E792024F4636
S2140046303A400A4319798B4603215F4639400A43BC
S21400464016435A79520160210A4032439979090289
S214004650C026B6000E401643DA791203E021C901DF
S2140046600A4016433443039A14432043624607998C
S2140046705050042A2AD09A7C0599914200D831E1FC
S214004680597A0A3504239B46DC440F2900D929E1D0
S2140046900906F0231B0519402B002E783604FF2050
S2140046A00004064068788024002800D1049C98788E
S2140046B008270397002801D104980390D8788346EA
S2140046C010205F46002FB1D10498AFE74446554608
S2140046D0099B524AD25C9146514650315046413071
S2140046E0002700220126B2460226FF36B346802661
S2140046F07602B046A4461C004B460FE00678002E15
S21400470007D0934200D8E7E0022E14D056469640D3
S2140047103743013201310230082A10D00E78002EBD
S214004720ECD0934200D8D5E046469640374306780C
S214004730002EE9D1EDE75E4696403743E9E7994615
S214004740230064466A7E120130211140287E07222B
S214004750024011430022802040020E0002E0013297
S214004760042A0BD0A918097D0029F8D00599914292
S21400477000DCB3E0010091400E43F0E7B24601983A
S214004780020004323430002102C28242FCD10022F0
S2140047900198426382639900224A88500460A022EE
S2140047A0A95C643A81540DA9AA7A0A701E4AD65C9E
S2140047B030001E4B984730001D4B98474B46002B49
S2140047C03CDD2E00583698339846A8440123994677
S2140047D0AB464546A046089C03E001340436AC428E
S2140047E02AD02378002BF8D00CAB4A469A700023C8
S2140047F00CAAD37013002022B21812781A704A46F8
S2140048005A70307819000B4B9847E6E7694300006A
S21400481000040040A4170100B8170100C4170100E7
S214004820B017010098080020B4170100019A000094
S21400483075990000F99A000044465D460A9B1B03E2
S2140048400B9A12021343029A134323600422A368AE
S2140048501A42FCD1FF2323710422A3681A42FCD11A
S2140048606B461B7E63710E9BE3600F9B2361A76103
S2140048701D4AA3681342FCD15346E3631022A36883
S2140048801A42FCD12B686363184AA3681342FCD112
S2140048906B6823640598002822DD1C350021144E21
S2140048A032008A40A3681A42FCD104CD0B001033B4
S2140048B09B00E3185A6001318842F1DC00202DE6A7
S2140048C017202BE6172029E6172027E6172025E6CF
S2140048D0172023E6172021E617201FE617201DE6DF
S2140048E000201BE6172019E64000020080000400A6
S2140048F000010800920083185960034BD358426B9E
S2140049001343436300207047C817010070B50400C6
S2140049100D000068094B9847094B1B5C1F221A4084
S21400492001239340074A1360AD00074BEA58A36B78
S2140049301343A36323689A6270BDC04669430000B0
S214004940F817010000E100E0C8170100F0B5C64600
S21400495000B580000E4BC7583B68DE6ABB6B7A6BAF
S21400496013401E4000240B4B984602E00434302CC3
S2140049700AD04346E5583542F8D03B195B68380004
S21400498098473B68DD62F1E704BC9046F0BDC04640
S21400499098080020C817010010B50020014B984762
S2140049A010BDC0464D49000010B50120014B984788
S2140049B010BDC0464D49000010B50220014B984777
S2140049C010BDC0464D490000F0B5DE4657464E467F
S2140049D04546E0B591B005000C00160029600800B9
S2140049E0BC4B9847020023680520DB0706D511B0AC
S2140049F03CBC90469946A246AB46F0BD23681730AD
S214004A009B07F4D4B449086A971C0123BB400343B0
S214004A100B620FA92D27F35D0B701432D3B20293ED
S214004A201800AE4B98470298AD4B9847F05D0021B2
S214004A30AC4B9847F37A6B712423F35CAB71252358
S214004A40F35CEB71F37E2B72337F6B722B689846A8
S214004A501800A04B9847143000220E2306A98C4657
S214004A6063441A80328A02928023DB019A4200D184
S214004A709EE00FD9C023DB01029A9A4200D192E051
S214004A8080231B029A4200D01FE1032306930023D3
S214004A90079308E080239B019A4200D015E110237B
S214004AA006930F3B079333680593F3680393736984
S214004AB00493337E9B462623F35C9A467368994696
S214004AC0002B00D1A0E080235B05994500D184E04F
S214004AD0737E002B02D0B37E424693732A68029FF1
S214004AE0D369002BFCD10E3306AA944663441B8878
S214004AF042469381059B039A1343049A13434A46FE
S214004B0013431F435B461B021F4353465B071F436B
S214004B102723F35C002B01D104331F43737E9B02D3
S214004B20327F52021343727F120213432422B25C76
S214004B30520413432522B25C12041343B17AF27A6C
S214004B40114319433389FF2B00D181E080225204A0
S214004B50174319432C23F35C002B03D1624B9B783D
S214004B609B0701D580231F432A68D369002BFCD1FD
S214004B70434659602A68D369002BFCD143461F6020
S214004B800EAB80221A7000225A70DA709A70336B5D
S214004B900A93736B0B93B36B0C93F36B02930D93A7
S214004BA000270AAE63E008230693073B07937AE7DD
S214004BB033680593F368039373690493337E9B46C7
S214004BC02623F35C9A4673689946002B18D08023F8
S214004BD05B05994501D0002025E02723F35C002BD8
S214004BE000D075E7336A1F00C0B2404B98470100FB
S214004BF00E2206AB9C46624438003D4B984712E0B6
S214004C0008230693002307932723F35C002B0ED07C
S214004C10069B0093079B0E2206A98C466244B16A47
S214004C20306A344FB847002800D0E0E650E7336AD1
S214004C301F00C0B22D4B98470100069B0093079BB0
S214004C400E2206A88446624438002A4FB847EAE790
S214004C50F37E002B00D17DE78023DB041F4379E73A
S214004C602000254B984707E00137042F0DD0F9B2F6
S214004C70BB0098590028F3D0431CF5D00EA9087045
S214004C80000CC0B21D4B9847EEE70023EB602B618B
S214004C906B61AB61EB612B62AB626B620022EB85F2
S214004CA0AB853033EA540133EA540133EA54013316
S214004CB0EA542868074B984704001149114B984757
S214004CC0A400114BE550002091E610230693002324
S214004CD00793E8E6D15A000000040040019A00005D
S214004CE0759900000D590000002000411D9A000033
S214004CF04F5800007958000059590000F99A0000F2
S214004D00A94D00000D5B0000A8080020C2791C23F6
S214004D10002A01D118007047C28D92B2173B002AB4
S214004D20F8D10368DA69002AFCD1198502211A7EB7
S214004D300A42FCD00023EDE782791C23002A01D129
S214004D4018007047828D92B2173B002AF8D102688D
S214004D50107E4007F4D5D369002BFCD1538BDBB211
S214004D6098061DD0980703D5022353831833E7E728
S214004D70580703D5042353831A33E1E7D80703D52E
S214004D80012353831233DBE7D80603D5102353835E
S214004D903233D5E79B0603D5202353832133CFE751
S214004DA0138D0B800023CBE7F8B58000624BC55807
S214004DB02C68E369002BFCD1237EA67D1E403023A1
S214004DC0EB5C3122AF5C1F40F30722D5EB8D9BB224
S214004DD0002B1CD0AA6A1378DBB2511CA962697931
S214004DE001290ED09BB2DB05DB0D2385EB8D013B45
S214004DF09BB2EB85002B0CD1013323750133A375D1
S214004E0007E0517809020B430232AA62EBE701235E
S214004E102375B30706D50223237500223133EA54DF
S214004E20FB071AD4730765D5AB8D9BB2002B5FD0FA
S214004E30638BDBB21A0714D43F221340002B34D006
S214004E409A0711D51A223223EA54303B63837B0734
S214004E5050D528006B6998474CE02800EB689847C7
S214004E60E0E737221340E9E75A0705D51E2232232A
S214004E70EA542E3B6383EAE7DA0705D5132232238A
S214004E80EA54313B6383E2E7DA0605D54222322351
S214004E90EA54223B6383DAE720221A42D7D0213233
S214004EA03223EA54123B6383D1E7238DDB05DB0D07
S214004EB0DAB2696A0A706A6A511C696269790129FC
S214004EC010D0AB8D013B9BB2AB85002B12D10433C7
S214004ED0237500222E33EA54BB070BD528002B6916
S214004EE0984707E01B0A53706B6A01336B62E8E76A
S214004EF004232375F30604D5102323752376FB06B7
S214004F000ED4B30604D52023237523763B070BD493
S214004F10330704D5082323752376BB0608D4F8BDCB
S214004F202800EB699847ECE72800AB699847EFE75D
S214004F302B6A28009847F2E7A8080020F0B58BB047
S214004F4005000C00160029600B681C209B0701D585
S214004F500BB0F0BD0B681738DB07F9D408006F4BB1
S214004F6098476F4A116A871C0123BB400B431362A4
S214004F7009A92427F35D0B701430C3B201931800FF
S214004F80684B98470198684B9847F05D0021674B3F
S214004F9098473378012B3FD03378002B03D1236812
S214004FA00822134323602B000C33290028310022EB
S214004FB004C38B42FCD10023EB62AB620024AB86B9
S214004FC02B863633EC540133EC540133EC54353B2A
S214004FD06B722C712868514B984707005449554B03
S214004FE09847BF00544BFD502F6804AB80221A70C0
S214004FF05C707F3A9A70DC703378002B02D1002206
S21400500004AB9A70B36A0593F36A0693336B0793FF
S214005010736B089300240BE023680C221343236071
S214005020BAE73800454B98470AE00134042C10D004
S214005030E1B2A30002AA0C201218D0580028F0D023
S214005040431CF2D004A90870000CC0B23C4B984731
S214005050EBE733786B71337CAB71B37CEB71337DEC
S2140050602B72002202ABDA803378012B12D0337811
S214005070002B26D1B069B28B7B6AF17F0904B47F1E
S2140050802143194379622023F35C002B1BD0402375
S2140050901A4318E02868214B98471430C0B2294BB1
S2140050A09847010002AB9A1DB069274B984703004A
S2140050B01720002B00D04BE702AB06331B783B7360
S2140050C0D5E7002200207368B1680B43F1680B43F4
S2140050D00343317C0A43717C002903D11B4989783C
S2140050E0890701D580210B43B17C002902D080219D
S2140050F089020A43F17C002902D0802189000A43F4
S214005100317D002902D0802189010A4339680B438A
S2140051103B607B681A437A60002019E7D15A00008A
S21400512000040040019A0000759900000D59000027
S214005130715500000D5B0000A808002059590000BA
S214005140F99A00001D9A00004F5800000020004108
S214005150F0B5D6464F4680B583B08C463825465DBA
S214005160333D052E75D01235002A72D0C479053528
S214005170002C6ED04479002C03D10468257EA90744
S2140051800AD4013A94B20026042202218946012755
S214005190DB05DB0D9A4637E002252576F1E7016848
S2140051A00B7E3B42FCD00B7E3B4209D053468B62C3
S2140051B02DE00B7E4D462B4238D10B7E134245D058
S2140051C001680B7E1342FCD00B7E134240D04B8B03
S2140051D000250195134202D04A831E23019383794A
S2140051E0012B27D08B6ADBB20199002937D1751CB9
S2140051F0ADB261468B55817901291FD02E00013C46
S214005200A4B2184B9C421FD04379012BC7D04379D8
S214005210002BD5D101680B7E1342CAD1124B0D7EEE
S2140052201542C6D1013B002BF9D1C2E702230B760B
S21400523004250EE08B6ADB05DB0DD5E70236B6B239
S2140052401B0A61464B55DAE7019D02E0122500E095
S2140052501025280003B00CBC91469A46F0BD019D6F
S214005260F7E7C046FFFF00001027000010B544799E
S2140052701523012C01D0180010BD047A0023002C41
S214005280F9D1002A58D04B78002B44D003681B7EF7
S214005290DB0710D40A78D1090023002904D153096A
S2140052A0DB012E498C4663441F21114001228A40AF
S2140052B09A610523DFE70A78D4090023002C04D17D
S2140052C05309DB01254CA44663441F2414400122E5
S2140052D0A2405A6103681A7ED20701D58A789A627C
S2140052E0C2790023002AC6D102680421137E0B422D
S2140052F0FCD0117E00234907BDD5538B5B0701D533
S214005300042353838379012B02D0936A0023B2E7E8
S214005310936A0023AFE70A78D1090023002904D155
S2140053205309DB010D498C4663441F2111400122BD
S2140053308A405A6100239EE70A78D1090023002993
S21400534004D15309DB0105498C4663441F211140F3
S21400535001228A409A6100238DE7C046004400413E
S214005360F0B5DE4657464E464546E0B583B0382390
S214005370C45C333B052C02D01233002A07D1180038
S21400538003B03CBC90469946A246AB46F0BD437976
S214005390002B03D103681C7EA4070AD4934600247E
S2140053A001230225AC460235A846013A92B28A4647
S2140053B023E002241C76F1E7357E61460D422ED1AD
S2140053C0357E1D4200D1C2E00668357E1D42FCD007
S2140053D0671CBFB251460D5D8179012923D0ADB25D
S2140053E03C00377E1F4202D0ED05ED0DB562551E1E
S2140053F0ADB2C679002E1DD12A005A4DAA4270D0F1
S2140054004579002DE0D10668357E1D42D4D1564D33
S214005410377E1F42D0D1013D002DF9D1CCE70223C3
S21400542033760233ABE70234A4B25146CF5D3F0277
S2140054303D43D6E751464579002D37D14B4D019176
S21400544012E00234A4B24946019F795C0902009F2B
S2140054500F431BE0013A92B20668377E41460F4280
S2140054601BD1013D002D18D0002AF5D00668377EE6
S2140054701F42F1D0671CB9B289460199095D0091B7
S21400548081790129DDD069460F884C46317E194264
S214005490E0D0FF05FF0DB762DCE70199357E674671
S2140054A03D4218D1357E4646354252D00668357E96
S2140054B047463D42FBD0357E3D4207D0758B3D4288
S2140054C000D077838579012D09D0B56A5D46013D08
S2140054D0ADB2AB4669E70223337602334FE7B56ACF
S2140054E0F4E74379012B0BD0002B34D1C279002A84
S2140054F000D144E704245B465D46002B19D13EE705
S214005500016802220B7E1342FCD0002337E70B7E95
S214005510234222D00B7E234207D04B8B234200D05F
S2140055204C838379012B10D08B6A013DADB2002DE0
S21400553015D001680B7E2342E9D10B4B0A7E22422E
S214005540E5D1013B002BF9D1E1E78B6AEDE71223A9
S21400555015E7122313E7002311E712230FE70023B2
S2140055600DE7C046FFFF00001027000011270000CF
S214005570F8B58000854BC45826683723E35C36228E
S214005580A75C1F40337EB57D1D40EB072ED56379A3
S214005590012B25D0002B29D1637A002B26D0216839
S2140055A0E26A1378DBB2501CE062A079012800D1D1
S2140055B069E09BB2DB05DB0D8B62A38E013B9BB2E1
S2140055C0A386A38E9BB2002B10D101333375637A6A
S2140055D0012B0BD1E379002B08D10233B37505E01C
S2140055E0637A002B3ED0637A002BD8D16B0711D597
S2140055F0738B5B0751D5637A012B08D01E223823A4
S214005600E254353B6372023333753B0741D4B36AC9
S21400561004237383AB0715D56379002B0ED10733AC
S2140056203375053B3376013363720023A3862386E6
S21400563038330022E254FB0600D57FE06379012B65
S21400564000D17FE02B0708D56379002B05D10833FE
S21400565033753376BB0600D58AE06DB2002D00DACE
S2140056608AE0F8BD4A4B1B88B362638E013B9BB24F
S2140056706386638E9BB2002B01D101333375637949
S214005680012BB0D086E75078000203430232E26274
S21400569090E72000A3699847B9E7637A012B27D0E3
S2140056A023689B6ADB05DB0DDAB2A16A0A70A26A80
S2140056B0511CA162A179012933D0238E013B9BB2F4
S2140056C02386238E9BB2002BA4D100223833E254CB
S2140056D0343B3375637A022B29D0637A002B00D0D3
S2140056E098E7BB0700D495E720002369984791E721
S2140056F023689B6A638E013B9BB26386638E9BB274
S214005700002B00D086E70433337500223433E2548E
S214005710353B6372FB0700D47CE72000E3689847BC
S21400572078E71B0A5370A36A0133A362C5E77B07B9
S21400573000D46FE72000636998476BE72000E369B1
S21400574098477BE7637A012B00D086E7E379002B46
S21400575000D082E70233337501336372002235339B
S214005760E254FB0700D46DE72000E368984769E73A
S2140057702000236A984770E78023337533767B06CC
S21400578000D46EE7636A200098476AE7A8080020FE
S214005790A4080020F0B5DE4657464E464546E0B51E
S2140057A087B08046049116001F00002200230021C7
S2140057B08B463F2401202100009601975C46039407
S2140057C04446059413E02024641A0500E540A846E4
S2140057D014E0009C019D121BAB415C464D462C43D9
S2140057E0A346039C45462C430394013925D3202425
S2140057F064420C19E7D40500A540A84604008C4076
S214005800A14692185B4114001D00059E4F463E407F
S214005810B446049E47463E40B246664657463E431A
S21400582003D00600264332002B00009C019D9D42BB
S214005830DBD8CED19442D8D8CBE7039B5846190084
S21400584007B03CBC90469946A246AB46F0BD10B5A4
S214005850490840230024814202D2180010BD1C00D3
S214005860091A631C9BB28842F9D94023FF2CF4D84E
S21400587014800023F1E70000F0B583B00F00160097
S21400588008AA117804004C434022BC4202D91000FA
S21400589003B0F0BD002B14D1020008000021194C03
S2140058A0A04701003A0000230020174CA047002222
S2140058B00123121A8B41120C1B041A433280002259
S2140058C0E5E70022012BF9D10A00002300210D4C48
