S00B0000636C692E73726563E1
S113000088230020B1320000AD320000AD32000080
S113001000000000000000000000000000000000DC
S1130020000000000000000000000000AD320000ED
S11300300000000000000000AD320000AD320000FE
S1130040AD320000AD320000AD320000AD32000030
S1130050AD320000AD320000AD320000AD32000020
S1130060AD320000812B0000912B0000A12B000079
S1130070B12B0000C12B0000D12B0000DD0B0000D0
S1130080ED0B0000FD0B0000AD320000AD320000AE
S1130090AD3200000000000000000000AD3200009E
S11300A0AD320000AD320000AD320000AD320000D0
S11300B00000000010B5064C2378002B07D1054B37
S11300C0002B02D0044800E000BF0123237010BDC0
S11300D0DC0100200000000020980000084B10B54F
S11300E0002B03D00749084800E000BF0748036815
S11300F0002B00D110BD064B002BFBD09847F9E72D
S113010000000000E001002020980000209800007A
S11301100000000070B582B005000E0000226B469E
S1130120DA80064C6B46991D2800A0470028F9D1B7
S11301306B4606331B88337002B070BD4124000047
S113014070B505008CB2034E21002800B04700288A
S1130150FAD170BD15240000F0B591B08023DB0501
S1130160009300230193FF2269460A8100228B72C7
S1130170CB72012424216846445401314454013192
S11301804354013143540A930531435401314354D8
S113019005930382C376027602774276132383762D
S11301A04277E1235B020893C4239B030393012357
S11301B05B420C930D93174B0E93174B0F93174DF4
S11301C0174B1D60174A184B1A60184A184B1A60CF
S11301D06A4618492800184B9847184F3B68986896
S11301E00021174EB0473B6858680021B0472E687D
S11301F03000144B98471F2318408440124B1C6056
S11302002A68D369002BFCD133680222134333607C
S113021011B0F0BD03002A0003002B00E40200200B
S113022070020020410100006C0200201501000052
S11302306802002000180042D12000000C000020B9
S113024065420000512B000000E100E010B58EB0C3
S113025001AA642301931F4B53600023936013731B
S1130260137680218903116101214942D18291824F
S1130270253153549362083153540131535401319D
S11302805354D7331386144BD361144B136214495C
S11302901448154B9847002816D1124B1A680721A9
S11302A0D3691942FCD1136802210B4313600D4B2F
S11302B0DC8800231020518B014208D10133A34272
S11302C0F9D31023538302E00848094B98470EB032
S11302D010BDC046480D00000200160002001700C1
S11302E00014004244020020190C0000FC880000A5
S11302F02D42000000B585B0022203AB1A7001281C
S113030003D0022821D005B000BD042301291ED04A
S113031000291FD00229F6D103AA10210B435370E0
S1130320002393704021684601803D394180019249
S113033003724372837269460848094B9847002840
S1130340E1D00848084B9847DDE70023DEE70122A7
S11303501343E1E702221343DEE7C04644020020D0
S1130360051200008C8900002D42000030B587B0D2
S1130370040013236B44187001A940220A803F3AF9
S11303804A804B6000230B724B728B721248134BE2
S11303909847002806D021001148124B984712486C
S11303A007B030BD01AD05AB029302236B80192069
S11303B00E4B9847290008480D4B9847002805D153
S11303C005AA13781B0250781843E9E7210009486D
S11303D0044B98470448E3E7440200201912000044
S11303E02489000039410000FFFF00004D2C00006B
S11303F0F11100005C89000010B5FE20014B984704
S113040010BDC0466D03000010B5FF20014B984796
S113041010BDC0466D03000010B50120054B984780
S1130420054B9847054C0022054BA0470022054B7D
S1130430A04710BD6D03000099860000417A0000BA
S11304400000F03E0000594010B50020074B9847CB
S1130450074B9847074C0022074BA0470022074B45
S1130460A0470022064B074CA04710BD6D030000B7
S113047099860000417A00000000F03E00A064402C
S113048000004440417F000030B58FB0040001AA51
S1130490642301931F4B53600023936013731376FB
S11304A080218903116101214942D1829182253140
S11304B0535493620831535401315354013153540A
S11304C0D7331386144BD361144B13621449154864
S11304D0154B9847002819D1124B1A680721D36984
S11304E01942FCD1136802210B4313600D4BDD88C4
S11304F000231020518B014204D10133AB42F9D3C4
S113050010235383094B1C700FB030BD0848094BAE
S11305109847F9E7480D00000200080002000900AE
S11305200008004250020020190C0000F8010020CD
S1130530B08900002D42000000B585B00E236B4445
S11305401870184A127869460A8001224A80019379
S113055000230B724B728B721348144B984700287C
S113056008D00E236B4419781148124B9847FF208A
S113057005B000BD0F236B44019301236A465380E9
S1130580694609480C4B9847002803D10F236B4454
S11305901878EDE70E236B4419780848054B984703
S11305A0FF20E5E7F80100205002002005120000BA
S11305B0D889000039410000F11100005C89000075
S11305C000B585B003AB187059700B4A12786946B0
S11305D00A8002224A80019300230B724B728B72B1
S11305E00648074B9847002801D105B000BD03A970
S11305F00448054B9847F8E7F80100205002002012
S113060019120000D88900003941000010B50221F8
S113061001438120014B984710BDC046C10500002D
S113062010B503218020034B98471020024B9847B4
S113063010BDC046C10500000D06000010B5002124
S11306408020014B984710BDC105000070B594206F
S1130650FF30064B98478C20054CA04705008D20A1
S1130660A0470002284380B270BDC0464D2C000054
S11306703905000070B59420FF30064B98478E2052
S1130680054CA04705008F20A0470002284380B2F4
S113069070BDC0464D2C00003905000070B5264BD6
S11306A098470400254B98470500002C1BD0800276
S11306B02100234B984701304008402820D9802846
S11306C023D9C02825D980235B00984224D9383304
S11306D0984225D96233984227D91A4B984227D990
S11306E00023002003E0DF235B00F9204000604387
S11306F080229201944660445D43401B800B70BD90
S1130700DF235B00F9204000F1E70F4B85208000D8
S1130710EDE70E4B0E48EAE70E4B9C208000E6E71F
S1130720FE235B007020FF30E1E7FB23D220DEE7ED
S113073012231820DBE7C0464D06000075060000B2
S1130740A16300009A020000D10200007B030000B4
S11307503F020000FE03000010B5002200230270D7
S1130760427000214280017103760262C26182609C
S11307700373C0246401C481037443748374C37415
S113078003752A24035543758375063C0355C284B7
S11307900285C1752B23C1540133C15410BD00001F
S11307A0F0B5D6464F464646C0B596B0070016008B
S11307B00160CB4A106A80235B02034313620B7807
S11307C00520DB0705D516B01CBC90469946A24609
S11307D0F0BD0B7817309B07F5D473783B71002B71
S11307E004D1C04A136C04210B4313643B6898463C
S11307F033786A46137069461E20BB4B98471E2007
S1130800BA4B98472C23F25C002A54D0013BF55C88
S1130810337BEB18DBB2D118C9B28B4221D2521907
S1130820D3B29946B24B9A4603E00135EDB2A945DD
S113083017D00F242C40337BE4185022AD4902A872
S1130840D047132CF1D8A40002ABE05801A900232F
S11308504B70CB708B7001330B70C0B2A64B9847B2
S1130860E3E7F4895022A34902A8A14B9847132C2B
S113087013D9737D9B00DBB242461370B37DDB0159
S113088072781343DBB2424653703379342B00D968
S113089078E19B00994AD3589F46A40002ABE058E4
S11308A001A900234B70CB708B7001330B70C0B265
S11308B0914B9847DDE7347B50228E4902A88C4B3C
S11308C09847132C15D9F48950228A4902A8884BD9
S11308D09847132CCDD8A40002ABE05801A90023FB
S11308E04B70CB708B7001330B70C0B2824B984746
S11308F0BFE7A40002ABE05801A900234B70CB7002
S11309008B7001330B70C0B27B4B9847DBE7042339
S1130910102402211AE0717C337C102416E0062393
S11309201024012112E00823102400210EE00023EA
S1130930302400210AE000232024002106E00023C3
S11309400024002102E00223102401210901702265
S11309500A40134342469370F37D17203F2B00D97E
S113096031E7D3703A68537E5BB2002BFBDBF37C38
S1130970728813432422B25CD2001343327D920066
S11309801343B27C52001343234342469380337E85
S1130990002B20D0102C00D1D6E000D880E0202CF1
S11309A000D1B3E0302C16D1F27C002A0AD0F269CF
S11309B080321720FF2A00D905E7326A8032FF2AE5
S11309C000D900E71720F269FF2A00DDFBE6326A4E
S11309D0FF2A00DDF7E639684A7E52B2002AFBDBC3
S11309E0424613723A68537E5BB2002BFBDBB38B37
S11309F0424693833A68537E5BB2002BFBDB338C15
S1130A00424613842C23F35C002B05D0013BDBB25C
S1130A1017200F2B00D9D6E62B22B15C17200F2903
S1130A2000D9D0E63868427E52B2002AFBDBF28954
S1130A30307B0243B068024309050A431B04134395
S1130A40424613612A23F35C13750F239375153300
S1130A50F35C002B12D0F38C294A1720934200D95F
S1130A60B1E642469384328D80231B01D318244976
S1130A709BB28B4200D9A6E64346DA84214B1B681D
S1130A805B01E022D20013401F4A516849011268F9
S1130A90D20E0A43D2B2134342461385002092E693
S1130AA0002C98D1F27C002A0FD0F2698021090130
S1130AB08C466244124917208A4200D983E6326A7E
S1130AC062440F498A4200D97DE60D4A1720F16934
S1130AD0914200DD77E6316A914200DD73E67AE700
S1130AE0000400400008004055310000C9300000F7
S1130AF0E5360000E48A00004D320000108A000050
S1130B00FF0F00002460800020608000F27C002A37
S1130B100FD0F269802189008C4662441A4917205B
S1130B208A4200D94FE6326A624417498A4200D9A0
S1130B3049E6154A1720F169914200DD43E6316A1E
S1130B40914200DD3FE646E7F27C002A0FD0F269CD
S1130B50802109028C4662440C4917208A4200D93C
S1130B6031E6326A624409498A4200D92BE6074ACF
S1130B701720F169914200DD25E6316A914200DDDA
S1130B8021E628E717201EE6FF030000FFFF000010
S1130B90F0B5C64600B580000E4BC7583B68DE6A08
S1130BA0BB6B7A6B13401E4000240B4B984602E04B
S1130BB00434302C0AD04346E5583542F8D03B196A
S1130BC05B68380098473B68DD62F1E704BC9046F7
S1130BD0F0BDC0465C020020348B000010B500203C
S1130BE0014B984710BDC046910B000010B5012081
S1130BF0014B984710BDC046910B000010B5022070
S1130C00014B984710BDC046910B000001680722B4
S1130C10CB691A42FCD17047F0B5D6464F464646DA
S1130C20C0B58AB006000F00140031600800974B6D
S1130C309847974A116A851C0123AB400B43136202
S1130C4009A9237B0B701430C5B22800914B984737
S1130C502800914B9847207B0021904B98473B6894
S1130C601C209B0705D50AB01CBC90469946A24699
S1130C70F0BD3B681738DB07F5D414233B603368B9
S1130C8098461800814B98470500802308AA1370E2
S1130C9000235370012208A98A70CB70E069276A87
S1130CA0002800D1AFE008AB1870022308AA5370E3
S1130CB0000CC0B211007A4B9847002F00D1A7E076
S1130CC008AB1F70022308AA53703F0CF8B211003E
S1130CD0734B9847A38AF380E38A3381237E80226F
S1130CE0002B04D16F4B9B789B07DB0FDA01A168C3
S1130CF023690B4313432422A25C002A02D08022DE
S1130D00D2051343A26A13432C22A25C002A03D106
S1130D1080229204914202D18022120513432D2293
S1130D20A25C002A02D08022120413432E22A25C69
S1130D30002A02D08022D20313434246126813438E
S1130D404246136080235B00536028001430C0B215
S1130D50554B98470790FA239B0022685A439146C3
S1130D6063689A46514DA847009001914B4658003C
S1130D70A84702900391208EA847049005914C4FF8
S1130D804C4A4D4B00980199B84702000B00049857
S1130D900599B847494E0022494BB0470490059144
S1130DA04846A84702000B0004980599B84702007A
S1130DB00B00444D00980199A847029A039BB04741
S1130DC00022414BA847029A039B404DA847404B41
S1130DD09847050080239B04A2689A421ED0030012
S1130DE04020FF2D00D93EE700240020FF251D40B0
S1130DF0240625430004FF231B04184005434346EF
S1130E00DD6000202FE700214046324B98474AE737
S1130E10012140462F4B9847070051E7FA26B600B8
S1130E2053465E430098019902000B00234CA047EF
S1130E300090019130001D4B98470022264BB84783
S1130E4002000B0000980199204CA04700221E4B81
S1130E501C4CA0471E4B9847041E0CD03100079829
S1130E601E4B98470238001B2B00FF2D0CD8FF287F
S1130E70BCD94020F7E67100481E079B9C4660449D
S1130E80164B98470138EFE74020ECE6D92A0000DA
S1130E900004004055310000C9300000152900004D
S1130EA04D3200000020004171310000998600009D
S1130EB0417A000095D626E80B2E113EB96B00004E
S1130EC000002440417F00000000F03FD971000081
S1130ED0AD85000061290000000008408D6200001B
S1130EE003681A7E920707D502221A765B8B9B074A
S1130EF04120DB17184070475A8B520706D55968B2
S1130F00C02292020A435A601820F4E70020F2E754
S1130F1030B50268002301240225117E21420BD141
S1130F20117E294206D101339BB201899942F4D83A
S1130F30122002E0002000E0002030BD10B504685B
S1130F4062688023DB02134363606162024B98474B
S1130F500123237610BDC046110F0000F0B5DE4614
S1130F6057464E464546E0B583B0060089460568B7
S1130F704C882B681B01DB0F9A464B7A002B2BD134
S1130F806B68584A13406B604B461B7A002B27D181
S1130F904B461B885B004A46527A92031343012254
S1130FA013436B623000504B984701905346002B1B
S1130FB003D04B465B88012B3BD06B68494A1340F6
S1130FC06B60019B002B3AD0019803B03CBC904667
S1130FD09946A246AB46F0BD897A444B9847CFE781
S1130FE04B461B885B004A46527A92031343802285
S1130FF0120213436B6230003B4B984701906B68BD
S1131000384A13406B600028DED13000384B9847D3
S113101001900028D8D14B461B881B0A7822134321
S11310205B004A46527A920301210A4313436B62DE
S1131030B8E76A688023DB0213436B60C1E73000C2
S11310402B4B984701900028BED1013CA4B28046A6
S1131050284B9B4615E0012C20D03000264B9847A6
S113106043465F1CBFB22823EB5C4A4652684146A4
S1131070535430001C4B9847013CA4B2002815D1AE
S1131080B8465C4514D06B8B9B0627D5F37A002BAE
S1131090E3D05346002BDED1002CDED16A688023D6
S11310A0DB0213436B60013CA4B2EAE7B84601904B
S11310B0B37A002B09D130000F4B98472823EA5C00
S11310C04B465B6841465A547EE730000A4B9847CA
S11310D06A68C0239B0213436B60ECE741230193CE
S11310E072E7C046FFFFFBFF110F00003D0F000039
S11310F0E10E0000FFFF00000D0C0000F0B5DE461D
S113110057464E464546E0B583B006000F000568D5
S11311104C88324B98477B7A002B1DD16B68304A40
S113112013406B603B7A002B1BD03B885B007A7AC0
S1131130920313438022120213436B623000294B43
S113114098470190002813D0019803B03CBC904606
S11311509946A246AB46F0BDB97A3000224B984777
S1131160DCE73B885B007A7A920313436B62E5E722
S113117030001E4B9847031E0190E5D1A046002481
S113118020339946154B9B46164B9A46444515D039
S11311906B8B4A4613421DD03000D8477B681A5DDA
S11311A02823EA543000D047002806D16B8B013441
S11311B05B07EBD51E23019300E00190B37A002B6B
S11311C0C2D03000054B98476A68C0239B02134382
S11311D06B60B9E741230193B6E7C0460D0C0000EC
S11311E0FFFFFBFF110F00003D0F0000E10E0000A8
S11311F010B501238372C372014B984710BDC046DA
S11312005D0F000010B501238372C372014B984730
S113121010BDC046FD10000010B5002383720133D9
S1131220C372014B984710BDFD10000010B504684F
S1131230034B98476268C0239B021343636010BD4D
S11312400D0C0000F0B5C64600B50C009046002811
S11312500FD1002A11DD8F18094E0A4D3068210084
S11312602B6898470134BC42F8D1404604BC9046F0
S1131270F0BD01235B429846F7E78046F5E7C04698
S11312807002002068020020F0B5C64600B50E00CA
S113129015000138022810D8002A11D000240C4B64
S11312A098460C4F43461868315D3B6898470028C0
S11312B008DB0134A542F5D106E00124644203E0D1
S11312C0140001E001246442200004BC9046F0BDF7
S11312D0700200206C02002030B583B00C0061283D
S11312E006D0622813D001256D42280003B030BD1A
S11312F0082914D0092914D003230093013B09229F
S113130008210E480E4DA84701256D4201E0012534
S11313106D42022C0FD0032C04D12325E5E70D00E8
S1131320F7E70D0003230093013B0922082103483A
S1131330034CA047D9E72225D7E7C0461C8C000000
S11313403941000010B50248024B984710BDC04611
S1131350848C00002D42000010B502490248034B62
S1131360984710BD309300003893000039410000C5
S113137010B502490248034B984710BD3093000052
S1131380389300003941000010B50248024B9847D9
S113139010BDC046D49100002D42000010B5024893
S11313A0024B984710BDC046C09100002D4200007A
S11313B0F0B589B005AA002313725372937202AA7E
S11313C0012151800393137253729372002405AD6B
S11313D00027234E05E02248224B98470134802CF5
S11313E018D0A3B22B8002AA13806F806B4605220B
S11313F0DA7107336B60290030001B4B98470028D3
S1131400E9D102A91648194B984721001848194BED
S11314109847E0E71848194B98470026184C124F94
S1131420250005E016480F4B98470136802E11D051
S1131430B3B205A90B8002AA13802000B847002884
S1131440F0D102A92800094B984731000848094BFC
S11314509847E7E70B48094B984709B0F0BDC046E9
S1131460500200202D12000019120000F11100009A
S1131470708F000039410000888F00002D42000069
S1131480440200209C8F000010B501000148024B6B
S1131490984710BD689200003941000010B5130050
S11314A00A0001000148024CA04710BDFC91000055
S11314B03941000010B58CB004006846114B9847C0
S11314C06B461C7301236A46537080239B00538030
S11314D00D4C0E4920000E4B98472268537E5BB298
S11314E0002BFBDB0F2393751376137802210B4338
S11314F01370054B1A68537E5BB2002BFBDB0CB0F8
S113150010BDC04659070000B4020020004000424C
S1131510A107000030B583B0612826D1022914D177
S113152000203E4B98473E4B19684B7E5BB2002B24
S1131530FBDB0B7B022213430B734B7E5BB2002B52
S1131540FBDB01200425022422E0364B984762236A
S1131550C25C5F3B1340022B05D06121022232485A
S1131560324B98470EE04121F8E72E4B984762230F
S1131570C25C5F3B1340022B06D0612102222C483F
S11315802A4B984703B030BD4121F7E710420AD1F6
S11315900B7EDBB202001A401D4200D022431C42E3
S11315A0F4D02A43F2E74B7E5BB2002BFBDB488B83
S11315B080B201230B760A7ED2B21340540701D5C0
S11315C002242343920701D5042213435B0701D568
S11315D002230B76174B98470022174B174CA04752
S11315E0174A184B184CA047184B9847041C0D4B2E
S11315F098476223C25C5F3B1340022B0BD06125EA
S1131600201C134B98470090019100222900114897
S1131610064B9847B6E74125F2E7C046B5140000EB
S1131620B402002091360000648B000039410000B0
S1131630B48B00001586000000FEAF40D971000095
S1131640666666666666FA3F417A0000AD8700000A
S113165009870000048C0000F8B51820344B984723
S1131660344B19684B7E5BB2002BFBDB0B7B0222F5
S113167013430B734B7E5BB2002BFBDB0120042571
S1131680022401E010420AD10B7EDBB202001A40B0
S11316901D4200D022431C42F4D02A43F2E74B7E81
S11316A05BB2002BFBDB4C8BA4B201230B760A7ECE
S11316B0D2B21340500701D502200343920701D54B
S11316C0042213435B0701D502230B7623B2002BBC
S11316D018DB2006000F184DA8470022174B184EA0
S11316E0B04706000F00200AA84702000B00300094
S11316F03900144CA047144B984701001348144B6D
S11317009847F8BD6442A4B2200A40420A4DA84753
S113171006000F002406200FA8470022074B084CA0
S1131720A04702000B00300039000A4CA047E2E752
S1131730B5140000B4020020158600000000E03F4C
S1131740417A0000B96B0000AD850000E49100000F
S113175039410000417F000000B583B001A9012395
S11317604B7000228A700B70C0B2024B984703B0D2
S113177000BDC046792C000010B50D4B98470400FD
S1131780431C13D00B4B9847E2B20023210604D428
S11317905309DB0108498C4663441F21114001228F
S11317A08A409A6121000548054B984710BDC04600
S11317B0D91200005917000000440041708C000049
S11317C03941000010B50D4B98470400431C13D059
S11317D00B4B9847E2B20023210604D45309DB01E2
S11317E008498C4663441F21114001228A405A61F2
S11317F021000548054B984710BDC046D91200008A
S11318005917000000440041488C00003941000091
S113181070B51120264B984780229202254B9A617D
S1131820FA204000244B9847244B19684B7E5BB246
S1131830002BFBDB0B7B022213430B734B7E5BB24F
S1131840002BFBDB01200425022401E010420AD115
S11318500B7EDBB202001A401D4200D022431C4220
S1131860F4D02A43F2E74B7E5BB2002BFBDB488BC0
S113187080B201230B760A7ED2B21340540701D5FD
S113188002242343920701D5042213435B0701D5A5
S113189002230B7680229202064B5A61084B98472A
S11318A00849094B98470949094B984770BDC046F8
S11318B059170000004400414D2C0000B4020020E0
S11318C0196B000000F07F45496600000000C84223
S11318D0D9680000D0B582B0040001001A481B4B3F
S11318E0984700280DD021001948184B9847002824
S11318F012D021001748154B984700281AD002B07F
S1131900D0BD154B9847154B984701001448154B0B
S11319109847154B9847E6E7144B984706000F0085
S1131920134B98470090019132003B0011480D4938
S11319308847DEE7104B9847104B984702000B008E
S11319400F4808498847DAE7B4920000D143000001
S11319500890000004930000210600009D0600008A
S1131960B8920000394100003D060000490400001F
S113197019040000CC92000011180000098700002F
S11319801093000000B583B001A900230B7001225D
S11319904A708B70C0B2024B984703B000BDC0467A
S11319A0792C000010B50D4B984704000C4B984758
S11319B0E0B20023220604D44309DB01094A944619
S11319C063441A6A1F21014001238B401A40531EAD
S11319D09A4121000448054B984710BDD9120000D4
S11319E085190000004400415C8C0000394100006E
S11319F010B51520034B984780229203024B9A613D
S1131A0010BDC046591700000044004110B5152010
S1131A10034B984780229203024B5A6110BDC04683
S1131A20591700000044004110B50320024B9847A9
S1131A300822024B9A6110BD59170000004400416E
S1131A4010B50320024B98470822024B5A6110BD7F
S1131A50591700000044004110B51420034B984767
S1131A6080225203024B9A6110BDC04659170000F0
S1131A700044004110B51420034B984780225203C0
S1131A80024B5A6110BDC046591700000044004182
S1131A9010B52220024B98470422024B9A6110BDD4
S1131AA0591700008044004110B52220024B98478A
S1131AB00422024B5A6110BD5917000080440041B2
S1131AC010B52320024B98470822024B9A6110BD9F
S1131AD0591700008044004110B52320024B984759
S1131AE00822024B5A6110BD59170000804400417E
S1131AF010B53720034B984780221204024B9A6199
S1131B0010BDC046591700008044004110B537206D
S1131B10034B984780221204024B5A6110BDC04601
S1131B20591700008044004110B50400064B984743
S1131B30002C05D10120054B9847054B984710BD53
S1131B402000044B9847F8E7F11A0000212C00000C
S1131B500D1B00004D2C000070B505000E000C6834
S1131B602100BC48BC4B984700280AD1012D05D060
S1131B702A000121B748B94B984770BDB84B984724
S1131B80FBE72100B748B44B984700280AD1012D40
S1131B9005D02A000121B348B04B9847EDE7B24B7A
S1131BA09847EAE72100B148AB4B984700280AD18F
S1131BB0012D05D02A000121AC48A84B9847DCE749
S1131BC0AB4B9847D9E72100AA48A34B9847002874
S1131BD01ED1032D05D02A000321A6489F4B984708
S1131BE0CBE773681D78B068A34B98470400A34BF8
S1131BF09847B3681B78C01843785B0704D5210065
S1131C0028009F4B9847B8E79A489E4B9847B4E7FB
S1131C1021009D48904B984700281ED1032D05D0E4
S1131C202A00032198488D4B9847A6E773681D78CE
S1131C30B068914B98470400904B9847B3681B7861
S1131C40C01843785B0704D5210028008F4B9847C0
S1131C5093E78D488B4B98478FE721008C487E4B48
S1131C60984700281ED1032D05D02A000321884857
S1131C707A4B984781E773681D78B0687E4B984724
S1131C8004007E4B9847B3681B78C01843785B0701
S1131C9004D5210028007F4B98476EE77C48794B98
S1131CA098476AE721007C486B4B984700280AD183
S1131CB0012D05D02A0001217748684B98475CE73D
S1131CC0764B984759E721007548634B984700289D
S1131CD00AD1012D05D02A00012171485F4B984794
S1131CE04BE7704B984748E721006F485A4B984799
S1131CF0002828D1042D05D02A0004216A48574B16
S1131D0098473AE7B0685C4DA8470400F068A847D4
S1131D1005005A4B9847B3681B78C01843785B0793
S1131D2007D5564B9847F3681B78C01843785B0770
S1131D3003D45D48534B98471FE72A00210070687D
S1131D405A4B984719E721005948434B98470028B4
S1131D501ED1032D05D02A00032155483F4B984737
S1131D600BE773681D78B068434B98470400434BF6
S1131D709847B3681B78C01843785B0704D52100E3
S1131D8028004C4B9847F8E649483E4B9847F4E600
S1131D9021004948304B984700280AD1012D05D02D
S1131DA02A00012144482D4B9847E6E6434B9847C7
S1131DB0E3E621004248284B984700280DD1012D25
S1131DC005D02A0001213E48244B9847D5E63D48DA
S1131DD03D4B98473D4B9847CFE621003C481E4B6E
S1131DE0984700280DD1012D05D02A00012138483B
S1131DF01A4B9847C1E63748334B9847364B9847B8
S1131E00BBE621003548144B984700280DD1012D1D
S1131E1005D02A0001213148104B9847ADE63048DF
S1131E20294B98472F4B9847A7E621002E480A4B89
S1131E30984700285ED1012D05D02A0001212A48A7
S1131E40064B984799E629481F4B9847284B9847D3
S1131E5093E6C046B08F0000D14300009D140000FB
S1131E6045130000B88F000059130000C08F000014
S1131E7071130000C88F0000353600009136000051
S1131E807917000089140000D48F0000C5170000E2
S1131E90E08F0000A5190000EC8F000089130000FA
S1131EA0F08F00009D130000F48F0000D51800008F
S1131EB0FC8F000015150000049000005916000066
S1131EC0109000001C9000002D420000B11300008F
S1131ED0309000003C900000911A000054900000E3
S1131EE060900000A91A000078900000849000001F
S1131EF0C11A000021005848584B984700280DD1BA
S1131F00012D05D02A0001215348554B984734E64A
S1131F105448554B9847554B98472EE62100544852
S1131F204E4B984700280DD1012D05D02A000121E0
S1131F304F484B4B984720E64E484B4B98474E4BE7
S1131F4098471AE621004D48444B984700280DD184
S1131F50012D05D02A0001214848414B98470CE641
S1131F604748414B9847474B984706E62100464867
S1131F703A4B984700280DD1012D05D02A000121A4
S1131F804148374B9847F8E54048374B9847404B12
S1131F909847F2E521003F48304B984700280DD17F
S1131FA0012D05D02A0001213A482D4B9847E4E53C
S1131FB039482D4B9847394B9847DEE5210038487E
S1131FC0264B984700280DD1012D05D02A00012168
S1131FD03348234B9847D0E53248234B9847324B3C
S1131FE09847CAE5210031481C4B984700280DD179
S1131FF0012D05D02A0001212C48194B9847BCE536
S11320002B48194B98472B4B9847B6E521002A4893
S1132010124B984700281BD1022D05D02A0002211B
S113202025480F4B9847A8E57068244B984704004F
S1132030234B984773681B78C01843785B0703D514
S11320402000204B984798E51B481F4B984794E580
S11320501E48054B984790E59C900000D143000032
S11320609D140000A89000002D420000D91A000021
S1132070C0900000CC900000591A0000E8900000C5
S1132080F4900000751A00001091000018910000EF
S1132090F11900002C910000389100000D1A000085
S11320A04C91000054910000291A0000689100002E
S11320B074910000411A0000889100003536000038
S11320C091360000291B000089140000949100003F
S11320D0F0B5DE4657464E464546E0B591B005009C
S11320E00C00160029600800BC4B984702002368C6
S11320F00520DB0706D511B03CBC90469946A246A4
S1132100AB46F0BD236817309B07F4D4B449086A82
S1132110971C0123BB4003430B620FA92D27F35DDA
S11321200B701432D3B202931800AE4B9847029846
S1132130AD4B9847F05D0021AC4B9847F37A6B7137
S11321402423F35CAB712523F35CEB71F37E2B72D8
S1132150337F6B722B6898461800A04B9847143055
S113216000220E2306A98C4663441A80328A029206
S11321708023DB019A4200D19EE00FD9C023DB010A
S1132180029A9A4200D192E080231B029A4200D024
S11321901FE1032306930023079308E080239B0198
S11321A09A4200D015E1102306930F3B079333683E
S11321B00593F368039373690493337E9B46262344
S11321C0F35C9A4673689946002B00D1A0E0802303
S11321D05B05994500D184E0737E002B02D0B37E69
S11321E0424693732A68029FD369002BFCD10E33B5
S11321F006AA944663441B8842469381059B039A2E
S11322001343049A13434A4613431F435B461B027A
S11322101F4353465B071F432723F35C002B01D165
S113222004331F43737E9B02327F52021343727F37
S1132230120213432422B25C520413432522B25CDB
S113224012041343B17AF27A114319433389FF2BF1
S113225000D181E080225204174319432C23F35CFC
S1132260002B03D1624B9B789B0701D580231F432E
S11322702A68D369002BFCD1434659602A68D36984
S1132280002BFCD143461F600EAB80221A70002243
S11322905A70DA709A70336B0A93736B0B93B36B47
S11322A00C93F36B02930D9300270AAE63E00823AB
S11322B00693073B07937AE733680593F368039320
S11322C073690493337E9B462623F35C9A467368B2
S11322D09946002B18D080235B05994501D0002036
S11322E025E02723F35C002B00D075E7336A1F0039
S11322F0C0B2404B984701000E2206AB9C46624494
S113230038003D4B984712E00823069300230793B7
S11323102723F35C002B0ED0069B0093079B0E2211
S113232006A98C466244B16A306A344FB847002823
S113233000D0E0E650E7336A1F00C0B22D4B984747
S11323400100069B0093079B0E2206A88446624464
S113235038002A4FB847EAE7F37E002B00D17DE727
S11323608023DB041F4379E72000254B984707E0CF
S11323700137042F0DD0F9B2BB0098590028F3D0CF
S1132380431CF5D00EA90870000CC0B21D4B984731
S1132390EEE70023EB602B616B61AB61EB612B62B9
S11323A0AB626B620022EB85AB853033EA540133B8
S11323B0EA540133EA540133EA542868074B984736
S11323C004001149114B9847A400114BE55000201B
S11323D091E61023069300230793E8E6D92A000028
S11323E00004004055310000C930000015290000E8
S11323F000200041713100005728000081280000AE
S1132400612900004D32000009260000152B000050
S1132410BC020020C2791C23002A01D11800704795
S1132420C28D92B2173B002AF8D10368DA69002AF8
S1132430FCD1198502211A7E0A42FCD00023EDE763
S113244082791C23002A01D118007047828D92B230
S1132450173B002AF8D10268107E4007F4D5D369EF
S1132460002BFCD1538BDBB298061DD0980703D503
S1132470022353831833E7E7580703D50423538310
S11324801A33E1E7D80703D5012353831233DBE77B
S1132490D80603D5102353833233D5E79B0603D5DF
S11324A0202353832133CFE7138D0B800023CBE705
S11324B0F0B5CE46474680B583B00500019117209C
S11324C0002A04D103B00CBC90469946F0BDEB79C8
S11324D00530002BF6D02C68E369002BFCD1013ABF
S11324E093B29946002601271F4B984611E0731CAE
S11324F09BB2019A915D6A79012A17D089B21E00B4
S113250028001A4B98474B46013B9BB299464345DA
S113251013D0237E3B42EAD1134B227E3A42E6D1CA
S1132520012B19D0013B002BF7D1E0E70236B6B2FC
S1132530019AD35C1B021943E2E7237E9B070DD467
S1132540094B0221227E0A420AD1012B0AD0013B07
S1132550002BF7D10020B5E71220B3E70020B1E744
S11325600020AFE71220ADE7FFFF000015240000B4
S1132570F0B5D64600B584B0040001911720002AB6
S113258003D104B004BC9246F0BDA3790530002BFE
S1132590F7D02668013A93B29A460025042719E039
S11325A0002302AAD380911D2000154B98470028D0
S11325B0E7D1691C89B202ABDB88019A5355627971
S11325C0012A14D00D005346013B9BB29A460D4B91
S11325D09A45D6D0337E3B42E2D10A4B327E3A4210
S11325E0DED1012B09D0013B002BF7D1D8E702350E
S11325F0ADB21B0A019A5354E5E71220C1E7C04665
S113260041240000FFFF0000F8B58000624BC5586C
S11326102C68E369002BFCD1237EA67D1E40302369
S1132620EB5C3122AF5C1F40F30722D5EB8D9BB2EC
S1132630002B1CD0AA6A1378DBB2511CA9626979F9
S113264001290ED09BB2DB05DB0D2385EB8D013B0D
S11326509BB2EB85002B0CD1013323750133A37599
S113266007E0517809020B430232AA62EBE7012327
S11326702375B30706D50223237500223133EA54A8
S1132680FB071AD4730765D5AB8D9BB2002B5FD0C3
S1132690638BDBB21A0714D43F221340002B34D0CF
S11326A09A0711D51A223223EA54303B63837B07FD
S11326B050D528006B6998474CE02800EB68984790
S11326C0E0E737221340E9E75A0705D51E223223F3
S11326D0EA542E3B6383EAE7DA0705D51322322353
S11326E0EA54313B6383E2E7DA0605D5422232231A
S11326F0EA54223B6383DAE720221A42D7D02132FC
S11327003223EA54123B6383D1E7238DDB05DB0DCF
S1132710DAB2696A0A706A6A511C696269790129C4
S113272010D0AB8D013B9BB2AB85002B12D104338F
S1132730237500222E33EA54BB070BD528002B69DE
S1132740984707E01B0A53706B6A01336B62E8E732
S113275004232375F30604D5102323752376FB067F
S11327600ED4B30604D52023237523763B070BD45C
S1132770330704D5082323752376BB0608D4F8BD94
S11327802800EB699847ECE72800AB699847EFE726
S11327902B6A28009847F2E7BC020020F0B5DE4619
S11327A057464E464546E0B587B08046049116002C
S11327B01F000022002300218B463F24012021001A
S11327C0009601975C4603944446059413E0202444
S11327D0641A0500E540A84614E0009C019D121B04
S11327E0AB415C464D462C43A346039C45462C43D3
S11327F00394013925D3202464420C19E7D405003D
S1132800A540A84604008C40A14692185B411400E0
S11328101D00059E4F463E40B446049E47463E403A
S1132820B246664657463E4303D00600264332006E
S11328302B00009C019D9D42DBD8CED19442D8D878
S1132840CBE7039B5846190007B03CBC9046994619
S1132850A246AB46F0BD10B549084023002481428E
S113286002D2180010BD1C00091A631C9BB28842D6
S1132870F9D94023FF2CF4D814800023F1E7000099
S1132880F0B583B00F00160008AA117804004C4379
S11328904022BC4202D9100003B0F0BD002B14D179
S11328A0020008000021194CA04701003A0000234F
S11328B00020174CA04700220123121A8B41120C4E
S11328C01B041A4332800022E5E70022012BF9D1D0
S11328D00A00002300210D4CA04702000B000092C7
S11328E00193380000210A4CA047050080239B0176
S11328F040229842CFD8790FF800009A019BA04754
S1132900EA00821AD2B252032A43DBE7F5650000DB
S11329109D27000010B582B004000E4B1B78002BDD
S113292007D0002905D10B4B5B78834210D01D20C2
S11329300CE001A90C701320074B98471320074B98
S11329409847044B5C7001221A70002002B010BD3D
S11329500020FBE7FC01002055310000C9300000D5
S1132960404B984231D00AD93F4B98424DD03F4B0F
S113297098425AD03E4B984237D0002070473D4B86
S113298098420CD03C4B9842F7D1012917D000292A
S11329905DD0022915D0032915D00020EEE70129C6
S11329A007D0002951D0022905D0032905D00020E1
S11329B0E4E73248E2E73248E0E73248DEE732480B
S11329C0DCE73248DAE73248D8E7012907D00029A2
S11329D03FD0022905D0032905D00020CEE72D4899
S11329E0CCE72D48CAE72D48C8E7012907D00029BC
S11329F031D0022905D0032905D00020BEE728489C
S1132A00BCE72848BAE72848B8E7012907D00029D5
S1132A1023D0022905D0032905D00020AEE723489E
S1132A20ACE72348AAE72348A8E7012907D00029EF
S1132A3015D0022905D0032905D000209EE71E48A1
S1132A409CE71E489AE71E4898E71E4896E703202D
S1132A5094E71D4892E71D4890E71D488EE71D48FE
S1132A608CE7C0460010004200180042001C0042DF
S1132A700014004200080042000C0042030005005C
S1132A8003000600030007000300010003001E000A
S1132A9003001F000300090003000A0003000B00E9
S1132AA003001100030012000300130003000D00D3
S1132AB003000E0003000F000300170003001800BA
S1132AC003001900030004000300080003001000C1
S1132AD003000C000300160030B587B00B4B6A46A8
S1132AE032CB32C232CB32C2009B83420BD00123A1
S1132AF09A0069465258824206D00133062BF7D118
S1132B00002007B030BD0023D8B2FAE74893000094
S1132B1070470000F0B50A4B1B78002B0CD1094F0D
S1132B20094E0A4D0024DE515A1914600433182B3F
S1132B30F9D10122024B1A708000024BC150F0BD42
S1132B40FE01002000020020112B0000BC02002026
S1132B5000B583B009236A461370013353700133FF
S1132B6093700133D3700133137101335371034BE9
S1132B7098476B46185603B000BDC046D92A0000DA
S1132B8010B5024B1B680020984710BD00020020BE
S1132B9010B5024B5B680120984710BD000200206D
S1132BA010B5024B9B680220984710BD000200201C
S1132BB010B5024BDB680320984710BD00020020CB
S1132BC010B5024B1B690420984710BD0002002079
S1132BD010B5024B5B690520984710BD0002002028
S1132BE070B50020084B98470500084CFA2189006D
S1132BF0A047074B186007492800A047064B1860F8
S1132C000522064B1A6070BD3D3000008D62000045
S1132C100000002040420F000400002010E000E00B
S1132C2030B5084B1C68084A002580214902013848
S1132C3007D3002CFBD05460956013680B42FCD082
S1132C40F5E730BD0400002010E000E030B5084B8B
S1132C501C68084A002580214902013807D3002C4A
S1132C60FBD05460956013680B42FCD0F5E730BD8F
S1132C700000002010E000E000B583B001AB80222A
S1132C801A700A785A704A789A708A78DA70190039
S1132C90014B984703B000BD4D320000704700005F
S1132CA00C4B1B68002B06D1EFF31083002B07D0CD
S1132CB00022094B1A70074A1368013313607047E6
S1132CC072B6BFF35F8F0022044B1A700132024BBD
S1132CD01A70F0E7180200201C02002008000020EF
S1132CE0084B1A68013A1A601B68002B09D1064B7D
S1132CF01B78002B05D00122044B1A70BFF35F8FA1
S1132D0062B67047180200201C0200200800002050
S1132D1010B5082803D880001B4B1B589F46002081
S1132D2030E01A4B18692DE0194B1B6A9B059B0F69
S1132D301848D84026E0154B586923E0134B1B680C
S1132D4000209B071ED512491022CB681A42FCD0E2
S1132D500E4B1B685B0701D40F4813E000200F4B98
S1132D6098470A4B9B681B041B0C58430AE05023EA
S1132D70074AD35C00205B0704D5044BD86801E004
S1132D808020000210BDC046609300002002002095
S1132D900008004000127A00006CDC02713100006F
S1132DA070B50C490B6A047885784078012210408C
S1132DB080014026B34303432A40D2018020834349
S1132DC013430322224012020348034013430B62BD
S1132DD070BDC04600080040FFFCFFFF082803D870
S1132DE08000254B1B589F46172044E0234A136A52
S1132DF002210B43136200203DE0204A9369022123
S1132E000B439361002036E01C4A138A02210B43D2
S1132E10138200202FE0194A938A02210B439382E4
S1132E20002028E016490B68022213430B60134B61
S1132E309A8419000E32CB681A42FCD0104A916869
S1132E400E4BD96252689A6200229A841900103299
S1132E50CB681A42FCD00A4B1B689BB2074A938486
S1132E60002008E0054944228B5C022003438B5474
S1132E70002000E000207047849300000008004018
S1132E802002002030B585B0C222D2001A4B9A60CD
S1132E901A4A53681E218B43536001236A461370F8
S1132EA00024174DE0B26946A8470134252CF9D116
S1132EB003A800244470012585700470114B9847C1
S1132EC00620114B9847114B9847114B1C725C72AA
S1132ED09C72DC7201956B465C7006236A46137023
S1132EE014725472694600200A4B984700200A4B1A
S1132EF0984705B030BDC04600080040004000417E
S1132F0055310000A12D0000DD2D00001D2F000013
S1132F1000040040412F0000F92F0000064A936985
S1132F2008210B4393610122044B1A7019000B789A
S1132F301342FCD17047C04600040040000C00401E
S1132F4070B5060004000D782D0205434B78002B64
S1132F5002D08023DB021D434B7A002B02D0802356
S1132F601B031D434868012810D9431E184234D15D
S1132F70022830D90223002201325B009842FBD898
S1132F8012023243140080235B031D430B7A002B8F
S1132F9002D080239B031D43134A53785BB2002B5A
S1132FA0FBDB124B9847124B1E700F4A53785BB2EF
S1132FB0002BFBDB0C4B9C601A0053785BB2002B9C
S1132FC0FBDB094A5368802149020B401D435560CD
S1132FD0084B984770BD0022D2E704023443802393
S1132FE09B021D43D2E7C046000C0040A12C000008
S1132FF0080C0040E12C000010B504000B4A537883
S11330005BB2002BFBDB0A4B98470A4B1C70074A48
S113301053785BB2002BFBDB044A516880235B02CC
S11330200B435360044B984710BDC046000C00404E
S1133030A12C0000040C0040E12C000070B5040039
S11330401A4A53785BB2002BFBDB194B9847194B98
S11330501C70164A53785BB2002BFBDB134E70686E
S1133060C004C00E144B98470500124B1C707668C0
S1133070F602F60F114B1C700C4A53785BB2002B0E
S1133080FBDB0A4B9C682402240C0D4B9847002E52
S113309007D1012C07D9210028000A4B98470500C5
S11330A001E00134E540280070BDC046000C00403A
S11330B0A12C0000040C0040112D0000080C00405D
S11330C0E12C00008D62000010B50400064B984707
S11330D0064B1C70064A53888021C9010B43538058
S11330E0044B984710BDC046A12C0000020C0040C0
S11330F0000C0040E12C000010B504000F4B984771
S11331000F4B1C700F4A53881B05180F53880E4928
S11331100B40538053880D490B405380110080228B
S1133120D2014B881342FCD106494A88030206485F
S1133130024013434B80064B984710BDA12C00005E
S1133140020C0040000C0040FFF0FFFFFFBFFFFF38
S1133150E12C000010B50C7824020443024B98477C
S1133160A4B2024B5C8010BDF9300000000C00409A
S113317010B50400064B9847064B1C70064B5C8840
S11331802405240F054B98472000054B984710BD94
S1133190A12C0000020C0040000C0040E12C0000B7
S11331A03D30000030B5D378002B35D11378802B17
S11331B029D01B0680246402234354780225AC439F
S11331C006D19478002C20D18024A40223434160AA
S11331D05478013C012C1CD90D042D0CA024E405C9
S11331E02C431C4384620D0CD02424062C431C4322
S11331F08462D478002C22D15B031CD59378012BF4
S11332001ED0416117E00023D7E7C024E402234322
S1133210DDE70D4C2340DFE741600C04240CA023C0
S1133220DB05234383620C0CD0231B0623438362F8
S1133230D378002B03D15378013B012B02D930BD45
S11332408161F8E78160FAE7FFFFFBFF10B50A0030
S1133250C1090023002904D14309DB0105498C4637
S113326063441F242040012181401800024B9847E9
S113327010BDC04600440041A53100007047000065
S113328010B5054B9847054B9847054B9847054B98
S11332909847054B984710BD852E00009D2C0000D3
S11332A07D3200007D3200007D320000FEE7000028
S11332B0F8B52A4A2A4B9A4211D01A00294B9A424D
S11332C00DD2294A03339B1A9B0801339B00002229
S11332D0234822498C58845004329A42FAD1234A12
S11332E0234B9A420AD2D34321495B1803218B43CF
S11332F004339B18002102C29342FCD11D4AFF21D2
S11333001D4B8B439360FD3990235B001B4AD150C6
S11333101B4AD3780325AB4302242343D370D378C9
S11333200C27BB4308263343D370164B987B3022BB
S11333309043202210439873997BB9433143997386
S11333409A7BAA4322439A730F4A536880210B4302
S113335053600E4B98470E4B9847FEE720980000A9
S113336000000020DC01002004000020DC0100201B
S11333708803002000ED00E0000000000070004120
S11333800050004100480041004000414136000027
S1133390553500000300064A1268002A04D0044A86
S11333A01068C318136070470249014A1160F6E7B8
S11333B038020020882300200120404270478023E7
S11333C09B014B600020704701207047002070472C
S11333D000B583B001226B46D91D2F482F4B984767
S11333E06B46987106331B780020002B21D16B4665
S11333F007331B787F2B1ED06B4606331B78002BBC
S11334002DD06B4607331B780D2B31D07F2B3CD04E
S11334100A2B2DD0224A1278632A04D8501C204942
S1133420087020498B541E4B1B7800211D4AD1542F
S1133430002003B000BD1A4B1B78002BF9D06B465B
S113344006331B78002B0AD0154B1B78013BDBB2EB
S1133450134A13700021134AD1540020E9E70122D2
S11334606B46D91D0C48104B98476B465871C8E7FA
S11334700B4B1B7800210B4AD1540020002BD8D0D1
S11334800022074B1A700130D3E7054B1B78002B41
S1133490DCD10020CDE7C046E40200207125000005
S11334A0800300201C030020B1240000F8B5CE46A0
S11334B0474680B5070004682578002D16D00026FD
S11334C00C4B99460323984606E0227001363B686C
S11334D09C192578002D09D0C847401943784246E5
S11334E013402A00012BF0D12032EEE70CBC9046A9
S11334F09946F8BD9136000070B582B00E490F4868
S11335000F4B98470190002813D00E4E0E4C0F4DD0
S113351001A8B04723785A1C22709B00585901997E
S11335200B4B984704490020054B9847019000280D
S1133530EED102B070BDC046A89300001C03002069
S113354005440000AD34000018030020D40200201C
S1133550E5430000F8B5214B98470122204B1A702F
S1133560BFF35F8F62B61F4B98471F4B98473920B4
S11335701E4B98471E4B9847022102201D4B98472B
S11335801D4B984704001D4B9847020021001C481E
S11335901C4B984700241C4E1C4D1920B047285141
S11335A00434102CF9D11A481A4B98471A48154B71
S11335B098471A4C1A4EA0470028FCD031001948ED
S11335C0104FB847184B9847184D28780F49184B97
S11335D0984700232B701048B847ECE7813200006D
S11335E008000020E12B00005901000089040000BC
S11335F04D020000F502000009040000F903000078
S1133600AC93000039410000AD360000D402002024
S1133610D09300002D420000F4930000D133000049
S11336201C030020F8930000F93400001803002064
S1133630591B000010B50A22002100F0BFFF10BD85
S113364070B500260C4D0D4C641BA410A64209D184
S1133650002606F0D5F80A4D0A4C641BA410A642B5
S113366005D170BDB300EB5898470136EEE7B300BF
S1133670EB5898470136F2E70C9800000C980000CC
S11336800C98000010980000EC30006870470000AF
S1133690044B1B681B6A002B00D1034BEC331868E6
S11336A07047C0460C0000207000002010B5034B8A
S11336B00100186800F072F810BDC0460C0000202C
S11336C082B0002900D101A9101E06D0002B06D01B
S11336D013780B601078431E984102B070470220A3
S11336E04042FAE7002310B59A4200D110BDCC5CE9
S11336F0C4540133F8E703008218934200D17047A1
S113370019700133F9E7000070B50500002910D0E5
S11337100C1F2368002B00DAE418280002F0B7F825
S11337201D4A1368002B05D163601460280002F061
S1133730AFF870BDA34209D9216860188342F3D160
S113374018685B6841182160EEE713005A68002A84
S113375001D0A242F9D919685818A0420BD12068A7
S11337600918581819608242E0D11068526841184B
S113377019605A60DAE7A04202D90C232B60D5E71E
S113378021686018824203D1106852684118216090
S113379062605C60CAE7C0463C020020032370B547
S11337A0CD1C9D43083506000C2D1ED20C25A942C4
S11337B01DD8300002F06BF8254A14682100002956
S11337C019D1244C2368002B03D1300000F038FDBC
S11337D020602900300000F033FD431C2CD10C2361
S11337E03000336002F054F803E0002DDFDA0C23DC
S11337F03360002070BD0B685B1B1AD40B2B03D9FC
S11338000B60CC18256003E08C420ED16368136012
S1133810300002F03DF8200007220B30231D9043B6
S1133820C31AE7D05A42E250E4E74B6863600C00E5
S1133830EEE70C004968C2E70323C41C9C43A04282
S1133840E0D0211A300000F0FBFC431CDAD1C6E7BB
S11338503C02002040020020F0B58BB014001D1E75
S1133860129953DA802424061B191D0014002D23F9
S11338700B702023149E03229E43462E07D0330050
S1133880453B59424B411099013ACB18109309AB6F
S1133890049308AB0393139B00920293109B2200A2
S11338A001932B0000F0FAFF0700472E02D1119B71
S11338B0DB0724D5109BFB180793462E14D13B78C5
S11338C0302B0CD1002200232000290002F064FEDA
S11338D0002804D10123109A9B1A139A1360139B96
S11338E0079A1B68D318079300220023200029009D
S11338F002F052FE302200280DD0079B09933800B5
S1133900099B159ADB1B13600BB0F0BD0023AFE7D6
S1133910591C09911A70099B07999942F8D8EEE746
S1133920F0B52B2385B007000C000270861C00291B
S113393001DA2D234C427B70092C23DD02ABDD1D03
S11339406B1E20000A21019302F010FE6B1E303121
S1133950197020000A2102F023FD040009280ADC62
S1133960023D30342C7002AB07333000AB4204D834
S1133970C01B05B0F0BD019DE2E72B780135337023
S11339800136F0E73023E4183370B01C7470EFE7AD
S1133990F0B595B00C000A920B931A9D099001F0B2
S11339A0F3FE036818000D9300F024FD0023129326
S11339B023680E900C930C99277E2B680722C90567
S11339C047D59B1893431A0008322A601A685B682B
S11339D0A264E3640122E56CA66C6B005B080F93A0
S11339E05242A74B30000F9904F0C0FD002800D0CC
S11339F006E20122A24B524230000F9902F0DCFD94
S1133A00002800D0FCE1002200233000290002F04D
S1133A10C9FD002803D023002D2243331A70994D89
S1133A20472F00D8984D032300260C9A23610133B5
S1133A309A4322600B9B13AA009321000A9B0998C6
S1133A4000F0F2F9431C00D09CE00120404215B084
S1133A50F0BD0733B6E780236268DB00511C45D113
S1133A60073262600C9A0021134312AA059211AA2C
S1133A700392232223600691019308A963685218D4
S1133A800292009332002B0004970998FFF7E4FE9A
S1133A9020233A0005009A43472A07D1119BDA1CD8
S1133AA002DB626893425BDD023FFFB21199652F2E
S1133AB03BD8200001393A0050301191FFF730FF14
S1133AC0129A060083182361012A02DC2268D207B5
S1133AD001D501332361232308AA9B181B78002BEB
S1133AE0A8D023002D2243331A70A3E7672F01D0F7
S1133AF0472FB7D1002A16D00C9908A80B430021F0
S1133B00069112A9059111A9039123210918236093
S1133B10019300922B000497029132000998FFF759
S1133B209BFE0500BAE701229BE7662F19D1636863
S1133B3000290CDD2161002B02D12268D20702D5B5
S1133B4001335B182361119B0026A365C3E7002B97
S1133B5003D101222168114200D09A1C2261F2E7AC
S1133B606727119B1298834205DB22682361D207E1
S1133B70E9D50133E6E70122002B01DC9218D21AC1
S1133B801218EBE72268530508D423692A000A991E
S1133B9009980B9DA847431C29D156E7652F00D8E7
S1133BA0DCE0A06CE16C0022002302F0F5FC0028AC
S1133BB035D00123354A0A9909980B9DA847431C1F
S1133BC000D142E7119B129A934202DB2368DB0780
S1133BD00DD50B9D0E9B0D9A0A990998A8470025AF
S1133BE0431C00D131E7129B013B9D420BDB236850
S1133BF000259B0700D5FDE0139BE068984200DB9D
S1133C0025E7180023E7220001231A320A990998AC
S1133C100B9EB047431C00D117E70135E3E7119B26
S1133C20002B35DC0123194A0A9909980B9EB047E9
S1133C30431C00D109E7119B002B05D1129B002BDB
S1133C4002D12368DB07D2D50B9E0E9B0D9A0A99ED
S1133C500998B0470026431C00D1F6E6119B5B424D
S1133C609E4201DB129B91E7220001231A320A993A
S1133C7009980B9FB847431C00D1E6E60136EDE7EF
S1133C80FFFFEF7F129400000E9400001E940000CA
S1133C90A36D129E9E4200DD1E00002E35DC002323
S1133CA00C93F343DB170F930F9BA76D0C9A3340D0
S1133CB0FB1A9A4232DB119B129A93423CDB236833
S1133CC0DB0739D4129E119AF31BB61A9E4200DD0B
S1133CD01E00002E39DCF7430025FB170C93119AC4
S1133CE0129B0C999B1A32000A409B1A9D4200DBDE
S1133CF07DE7220001231A320A9909980B9FB847DD
S1133D00431C00D1A1E60135E9E733002A000A99F2
S1133D1009980B9FB847431CC1D196E622000123A2
S1133D201A320A9909980B9FB847431C00D18CE6B4
S1133D300C9B01330C93B7E70E9B0D9A0A990998D3
S1133D400B9EB047431CBDD17FE6EA1933000A99A4
S1133D5009980B9DA847431CBDD176E6129B012B05
S1133D6002DC01231A4238D001232A000A99099857
S1133D700B9FB847431C00D167E60E9B0D9A0A9926
S1133D8009980B9FB847431C00D15EE6A06CE16C18
S1133D900022002302F000FC002808D00025129B1A
S1133DA0013B9D420DDB220033005032EFE6129BB3
S1133DB06A1C013B0A9909980B9DA847431CF2D140
S1133DC043E6220001231A320A9909980B9FB84747
S1133DD0431C00D139E60135E1E72A00EAE7220075
S1133DE0012319320A9909980B9EB047431C00D14C
S1133DF02BE60135E368139A9B1A9D42EFDBFBE641
S1133E0032002B003000290004F0B0FB002800D160
S1133E1021E6034D472F00D905E6024D03E6C046CF
S1133E201A94000016940000F7B5150001938A68EF
S1133E300B6900900C00934200DA130022002B60FF
S1133E4043321278002A01D001332B6023689B0689
S1133E5002D52B6802332B60062723681F4027D026
S1133E60230043331B785A1E93412268920630D4B0
S1133E702200019943320098089EB047431C25D084
S1133E80062320682A68E16803400025042B03D137
S1133E908D1AEB43DB171D40A3682269934201DDB1
S1133EA09B1AED180027BD4220D1002010E00137F5
S1133EB0E3682A689B1A9F42D2DA2200012319324E
S1133EC001990098089EB047431CF0D1012040425C
S1133ED0FEBD3020E1184331087021005A1C4531E1
S1133EE00978A218433202331170C1E7220001237A
S1133EF01A3201990098089EB047431CE6D0013756
S1133F00D1E70000F0B58BB006920A004332079364
S1133F10059004920A7E0C00109B6E2A00D18FE05B
S1133F2017D8632A2CD008D8002A00D199E0582A3F
S1133F3054D026004236327029E0642A01D0692A1E
S1133F40F7D121681A68080623D5111D1960156870
S1133F5025E0732A00D188E008D86F2A29D0702A76
S1133F60E7D1202209680A43226003E0752A20D0A1
S1133F70782ADED122007821453211706C4A30E073
S1133F800E001A684236111D19601368337001233C
S1133F9079E04906D9D5111D19600023D55E002D9D
S1133FA003DA2D23049A6D421370624B0A2703939C
S1133FB02FE020681968050603D5081D18600D68F0
S1133FC005E04006F9D50D68081D1860ADB2594BDF
S1133FD0082703936F2A18D00A2716E045310A7080
S1133FE0544A03921A682168101D1860156808065F
S1133FF022D5CB0702D52023194321601027002D99
S113400003D1202322689A432260230000224333F1
S11340101A706368A360002B5CDB0422216891435F
S11340202160002D58D1049E002B64D02600039BF0
S113403042361B7833705EE04806DAD5ADB2D8E775
S113404009681A68080605D5111D196013686269A4
S11340501A6006E04906F7D5111D19601368A28A93
S11340601A800023049E236154E01A68111D19600C
S1134070166800216268300001F0FEFB002801D0C0
S1134080801B6060636823610023049A137041E01D
S11340902369320006990598079DA847431C43D01D
S11340A0236800259B070FD4099BE06898423DDAFA
S11340B018003BE022000123193206990598079E57
S11340C0B047431C30D00135E368099A9B1A9D42DE
S11340D0F0DBE9E7002DA9D0049E2800390002F0A6
S11340E05BF9039B013E5B5C28003370390002F0EE
S11340F0CDF8051EF1D1082F09D12368DB0706D5B9
S113410063682269934202DC3023013E3370049BCE
S11341109B1B2361079B09AA00932100069B05981A
S1134120FFF782FE431CB3D1012040420BB0F0BD27
S113413031940000209400000FB40B4B13B51C689D
S1134140002C05D0A369002B02D1200001F086FACF
S113415005AB049AA1682000019301F0B3FE16BCDC
S113416008BC04B01847C0460C00002070B5050018
S11341700E00002804D08369002B01D101F06EFAEF
S1134180AB69AC68002B02D1280001F067FA244B1C
S11341909C420FD16C68A3891B0702D52369002BAD
S11341A020D12100280000F07FFA00281AD0012035
S11341B0404270BD1B4B9C4201D1AC68EBE71A4BEB
S11341C09C42E8D1EC68E6E7013B0136A360002B92
S11341D004DAA269934216DB0A2914D023685A1C14
S11341E0226019703178A3680029EDD1013BA360E6
S11341F0002B0FDA22000A31280000F0F3F9431CE7
S1134200D5D00A20D5E72200280000F0EBF9431CA2
S1134210E8D1CCE70A2023685A1C22601870C8E74A
S113422070950000909500005095000010B5034B68
S113423001001868FFF79AFF10BDC0460C0000206B
S1134240002370B5064C050008002360FFF7A2F8B0
S1134250431C03D12368002B00D02B6070BDC046E3
S1134260840300204A424A41802310B55200DB00F7
S113427000F002F810BD0000F0B51D004F4B85B0F2
S11342801E6804000F000092002E05D0B369002BB5
S113429002D1300001F0E2F9494B9C4250D17468DC
S11342A0009B022B05D0012B00D984E0002D00DAFD
S11342B081E02100300001F063F9616B002908D02E
S11342C023004433994202D03000FFF71DFA002343
S11342D063630023A3616360A3891B0603D521697B
S11342E03000FFF711FAA389364A1340A381009BDB
S11342F0022B5AD003AB02AA2100300001F050FA7D
S1134300A3891843A081002D24D1029D2800FFF722
S1134310CDF90195071E42D1029B0193AB4239D1DD
S1134320012040420223A2891343A3810023A360F6
S113433023004733236023610123636105B0F0BD8B
S1134340214B9C4201D1B468AAE7204B9C42A7D1DF
S1134350F468A5E7002FD9D0B369002B02D130004F
S113436001F07CF9009B012B03D1A389009A1A4325
S1134370A2810820A389276027616561184018D0AD
S1134380012018400023984211D06D42A360A5611A
S11343901800D3E70198FFF789F9071EC0D08023DE
S11343A0A289019D1343A381D6E70020BAE7A56043
S11343B0C4E7A060C2E701204042BFE70C00002030
S11343C0709500005CF3FFFF90950000509500008D
S11343D002780B78002A03D0013001319A42F7D0D9
S11343E0D01A7047031C0A7801311A700133002A6D
S11343F0F9D170470023C25C0133002AFBD1581E57
S113440070470000F8B5124B06001D680F00AC6D34
S1134410002C16D15020FFF749F9A86504604460C8
S11344208460C4600461446184618462C46204631E
S113443044638463C463046444648464C464047728
S11344404462AA6D39003000012300F003F8F8BD7E
S11344500C000020F0B5002804D11068002801D118
S1134460F0BD20000E000578441C3778002F04D1DD
S1134470002D10D115602800F2E70136BD42F4D1B9
S1134480002BEED114600370EAE733000EE001352F
S11344901C00002F02D10D002678631C2F78BE4229
S11344A0F5D1002EF1D00024591E0C701360D7E70B
S11344B0F0B51F000E0087B00590039102920C988E
S11344C03478FFF7E1F8082200194378751C13408B
S11344D00CD12D2C0CD101332C780193B51C002F59
S11344E00CD0102F14D1302C0AD011E02E00E6E7A6
S11344F001932B2CF3D12C78B51CF0E7302C2FD161
S113450020222B789343582B51D110276C780235F5
S1134510019B294A39009E18300001F03DFF30000C
S11345200491390001F0B2FE012100234942020046
S11345308C46180021003039092913D80C00A742F1
S11345401CDD591C09D06346824206D302D104996A
S1134550A14202DB0123784320182C780135E9E7D6
S11345600A27D5E721004139192901D8373CE6E764
S113457021006139192901D8573CE0E75A1C08D1B8
S1134580059A23331360029B3000002B0BD107B034
S1134590F0BD019A002A00D04042029A002AF6D0C7
S11345A0039A002B00D06A1E029B1A60EFE73024A6
S11345B0002FADD10837ABE7FFFFFF7F37B51300FE
S11345C0064A05001068046A002C00D1044C0A0055
S11345D000942900FFF76CFF3EBDC0460C0000208C
S11345E070000020F8B505000E001400002804D067
S11345F08369002B01D101F031F8224B9C422DD16B
S11346006C68A369A360A3891B0731D52369002BB8
S11346102ED023682269F7B2981A6369F6B29842D9
S113462005DB2100280000F0ABFF002826D1A36899
S11346300130013BA36023685A1C22601F70636928
S1134640984204D0A389DB071AD50A2E18D1210079
S1134650280000F095FF002812D00FE00A4B9C427E
S113466001D1AC68CDE7094B9C42CAD1EC68C8E7DC
S11346702100280000F018F80028CAD0012676424C
S11346803000F8BD70950000909500005095000032
S11346900B1E04D0FF2A04D98A2303608B3B180025
S11346A070470A700123FAE7364B70B51D6806009F
S11346B00C00002D05D0AB69002B02D1280000F0BE
S11346C0CDFF314B9C420FD16C680C23E25E93B258
S11346D019072DD4D90611D40923012033603733A7
S11346E01343A381404270BD284B9C4201D1AC6866
S11346F0EBE7274B9C42E8D1EC68E6E75B0713D570
S1134700616B002908D023004433994202D0300061
S1134710FEF7FAFF002363632422A3899343A38152
S113472000236360236923600823A2891343A381C0
S11347302369002B0BD1A0218022A3898900920038
S11347400B40934203D02100300001F051F80123C3
S1134750A289134011D00023A36063695B42A36163
S1134760002023698342BED10C23E25E1306BAD52E
S113477040231343A3810138B5E7920700D463694A
S1134780A360EDE70C0000207095000090950000F8
S113479050950000F0B503690C6989B007000591D4
S11347A000269C426DDC0B00013C1433A5000393EE
S11347B05B1904930300143302935D19049B286866
S11347C01B68591C019301F061FD0190B0422DD08A
S11347D0039B02989C460696624608CA9446019A30
S11347E099B251431B0C534389190A0C9B18079324
S11347F002881E0C069B89B2D2180368521A190C3F
S11348006B469B8BCB1A11145B18191492B21B04C0
S11348101A43049B069104C06345DDD22B68002B28
S113482004D1029B043DAB422ED33C610599380070
S113483001F041FA002823DB0025019B0298013393
S11348400399019308C9028855199AB2AA1A0568EE
S11348501B0C2D0CEB1A15145B191D1492B21B04BE
S1134860134308C0049B8B42ECD2029AA300D318D2
S11348701A68002A04D1029A043B9A4209D33C6183
S1134880019E300009B0F0BD2B68002BCDD1013C56
S1134890C7E71A68002AF2D1013CECE7F0B516002C
S11348A01F00446A9DB00490259D06960797002C2E
S11348B008D11020FEF7FAFE049B5862446084601D
S11348C00460C460049B5B6A196800290BD05A68B1
S11348D0012393404A608B60049801F012F800228F
S11348E0049B5B6A1A60079B002B1FDA01232B6071
S11348F07B005B080793079CB74B220019931A406F
S11349009A4216D1B54B249A1360069B002B03D10F
S1134910240301D100F091FDB14B269A0A93B14BC7
S1134920002A01D000F08FFD00F08FFD00232B60E2
S1134930E1E7069E079F002200233000390001F0C2
S11349402BFE051E0ED00123249A1360A64B269A33
S11349500A93002A01D100F078FDA44A26990A603E
S113496000F073FD1AAB01931BAB009332003B00C4
S1134970049801F01DFA630005905B0D00D17FE0FF
S11349803A039B4C120B144321009A4A30001895A9
S11349909E180022984B03F0D3FA984A984B03F0E0
S11349A04FF8984A984B02F007F9040030000D00C4
S11349B003F030FE954A964B03F042F802000B00D8
S11349C02000290002F0F8F804000D0003F0EEFDC9
S11349D00022039000232000290001F0E3FD0028B9
S11349E00ED0039803F016FE0B00020029002000ED
S11349F001F0D2FD030058425841039B1B1A039354
S1134A0001231693039B162B0FD88249DB00C91888
S1134A1008684968069A079B01F0D8FD00284BD026
S1134A20039B013B0393002316931A9B9E1B0023B5
S1134A300B933300013B0C9304D501239B1B0B9375
S1134A4000230C93039B002B38DB039A0C9B9446A6
S1134A5063440C9300230F920893229B0125092B96
S1134A6000D991E0052B02DD0025043B2293229B13
S1134A70981E032800D991E001F0FEFB8284297678
S1134A801A9B1B9A9E18644BF218202A0FDD634B65
S1134A900698F318D84040239B1A9C40204303F007
S1134AA0FBFD01235E4C013E0919189371E7202395
S1134AB006989B1A9840F2E71690B6E70B9B039A68
S1134AC09B1A0B935342089300230F93C5E70123CA
S1134AD00E93239B002B65DD1F000D93049A546AEB
S1134AE00022626004321100143199425FD9616876
S1134AF0049800F0CEFE049B20605B6A1B680A9356
S1134B000E2F00D905E1002D00D102E1069B079C80
S1134B1014931594039B002B00DC85E01A000F21ED
S1134B203C4B0A40D2009B185C681B68109311949C
S1134B30039B02241D11EB060AD53A4B0D401A6A59
S1134B405B6A1498159902F047FB069007910134AB
S1134B50344E002D30D1109A119B0698079902F01B
S1134B603BFB069007917AE00123239A0E93944627
S1134B70039B63445F1C0D933B1EAFDC0123ADE735
S1134B800023A5E70023F0E700230E952293013BC1
S1134B9000220D931F00133323929FE701230E93EA
S1134BA0023BF5E701230D931F001A00F4E7616847
S1134BB052000131616096E701231D4208D010982C
S1134BC01199E4183268736802F03AFF1090119159
S1134BD06D100836BDE7C0460000F07F0F270000C7
S1134BE04C9500004F9500001E9400001F94000097
S1134BF00000F03F01FCFFFF0000F83F61436F63DA
S1134C00A787D23FB3C8608B288AC63FFB799F50E1
S1134C101344D33FD895000032040000120400006E
S1134C20000010FEB0950000039B0224002B16D058
S1134C30149815995D420F23CA4A2B40DB00D31800
S1134C401A685B6802F0FCFE002306900791C64ECA
S1134C502D11002D00D08CE0002B00D081E7169B95
S1134C60002B00D191E0069A079B109211931098A3
S1134C7011990022BD4B01F095FC002800D184E07D
S1134C80002F00D181E00D9B002B3EDD109811997F
S1134C90039B00225E1EB64B02F0D2FE06900791E3
S1134CA00D9D0134200003F0B5FC069A079B02F029
S1134CB0C7FE0022AF4B01F07FFF12901391129BAD
S1134CC0139CAD4A10931194139B9C181194002DBE
S1134CD05ED1069807990022A84B03F031F9109A87
S1134CE023000690079101F071FC002800D001E335
S1134CF0A3481399844661440B0006980799109AB7
S1134D0001F050FC002800D0E8E2149B159C0693A7
S1134D1007941B9B002B00DA57E1039A0E2A00DD4F
S1134D2053E1904BD2009B185C681B68089309946C
S1134D30239B002B00DBCEE0002F00DDCBE000D076
S1134D40CFE20898099900228C4B02F079FE069A6A
S1134D50079B01F045FC3E000897002800D0A4E220
S1134D600A9B0A9A5D1C31231370039B013303933E
S1134D709FE20122154205D0A4183268736802F03C
S1134D805FFE01236D10083663E7039E3D0089E74B
S1134D900A9A691E521917920E9A724BC900002A78
S1134DA04AD05B181A685B680020764902F014FA4E
S1134DB0109A119B03F0C4F80A9B1090119112935E
S1134DC00698079903F0F2FB040003F023FC0200A9
S1134DD00B000698079903F0B3F8129B30345D1C5E
S1134DE01C70109A119B0690079101F0DBFB0028C0
S1134DF065D1069A079B00205C4903F0A1F8109A3C
S1134E00119B01F0CFFB002800D0BEE0179B9D4210
S1134E1000D17AE7109811990022554B02F010FE48
S1134E2000221090119106980799514B02F008FE48
S1134E30129506900791C3E7591808684968109AB3
S1134E40119B02F0FDFD109011910A9C179D06988C
S1134E50079903F0ABFB129003F0DCFB02000B009C
S1134E600698079903F06CF8129B0690079130336B
S1134E702370179B01340022A34224D1414B109884
S1134E80119901F099FE02000B000698079901F0B0
S1134E909DFB002800D078E0109A119B002039492E
S1134EA003F04EF802000B000698079901F07AFB14
S1134EB0002800D129E76B1E1A78302A01D0039606
S1134EC03FE01D00F7E706980799294B02F0B8FD6B
S1134ED006900791BBE70A9E089A099B06980799D2
S1134EE002F07AF903F062FB040003F093FB089AE2
S1134EF0099B02F0A5FD0B0002000698079903F038
S1134F001FF82300303333700A9B751CEB1A9F4241
S1134F104CD102000B0001F04FFE06000F0002000E
S1134F200B000898099901F03DFB00282CD1089842
S1134F30099932003B0001F02FFB002801D0E30760
S1134F4022D40599049800F0DCFC00232B70039B09
S1134F50249A01331360269B002B00D175E21D6057
S1134F6073E2C046D8950000B09500000000F03F01
S1134F700000244000001C400000C0FC000014405D
S1134F800000C07C0000E03F039E6B1E1A78392AA3
S1134F9006D10A9A9A4207D13023137013000136BE
S1134FA01A7801321A708AE71D00EEE70022CF4B0F
S1134FB002F046FD00220023069007912E0001F026
S1134FC0EBFA002800D187E7BBE70E9A002A00D14C
S1134FD087E0229A012A6EDC189A002A67D0C44A14
S1134FE09B18089D0B9C0B9A0121D2180B920C9ACA
S1134FF00498D3180C9300F022FD0600002C0EDD5B
S11350000C9B002B0BDD0C9A2300944200DD130053
S11350100B9AE41AD21A0B920C9AD31A0C93089B8B
S1135020002B1ED00E9B002B5FD0002D11DD310014
S11350302A00049800F09CFD059A010006000498DB
S113504000F006FD05991090049800F05AFC109B9E
S11350500593089B5A1B04D00599049800F088FD19
S113506005900121049800F0EAFC0F9B0890002BA6
S11350703DDD1A000100049800F07AFD229B08909F
S11350800025012B3BDC0025069BAB4233D1079B5B
S11350901B03AB422FD1199B079A13422BD00B9BB6
S11350A0013501330B930C9B01330C9323E036231E
S11350B01A9A9B1A95E7089B7D1EAB4206DB5D1B83
S11350C0002F0BDA0B9BDC1B00238CE7089B089555
S11350D0EA1A0F9B00259B180F93F1E70B9C3B00EA
S11350E081E7089D0B9C0E9E88E7089AB4E7229BF3
S11350F00025012BC7DD0F9B0120002B0BD0089B43
S1135100089A1B690F9303339B00D318586800F067
S11351104DFC2023181A0C9BC0181F23184000D1E3
S1135120ABE001331B1A042B00DC9BE01C23181A90
S11351300B9B24181B180B930C9B1B180C930B9B99
S1135140002B05DD1A000599049800F063FD059015
S11351500C9B002B05DD1A000899049800F05AFDF9
S11351600890169B002B00D189E00899059800F05F
S1135170A2FD002800DB82E0039B0A22013B03938B
S113518005990023049800F0D5FB0E9B0590002B95
S113519000D15DE1002331000A22049800F0CAFB2B
S11351A00D9B0600002B02DC229B022B6DDC002CE5
S11351B005DD31002200049800F02CFD06003000CB
S11351C0002D11D07168049800F063FB31000400D5
S11351D033690C319A1C92000C30FEF783FA0122D9
S11351E02100049800F016FD0D9F0A9B013F0B93CC
S11351F0DB19370006000F9308990598FFF7CAFAE0
S113520039000D900400059800F055FD32000E9011
S11352100899049800F068FD01230C93C3683034A6
S11352200500002B04D10100059800F044FD0C900A
S11352302900049800F065FB0C9B229A134300D0CC
S113524089E0069A0133134200D084E0392C00D15E
S1135250A3E00E9B002B01DD0D9C31340B9B5D1CE8
S11352601C7027E0042B00D169E70B9A1C33D21879
S11352700B920C9AE418D31860E70300F5E7002FAB
S11352803CDC229B022B39DD0D970D9B002B0CD1AE
S113529008990522049800F04DFB08900100059838
S11352A000F009FD002800DD5AE5239B0A9DDB433D
S11352B0039300270899049800F023FB002E00D1E3
S11352C03FE6002F05D0B74203D03900049800F020
S11352D018FB3100049800F014FB32E608952E0008
S11352E0E3E7002308931E00DFE7C04600002440E4
S11352F033040000039608952E0031E50E9B0D97AC
S1135300002B00D053E70A9D08990598FFF742FA4D
S11353100A9B30300D9A287001350400EB1A9A422A
S113532078DC151E00DC012500270A9B5D19059910
S11353300122049800F06EFC0899059000F0BBFC73
S113534000282FDC01D1E3072CD46B1E1A78302AF5
S1135350B0D11D00F9E70E9B002B07DB1D00229B3B
S11353601D4326D10123069A134222D10C9B002B04
S113537000DC73E705990122049800F04BFC0899BE
S1135380059000F098FC002804DC00D066E7E307F1
S113539000D463E7392C00D05EE70B9B0B9A5D1CAD
S11353A0392313706B1E1A78392A3BD001321A70D4
S11353B080E70B9B01330D930C9B002B05DD392CEF
S11353C0EBD00D9D01340B9B4AE70B9B0F9A0D9D6F
S11353D01C709342ABD000230A220599049800F074
S11353E0A9FA002305900A2239000498B74206D18D
S11353F000F0A0FA070006000D9B0B93FCE600F0FA
S113540099FA3100070000230A22049800F092FA66
S11354100600F1E700230A220599049800F08AFAAD
S1135420059071E70A9A9A4205D1039B01330393CD
S1135430312313703EE71D00B4E70A4B269A0A9302
S1135440094B002A01D0269A13600A981DB0F0BDBA
S11354500D9B002B00DD56E7229B022B00DC52E75C
S113546013E7C046439500004B950000F7B58A89C1
S113547005000C00130760D44B68002B04DC0B6C94
S1135480002B01DC0020FEBDE76A002FFAD00023C8
S11354902E682B6080235B011A4034D0606DA38991
S11354A05B0706D56368C01A636B002B01D0236CBD
S11354B0C01A0200216A00232800E76AB847A189BC
S11354C0431C06D12B681D2B31D82C4ADA40D30754
S11354D02DD50023636023692360CB0405D5431CC9
S11354E002D12B68002B00D16065616B2E6000290E
S11354F0C8D023004433994202D02800FEF704F9AF
S113550000206063BFE70123216A2800B847431CD9
S1135510C5D12B68002BC2D01D2B01D0162B01D175
S11355202E60AFE74023A2891343A381ABE7402356
S11355300B430120A3814042A5E70F69002FA1D0AE
S11355400B680F60DB1B01930023920700D14B69AA
S1135550A360019B002B00DC94E7019B3A00216AC5
S11355602800A66AB047002803DC4023A28913431D
S1135570DFE7019B3F181B1A0193EAE70100402073
S11355800B6970B505000C00002B01D1002070BD23
S1135590002804D08369002B01D100F05FF80B4B85
S11355A09C4209D16C680C22A35E002BEED0210032
S11355B02800FFF75BFFEAE7054B9C4201D1AC688A
S11355C0F1E7044B9C42EED1EC68ECE770950000E7
S11355D0909500005095000010B5024900F0B2F813
S11355E010BDC04681550000002310B504000360BF
S11355F04360836081814366C28103614361836147
S1135600190008225C30FEF776F8054B24626362C9
S1135610044BA362044BE362044B236310BDC046F6
S1135620FD600000256100005D61000089610000EB
S113563070B568254A1E55430E0029007431FEF7E3
S1135640ADF8041E08D000212A00016046600C3029
S1135650A0606832FEF74FF8200070BD836913B56F
S11356600400002B28D18364C3640365134B144ADC
S11356701B6882620193984201D101238361200057
S113568000F020F86060200000F01CF8A06020000A
S113569000F018F80022E06004216068FFF7A4FF1E
S11356A001220921A068FFF79FFF02221221E0686E
S11356B0FFF79AFF0123A36113BDC04600940000C5
S11356C0D9550000F8B51E4B07001E68B369002BBE
S11356D002D13000FFF7C2FF4836B4687368013B5B
S11356E004D53368002B07D03668F6E70C22A55E94
S11356F0002D0DD06834F2E704213800FFF798FF3D
S113570030600028F0D10C2304003B602000F8BD79
S1135710012320005B42E3810233A3816566256097
S1135720A560656025616561A561082229005C307A
S1135730FDF7E1FF6563A563A564E564E6E7C0469C
S113574000940000F7B504000700002601914834D6
S1135750002C01D13000FEBD6368A5680093009B56
S1135760013B009301D52468F2E7AB89012B08D9EA
S11357700E22AB5E013304D029003800019B984708
S113578006436835EBE70000034B1B68186A0028E2
S113579000D10248F03070470C0000207000002057
S11357A070B50E001D000E23C95E90B014000029D0
S11357B007DA00232B60B3891B0611D48023DB0096
S11357C00FE001AA00F00CFD0028F2DBF022029B9E
S11357D012021340054A9B185A4253412B60EDE7CD
S11357E040230020236010B070BDC04600E0FFFFDE
S11357F0F7B502268B8905000C00334206D023003E
S113580047332360236101236361F7BD01AB6A461B
S1135810FFF7C6FF009907002800FDF7BFFF002827
S113582008D10C22A35E9A05EFD4032293431E43AE
S1135830A681E4E70F4BAB628023A2892060134367
S1135840A381009B20616361019B002B0DD00E237B
S1135850E15E280000F0D6FC002806D00322A389CC
S113586093431A0001231343A381A0893843A081E1
S1135870CBE7C046D9550000C9B28218904201D185
S11358800020704703788B42FBD00130F6E7704765
S1135890704770B5466A04000D00002E07D1102031
S11358A0FDF704FF6062466086600660C660666A53
S11358B0F368002B13D0636AAA00DB689B1818688E
S11358C0002818D101210E00AE40721D9200200064
S11358D000F0C2FA00280CD0456086600DE0212259
S11358E00421200000F0B8FA636AF060DB68002B42
S11358F0E1D1002070BD02681A6000230361C36017
S1135900F8E770B5446A06000D00002C07D110209A
S1135910FDF7CCFE7062446084600460C460002DB6
S113592007D0736A6A68DB6892009B181A682A6059
S11359301D6070BDF7B51E0014239C4607000C00C3
S113594000200D698C44634619881B6851431B0C65
S1135950534389190E0C9B1989B21E0C1B045B1846
S11359606146013008C18C468542ECDC002E1BD018
S1135970A3689D4212DB63683800591CFFF789FF56
S11359802100236901909A1C92000C310C30FDF720
S1135990A9FE21003800FFF7B4FF019C2B1D9B00DA
S11359A0E31801355E6025612000FEBD0300020C92
S11359B00020824201D11B0410301A0E01D108309C
S11359C01B021A0F01D104301B019A0F01D10230BE
S11359D09B00002B03DB01305B0000D420207047C8
S11359E00722036810B501001A400DD001240020DD
S11359F0234205D10230034203D0E34020000B6070
S1135A0010BD9B080B60FBE79CB21000002C01D179
S1135A1010201B0CDAB2002A01D108301B0A1A0725
S1135A2001D104301B099A0701D102309B08DA071F
S1135A30E8D45B0801D00130E4E72020E0E710B5AA
S1135A400C000121FFF725FF01234461036110BD10
S1135A50F0B50B691500126989B00C00934201DAA4
S1135A602C000D0027692E69A268BB196168019397
S1135A70934200DD0131FFF70CFF03001433009360
S1135A80009ABB1994469B009C4413000022049086
S1135A9063451CD32A001434BF00E3191432B60042
S1135AA00593931902940693069B9A4211D3019B82
S1135AB0002B06DD04235B429C4463461B68002BD9
S1135AC051D0049B019A18001A6109B0F0BD04C3B7
S1135AD0DEE71488002C1ED00026009D029F01CF13
S1135AE0079508CD039383B2634319006B46000CFA
S1135AF09B896043CB1803999B19090C4118180C16
S1135B0009180E0C9BB209040B4307990B60059B03
S1135B10BB42E4D82E6013681B0C03931ED00026EE
S1135B20009B029C1B68009807002188039D9BB280
S1135B30694320C82D0C49198E1931040B433B606D
S1135B4008CC03991B0C4B437968360C89B25B185B
S1135B5005999B191E0CA142E6D80360009B0432F0
S1135B6004330093A0E7019B013B01939FE70000EE
S1135B700323F7B5134005000E001400002B08D0D2
S1135B802249013B9A00525800233100FFF7D2FE0C
S1135B900600A310019336D06C6A002C07D11020A4
S1135BA0FDF784FD6862446084600460C4606F6AC9
S1135BB0BC68002C07D116492800FFF740FF0023DA
S1135BC00400B86003600122019B13420AD0310033
S1135BD022002800FFF73CFF070031002800FFF7F0
S1135BE090FE3E00019B5B1001930CD020680028BE
S1135BF007D1220021002800FFF72AFF002320609C
S1135C0003600400DFE73000FEBDC046A09600003C
S1135C1071020000F0B50D0017002B69541185B016
S1135C20E3180293013301934968AB680390019A26
S1135C30934234DB0398FFF72CFE00230200060096
S1135C4019001432A3422DDBE343DB171C402B0065
S1135C501F21A40014192A69143392009A180F40C2
S1135C6024D00131C91B8C4600211868B840014377
S1135C706046216002CB0434C1409A42F5D82160C9
S1135C80002902D0029B02330193019B0398013B3C
S1135C9033612900FFF735FE300005B0F0BD013156
S1135CA05B00C4E7980011500133CBE702CB02C478
S1135CB09A42FBD8E9E70A69036930B59B1A0ED109
S1135CC092001430143184188918043C0439226871
S1135CD00D68AA4205D0AA42924101231343180039
S1135CE030BDA042F1D3FAE7F0B50D0085B007004E
