:1000000020290020CD110100C5120100C5120100F8
:1000100000000000000000000000000000000000E0
:10002000000000000000000000000000C5120100F8
:100030000000000000000000C5120100C512010010
:10004000C5120100C5120100C5120100C512010050
:10005000B18C0000C5120100C5120100C5120100DB
:10006000C512010025FF00003DFF000055FF000004
:100070006DFF000085FF00009DFF00008DAF0000B8
:10008000A1AF0000B5AF0000C5120100C51201000C
:10009000C51201000000000000000000C5120100B0
:1000A000C5120100C5120100C5120100C5120100F0
:1000B0000000000010B5064C2378002B07D1054B3B
:1000C000002B02D0044800E000BF0123237010BDC4
:1000D000E801002000000000B0A30100084B10B5AB
:1000E000002B03D00749084800E000BF0748036819
:1000F000002B00D110BD064B002BFBD09847F9E731
:1001000000000000EC010020B0A30100B0A301003A
:100110000000000080B582B000AF0200FB1D1A7025
:10012000064BFA1D127811001F220A40012191404E
:100130000A001A60C046BD4602B080BD00E100E082
:1001400080B584B000AF78607B681B68FB60FB689B
:10015000DB695A1E9341DBB21800BD4604B080BD76
:1001600080B582B000AF7860C0467B681800044B51
:100170009847031EF9D1C046BD4602B080BDC046B7
:100180004101000080B582B000AF78607B688022BA
:10019000D2051A607B6800225A607B68FF221A81B0
:1001A0007B6800229A727B680022DA727B68962252
:1001B00092011A627B682422012199547B682522CE
:1001C000012199547B682622002199547B682722BB
:1001D000002199547B6800229A627B68882252032E
:1001E000DA607B682C22002199547B682D22002143
:1001F00099547B6800221A637B6800225A637B68EB
:1002000000229A637B680022DA637B6800225A61CD
:100210007B6800221A827B680022DA767B680022E3
:100220001A767B6800221A777B6800225A767B68F0
:1002300013229A767B6800225A77C046BD4602B0E8
:1002400080BD000080B584B000AF78607B681B681B
:10025000FB607B681B681800094B98470300180077
:10026000084B98477B681800074B9847FB681B684A
:1002700002221A43FB681A60C046BD4604B080BD26
:10028000E1FE0000150100006101000080B584B0AE
:1002900000AFF860B9607A607A68B968FB681800E6
:1002A000054B9847031E01D1012300E000231800ED
:1002B000BD4604B080BDC04619F7000080B582B0CD
:1002C00000AF78600A00FB1C1A70C046FB1C1B784C
:1002D0009AB27B6811001800044B9847031EF5D1B1
:1002E00000231800BD4602B080BDC0468DF9000055
:1002F00080B584B000AF786039600E23FB1800220F
:100300001A80C0460E23FA187B6811001800074BAC
:100310009847031EF6D10E23FB181B88DAB23B6800
:100320001A70C046BD4604B080BDC046F1F9000059
:1003300080B584B000AFF860B9607A60104BFA689D
:100340001A60104B104A1A60104B114A1A607A68F2
:10035000B968FB6818000F4B98470F4B1B689B68E8
:10036000002118000D4B98470B4B1B685B68002160
:1003700018000A4B9847C046BD4604B080BDC04631
:1003800000090020FC080020BD020000F808002041
:10039000F10200008D02000018000020C5300100AD
:1003A00080B590B000AF3B001800134B98473B005E
:1003B000E12252021A623B00C4229203DA603B003F
:1003C000012252421A633B00012252425A633B000F
:1003D0000A4A9A633B000A4ADA633A0009490A4B1F
:1003E00018000A4B9847084B1800094B9847C0461D
:1003F000BD4610B080BDC0468501000003002A0044
:1004000003002B0000180042AC070020310300005D
:100410004502000080B582B000AF0200FB1D1A70DB
:10042000064BFA1D127811001F220A40012191404B
:100430000A001A60C046BD4602B080BD00E100E07F
:1004400080B584B000AF78607B681B68FB60FB6898
:10045000DB69072213405A1E9341DBB21800BD46E8
:1004600004B080BD80B582B000AF7860C0467B68C4
:100470001800044B9847031EF9D1C046BD4602B090
:1004800080BDC0464104000080B582B000AF7860F6
:100490007B6864221A607B681B4A5A607B68002272
:1004A0009A607B6800221A737B6800221A767B6848
:1004B000802292031A617B6801225242DA827B68B1
:1004C000012252429A827B680022DA617B68002214
:1004D0001A627B682422002199547B6800229A6268
:1004E0007B682C22002199547B682D22002199548D
:1004F0007B682E22002199547B68D7221A86C04639
:10050000BD4602B080BDC046480D000080B584B035
:1005100000AF78607B681B68BB600023FB607B6872
:100520001800144B9847BB681B6802221A43BB682B
:100530001A607B681B6818000F4B9847030018006F
:100540000E4B98470CE0FB680133FB607B68DB884F
:100550001A00FB689A4203D8BB6810225A8306E04F
:10056000BB685B8B9BB21A0010231340EBD0BD46D7
:1005700004B080BD65040000E1FE00001504000029
:1005800090B58FB000AF3B001800154B98473B006B
:1005900001225242DA823B00124ADA613B00124ADF
:1005A0001A623B0000221A733723FC183A000F49E5
:1005B0000F4B18000F4B9847030023703723FB188D
:1005C0001B78002B04D00C4B18000C4B984703E011
:1005D000074B18000A4B9847BD460FB090BDC04668
:1005E00089040000020016000200170000140042F7
:1005F000C8020020DDE00000007A01008D3001001B
:100600000D05000090B589B000AF0200FB1D1A7007
:10061000BB1D0A1C1A701823FB1802221A701F2314
:10062000FB1800221A70FB1D1B78012B07D0022B30
:1006300000D07EE01F23FB1800221A7004E01F2365
:10064000FB1804221A70C046BB1D1B78012B0BD06F
:10065000022B02D0002B10D06BE01F23FB181F22AF
:10066000BA1812781A7011E01F23FB181F22BA184B
:10067000127801210A431A7008E01F23FB181F2279
:10068000BA18127802210A431A70C0461F23FB18B9
:100690001F22BA18127810210A431A701F23FB1860
:1006A00000229A561823FB185A701823FB180022B0
:1006B0009A701823FB181B785BB219001823FB18DB
:1006C0005B785BB21A001823FB189B785BB21A4860
:1006D0001A4CA0470C23FB1840221A800C23FB184D
:1006E00003225A800C23FB181822BA185A600C23D4
:1006F000FB1800221A720C23FB1800225A720C23DA
:10070000FB1800229A721E23FC180C23FA180C4BBB
:10071000110018000B4B9847030023701E23FB1891
:100720001B78002B04D0084B1800084B9847C04694
:10073000C046BD4609B090BD287A0100712F010066
:10074000C80200204DE700004C7A01008D30010006
:1007500090B589B000AF0200FB1D1A701B23FB1877
:10076000FA1D12781A700C23FB1840221A800C23F1
:10077000FB1801225A800C23FB181B22BA185A605E
:100780000C23FB1800221A720C23FB1800225A7249
:100790000C23FB1800229A721F23FC180C23FA1852
:1007A000244B11001800244B9847030023701F238B
:1007B000FB181B78002B08D0FB1D1A781F4B11006B
:1007C00018001F4B98471F4B30E00C23FB181C22CE
:1007D000BA185A600C23FB1802225A800F201A4BB9
:1007E00098471F23FC180C23FA18124B110018000D
:1007F000164B9847030023701F23FB181B78002B10
:1008000008D0FB1D1A78124B110018000C4B9847AA
:100810000C4B0BE01C23FB181B781B021AB21C2389
:10082000FB185B781BB213431BB29BB21800BD468A
:1008300009B090BDC80200208DE70000707A010069
:10084000712F0100FFFF0000C9D3000095E50000F3
:10085000A87A010080B500AFFF20034B9847030042
:100860001800BD4680BDC0465107000090B583B05A
:1008700000AF0120124B984703001A00114B1000E3
:10088000984703000C003B607C600F4C00220F4B2C
:1008900038687968A04703000C003B607C600C4C12
:1008A00000220C4B38687968A04703000C003B60BD
:1008B0007C603B687C6818002100BD4603B090BD99
:1008C00051070000B1780100F16301000000F04021
:1008D000596C01000000594090B583B000AF002072
:1008E000174B984703001A00164B10009847030057
:1008F0000C003B607C60144C0022144B3868796813
:10090000A04703000C003B607C60114C0022114B9F
:1009100038687968A04703000C003B607C600E4C8F
:1009200000220E4B38687968A04703000C003B603A
:100930007C603B687C6818002100BD4603B090BD18
:1009400051070000B1780100F16301000000F040A0
:10095000596C010000A0644059710100000044403E
:1009600080B582B000AF0200FB1D1A70064BFA1D65
:10097000127811001F220A40012191400A001A60DA
:10098000C046BD4602B080BD00E100E080B584B045
:1009900000AF78607B681B68FB60FB68DB6907223F
:1009A00013405A1E9341DBB21800BD4604B080BD0F
:1009B00080B582B000AF7860C0467B681800044BF9
:1009C0009847031EF9D1C046BD4602B080BDC0465F
:1009D0008D09000080B582B000AF78607B6864222A
:1009E0001A607B681B4A5A607B6800229A607B68A9
:1009F00000221A737B6800221A767B688022920399
:100A00001A617B6801225242DA827B6801225242DB
:100A10009A827B680022DA617B6800221A627B6816
:100A20002422002199547B6800229A627B682C2240
:100A3000002199547B682D22002199547B682E2235
:100A4000002199547B68D7221A86C046BD4602B061
:100A500080BDC046480D000080B584B000AF78600E
:100A60007B681B68BB600023FB607B681800144B2D
:100A70009847BB681B6802221A43BB681A607B68F0
:100A80001B6818000F4B9847030018000E4B98473F
:100A90000CE0FB680133FB607B68DB881A00FB68B5
:100AA0009A4203D8BB6810225A8306E0BB685B8B6E
:100AB0009BB21A0010231340EBD0BD4604B080BD9A
:100AC000B1090000E1FE00006109000090B591B09D
:100AD00000AF0200FB1D1A700823FB181800194B09
:100AE00098470823FB1801225242DA820823FB1898
:100AF000154ADA610823FB18144A1A620823FB1806
:100B000000221A733F23FC180823FA181049114BCE
:100B10001800114B9847030023703F23FB181B78E4
:100B2000002B04D00D4B18000D4B984707E0094BE4
:100B300018000C4B98470C4BFA1D12781A70BD46E2
:100B400011B090BDD50900000200080002000900A4
:100B500000080042F0020020DDE00000D87A010029
:100B60008D300100590A00000402002090B587B0C2
:100B700000AF0200FB1D1A701523FB18FA1D127836
:100B80001A70304B1B789AB20823FB181A8008237E
:100B9000FB1801225A800823FB181522BA185A6044
:100BA0000823FB1800221A720823FB1800225A722D
:100BB0000823FB1800229A721723FC180823FA183E
:100BC000214B11001800214B984703002370172375
:100BD000FB181B78002B0AD01523FB181B781A0072
:100BE0001B4B110018001B4B9847FF2326E00823DE
:100BF000FB181622BA185A600823FB1801225A80E3
:100C00001723FC180823FA180F4B11001800124B79
:100C10009847030023701723FB181B78002B0AD07A
:100C20001523FB181B781A000C4B11001800094BF8
:100C30009847FF2302E01623FB181B781800BD46D7
:100C400007B090BD04020020F00200204DE7000034
:100C5000007B0100712F010095E50000387B010049
:100C600090B587B000AF0200FB1D1A70BB1D0A1CB7
:100C70001A701423FB18FA1D12781A701423FB182B
:100C8000BA1D12785A701A4B1B789AB20823FB18B7
:100C90001A800823FB1802225A800823FB1814220A
:100CA000BA185A600823FB1800221A720823FB188E
:100CB00000225A720823FB1800229A721723FC188C
:100CC0000823FA180B4B110018000B4B9847030030
:100CD00023701723FB181B78002B06D01423FA1857
:100CE000064B11001800064B9847BD4607B090BD53
:100CF00004020020F00200208DE70000007B0100CC
:100D0000712F010080B582B000AF0200FB1D1A7088
:100D1000FB1D1B7802221343DBB219008120034B19
:100D20009847C046BD4602B080BDC046610C000079
:100D300080B500AF03218020034B98471020034B60
:100D40009847C046BD4680BD610C0000050D0000FF
:100D500080B500AF00218020024B9847C046BD46B9
:100D600080BDC046610C0000B0B500AF9423FF33D6
:100D70001800094B98478C20084B984703001CB279
:100D80008D20064B984703001B021BB223431BB266
:100D90009BB21800BD46B0BDC9D300006D0B00006A
:100DA000B0B500AF9423FF331800094B98478E204D
:100DB000084B984703001CB28F20064B984703004E
:100DC0001B021BB223431BB29BB21800BD46B0BD31
:100DD000C9D300006D0B000090B589B000AF12239D
:100DE000FC18524B9847030023801023FC18504BEB
:100DF0009847030023800E23FB18012252421A80D9
:100E00001223FA180E23FB1812881B889A4207D85F
:100E10001023FA180E23FB1812881B889A4206D951
:100E2000444B1800444B984701235B4279E0002370
:100E3000FB611223FB181B88002B0BD01023FB181F
:100E40001B889A021223FB1819883C4B1000984704
:100E50000300FB61FB6901335B08FB61FB69402B0D
:100E600006D8F9235B00BB61DF235B007B6142E0B6
:100E7000FB69802B05D885239B00BB61304B7B61D0
:100E800039E0FB69C02B04D82E4BBB612E4B7B6134
:100E900031E0FA6980235B009A4205D89C239B00CD
:100EA000BB612A4B7B6126E0FA699C235B009A4276
:100EB00006D87023FF33BB61FE235B007B611AE021
:100EC000FA69CD235B009A4204D8D223BB61FB238D
:100ED0007B6110E0FB691E4A934204D81823BB6172
:100EE00012237B6107E0FB69194A934203D900236F
:100EF000BB6100237B611223FB181B88BA695A432C
:100F00001023FB181B8879694B43D31ABB60BB685D
:100F10008022920194466344BB60BB689B0B7B605C
:100F20007B681800BD4609B090BDC046690D000041
:100F3000A10D0000687B0100712F0100B95501006F
:100F4000D10200003F0200007B030000FE0300000E
:100F50009A02000080B584B000AFF860B9607A6092
:100F60007B6800221A607A68B968FB681800034B36
:100F7000984703001800BD4604B080BDF589000005
:100F800080B582B000AF0200BB1D1A80BB1D0022DD
:100F90009B5EDB431BB2064A128812B213401BB29F
:100FA0009AB2034B1A80C046BD4602B080BDC0460F
:100FB0002403002080B582B000AF0200BB1D1A8060
:100FC000104B1A88BB1D1B8813439AB20D4B1A8015
:100FD000BB1D1B88202B03D0BB1D1B88102B04D1ED
:100FE000094B1800094B984707E0BB1D1B88082BCD
:100FF00003D1054B1800064B9847C046BD4602B0CA
:1010000080BDC046240300201C030020492F00009F
:10101000D52F000080B500AF044B00221A8040207D
:10102000034B9847C046BD4680BDC0462403002000
:10103000B50F000080B582B000AF0200BB1D1A8062
:10104000064B1B88BA1D128813409BB25A1E93414F
:10105000DBB21800BD4602B080BDC04624030020AC
:1010600090B583B002AF0120354B984703001A00BA
:1010700001235340DBB2002B04D0324B1800324B1B
:10108000984759E002202E4B984703001A0001238D
:101090005340DBB2002B04D02C4B18002A4B98474E
:1010A0004AE00420264B9847031E04D0284B180022
:1010B000254B984740E00820214B9847031E04D059
:1010C000244B1800204B984736E040201C4B984793
:1010D000031E0ED0204B18001B4B98471F4B1B685C
:1010E000D9681F4800230093002301221D4CA0470C
:1010F00022E08020124B9847031E0ED01A4B180096
:10110000114B9847154B1B6819691548002300932C
:1011100000230122134CA0470EE080235B0018003F
:10112000074B9847031E07D0104B1800064B9847F3
:1011300010200F4B9847C046BD4601B090BDC04639
:10114000351000008C7B01008D300100B47B010064
:10115000E07B01000C7C0100387C0100AC04002025
:10116000800300200DB50000787C0100C07C0100E8
:10117000B50F0000B0B5C8B000AFF8607A603B6052
:10118000294B902252009446BC4463440A1C1A80A6
:10119000FA6880239B019A4203D180235B01FB60A4
:1011A00007E0FA688223DB029A4238D18023DB020F
:1011B000FB6088235B00FB181B4A902149008C468A
:1011C000BC44624412881A8088235B00FB187A684A
:1011D0005A6088235B00FB183A689A6088235B009A
:1011E000F9181023FB180C221800104B98472023E5
:1011F000FF33FC1880235B001022BA18F9680C48F2
:101200000C4DA847030023702023FF33FB181B78E5
:10121000002B05D0084B1800084B984700E0C0464B
:10122000BD4648B0B0BDC046EAFEFFFFF92401004C
:101230001C030020F12B0000E87C01008D30010030
:1012400090B5D1B000AF86235B00FB181800A54B0A
:1012500098479B235B00FB1886225200BA185288DD
:101260001A80FF2398225200BA18136098235B005B
:10127000FB181B68002B00DA03339B1096225200E8
:10128000BA18136096235B00FB181A68964B11007E
:101290001800964B984798235B00FB181A68944BEC
:1012A00011001800914B984798235B00FB181B68AE
:1012B000D9B296235B00FB181B68DBB29B00DAB245
:1012C0002C23FF33FB188A1A1A7096235B00FB1835
:1012D0001B681B0292225200BA18136092235B0013
:1012E000FB181A68834B11001800804B98472C2379
:1012F000FF33FB181A78804B110018007B4B98477E
:1013000000239E225200BA18136031E09E235B0036
:10131000FB181B689B0190225200BA18136092239D
:101320005B00FB181A6890235B00FB181B68D3183E
:10133000180090235B00FB181B680C22BA18D31806
:101340002022FF32BC18402219006C4B9847030042
:1013500023702023FF33FB181B78002BDFD19E2343
:101360005B00FB181B6801339E225200BA18136001
:101370009E235B00FB181B68032BC7DD0C23FA18A8
:101380005F4B11001800594B984792235B00FB18E4
:101390001B682022FF32BC1818005A4B98470300E4
:1013A00023702023FF33FB181B78002BEDD12C2357
:1013B000FF33FB181B789B011A000C23FB189918AC
:1013C0003B1D08221800504B9847504BA02252005A
:1013D0009446BC4463440122DA704C4BA022520074
:1013E0009446BC4463441B781A00494B1100180012
:1013F0003E4B9847454BA02252009446BC44634460
:101400005B781A00424B11001800384B98473F4B4D
:10141000A02252009446BC4463449B781A003C4B83
:1014200011001800314B98472C23FF33FB181B7811
:101430009B011A000C23FB189B18391D0822180069
:10144000314B98472C23FF33FB181B789B011A0064
:101450000C23FB189B18391D082218002A4B9847AB
:1014600000239C225200BA18136031E09C235B00D9
:10147000FB181B689B018C225200BA181360922340
:101480005B00FB181A688C235B00FB181B68D318E1
:1014900018008C235B00FB181B680C22BA18D318A9
:1014A0002022FF32BC18402219001A4B9847030033
:1014B00023702023FF33FB181B78002BDFD19C23E4
:1014C0005B00FB181B6801339C225200BA181360A2
:1014D0009C235B00FB181B68032BC7DDC046BD4681
:1014E00051B090BD1D9500001C7D0100712F0100C1
:1014F000447D01006C7D0100947D01007993000022
:10150000BC7D010075940000F9240100C4FEFFFFBA
:10151000C87D01002D920000B0B586B000AF7860A4
:101520000023BB60BA683E4B110018003D4B984742
:1015300000237B6139E07B6920331B0219001323F0
:10154000FC1880235B00384A3848394DA84703000F
:1015500023701323FB181B78002B09D01323FB18CF
:101560001A78344B110018002E4B9847002352E094
:10157000BB68002B08D10823FA18802359002A4B96
:1015800018002D4B984707E00823FA1880235900CC
:10159000254B1800294B9847BA687969284B1800E1
:1015A000204B98477B6901337B61264B1B681A0AE5
:1015B0007B699A42BFD8234B1B681A00FF23134054
:1015C000FB60FA68204B11001800164B98471D4B22
:1015D0001A68FB68D31A802292019918FB689BB2A3
:1015E0001322BC18104A1148114DA847030023705C
:1015F000F9680823FA180C4B1800104B9847BA6882
:10160000124B11001800074B9847BA687B68D31A31
:101610005A425341DBB21800BD4606B0B0BDC046C9
:10162000F87D0100712F0100B00400201C03002090
:10163000392B0000107E0100550F0000F5890000D5
:10164000487E010018030020687E01008C7E0100A6
:1016500090B585B000AF78607A6880239B019A428C
:1016600002D100237B6007E07A688223DB029A4282
:1016700000D06BE1B74B7B607A68B74B1100180064
:10168000B64B9847B64B1800B64B9847B44B18006A
:10169000B54B9847031E04D0B44B1800B44B984781
:1016A00055E10F23FC18AE4B00211800B14B9847B1
:1016B000030023700F23FB181B78002B09D0202078
:1016C000AD4B9847AD4AAE4B11001800A34B98475D
:1016D0003DE10F23FC187968A14B02221800A94BA9
:1016E0009847030023700F23FB181B78002B09D0A9
:1016F0002020A14B98477A68A34B11001800974B04
:10170000984724E17B689D4A99180F23FC18944B55
:10171000022218009B4B9847030023700F23FB18ED
:101720001B78002B08D07B68944A9A18964B1100BE
:1017300018008A4B98470AE17B68944A99180F234E
:10174000FC18874B022218008E4B98470300237029
:101750000F23FB181B78002B0BD02020864B9847BB
:101760007B688A4A9A18884B110018007B4B98476F
:10177000EDE07B68864A99180F23FC18784B01220C
:101780001800804B9847030023700F23FB181B7829
:10179000002B0BD02020784B98477B687C4A9A1806
:1017A000794B110018006D4B9847D0E07B68794A5F
:1017B00099180F23FC186A4B00221800714B9847A8
:1017C000030023700F23FB181B78002B0BD0202065
:1017D000694B98477B686F4A9A186B4B1100180049
:1017E0005E4B9847B3E07B686B4A99180F23FC184F
:1017F0005B4B00221800634B9847030023700F23B4
:10180000FB181B78002B0BD020205B4B98477B6884
:10181000614A9A185C4B11001800504B984796E0AB
:101820007B685E4A99180F23FC184D4B0022180064
:10183000544B9847030023700F23FB181B78002B91
:101840000BD020204C4B98477B68544A9A184E4B3B
:1018500011001800414B984779E07B68504A99186D
:101860000F23FC183E4B00221800464B98470300FC
:1018700023700F23FB181B78002B0BD020203E4B2E
:1018800098477B68464A9A183F4B11001800334B23
:1018900098475CE07B68434A99180F23FC18304B4B
:1018A00000221800374B9847030023700F23FB18C2
:1018B0001B78002B0BD020202F4B98477B68394A90
:1018C0009A18314B11001800244B98473FE07B6871
:1018D000354A99180F23FC18214B00221800294B78
:1018E0009847030023700F23FB181B78002B0BD0A5
:1018F0002020214B98477B682B4A9A18224B1100D5
:101900001800164B984722E07B68284A99180F2345
:10191000FC18134B002218001A4B98470300237041
:101920000F23FB181B78002B0BD02020124B98475D
:101930007B681B4A9A18144B11001800074B9847F4
:1019400005E0074B18001A4B984700E0C046BD461B
:1019500005B090BDFCFF0300B87E0100712F0100AF
:101960001C030020D52F00008D2A0000D07E01002E
:101970008D300100952E0000B50F0000FFFF000024
:10198000F47E0100992D0000387F0100FEFF010068
:10199000FDFF0200FD7F0200FC8F0200FB9F0200A2
:1019A000FAAF0200F9BF0200F8CF0200F7DF020031
:1019B000492F000080B584B000AF3B1D186059600E
:1019C0009A603B1D1B881A00154B11001800154B1F
:1019D00098473B1D5A68144B11001800114B98474B
:1019E0003B1D1B88002B11D00420104B9847402032
:1019F0000E4B984780200E4B98473B1D5A680D4B65
:101A00001A603B1D1A880C4B1A8006E00020074B19
:101A100098470020064B9847C046BD4604B080BD9D
:101A2000747F0100712F0100907F0100810F000081
:101A3000B50F00001802002014020020B0B58AB0D3
:101A400000AF786039607B68002B02D03B68002BC8
:101A500004D1B24B1800B24B98475CE14020B14B27
:101A60009847031E25D03B68062B06D03968AE4B3D
:101A70000C221800AD4B98474DE179680C23FB18F8
:101A800002221800AA4B98477B68991C0C23FB186C
:101A9000043304221800A64B98470C23FB1818683F
:101AA00059689A68A34B98471020A34B9847C046A3
:101AB00031E180209B4B9847031E00D12BE1082089
:101AC000984B984703001A0001235340DBB2002BC8
:101AD0001BD080239B011800984B9847984B0022FD
:101AE0001A60984B802292011A60974B00221A705C
:101AF000964B00221A60964B1A68964B11001800FC
:101B00008A4B984708208C4B98477B68002B00D164
:101B100001E100237B6279E07B6AFF331A003B68B6
:101B20009A4207D2884B1B789BB280225200D31A6C
:101B30009BB205E03B689AB27B6A9BB2D31A9BB218
:101B40002222BA1813807B6A7A68D318FB617E4B15
:101B50001B781A00804BD018F9692223FB181B88C8
:101B60001A00734B98472223FB181B887A6AD318F4
:101B70007B622223FB181B88DAB2734B1B78D318C5
:101B8000DAB2714B1A70704B1B78002B02D16E4B7E
:101B9000FF221A706C4B1B78FF2B37D1694B1968E9
:101BA0001B23FC1880235B006B4A6C486C4DA847D4
:101BB000030023701B23FB181B78002B0AD0202066
:101BC0005D4B98475F4B1A68664B11001800574BE6
:101BD0009847A0E05C4B00221A705A4B1B685A1CB5
:101BE000FF32584B1A605A4B1B68002B07D1584ADA
:101BF00080235900584B18005B4B984706E0544A25
:101C000080235900544B1800584B98477A6A3B6818
:101C10009A4200D280E74D4B1A687B6AD2184B4B30
:101C20001A60474B1A683B68D218454B1A60444B00
:101C300019684F4B1A684F4B18003C4B9847404B64
:101C40001A684B4B1B689A4265D33E4B19683E4B52
:101C50001B789BB21B22BC183F4A4048404DA84706
:101C6000030023701B23FB181B78002B0AD02020B5
:101C7000314B9847334B1A683A4B110018002B4BE5
:101C8000984748E0304B1B781900314A324B180016
:101C9000364B98472C4B1B781A007B6A9B187B624B
:101CA000354B18001E4B9847294B1B681800334BC7
:101CB0009847031E0AD0324B1800194B9847244B03
:101CC0001A68304B1B689A4214D007E02E4B18005C
:101CD000134B98472020184B98471CE0294B196854
:101CE0001B4B1A68294B1800104B98472020124BA9
:101CF000984710E0264B9847264B1988214B1A68C5
:101D00000F4B1C68802398012300234CA047102010
:101D1000094B9847C046BD460AB0B0BDB07F010030
:101D20008D30010035100000D07F0100712F0100BF
:101D3000F9240100B5190000B50F0000511600008C
:101D400010020020A4040020A80400201803002092
:101D5000080200202C800100B00400201C03002099
:101D6000F12B00003C800100550F0000F5890000B8
:101D70000C02002074800100A880010019150000E9
:101D8000DC800100180200201C8101004481010058
:101D900041120000140200207511000080B584B0CB
:101DA00000AFF860B9607A60BB68042B5ED8BB688E
:101DB0009A00324BD3181B689F46314B1800314BA9
:101DC000984758E0304B18002E4B984704202F4B73
:101DD000984750E07B681B8819007B685A682C4B39
:101DE00018002C4B98477B681B88C82B0CD17B684C
:101DF0005A68294B1A60294B00221A607B685B687D
:101E0000274A934234D803E02020204B984732E001
:101E10007B689A687B685B6819001000214B9847C3
:101E200026E07B685A687B681B68190010001D4B10
:101E3000984720E07B681A681B4B11001800154B6F
:101E400098477B681B680B3310D10820174B9847C5
:101E5000031E02D00820164B98470420134B9847C6
:101E6000031E07D00420124B984703E0C04602E04F
:101E7000C04600E0C046BD4604B080BD08850100F4
:101E8000A88101008D300100E0810100B50F000044
:101E90000C820100712F01000C02002010020020B2
:101EA000DC0500003D1A00004882010035100000EA
:101EB000810F000080B588B000AF3B001800124BC6
:101EC00098473B00114A1A613B00114A5A603A0098
:101ED000104B11001800104B98470300FB61FB6981
:101EE000002B06DAFA690D4B110018000C4B9847CD
:101EF000FEE70C4A074B110018000B4B9847C046F1
:101F0000BD4608B080BDC04645B00000DC050000FD
:101F1000280300208003002091B000007882010097
:101F2000712F01009D1D00007DB1000080B582B0C1
:101F300000AF3A60FB1D021C1A70BB1D0A1C1A7010
:101F40003A68BB1D1978FB1D1B785BB21800034B68
:101F50009847C046BD4602B080BDC0461DB20000D5
:101F6000B0B584B002AF786039603B68FF2213409F
:101F70001C003B681B0A1A00FF231A4015003B682F
:101F80001B0C1A00FF2313403A68120E79680848A8
:101F9000019200932B002200064CA0473A687B6810
:101FA00011001800044B9847C046BD4602B0B0BDB2
:101FB000C0820100712F010081B3000090B587B08D
:101FC00002AF02003960FB1D1A70FB1D1B782C2B21
:101FD00002D0322B41D05BE03B68FB60FB681B7892
:101FE000012B06D1314B1800314B9847314B9847A4
:101FF00056E0FB681B78002B52D12F4B18002C4B5E
:10200000984702202D4B984708202D4B9847031ED8
:1020100002D00820294B98470420294B9847031EDB
:1020200002D00420254B9847264B1B681C68254B83
:102030001B681B681800244B98470300D9B2214B3A
:102040001B685B68DAB21F4B1B689868FF2300931C
:10205000030020001D4CA04722E03B68BB60BB682A
:102060001B781900BB6801331B781A00BB68023368
:102070001B781C00BB6803331B78154800932300B2
:10208000144CA0470220144B9847144B984708E083
:10209000FB1D1A78124B110018000E4B984700E0F8
:1020A000C046C046BD4605B090BDC046F0820100A6
:1020B0008D3001007153000030830100810F00005A
:1020C00035100000AC040020D3320100A94E0000FE
:1020D00070830100712F0100B50F00006110000036
:1020E000B483010080B582B000AF3B1D1800084BDF
:1020F00098473A1D074B11001800074B9847054BAE
:102100001800064B9847C046BD4602B080BDC04689
:10211000F1C900002803002015CA000001CB00000F
:1021200080B582B000AF78607B68094A1A607B682E
:1021300002225A607B68074A9A607B68064ADA6026
:102140007B68064A1A61C046BD4602B080BDC046E3
:10215000DC830100F0830100008401003884010069
:10216000B0B58CB002AF7860324B98470120324B4B
:102170009847324B9847324B9847324B98470C233D
:10218000FB181822002118002F4B98470C23FB182E
:102190002E4A1A602723FC180C23FB1818002C4B1E
:1021A0009847030023702723FB181B785BB2002B92
:1021B00004D0284B1800284B984737E0274B984706
:1021C000274A284B11001800274B9847274B180027
:1021D000214B98477B681A68254B11001800254B46
:1021E00098477B681D687B681B681800224B9847DE
:1021F0000300D9B27B685B68DAB27B6898682723F2
:10220000FC18FF230093030028001C4DA84703007F
:1022100023702723FB181B785BB2002B06D1184BC9
:102220001800144B9847174B7A681A60BD460AB0DD
:10223000B0BDC04615100000B50F0000E52000003D
:10224000B51E0000ED3100002F250100BD1F00006C
:10225000A14C0000748401008D300100A57E0000B7
:10226000611F00002D1F0000F57E00009C8401000E
:10227000CC840100712F0100D3320100A94E00006F
:10228000F0840100AC04002080B500AF154B9847E6
:1022900006E00020144B9847144B1800144B984745
:1022A0001020144B984703001A0001235340DBB25F
:1022B000002B09D020200F4B984703001A00012360
:1022C0005340DBB2002BE4D180200A4B9847031E19
:1022D00004D01020084B9847012300E00023180089
:1022E000BD4680BD715300008D4E000028030020C4
:1022F00031CC000035100000810F000080B500AF28
:102300008020174B9847031E26D0164B984706E0AF
:102310000020154B9847154B1800154B9847102077
:102320000F4B984703001A0001235340DBB2002BE8
:1023300009D020200A4B984703001A00012353407C
:10234000DBB2002BE4D11020054B9847031E01D0CF
:10235000012302E0002300E000231800BD4680BDF9
:1023600035100000611000008D4E00002803002091
:1023700031CC000080B584B000AF0200FB1D1A70A4
:102380000F23FB18FA1D1278D2091A700E23FB18BE
:10239000FA1D127852091A700D4BBB600F23FB18FF
:1023A0001B78002B0FD10F23FB181B789B001022EA
:1023B0009446BC446344083B1A680E23FB181B7800
:1023C000DB01D31800E000231800BD4604B080BD37
:1023D0000044004180B582B000AF0200FB1D1A70BE
:1023E000FB1D1B781800034B984703001800BD46DF
:1023F00002B080BD7523000080B584B000AF02003C
:10240000FB1D1A70BB1D0A1C1A70FB1D1B781800DF
:102410000D4B98470300FB60FB1D1B781F221340E8
:1024200001229A401300BB60BB1D1B78002B03D018
:10243000FB68BA689A6102E0FB68BA685A61C046F4
:10244000BD4604B080BDC046D523000080B500AFB6
:10245000024B9847C046BD4680BDC046B5FF000050
:1024600080B500AF024B9847C046BD4680BDC04610
:102470000900010080B584B000AF78600D4B98472B
:102480007B681B79DBB2002B04D00F23FB180522DD
:102490001A7006E07B6801221A710F23FB180022D4
:1024A0001A70054B98470F23FB181B781800BD4680
:1024B00004B080BD4D2400006124000080B582B0CE
:1024C00000AF78607B6800221A71C046BD4602B03A
:1024D00080BD80B584B000AF78607B681B68FB600E
:1024E000FB681B7EDBB21A00012313405A1E934186
:1024F000DBB21800BD4604B080BD80B584B000AF2B
:1025000078607B681B68FB60FB681B7EDBB21A008F
:10251000042313405A1E9341DBB21800BD4604B099
:1025200080BD000080B584B000AF78600A00BB1C9D
:102530001A807B681B68FB607B6818000A4B984711
:1025400003001A0001235340DBB2002B01D0052306
:1025500006E0BB1C1B88DB05DA0DFB689A620023D2
:102560001800BD4604B080BDD324000080B584B0FF
:1025700000AF786039607B681B68BB607B681800BF
:102580001B4B984703001A0001235340DBB2002B7A
:1025900001D0102327E00F23FB1800221A70BB681C
:1025A0005B8B9BB21A000423134006D00F23FB1849
:1025B0001E221A70BB6804225A837B689B79012B08
:1025C00008D1BB689B6A9BB2DB05DB0D9AB23B6806
:1025D0001A8005E0BB689B6ADBB29AB23B681A803E
:1025E0000F23FB181B781800BD4604B080BDC04601
:1025F000FB24000080B582B000AF0200FB1D1A7002
:10260000FB1D1B78092B18D89A000E4BD3181B689A
:102610009F460D4B12E00D4B10E00D4B0EE00D4BA5
:102620000CE00D4B0AE00D4B08E00D4B06E00D4BA6
:1026300004E00D4B02E00D4B00E000231800BD4606
:1026400002B080BD1C8501001F6500001F43000013
:102650001F4401001F4502001F4501001F460200E4
:102660001F4603001F8600001F4701001F4800008F
:1026700080B582B000AF0200FB1D1A70FB1D1B78F5
:10268000092B19D89A000F4BD3181B689F4680233B
:102690005B0212E08023DB020FE080231B030CE0CF
:1026A00080235B0309E080239B0306E08023DB0398
:1026B00003E080231B0400E000231800BD4602B0A5
:1026C00080BDC0464485010080B582B000AF78600F
:1026D0007B685B7900211800024B9847C046BD46D5
:1026E00002B080BDF923000080B582B000AF7860F1
:1026F0007B685B7901211800024B9847C046BD46B4
:1027000002B080BDF923000084B0B0B584B000AF42
:10271000786004202024A446BC44604401604260E8
:102720008360042320229446BC4463441A7808231F
:10273000FB181A70042320229446BC4463445B783F
:10274000012B1FD9042320229446BC4463445B68B8
:10275000DAB20823FB18DA70042320229446BC4422
:1027600063445B681B0ADAB20823FB189A700423DF
:1027700020229446BC4463445B681B0CDAB20823F5
:10278000FB185A707B6818001D4B98477B681868C7
:10279000042320229446BC4463445B789AB20F23FE
:1027A000FC180823FB181900164B984703002370E8
:1027B000042320229446BC4463449B89002B14D0FC
:1027C0007B681868042320229446BC4463449968BB
:1027D000042320229446BC4463449A890F23FC18A6
:1027E0000023094DA847030023707B681800074B9E
:1027F0009847C046BD4604B0B0BC08BC04B01847FA
:10280000C9260000799E0000559C0000E9260000C2
:1028100084B090B585B000AF786004202024A44631
:10282000BC446044016042608360042320229446DB
:10283000BC4463441A780823FB181A70042320222E
:102840009446BC4463445B78012B1FD904232022A7
:102850009446BC4463445B68DAB20823FB18DA7020
:10286000042320229446BC4463445B681B0ADAB20A
:102870000823FB189A70042320229446BC44634426
:102880005B681B0CDAB20823FB185A707B681800CF
:102890001D4B98477B681868042320229446BC444B
:1028A00063445B789AB20F23FC180823FB181900C5
:1028B000164B984703002370042320229446BC44FF
:1028C00063449B89002B14D07B6818680423202262
:1028D0009446BC4463449968042320229446BC4433
:1028E00063449B890F22BC181A00084B98470300C9
:1028F00023707B681800064B9847C046BD4605B05C
:1029000090BC08BC04B01847C9260000799E00009E
:10291000E926000090B585B000AF78600C23FB1865
:1029200000221A80C0467B681B6818003C4B984701
:1029300003001A0001235340DBB2002BF3D17B6864
:102940001800384B98477B681B680F22BC1805217C
:102950001800354B984703002370C0467B681B68FE
:102960001800324B984703001A0001235340DBB292
:10297000002BF3D17B681B680F22BC180C22BA18FD
:10298000110018002A4B984703002370C0467B684B
:102990001B681800224B984703001A00012353407C
:1029A000DBB2002BF3D17B681B680F22BC1800211F
:1029B00018001D4B984703002370C0467B681B68B6
:1029C00018001A4B984703001A0001235340DBB24A
:1029D000002BF3D17B681B680F22BC180C22BA189D
:1029E00011001800124B9847030023700C23FB18AA
:1029F0001B881A0001231340C8D17B6818000D4BB7
:102A000098470C23FB181B881A002023134001D081
:102A1000102300E000231800BD4605B090BDC0465D
:102A2000D3240000C926000025250000FB24000057
:102A30006D250000E926000090B589B002AF7860EE
:102A40000823FB1806221A700823FB1801225A706B
:102A50000823FB1800229A810823FB1800225A60E1
:102A60000823FB1800229A600823FB1878686A463E
:102A7000D968116019685A689B68034CA047C04622
:102A8000BD4607B090BDC0461128000090B58BB080
:102A900002AF78600023BB607B681B681F22BC18F4
:102AA0001800214B9847030023701F23FB181B7845
:102AB000052B03D11F23FB181B7830E00C23FB18D8
:102AC0009F221A700C23FB1801225A700C23FB184A
:102AD0000822BA189A600C23FB1803229A810C234F
:102AE000FB1800225A600C23FB1878686A46D968E4
:102AF000116019685A689B680C4CA0477B681B687A
:102B000018000B4B98477B681B791800094B9847B6
:102B10000200BB689A4201D1002300E01423180090
:102B2000BD4609B090BDC0467524000009270000CD
:102B3000BD240000F525000090B58DB002AFF8600F
:102B4000B9607A601A00BB1C1A80BB1C1A88BB686B
:102B5000D418FB681B791800214B984703009C424E
:102B600001D9172337E0FB681B682722BC1818001F
:102B70001C4B9847030023702723FB181B78052B59
:102B800003D12723FB181B7825E01423FB180B2205
:102B90001A701423FB1805225A701423FB18BA6804
:102BA0005A601423FB187A689A601423FB18BA1C25
:102BB00012889A811423FB18F8686A46D968116054
:102BC00019685A689B68084CA047FB681B68180086
:102BD000064B984700231800BD460BB090BDC04679
:102BE000712600007524000009270000BD240000A4
:102BF00090B58DB002AFF860B9607A601A00BB1C66
:102C00001A80BB1C1A88BB68D418FB681B79180093
:102C10005B4B984703009C4201D91723ABE0FB684C
:102C20001B682722BC181800564B984703002370D6
:102C30002723FB181B78052B03D12723FB181B78B0
:102C400099E0FB681800504B98471423FB180222A8
:102C50001A701423FB1804225A701423FB18BA6844
:102C60005A601423FB187A689A60BB689BB2FF22F3
:102C700013409AB22423FB18802149008A1A1A8033
:102C8000BB1C2422BA1810881B8899B282B29142C8
:102C900000D9031C9AB21423FB189A811423FB1841
:102CA000F8686A46D968116019685A689B68374C99
:102CB000A0472723FC18FB681800354B98470300F2
:102CC00023701423FB189A89BB1CB91C09888A1A23
:102CD0001A803FE0FB6818002B4B98471423FB1821
:102CE0005B681422BA1892899A181423FB185A6048
:102CF0001423FB189B681422BA1892899A1814237B
:102D0000FB189A60BB1C1B8899B28022520091422A
:102D100001D980235B009AB21423FB189A811423F3
:102D2000FB18F8686A46D968116019685A689B6888
:102D3000164CA0472723FC18FB681800144B984733
:102D4000030023701423FB189A89BB1CB91C098843
:102D50008A1A1A80BB1C1B88002B04D02723FB185F
:102D60001B78002BB6D0FB681B681800094B9847EE
:102D70002723FB181B781800BD460BB090BDC0463A
:102D80007126000075240000392A00001128000077
:102D900015290000BD24000090B58DB002AFF86089
:102DA000B960FB1D1A70FB681B791800334B9847FC
:102DB0000200BB689A4201D817235BE0FB681B68DE
:102DC0002722BC1818002E4B984703002370272396
:102DD000FB181B78052B03D12723FB181B7849E030
:102DE000FB681800274B9847FB1D1B78012B08D068
:102DF000022B0BD0002B0ED11423FB1820221A70AB
:102E00000DE01423FB1852221A7008E01423FB185B
:102E1000D8221A7003E01423FB1800221A7014231E
:102E2000FB1804225A701423FB18BA685A60142342
:102E3000FB1800229A811423FB1800229A601423A5
:102E4000FB18F8686A46D968116019685A689B6867
:102E50000D4CA0472723FC18FB6818000B4B984724
:102E600003002370FB681B681800094B9847272351
:102E7000FB181B781800BD460BB090BD71260000F2
:102E800075240000392A00001128000015290000CF
:102E9000BD24000090B58BB002AF78600A00FB1C27
:102EA0001A707B681B681F22BC181800224B9847B9
:102EB000030023701F23FB181B78052B03D11F234E
:102EC000FB181B7833E07B6818001C4B9847FB1CF1
:102ED0001B78002B01D03C2200E000220B23FB18C2
:102EE0001A700C23FB1801221A700C23FB18012204
:102EF0005A700C23FB1801229A810C23FB180B2219
:102F0000BA189A600C23FB1800225A600C23FB1895
:102F100078686A46D968116019685A689B68084CD5
:102F2000A0477B681B681800064B984700231800D1
:102F3000BD4609B090BDC04675240000392A000086
:102F400011280000BD24000090B58BB002AF78605E
:102F50007B681B681F22BC1818001B4B9847030096
:102F600023701F23FB181B78052B03D11F23FB188D
:102F70001B7824E00C23FB18B9221A700C23FB18D1
:102F800001225A700C23FB1800229A810C23FB1893
:102F900000225A600C23FB1800229A600C23FB18B5
:102FA00078686A46D968116019685A689B68074C46
:102FB000A0477B681B681800054B98470023180042
:102FC000BD4609B090BDC046752400001128000020
:102FD000BD24000090B58BB002AF78607B681B68A1
:102FE0001F22BC1818001B4B9847030023701F2397
:102FF000FB181B78052B03D11F23FB181B7824E03B
:103000000C23FB18AB221A700C23FB1801225A70F8
:103010000C23FB1800229A810C23FB1800225A6013
:103020000C23FB1800229A600C23FB1878686A4670
:10303000D968116019685A689B68074CA0477B687B
:103040001B681800054B984700231800BD4609B0BF
:1030500090BDC0467524000011280000BD2400006A
:1030600080B584B000AF0200FB1D1A700F23FB185F
:10307000FA1D1278D2091A700E23FB18FA1D127865
:1030800052091A700D4BBB600F23FB181B78002BE5
:103090000FD10F23FB181B789B0010229446BC44D1
:1030A0006344083B1A680E23FB181B78DB01D31816
:1030B00000E000231800BD4604B080BD004400417C
:1030C00080B500AF044B01221A70BFF35F8F62B668
:1030D000C046BD4680BDC0461400002080B582B009
:1030E00000AF0200FB1D1A70FB1D1B781800034B7C
:1030F000984703001800BD4602B080BD6130000053
:1031000080B582B000AF78607B6800221A707B685F
:1031100001225A707B6800229A70C046BD4602B0F8
:1031200080BD000080B584B000AF0200FB1D1A70A6
:10313000BB1D0A1C1A70FB1D1B7818000D4B98470D
:103140000300FB60FB1D1B781F22134001229A40E5
:103150001300BB60BB1D1B78002B03D0FB68BA6853
:103160009A6102E0FB68BA685A61C046BD4604B085
:1031700080BDC046DD30000080B500AF044B1B6849
:10318000002B02D0024B1B689847C046BD4680BD4D
:103190001C02002080B582B000AF3B1D1800104B10
:1031A00098473B1D01221A703B1D19001B200D4B37
:1031B00098473B1D19001C200A4B98473B1D1900DE
:1031C0002820084B984700211C20074B98470021D6
:1031D0001B20054B9847C046BD4602B080BDC04687
:1031E00001310000BD0101002531000080B500AFB4
:1031F0000C4B00221A600C4B98470C4B1B680122A9
:10320000134004D0094B1B680222134001D1084B24
:103210009847084B9847084B984700231800BD462D
:1032200080BDC0461C0200209531000010E000E087
:1032300041D300003D320000C130000080B500AF36
:1032400000211C200B4B984700211B20094B98475D
:103250000120094B984701211C20064B98470A2062
:10326000054B984701211B20024B9847C046BD469D
:1032700080BDC046253100007D32000080B582B09F
:1032800000AF786002E00120054B98477B685A1E2A
:103290007A60002BF7D1C046BD4602B080BDC04663
:1032A000C9D3000080B586B000AF7860154B7A684E
:1032B0001A600C23FB181800134B98470C23FB18BB
:1032C00029221A600C23FB1800225A600C23FB18D9
:1032D00001221A720C23FB180222DA720C23FB184B
:1032E00019000920094B9847094B002209211800B1
:1032F000084B984700210920074B9847C046BD4618
:1033000006B080BD1C020020BD8F0000F18F0000C0
:1033100079310000BD8B0000218C000080B582B0A7
:1033200000AF0200FB1D1A70FB1D1B78002B04D0A0
:1033300000210920054B984703E000210920044B98
:103340009847C046BD4602B080BDC046218C0000F3
:10335000698C000080B584B000AF0200FB1D1A70BC
:103360000F23FB18FA1D1278D2091A700E23FB18CE
:10337000FA1D127852091A700D4BBB600F23FB180F
:103380001B78002B0FD10F23FB181B789B001022FA
:103390009446BC446344083B1A680E23FB181B7810
:1033A000DB01D31800E000231800BD4604B080BD47
:1033B0000044004180B582B000AF0200FB1D1A70CE
:1033C000064BFA1D127811001F220A40012191407C
:1033D0000A001A60C046BD4602B080BD00E100E0B0
:1033E00080B582B000AF0200FB1D1A70074AFB1DBA
:1033F0001B7819001F230B40012199400B00190075
:103400008023D150C046BD4602B080BD00E100E03F
:1034100080B582B000AF0200FB1D1A70FB1D1B7847
:103420001800034B984703001800BD4602B080BD4A
:103430005533000080B582B000AF78607B68002211
:103440001A707B6801225A707B6800229A70C0460D
:10345000BD4602B080BD000080B584B000AF020060
:10346000FB1D1A70BB1D0A1C1A70FB1D1B7818006F
:103470000D4B98470300FB60FB1D1B781F22134078
:1034800001229A401300BB60BB1D1B78002B03D0A8
:10349000FB68BA689A6102E0FB68BA685A61C04684
:1034A000BD4604B080BDC0461134000080B584B074
:1034B00000AF78607B681B68FB60FB68DB695A1EA5
:1034C0009341DBB21800BD4604B080BD80B582B028
:1034D00000AF78607B6801221A707B6800225A6016
:1034E0007B6800229A607B68C0229203DA607B6866
:1034F00000221A747B6800225A747B6801229A7435
:103500007B680122DA747B6800221A757B682422AA
:10351000002199547B6818330C22002118000A4BB3
:1035200098477B68094A9A617B6800229A627B68A7
:103530000022DA627B6800221A637B6800225A63E9
:10354000C046BD4602B080BD2F250100A086010007
:1035500080B582B000AF78607B680A221A707B6801
:1035600000225A707B6800229A70C046BD4602B0A5
:1035700080BD000080B584B000AF786039603B68E2
:103580001A787B681A703B685A787B685A703B6877
:103590009A787B689A700C23FB1818000B4B98479D
:1035A0000C23FB1801221A707B681B780C22BA18B6
:1035B00011001800064B98477B681B780121180002
:1035C000044B9847C046BD4604B080BD353400006A
:1035D000BD0101005934000080B584B000AF7860AF
:1035E0007B681B68FB607B681B6818000B4B984767
:1035F000030018000A4B9847C0467B681800094B27
:103600009847031EF9D1FB681B6802221A43FB6826
:103610001A60C046BD4604B080BDC046E1FE000051
:10362000B5330000AD34000080B584B000AF7860E1
:103630007B681B68FB607B681B6818000E4B984713
:10364000030018000D4B9847C0467B6818000C4BD0
:103650009847031EF9D1FB688F221A75FB688F22E9
:103660001A76FB681B68022293431A00FB681A60F3
:10367000C046BD4604B080BDE1FE0000E13300005D
:10368000AD34000080B584B000AF78607B681B6803
:10369000FB60FB681B7EDBB21A00022313405A1E3C
:1036A0009341DBB21800BD4604B080BD80B584B044
:1036B00000AF78607B681B68FB60FB681B7EDBB239
:1036C0001A00012313405A1E9341DBB21800BD4675
:1036D00004B080BD80B584B000AF78607B681B68A3
:1036E000FB60FB681B7EDBB21A00042313405A1EEA
:1036F0009341DBB21800BD4604B080BD80B584B0F4
:1037000000AF78600A00BB1C1A807B681B68FB60F6
:103710007B6818000A4B984703001A0001235340A6
:10372000DBB2002B01D0052306E0BB1C1B88DB05A8
:10373000DA0DFB689A6200231800BD4604B080BD14
:10374000AD36000080B584B000AF786039607B682A
:103750001B68BB607B6818001B4B984703001A006E
:1037600001235340DBB2002B01D0102327E00F23AD
:10377000FB1800221A70BB685B8B9BB21A000423F3
:10378000134006D00F23FB181E221A70BB680422B8
:103790005A837B689B79012B08D1BB689B6A9BB2DB
:1037A000DB05DB0D9AB23B681A8005E0BB689B6ABB
:1037B000DBB29AB23B681A800F23FB181B78180003
:1037C000BD4604B080BDC046D536000080B586B089
:1037D00000AFF860B960BB1D1A801323FB180022EC
:1037E0001A701723FB1800221A701623FB180022E8
:1037F0001A701423FB1800221A801023FB180022D1
:103800001A80BB68002B02D1FB68002B03D0BB1DC4
:103810001B88002B02D10F235B427EE0FB68002B4C
:1038200006D11323FB18FB601723FB1801221A7023
:10383000BB68002B06D11323FB18BB601623FB18B3
:1038400001221A703749384B01221800374B98472C
:103850004CE0FB681A781423FB181A80C046324BE0
:103860001800334B984703001A0001235340DBB282
:10387000002BF4D1C0461423FB181A882A4B1100E0
:1038800018002C4B9847031EF5D1C046264B180054
:10389000294B984703001A0001235340DBB2002B49
:1038A000F4D1C0461023FA181F4B11001800234B07
:1038B0009847031EF6D11023FB181B88DAB2BB68A9
:1038C0001A70BB1D1A88BB1D013A1A801623FB18FB
:1038D0001B78002B02D1BB680133BB601723FB1898
:1038E0001B78002B02D1FB680133FB60BB1D1B88DA
:1038F000002BAED1C0460C4B1800114B984703006B
:103900001A0001235340DBB2002BF4D10549064BCA
:1039100000221800054B984700231800BD4606B04A
:1039200080BDC046B0050020B4050020899D000080
:10393000AD360000FD360000D536000045370000EA
:103940008536000080B592B000AF78604723FB1841
:1039500000221A700823FB181800264B98470823EA
:10396000FB180E221A700823FA18234B11001800B6
:10397000224B98470C23FB181800214B98470C2327
:10398000FB18C0229203DA600C23FB181D4A9A62CE
:103990000C23FB181C4ADA620C23FB18012252424A
:1039A0001A630C23FB18194A5A630C23FB180022D4
:1039B0001A750C23FB18164A9A610C23FA1815493C
:1039C000154B1800154B9847031E02D006235B4287
:1039D0000CE0114B1800124B9847124B98470120EE
:1039E000114B98474723FB181B785BB21800BD4664
:1039F00012B080BD51350000B005002075350000C3
:103A0000CD34000002000C0002000D0002000F0087
:103A1000001BB70000100042B4050020C59A00004A
:103A2000D93500003D3200007D32000090B585B0F0
:103A300000AF02003960FB1D1A700F23FB18002233
:103A40001A70FB1D1B78032B0FD13B68BB60BB6852
:103A50001868BB685968BB681B890F22BC181A001C
:103A6000104B98470300237013E00F23FB18FF222D
:103A70001A700E23FF331A000B490C4B18000C4B25
:103A800098470C4B18000C4B98470D200B4B984750
:103A9000C0460F23FB181B785BB21800BD4605B06B
:103AA00090BDC046CD370000948501006C850100B3
:103AB000712F0100808501008D300100A52F0100CC
:103AC00080B582B000AFFB1D00221A703B1D1800AC
:103AD000134B98473B1D00221A703B1D00225A7061
:103AE000104B1800104B98473B1D19000C200F4B32
:103AF00098473B1D19000F200C4B98473B1D1900A0
:103B00000D200A4B98473B1D19000E20074B984784
:103B1000FB1D1B785BB21800BD4602B080BDC046DD
:103B200035340000B405002029360000BD01010035
:103B300080B584B000AFF860B9607A607B68002B14
:103B400010D0BB681A78FB681A70FB680133FB6001
:103B5000BB680133BB607B68013B7B607B68002BEB
:103B6000EFD100E0C046BD4604B080BD80B584B052
:103B700000AFF8607A600B23FB180A1C1A707B6890
:103B8000002B0ED0FB680B22BA1812781A70FB6853
:103B90000133FB607B68013B7B607B68002BF1D1CC
:103BA00000E0C046BD4604B080BD80B584B000AF23
:103BB00078600E23FB1800221A8009E00E23FB1800
:103BC0001A880E23FB1801321A807B6801337B6050
:103BD0007B681B78002BF1D10E23FB181B88180083
:103BE000BD4604B080BD000080B500AF044BDB785B
:103BF000DBB20133DAB2024BDA70C046BD4680BD9B
:103C0000F005002090B583B000AFFB1D00221A70B4
:103C1000144B00229A700120134B9847FC1D3B0067
:103C2000124A19001000124B984703002370FB1D25
:103C30001B785BB2002B0DD13B68022213433B6023
:103C40003B68FC1D094A190010000A4B9847030005
:103C5000237000E0C046FB1D1B785BB21800BD4618
:103C600003B090BDF00500201D330000701000006F
:103C7000A95B0000CD5B000080B582B000AF3A6068
:103C8000FB1D021C1A703B1D0A1C1A80C046BD4653
:103C900002B080BD90B583B000AFFB1D00221A704A
:103CA000164B9B78DBB2002B03D0FB1D1B785BB25D
:103CB0001FE0124B5B78DBB2002B0ED10F4B1B7851
:103CC000DBB2002B09D0FC1D0D4B9847030023707D
:103CD000FB1D1B785BB2002B07D1084B5B78DBB276
:103CE0000133DAB2054B5A7000E0C046FB1D1B7869
:103CF0005BB21800BD4603B090BDC046F005002081
:103D00007D56000080B500AF074B5B78DBB2002B1F
:103D100006D0054B5B78DBB2013BDAB2024B5A703E
:103D200000231800BD4680BDF005002090B583B08B
:103D300000AFFB1D00221A70104B5B78DBB2002B2A
:103D400006D00E4B5B78DBB2013BDAB20B4B5A70FC
:103D50000A4B5B78DBB2002B09D1084B1B78DBB236
:103D6000002B04D0FC1D064B984703002370FB1D5D
:103D70001B785BB21800BD4603B090BDF005002073
:103D8000A555000080B582B000AF7860094B2822AD
:103D900000211800084B9847084B1800084B98471B
:103DA000084B19000320084B984700231800BD4614
:103DB00002B080BDF00500206D3B0000E93B000033
:103DC000A5320000793C00004148000090B589B060
:103DD00000AF040008003A601900FB1D221C1A7095
:103DE000BB1D021C1A703B1D0A1C1A801F23FB18E6
:103DF000FF221A70BB1D1B787F221340DAB21823F2
:103E0000FB185A701823FB18FA1D12781A70182321
:103E1000FB1808225A803B6B002B11D01823FB188B
:103E20005B889AB23823F9183423FB1809881B8859
:103E3000CB189BB2D3189AB21823FB185A800AE009
:103E40001823FB185B889AB23B1D1B88D3189AB2C3
:103E50001823FB185A801F23FC18B04B9847030007
:103E600023701F23FB181B785BB2002B00D027E1C7
:103E700000233B610E23FB1800221A8000237B6184
:103E8000FB1D1A787B6913437B61BB1D1B781A02EB
:103E90007B6913437B611823FB185B889BB21A0470
:103EA0007B6913437B617B691F22BC189C4A190004
:103EB00010009C4B9847030023701F23FB181B78AE
:103EC0005BB2002B00D015E100237B617B690222ED
:103ED00013437B617B691F22BC18934A19001000B1
:103EE000904B9847030023701F23FB181B785BB28D
:103EF000002B00D000E100233B610E23FB180022C1
:103F00001A804FE01F23FC181423FB18864A19005F
:103F10001000864B9847030023701F23FB181B7863
:103F20005BB2002B46D10E23FB181B889AB2F423F8
:103F3000FF339A4215D90E23FB181B889AB2FA2335
:103F40005B009A420AD87A4B18007A4B98477A4B12
:103F500018007A4B98470D20794B98470120794BF0
:103F600098477B690222134013D11F23FC181023AA
:103F7000FB18754A190010006C4B9847030023701A
:103F80001F23FB181B785BB2002B15D000233B616D
:103F9000B9E00E23FB181B889BB201339AB20E23A3
:103FA000FB181A800E23FB181B889BB2674A9342AA
:103FB000A8D902E0C04600E0C0463B69002B00D112
:103FC00073E03B69BB601823FB185B889AB2182327
:103FD000FB185A80BB681F22BC181822B918082287
:103FE00018005B4B9847030023701F23FB181B78B6
:103FF0005BB2002B00D081E0BB680833BB603B683C
:10400000002B15D0B8683B1D1A881F23FC183B688D
:1040100019004F4B9847030023701F23FB181B7890
:104020005BB2002B6CD13B1D1A88BB68D318BB60F8
:104030003B6B002B21D03823FB181A883B1D1B88B3
:10404000D31A1A00BB68D318BB60B8683423FB18B6
:104050001A881F23FC183B6B19003D4B984703003F
:1040600023701F23FB181B785BB2002B4AD134232B
:10407000FB181A88BB68D318BB603B699B007B6147
:104080007B69022213437B617B691F22BC18314A82
:1040900019001000234B9847030023701F23FB18BF
:1040A0001B785BB2002B1AD02DE01F23FC182A4B83
:1040B0009847030023701F23FB18FD221A7024E089
:1040C000CB235A002549264B18001A4B9847254BFD
:1040D00018001A4B98470D20194B984715E01F23DD
:1040E000FC181D4B9847030023701F23FB181B78F7
:1040F0005BB20EE0C04606E0C04604E0C04602E007
:10410000C04600E0C046184B98471F23FB181B7899
:104110005BB21800BD4609B090BDC046953C00009A
:104120008C100000CD5B000078100000A95B00003F
:10413000A4850100712F0100B08501008D300100C0
:10414000A52F01007D32000000041500E7030000E8
:10415000155D00006C1000002D3D0000B8880100C6
:10416000C0850100D4850100053D000090B587B0F1
:1041700002AF0F23FB1800221A700F23FC1808232C
:10418000FB18D64A19001000D54B9847030023703E
:104190000F23FB181B785BB2002B00D017E2BB6823
:1041A0000122134000D1FDE10020CE4B9847BB68AF
:1041B00001229343BB60BB680F22BC18C74A190099
:1041C0001000C94B9847030023700F23FB181B787E
:1041D0005BB2002B00D008E2C44B01229A70BB688E
:1041E0009B089AB20C23FB181205120D1A800C239F
:1041F000FB181B88002B00D1C1E100233B600F237B
:10420000FC183B00BA4A19001000B54B9847030050
:1042100023700F23FB181B785BB2002B12D0C8232E
:10422000FF331A00B349B44B1800B44B9847B44B52
:104230001800B44B98470D20B34B98470120A94B69
:104240009847D3E13A68A94B5A600C23FB181A88A7
:10425000A64B9A603B680F22BC18391D0422180037
:10426000AA4B9847030023703B1D5B889AB23B1D05
:104270005A800F23FB181B785BB2002B12D0D2237D
:10428000FF331A009B499C4B18009C4B9847A04B4E
:1042900018009C4B98470D209B4B98470120914B51
:1042A0009847A3E13B1D5B889BB20C22BA18128889
:1042B0009A422DD00C23FB181B883A1D528892B2CB
:1042C0009B1A042B24DDED235A008A498A4B1800DF
:1042D0008A4B98470C23FB1819883B1D5B889BB2BF
:1042E0001A003B1D1B78DBB21C003B1D5B78DBB268
:1042F000884800932300814CA0470D20824B9847AB
:104300000120784B98470F23FB18FA221A706DE1B1
:104310003B1D1B78DBB2012B20D1744BDB68002BDB
:104320000DD0724BDB683A1D5278D0B23A1D5288DC
:1043300092B2083A91B23A6808329847FEE0F32305
:104340005A006C496C4B18006C4B9847724B180024
:104350006C4B98470D206C4B9847EFE03B1D1B784A
:10436000DBB2022B20D1614B1B69002B0DD05F4BC0
:104370001B693A1D5278D0B23A1D528892B2083A5F
:1043800091B23A6808329847D8E0F7235A00594961
:10439000594B1800594B9847604B1800594B984798
:1043A0000D20594B9847C9E03B1D1B78DBB2042B0D
:1043B00020D14E4B5B69002B0DD04C4B5B693A1DF5
:1043C0005278D0B23A1D528892B2083A91B23A6805
:1043D00008329847B2E0FB235A004649464B180082
:1043E000464B98474E4B1800464B98470D20464B7E
:1043F0009847A3E03B1D1B78DBB2062B1FD13B4B3C
:104400001B6A002B0DD0394B1B6A3A1D5278D0B273
:104410003A1D528892B2083A91B23A6808329847E7
:104420008CE0404A3349344B1800344B98473E4B9C
:104430001800344B98470D20334B98477EE03B1DC6
:104440001B78DBB2072B1FD1284B9B69002B0DD0AB
:10445000264B9B693A1D5278D0B23A1D528892B2CF
:10446000083A91B23A680832984767E02F4A2149E2
:10447000214B1800214B98472D4B1800214B984792
:104480000D20214B984759E03B1D1B78DBB2052BD3
:1044900011D1164B5B6A002B50D0144B5B6A3A1D4E
:1044A0005278D0B23A1D528892B2083A91B23A6824
:1044B0000832984742E01F4A0E490F4B18000F4B35
:1044C00098471D4B18000F4B98470D200E4B9847EF
:1044D0000F23FB18FA221A7088E0C0467010000003
:1044E000A95B00001D330000CD5B0000F00500203B
:1044F00084100000C4880100C0850100712F0100F4
:10450000F08501008D300100A52F01001D5C000029
:10451000148601002C8601006C8601008C86010047
:10452000B0860100FF010000D086010006020000F5
:10453000F48601000F020000188701002F4B9B78C2
:10454000DBB2002B52D02E4A2E492F4B18002F4B96
:1045500098473B1D1B78DBB219003B1D5B78DBB233
:104560001A002B4B1800294B98470D20294B9847D0
:104570000F23FC18284B98470300237036E087234D
:104580009A002049204B1800204B9847234B1800D5
:10459000234B98470D201F4B98470F23FB18FE22F3
:1045A0001A7023E089239A001649174B1800174BFD
:1045B0009847BA681B4B11001800144B98470D2000
:1045C000144B98470F23FB18F4221A700EE0164A7A
:1045D0000C490D4B18000D4B9847144B1800104B0D
:1045E00098470D200B4B984700E0C0460F23FB185F
:1045F0001B785BB21800BD4605B090BDF0050020E9
:1046000015020000C4880100C0850100712F01005F
:1046100030870100A52F0100053C00005C870100E8
:104620008D300100708701002D0200008C87010091
:1046300090B583B000AFFB1D00221A7023E0184B29
:10464000DB78DBB2013BDAB2154BDA70FC1D154B9F
:10465000984703002370FB1D1B785BB2002B00D131
:1046600011E0114A1149124B1800124B9847FB1DDB
:1046700000229A56104B110018000E4B98470D203F
:104680000E4B9847E2E7064BDB78DBB2002BD6D126
:10469000FB1D1B785BB21800BD4603B090BDC04641
:1046A000F00500206D4100004A020000CC880100A6
:1046B000C0850100712F0100B0870100A52F010006
:1046C00090B587B000AFF860B9601900BB1D1A80C3
:1046D0007B1D0A1C1A701723FB1800221A70FB6836
:1046E000002B06D0BB68002B03D0BB1D1B88002B02
:1046F0001CD17B1D1B78002B06D01723FC18424BC6
:1047000098470300237077E01723FB18F4221A70F0
:104710003E4A3F493F4B18003F4B98473F4B1800DC
:104720003F4B98470D203F4B984765E0BB1D1A88CB
:104730003D4B9B689A4215D91723FB18F4221A7037
:104740003A4A3349334B1800334B9847BB1D1988FD
:10475000354B9A68364B18002F4B98470D20314B3C
:10476000984749E0304B5A68FB689A420AD8BB1D0B
:104770001A88FB68D2182C4B59682B4B9B68CB18B6
:104780009A4211D91723FB18F4221A70294A20499A
:10479000204B1800204B9847274B1800204B984778
:1047A0000D20204B984727E0BB1D1A881723FC18C3
:1047B000B968FB681800214B984703002370172342
:1047C000FB181B785BB2002B15D1174B5A68164BA0
:1047D0009B68D218BB1D1988FB68CB189A4203D07E
:1047E0007B1D1B78002B07D01723FC18064B98471E
:1047F0000300237000E0C0461723FB181B785BB250
:104800001800BD4607B090BD053C00006B020000DB
:10481000DC880100C0850100712F0100E0870100E4
:104820008D300100A52F0100F0050020730200006B
:104830000088010079020000488801001D5C00002A
:1048400080B584B000AF02003960FB1D1A700F23E1
:10485000FB1800221A70FB1D1B78072B20D89A002A
:104860001E4BD3181B689F461D4B3A681A612CE0FB
:104870001B4B3A68DA6028E0194B3A685A6124E029
:10488000174B3A68DA6120E0154B3A681A621CE06F
:10489000134B3A689A6118E0114B3A685A6214E077
:1048A000104A1149114B1800114B9847FB1D1A78FB
:1048B000104B110018000E4B98470D200E4B9847D7
:1048C0000F23FB18F4221A70C0460F23FB181B7825
:1048D0005BB21800BD4604B080BDC0469888010098
:1048E000F0050020B1020000E8880100C085010049
:1048F000712F01008C880100A52F010090B5ADB08B
:1049000002AF3A60FB1D021C1A703B1D0A1C1A8084
:10491000FB1D1B782C2B16D19C23F918386800231B
:104920000422C64CA047031E00D0AAE1C44B1B685A
:10493000002B00D1A5E1C24B1B689C22BA181100C4
:104940002C2098479DE1FB1D1B781B2B16D194232F
:10495000F918386800230822B84CA047031E00D07D
:104960008FE1B74B1B68002B00D18AE1B44B1B6869
:104970009422BA1811001B20984782E1FB1D1B7876
:10498000062B16D10823F918386801233022AB4CC6
:10499000A047031E00D074E1A94B1B68002B00D177
:1049A0006FE1A74B1B680822BA1811000620984730
:1049B00067E1FB1D1B780E2B00D162E1FB1D1B780C
:1049C000322B16D18023F9183868002314229B4C0F
:1049D000A047031E00D054E1994B1B68002B00D167
:1049E0004FE1974B1B688022BA181100322098477C
:1049F00047E1FB1D1B782F2B1DD10823FB186422D8
:104A0000002118008F4B98470823F91838680023B5
:104A100064228A4CA047031E00D032E1884B1B68F9
:104A2000002B00D12DE1864B1B680822BA1811001B
:104A30002F20984725E1FB1D1B78342B2ED17C239A
:104A4000F9183868002304227C4CA047031E00D0CC
:104A500017E17D4B18007D4B9847FB6F1B0EDBB2B7
:104A60001900FB6F1B0CDBB21A00FB6F1B0ADBB2D9
:104A70001C00FB6FDBB2764800932300734CA04709
:104A80000D20744B98476E4B1B68002B00D1F8E04B
:104A90006B4B1B68002134209847F2E0FB1D1B780C
:104AA000112B1ED16C4B00221A707823F91838682C
:104AB00000230422614CA047031E00D0E1E07823CC
:104AC000FB181A78654B1A705D4B1B68002B00D1E0
:104AD000D7E05B4B1B687822BA1811001120984769
:104AE000CFE0FB1D1B78132B16D10823F91838686B
:104AF00000232C22514CA047031E00D0C1E0504B94
:104B00001B68002B00D1BCE04D4B1B680822BA1873
:104B1000110013209847B4E0FB1D1B78042B16D11D
:104B2000A023F918386800230422444CA047031E30
:104B300000D0A6E0424B1B68002B00D1A1E0404B07
:104B40001B68A022BA1811000420984799E0FB1DA9
:104B50001B78652B16D1A023F9183868002304228E
:104B6000364CA047031E00D08BE0354B1B68002B52
:104B700000D186E0324B1B68A022BA1811006520D4
:104B800098477EE0FB1D1B78092B16D10823F918E6
:104B9000386801236422294CA047031E00D070E02E
:104BA000274B1B68002B00D16BE0254B1B680822AC
:104BB000BA1811000920984763E0FB1D1B782A2BC7
:104BC00014D17423F9183868012304221B4CA04720
:104BD000031E56D11A4B1B68002B52D0184B1B6872
:104BE0007422BA1811002A2098474AE0FB1D1B784E
:104BF000202B35D16C23F9183868002308220F4C7C
:104C0000A047031E3DD13B68083318006C23FB18F6
:104C100019686C23FB189A880123084CA047031ECF
:104C20002FD1074B1B68002B2BD0054B1B686C2228
:104C3000BA1811002020984723E0C046C146000062
:104C4000240200206D3B0000F8880100712F010054
:104C500004890100A52F010021020020200200206C
:104C600095235A0009490A4B18000A4B9847FB1D27
:104C70001A78094B11001800064B98470D20074B76
:104C80009847C046BD462BB090BDC046AC8C0100D5
:104C900024890100712F010038890100A52F01002E
:104CA00090B591B002AF78603723FB1800221A70DC
:104CB0000B23FB1801221A707B68002B04D13723C9
:104CC000FB18F4221A70ADE07B681A68594B1A6021
:104CD000594B00221A703723FC180B23FB181800BD
:104CE000564B9847030023703723FB181B785BB2A1
:104CF000002B00D093E03723FC180020504B98473E
:104D0000030023703723FB181B785BB2002B00D005
:104D100080E04C4B190001204B4B98473723FC187F
:104D20000C23FB181800494B984703002370484B8D
:104D30001800484B98470C23FB181B7919000C23CB
:104D4000FB185B791A000C23FB189B791C000C23C1
:104D5000FB181B8C4048009323003E4CA0470D20BD
:104D60003E4B98473A4B18003A4B98470C23FB1898
:104D700016331A000C23FB180A331900384B18009D
:104D8000344B98470D20354B9847314B1800314B29
:104D900098470C23FB18DB7919000C23FB181B7AAE
:104DA0001A000C23FB185B7A2E482A4CA0470D20D2
:104DB0002A4B9847264B1800264B98472A4802232F
:104DC00005221321234CA0470D20244B9847204B4C
:104DD0001800204B9847254A2549264B18001D4BA3
:104DE00098470D201D4B98473723FB181B785BB263
:104DF0000D3316D1EE23FF331A001F491F4B180045
:104E0000144B98471E4B18001E4B98470D20134B10
:104E1000984706E0C04600201B4B984702E0C0467A
:104E200000E0C0463723FB181B785BB21800BD4674
:104E30000FB090BD2402002021020020AD5F0000D1
:104E4000853D0000FD48000041480000E15D000094
:104E5000F8880100712F01008C8A0100A52F010044
:104E6000B48A0100D08A0100F48A01000C8B010091
:104E7000188B0100248B0100B88C010024890100EB
:104E80003C8B01008D3001004161000080B582B093
:104E900000AF7860034B984703001800BD4602B08E
:104EA00080BDC0463146000090B587B002AFF860C3
:104EB000080011007B600B23FB18021C1A700A23E8
:104EC000FB180A1C1A707C680A23FB181A780B233B
:104ED000FB181978F868002301932023FB181B881E
:104EE00000932300034CA04703001800BD4605B003
:104EF00090BDC046F94E0000B0B5AAB004AFF8604E
:104F0000080011007B600B23FB18021C1A700A2397
:104F1000FB180A1C1A709723FB1800221A700A2328
:104F2000FB181B78012B00D183E07B68002B11D18B
:104F3000DB4ADC49DC4B1800DC4B9847DC4B1800A3
:104F4000DC4B98470D20DC4B98479723FB18F42245
:104F50001A70F5E10A23FB181B78022B69D17B68D4
:104F60001800D64B98470300402B62D19623FB18BC
:104F700000221A707B689022BA18136054E09623BE
:104F8000FB181B789022BA181268D3181B782F2BA5
:104F900031D99623FB181B789022BA181268D318BF
:104FA0001B78392B09D99623FB181B789022BA1845
:104FB0001268D3181B78402B1DD99623FB181B7839
:104FC0009022BA181268D3181B78462B09D9962359
:104FD000FB181B789022BA181268D3181B78602B24
:104FE00009D99623FB181B789022BA181268D31897
:104FF0001B78662B11D9B24AAA49AB4B1800AB4BB0
:105000009847B04B1800AB4B98470D20AA4B9847D8
:105010009723FB18F4221A7092E19623FB181A7852
:105020009623FB1801321A709623FB181B783F2B2E
:10503000A5D90B23FB181B78002B04D00B23FB18DE
:105040001B78202B11D9A04A9649974B1800974BF3
:1050500098479E4B1800974B98470D20964B9847C2
:105060009723FB18F4221A706AE1A823FB181B8807
:10507000002B04D0A823FB181B880E2B16D9A823BD
:10508000FB181B88FF2B11D0914A8649864B1800CC
:10509000864B98478F4B1800864B98470D20864BC0
:1050A00098479723FB18F4221A7049E10B23FB1849
:1050B0001A78F9681423FB1846331800864B984772
:1050C0000B23FB181B781422BA184621D3185B183F
:1050D00000221A701423FB18A822BA18442112883F
:1050E0005A52AC23FB181B785A1E9341DBB21900AD
:1050F0001423FB18672299541423FB188C22BA1826
:1051000013608C23FB181B680A22BA1841211278FD
:105110005A540A23FB181B78032B00D07BE07B68D2
:105120008822BA1813608C23FB181B688422BA18D3
:1051300013608823FB181B681B78013BDAB28423B9
:10514000FB181B681A708423FB181B681B78032B41
:1051500017D9624A5349544B1800544B984784233B
:10516000FB181B681B781A005D4B110018004F4B91
:1051700098470D20504B98479723FB18F4221A703C
:10518000DEE08823FB181B685B78013BDAB28423DE
:10519000FB181B685A708423FB181B685B780A2B6A
:1051A0001ED08423FB181B685B781A2B18D096231B
:1051B0009A003C493C4B18003C4B98478423FB1811
:1051C0001B685B781A00474B11001800374B984753
:1051D0000D20394B98479723FB18F4221A70AFE043
:1051E0008423FB181B68981C8823FB181B68991CD8
:1051F0008823FB181B685B781A00374B9847882375
:10520000FB181B685B781A008423FB181B689B182B
:1052100000229A7083E00A23FB181B78022B30D1FE
:105220008223FC187B681800244B984703002380D6
:105230008223FB181B88002B04D08223FB181B88B9
:10524000402B11D9284A1749174B1800174B98477C
:10525000264B1800174B98470D20174B984797235C
:10526000FB18F4221A706BE08C23FB181868822359
:10527000FB181B8801331A007B681900164B9847EE
:105280004DE00A23FB181B78042B31D18C23FB182B
:105290001B6879683E2218000F4B98473FE0C046D4
:1052A0001B020000C88C010024890100712F01003D
:1052B000588B01008D300100A52F0100AB3B000091
:1052C000270200006C8B010031020000788B010086
:1052D0003A0200008C8B0100313B000051020000BB
:1052E000988B0100B48B010067020000D08B010095
:1052F0000A23FB181B78012B11D0154A1549164BB0
:105300001800164B9847164B1800164B98470D205F
:10531000154B98479723FB18F4221A7010E0972337
:10532000FC181423FA18002302930023019300238E
:1053300000936C23282101200C4DA8470300237003
:105340009723FB181B785BB21800BD4626B0B0BD92
:1053500077020000C88C010024890100712F010030
:10536000EC8B01008D300100A52F0100CD3D000028
:1053700080B500AF00231800BD4680BD90B587B052
:1053800000AF78601723FB1800221A707B683B611E
:105390003B698022520013433B613A69A5235B01BC
:1053A00011001800124B98473B69002B18D00023BE
:1053B000FB601723FC180C23FA18A5235B011100CE
:1053C00018000C4B9847030023701723FB181B7819
:1053D0005BB2002BE1D1FA683B699A4202D0DCE76C
:1053E000C04600E0C04600231800BD4607B090BD8F
:1053F000CD5B0000A95B000090B583B000AF002337
:105400003B60FB1D00221A70FC1D3B00244A190062
:105410001000244B984703002370FB1D1B785BB2E0
:10542000002B31D13B688022520013433B603B6824
:10543000FC1D1B4A190010001B4B984703002370EA
:10544000FB1D1B785BB2002B20D1FC1D3A00D02342
:105450005B0111001800134B984703002370FB1DDC
:105460001B785BB2002B13D13B688022520213439E
:105470003B603A68FC1DD0235B01110018000A4B09
:1054800098470300237004E0C04602E0C04600E0F5
:10549000C046FB1D1B785BB21800BD4603B090BD33
:1054A00008140000A95B0000CD5B000080B582B04D
:1054B00000AF324B1B68002B59D1304A80235B016F
:1054C000110018002E4B9847031E04D02B4B0022CE
:1054D0001A6000234DE03B1D2A4A19001000284B9A
:1054E0009847031E04D0254B00221A60002340E099
:1054F000224B1B68244A934206D17B68012B29D09A
:105500001E4B224A1A6025E01C4B1B68204A93421E
:105510000DD17B68032B1DD07B68042B03D1174B67
:105520001C4A1A6016E0154B1B4A1A6012E0134B16
:105530001B681A4A93420DD1104AEC239B031100B9
:1055400018000F4B9847031E04D00C4B00221A6022
:1055500000230EE0094B1B68114A1A40074B1A60E2
:10556000064B1B68A022D2021A43044B1A60034B5D
:105570001B681800BD4602B080BDC046280200204E
:10558000A95B0000F4130000A0021000A1021000AB
:10559000B0021000B1021000B2021000F0001000C2
:1055A000FFFFF0FF90B583B000AFFB1D00221A7023
:1055B000FC1D3B00190010202E4B98470300237060
:1055C000FB1D1B785BB2002B45D13B6801221340C9
:1055D00000D0EDE7C046FC1D3B0019000120254B23
:1055E000984703002370FB1D1B785BB2002B34D15E
:1055F0003B680222134010D03B68022293433B6079
:105600003B68FC1D190001201B4B984703002370C9
:10561000FB1D1B785BB2002B21D1FC1D3B00190048
:105620000B20144B984703002370FB1D1B785BB2C3
:10563000002B16D13B680122134013D03B68012296
:1056400093433B603B68FC1D19000B200A4B9847B5
:105650000300237006E0C04604E0C04602E0C046F6
:1056600000E0C046FB1D1B785BB21800BD4603B0CE
:1056700090BDC046A95B0000CD5B000090B585B031
:1056800000AF0F23FB1800221A7000237B60002359
:105690003B600023BB600F23FC183B1D19000B204F
:1056A0004C4B9847030023700F23FB181B785BB209
:1056B000002B00D07FE07B680122134010D17B6873
:1056C000012213430F22BC1819000B20424B9847AC
:1056D000030023700F23FB181B785BB2002B6CD1E7
:1056E0000F23FC183B1D190001203A4B984703007B
:1056F00023700F23FB181B785BB2002B5FD17B68F4
:105700000222134010D17B68022213430F22BC18DF
:1057100019000120304B9847030023700F23FB181A
:105720001B785BB2002B4CD10F23FC183B001900F7
:105730000F20284B9847030023700F23FB181B787A
:105740005BB2002B13D0AA235A002449244B180023
:10575000244B98470F23FB18002159563A68224BD7
:105760001800204B98470D20204B98472AE03B68B3
:10577000042213401BD102201D4B9847BB68013304
:10578000BB60BB68042BCFD9AF235A001349144B1D
:105790001800144B9847174B1800174B98470D20CB
:1057A000124B98470F23FB18FC221A700AE0C046E0
:1057B000124B984706E0C04604E0C04602E0C046EF
:1057C00000E0C0460F23FB181B785BB21800BD46F3
:1057D00005B090BDA95B0000CD5B0000608D0100AD
:1057E000DC8C0100712F0100F08C0100A52F01005D
:1057F0007D320000088D01008D300100695B0000E2
:1058000080B588B000AF0200FB1D1A701323FB188F
:1058100000221A700023FB610023BB6100237B611F
:105820004A4BFB600023FB61494B1800494B9847EA
:105830000300FB61FB69002B03DB0120464B98470B
:10584000F2E7C046454B1800424B98470300FB6106
:10585000FB6901221340FB61FB69002B12D100237D
:10586000FB610BE001203C4B98473D4B1800394B46
:1058700098470300FB61BB690133BB61FB69394A8F
:105880009342EFD1FB1D1B78022B0DD1364A374BCB
:1058900011001800364B984780235B03354A1900E6
:1058A0001000334B984722E0FB1D1B78032B0BD1D4
:1058B0002D4A2E4B110018002D4B98472D4B0021DF
:1058C00018002B4B984712E0FB1D1B78042B08D1C6
:1058D00080237B61FB68274A19001000244B9847FE
:1058E00005E0FB68234A19001000214B9847224B22
:1058F000984703001B051B0D204A934206D97B697C
:105900000222134318001E4B984703E07B691800DE
:105910001B4B98471B4B18001B4B9847FA681B4BB7
:1059200011001800184B98470D20194B9847194A39
:105930000B4B110018000E4B98471323FB181B78D4
:105940005BB21800BD4608B080BDC046521352136A
:1059500014100000895B00007D320000BC070200CB
:105960000C000C009ED0AD107DD51C3CAC07020095
:10597000CD5B00008C100000AD5400009F030000C0
:105980007D530000248D0100712F0100308D010036
:10599000A52F0100612F52EF80B588B000AF020043
:1059A000FB1D1A701F23FB1800221A700023BB6115
:1059B00000237B6101235B423B611D4BFB601D4B60
:1059C000BB60FB1D1B78022B03D0FB1D1B78032B38
:1059D00019D1194BFB60194BBB6014E00220184B26
:1059E0009847FB681800174B98470300BB617B6919
:1059F00001337B617A693B699A4204D31F23FB1808
:105A0000FB221A700CE0BA68BB699A42E6D1BB6807
:105A1000084A934204D1064B002118000A4B9847CC
:105A20001F23FB181B785BB21800BD4608B080BD71
:105A30008C10000036265302AC070200C3C15DD7AC
:105A40007D320000895B0000CD5B000090B583B023
:105A500000AF00233B60FC1D3A00A0235B01110056
:105A600018001F4B984703002370FB1D1B785BB287
:105A7000002B0DD01B4A1C491C4B18001C4B98478F
:105A80001C4B18001C4B98470D201C4B984720E0DE
:105A90003B681B4A13403B603A68FC1DA0235B0136
:105AA00011001800174B984703002370FB1D1B784B
:105AB0005BB2002B0DD0144A0B490C4B18000C4B59
:105AC00098470C4B18000C4B98470D200B4B9847F0
:105AD000C046FB1D1B785BB21800BD4603B090BDED
