:1000000058240020E96A0000E16B0000E16B000069
:1000100000000000000000000000000000000000E0
:10002000000000000000000000000000E16B000084
:100030000000000000000000E16B0000E16B000028
:10004000E16B0000E16B0000E16B0000E16B000080
:10005000E16B0000E16B0000E16B0000E16B000070
:10006000E16B000041580000595800007158000031
:1000700089580000A1580000B9580000E16B000049
:10008000E16B0000E16B0000E16B0000E16B000040
:10009000E16B00000000000000000000E16B0000C8
:1000A000E16B0000E16B0000E16B0000E16B000020
:1000B0000000000010B5064C2378002B07D1054B3B
:1000C000002B02D0044800E000BF0123237010BDC4
:1000D0004802002000000000F8F00000084B10B5B6
:1000E000002B03D00749084800E000BF0748036819
:1000F000002B00D110BD064B002BFBD09847F9E731
:10010000000000004C020020F8F00000F8F00000B1
:100110000000000080B584B000AF0200FB1D1A7023
:100120000F23FB18FA1D1278D2091A700E23FB1840
:10013000FA1D127852091A700D4BBB600F23FB1881
:100140001B78002B0FD10F23FB181B789B0010226C
:100150009446BC446344083B1A680E23FB181B7882
:10016000DB01D31800E000231800BD4604B080BDB9
:100170000044004180B582B000AF0200FB1D1A7040
:10018000FB1D1B781800034B984703001800BD4661
:1001900002B080BD1501000080B584B000AF020040
:1001A000FB1D1A70BB1D0A1C1A70FB1D1B78180062
:1001B0000D4B98470300FB60FB1D1B781F2213406B
:1001C00001229A401300BB60BB1D1B78002B03D09B
:1001D000FB68BA689A6102E0FB68BA685A61C04677
:1001E000BD4604B080BDC0467501000080B500AFBB
:1001F000024B9847C046BD4680BDC046D15800005E
:1002000080B500AF024B9847C046BD4680BDC04692
:100210002559000080B584B000AF78600D4B984739
:100220007B681B79DBB2002B04D00F23FB1805225F
:100230001A7006E07B6801221A710F23FB18002256
:100240001A70054B98470F23FB181B781800BD4602
:1002500004B080BDED0100000102000080B582B055
:1002600000AF78607B6800221A71C046BD4602B0BC
:1002700080BD80B584B000AF78607B681B68FB6090
:10028000FB681B7EDBB21A00012313405A1E934108
:10029000DBB21800BD4604B080BD80B584B000AFAD
:1002A00078607B681B68FB60FB681B7EDBB21A0012
:1002B000042313405A1E9341DBB21800BD4604B01C
:1002C00080BD000080B584B000AF78600A00BB1C20
:1002D0001A807B681B68FB607B6818000A4B984794
:1002E00003001A0001235340DBB2002B01D0052389
:1002F00006E0BB1C1B88DB05DA0DFB689A62002355
:100300001800BD4604B080BD7302000080B584B003
:1003100000AF786039607B681B68BB607B68180041
:100320001B4B984703001A0001235340DBB2002BFC
:1003300001D0102327E00F23FB1800221A70BB689E
:100340005B8B9BB21A000423134006D00F23FB18CB
:100350001E221A70BB6804225A837B689B79012B8A
:1003600008D1BB689B6A9BB2DB05DB0D9AB23B6888
:100370001A8005E0BB689B6ADBB29AB23B681A80C0
:100380000F23FB181B781800BD4604B080BDC04683
:100390009B02000080B582B000AF0200FB1D1A7006
:1003A000FB1D1B78092B18D89A000E4BD3181B681D
:1003B0009F460D4B12E00D4B10E00D4B0EE00D4B28
:1003C0000CE00D4B0AE00D4B08E00D4B06E00D4B29
:1003D00004E00D4B02E00D4B00E000231800BD4689
:1003E00002B080BDB0E100001F6500001F430000A7
:1003F0001F4401001F4502001F4501001F46020067
:100400001F4603001F8600001F4701001F48000011
:1004100080B582B000AF0200FB1D1A70FB1D1B7877
:10042000092B19D89A000F4BD3181B689F468023BD
:100430005B0212E08023DB020FE080231B030CE051
:1004400080235B0309E080239B0306E08023DB031A
:1004500003E080231B0400E000231800BD4602B027
:1004600080BDC046D8E1000080B582B000AF7860A2
:100470007B685B7900211800024B9847C046BD4657
:1004800002B080BD9901000080B582B000AF7860F5
:100490007B685B7901211800024B9847C046BD4636
:1004A00002B080BD9901000084B0B0B584B000AF47
:1004B000786004202024A446BC446044016042606B
:1004C0008360042320229446BC4463441A780823A2
:1004D000FB181A70042320229446BC4463445B78C2
:1004E000012B1FD9042320229446BC4463445B683B
:1004F000DAB20823FB18DA70042320229446BC44A5
:1005000063445B681B0ADAB20823FB189A70042361
:1005100020229446BC4463445B681B0CDAB2082377
:10052000FB185A707B6818001D4B98477B68186849
:10053000042320229446BC4463445B789AB20F2380
:10054000FC180823FB181900164B9847030023706A
:10055000042320229446BC4463449B89002B14D07E
:100560007B681868042320229446BC44634499683D
:10057000042320229446BC4463449A890F23FC1828
:100580000023094DA847030023707B681800074B20
:100590009847C046BD4604B0B0BC08BC04B018477C
:1005A00069040000E117000025160000890400001E
:1005B00084B090B585B000AF786004202024A446B4
:1005C000BC4460440160426083600423202294465E
:1005D000BC4463441A780823FB181A7004232022B1
:1005E0009446BC4463445B78012B1FD9042320222A
:1005F0009446BC4463445B68DAB20823FB18DA70A3
:10060000042320229446BC4463445B681B0ADAB28C
:100610000823FB189A70042320229446BC446344A8
:100620005B681B0CDAB20823FB185A707B68180051
:100630001D4B98477B681868042320229446BC44CD
:1006400063445B789AB20F23FC180823FB18190047
:10065000164B984703002370042320229446BC4481
:1006600063449B89002B14D07B68186804232022E4
:100670009446BC4463449968042320229446BC44B5
:1006800063449B890F22BC181A00084B984703004B
:1006900023707B681800064B9847C046BD4605B0DE
:1006A00090BC08BC04B0184769040000E1170000C2
:1006B0008904000090B585B000AF78600C23FB186A
:1006C00000221A80C0467B681B6818003C4B984784
:1006D00003001A0001235340DBB2002BF3D17B68E7
:1006E0001800384B98477B681B680F22BC180521FF
:1006F0001800354B984703002370C0467B681B6881
:100700001800324B984703001A0001235340DBB214
:10071000002BF3D17B681B680F22BC180C22BA187F
:10072000110018002A4B984703002370C0467B68CD
:100730001B681800224B984703001A0001235340FE
:10074000DBB2002BF3D17B681B680F22BC180021A1
:1007500018001D4B984703002370C0467B681B6838
:1007600018001A4B984703001A0001235340DBB2CC
:10077000002BF3D17B681B680F22BC180C22BA181F
:1007800011001800124B9847030023700C23FB182C
:100790001B881A0001231340C8D17B6818000D4B39
:1007A00098470C23FB181B881A002023134001D004
:1007B000102300E000231800BD4605B090BDC046E0
:1007C0007302000069040000C50200009B020000E3
:1007D0000D0300008904000090B589B002AF786075
:1007E0000823FB1806221A700823FB1801225A70EE
:1007F0000823FB1800229A810823FB1800225A6064
:100800000823FB1800229A600823FB1878686A46C0
:10081000D968116019685A689B68034CA047C046A4
:10082000BD4607B090BDC046B105000090B58BB085
:1008300002AF78600023BB607B681B681F22BC1876
:100840001800214B9847030023701F23FB181B78C7
:10085000052B03D11F23FB181B7830E00C23FB185A
:100860009F221A700C23FB1801225A700C23FB18CC
:100870000822BA189A600C23FB1803229A810C23D1
:10088000FB1800225A600C23FB1878686A46D96866
:10089000116019685A689B680C4CA0477B681B68FC
:1008A00018000B4B98477B681B791800094B984739
:1008B0000200BB689A4201D1002300E01423180013
:1008C000BD4609B090BDC04615020000A904000055
:1008D0005D0200009503000090B58DB002AFF86096
:1008E000B9607A601A00BB1C1A80BB1C1A88BB68EE
:1008F000D418FB681B791800214B984703009C42D1
:1009000001D9172337E0FB681B682722BC181800A1
:100910001C4B9847030023702723FB181B78052BDB
:1009200003D12723FB181B7825E01423FB180B2287
:100930001A701423FB1805225A701423FB18BA6886
:100940005A601423FB187A689A601423FB18BA1CA7
:1009500012889A811423FB18F8686A46D9681160D6
:1009600019685A689B68084CA047FB681B68180008
:10097000064B984700231800BD460BB090BDC046FB
:100980001104000015020000A90400005D0200002F
:1009900090B58DB002AFF860B9607A601A00BB1CE8
:1009A0001A80BB1C1A88BB68D418FB681B79180016
:1009B0005B4B984703009C4201D91723ABE0FB68CF
:1009C0001B682722BC181800564B98470300237059
:1009D0002723FB181B78052B03D12723FB181B7833
:1009E00099E0FB681800504B98471423FB1802222B
:1009F0001A701423FB1804225A701423FB18BA68C7
:100A00005A601423FB187A689A60BB689BB2FF2275
:100A100013409AB22423FB18802149008A1A1A80B5
:100A2000BB1C2422BA1810881B8899B282B291424A
:100A300000D9031C9AB21423FB189A811423FB18C3
:100A4000F8686A46D968116019685A689B68374C1B
:100A5000A0472723FC18FB681800354B9847030074
:100A600023701423FB189A89BB1CB91C09888A1AA5
:100A70001A803FE0FB6818002B4B98471423FB18A3
:100A80005B681422BA1892899A181423FB185A60CA
:100A90001423FB189B681422BA1892899A181423FD
:100AA000FB189A60BB1C1B8899B2802252009142AD
:100AB00001D980235B009AB21423FB189A81142376
:100AC000FB18F8686A46D968116019685A689B680B
:100AD000164CA0472723FC18FB681800144B9847B6
:100AE000030023701423FB189A89BB1CB91C0988C6
:100AF0008A1A1A80BB1C1B88002B04D02723FB18E2
:100B00001B78002BB6D0FB681B681800094B984770
:100B10002723FB181B781800BD460BB090BDC046BC
:100B20001104000015020000D9070000B105000003
:100B3000B50600005D02000090B58DB002AFF86010
:100B4000B960FB1D1A70FB681B791800334B98477E
:100B50000200BB689A4201D817235BE0FB681B6860
:100B60002722BC1818002E4B984703002370272318
:100B7000FB181B78052B03D12723FB181B7849E0B2
:100B8000FB681800274B9847FB1D1B78012B08D0EA
:100B9000022B0BD0002B0ED11423FB1820221A702D
:100BA0000DE01423FB1852221A7008E01423FB18DE
:100BB000D8221A7003E01423FB1800221A701423A1
:100BC000FB1804225A701423FB18BA685A601423C5
:100BD000FB1800229A811423FB1800229A60142328
:100BE000FB18F8686A46D968116019685A689B68EA
:100BF0000D4CA0472723FC18FB6818000B4B9847A7
:100C000003002370FB681B681800094B98472723D3
:100C1000FB181B781800BD460BB090BD11040000F6
:100C200015020000D9070000B1050000B50600005C
:100C30005D02000090B58BB002AF78600A00FB1C2B
:100C40001A707B681B681F22BC181800224B98473B
:100C5000030023701F23FB181B78052B03D11F23D0
:100C6000FB181B7833E07B6818001C4B9847FB1C73
:100C70001B78002B01D03C2200E000220B23FB1844
:100C80001A700C23FB1801221A700C23FB18012286
:100C90005A700C23FB1801229A810C23FB180B229B
:100CA000BA189A600C23FB1800225A600C23FB1818
:100CB00078686A46D968116019685A689B68084C58
:100CC000A0477B681B681800064B98470023180054
:100CD000BD4609B090BDC04615020000D90700000E
:100CE000B10500005D02000090B58DB002AFF86064
:100CF000B960FB1D1A70FB681B791800264B9847DA
:100D00000200BB689A4201D8172340E0FB681B68C9
:100D10002722BC181800214B984703002370272373
:100D2000FB181B78052B03D12723FB181B782EE01B
:100D3000FB6818001A4B9847FB1D1B78002B01D04D
:100D4000362200E039221423FB181A701423FB18F2
:100D500004225A701423FB18BA685A601423FB1833
:100D600000229A811423FB1800229A601423FB1896
:100D7000F8686A46D968116019685A689B68094C16
:100D8000A047FB681B681800074B98470023180012
:100D9000BD460BB090BDC046110400001502000016
:100DA000D9070000B10500005D02000090B58BB0CE
:100DB00002AF78607B681B681F22BC1818001B4BB1
:100DC0009847030023701F23FB181B78052B03D1C2
:100DD0001F23FB181B7824E00C23FB18B9221A7080
:100DE0000C23FB1801225A700C23FB1800229A8155
:100DF0000C23FB1800225A600C23FB1800229A6077
:100E00000C23FB1878686A46D968116019685A681B
:100E10009B68074CA0477B681B681800054B9847E8
:100E200000231800BD4609B090BDC0461502000061
:100E3000B10500005D02000090B58BB002AF786094
:100E40007B681B681F22BC1818001B4B98470300C7
:100E500023701F23FB181B78052B03D11F23FB18BE
:100E60001B7824E00C23FB18AB221A700C23FB1810
:100E700001225A700C23FB1800229A810C23FB18C4
:100E800000225A600C23FB1800229A600C23FB18E6
:100E900078686A46D968116019685A689B68074C77
:100EA000A0477B681B681800054B98470023180073
:100EB000BD4609B090BDC04615020000B105000056
:100EC0005D02000080B586B000AFF860B9607A605E
:100ED000BA68FB685340BB607B68DB007B610FE056
:100EE000BB680122134005D0BB685B08084A534029
:100EF000BB6002E0BB685B08BB607B69013B7B6158
:100F00007B69002BECD1BB681800BD4606B080BDE4
:100F10002083B8ED80B588B000AFF860B9607A6022
:100F2000FB6803229343FB617B681B68DB437B61A7
:100F3000BB68032B02D8BB68BB6104E0FB685B4263
:100F400003221340BB61BB69002B1AD0BA68BB698E
:100F5000D31ABB60FB691A1DFA611B683B61BA6951
:100F600013005B079B1ADB0020333A69DA40130059
:100F70003B61BA6979693B691800244B98470300C3
:100F80007B61BB6803229343BB61BB69002B19D013
:100F9000BA68BB69D31ABB60BB699B08BB610CE034
:100FA000FB691A1DFA611B683B6179693B69042280
:100FB0001800164B984703007B61BB695A1EBA6143
:100FC000002BEDD1BB68002B16D0FB691B683B6181
:100FD000BA6813005B079B1ADB00203301225242E0
:100FE000DA403B6913403B61BA6879693B69180094
:100FF000064B984703007B617B69DA437B681A6084
:1010000000231800BD4608B080BDC046C50E0000D4
:1010100080B582B000AF78607B6880221A707B68F0
:1010200000225A707B6801229A707B680022DA7075
:10103000C046BD4602B080BD80B582B000AF7860CA
:101040007B6800221A70C046BD4602B080BD000019
:1010500080B582B000AF02003960FB1D1A70FB1D25
:101060001B78012B0AD0022B0FD0002B14D10E4B72
:101070000D4A91693A680A439A610FE00A4B0A4A9D
:10108000D1693A680A43DA6108E0074B064A116AF7
:101090003A680A431A6201E0172300E000231800AF
:1010A000BD4602B080BDC0460004004080B500AF20
:1010B000054B9B78DBB21A00022313405A1E934162
:1010C000DBB21800BD4680BD0020004180B584B071
:1010D00000AF78607B681B68FB60FB681B7EDBB23F
:1010E0001A00022313405A1E9341DBB21800BD467A
:1010F00004B080BD80B584B000AF78607B681B68A9
:10110000FB60FB681B7EDBB21A00012313405A1EF2
:101110009341DBB21800BD4604B080BD80B584B0F9
:1011200000AF78607B681B68FB60FB681B7EDBB2EE
:101130001A00042313405A1E9341DBB21800BD4627
:1011400004B080BD80B584B000AF78600A00BB1CDD
:101150001A807B681B68FB607B6818000A4B984705
:1011600003001A0001235340DBB2002B01D00523FA
:1011700006E0BB1C1B88DB05DA0DFB689A620023C6
:101180001800BD4604B080BDF510000080B584B0E5
:1011900000AF786039607B681B68BB607B681800B3
:1011A0001B4B984703001A0001235340DBB2002B6E
:1011B00001D0102327E00F23FB1800221A70BB6810
:1011C0005B8B9BB21A000423134006D00F23FB183D
:1011D0001E221A70BB6804225A837B689B79012BFC
:1011E00008D1BB689B6A9BB2DB05DB0D9AB23B68FA
:1011F0001A8005E0BB689B6ADBB29AB23B681A8032
:101200000F23FB181B781800BD4604B080BDC046F4
:101210001D11000080B584B000AF78607B681B684A
:10122000FB60FB6802221A76C046BD4604B080BD52
:1012300090B593B000AF786039607B681B687B63C2
:101240007B681B683B631C23FB181800854B984781
:101250001C23FB1800225A703B681B78002B03D11B
:101260001C23FB1800229A703B689A6A0C23FB1817
:101270001A603B68DA6A0C23FB185A603B681A6BE9
:101280000C23FB189A603B685A6B0C23FB18DA603E
:101290004723FB1800221A702CE04723FB181A780A
:1012A0000C23FB189200D3583B643B6C002B09D1F4
:1012B0004723FB181A783B6B110018006A4B9847BC
:1012C00003003B643B6C01330DD03B6CDAB21C2352
:1012D000FB181A703B6C1B0CDBB21C22BA181100F5
:1012E0001800624B98474723FB181A784723FB18CE
:1012F00001321A704723FB181B78032BCDD93B68AA
:101300001A787B685A713B681A7C7B689A713B68D3
:101310009A7C7B68DA713B681A7D7B681A720A23B3
:10132000FB1800221A800023FB630023BB633B6889
:101330001B78012B29D17B681B6818004C4B984700
:101340000300FB62FB6A1433BB62BB6ADBB21800AA
:10135000484B984703007B623B689B692322BC187B
:101360000A22BA18796A1800434B98470300237081
:101370002323FB181B78002B01D017236DE00A23D1
:10138000FB181B88DAB27B6B1A733B681B78002B47
:101390001AD13B689B69FB633B689B8BBB637B6B90
:1013A0005B6A3A68927F11003A68D27F12040A435E
:1013B0001A437B6B5A623B6820229B5C002B03D054
:1013C000BB6B40221343BB633B685B68FA6B134300
:1013D000FB633B689B68FA6B1343FB633B68DB680A
:1013E000FA6B1343FB633B681B7C1A00BB6B134314
:1013F000BB633B685B7C002B03D1204B9847031EEB
:1014000003D0FB6B80221343FB633B689B7C002B68
:1014100004D0BB6B802292021343BB633B68DB7C2E
:10142000002B04D0BB6B802292001343BB633B684C
:101430001B7D002B04D0BB6B802292011343BB6346
:101440007B6B1A68FB6B1A437B6B1A607B6B5A6869
:10145000BB6B1A437B6B5A6000231800BD4613B068
:1014600090BDC0461110000059470000616A00009D
:1014700015490000996800008F440000AD1000007D
:1014800090B58BB000AFF860B9607A60FB68BA685D
:101490001A60FB681B683B623B6A1B6802221340B0
:1014A00001D01C23A6E03B6A1B680122134001D037
:1014B00005239FE0FB681B681800504B984703000A
:1014C000FB61FB690233BB61FB6914337B61012261
:1014D000BB699A40130019000220494B984710231A
:1014E000FB181800474B98477B6824229A5C10230E
:1014F000FB181A707B69DBB21022BA1811001800B1
:10150000414B98477B69DBB21800404B98477B689A
:1015100024229B5C002118003D4B98477B681B7878
:10152000012B05D13B6A1B680C221A433B6A1A60E7
:101530007B681B78002B05D13B6A1B6808221A4385
:101540003B6A1A602723FB1800221A7010E0272339
:10155000FB181B78FA6802339B00D318043300226F
:101560001A602723FB181A782723FB1801321A70F8
:101570002723FB181B78062BE9D9FB680022DA62C7
:10158000FB6800229A62FB6800229A86FB680022B0
:101590001A86FB68362200219954FB683722002105
:1015A0009954FB68382200219954FB6803225A722F
:1015B000FB6800221A71FB681B681322BC18180014
:1015C0000E4B984703002370124A1323FB181B7815
:1015D00011001800104B98471323FB181A780F4B73
:1015E0009200F968D1507A68FB68110018000C4B22
:1015F000984703001800BD460BB090BD1549000088
:10160000511000003910000075670000B967000034
:10161000CD4600005D1C000091570000BC03002077
:101620003112000090B589B000AFF860B9601900C0
:10163000BB1D1A803B1D0A1C1A80FB6838229B5C6C
:10164000DBB2052B01D10523B8E0BB1D1B88002BA5
:1016500001D11723B2E0FB68DB7901225340DBB2F2
:10166000002B01D01C23A9E0FB685B79002B09D17A
:10167000FB681800534B9847031E03D0FB68180003
:10168000514B98471E23FB1800221A808DE0FB68FF
:101690005B79012B12D1C046FB6818004B4B984771
:1016A00003001A0001235340DBB2002BF4D13B1D91
:1016B0001A88FB6811001800454B9847FB685B7956
:1016C000002B2AD10023BB6108E0FB681800414BC6
:1016D0009847031E07D1BB690133BB61BB693E4A12
:1016E0009342F2D900E0C046FB681800354B98479A
:1016F000031E05D0FB681800334B984704235DE0B8
:10170000FB681800334B984703001A00012353402D
:10171000DBB2002B01D0122350E0C046FB6818005A
:101720002C4B984703001A0001235340DBB2002BD7
:10173000F4D11423FB1800221A801723FC18142359
:10174000FA18FB6811001800244B98470300237017
:101750001723FB181B78002B03D01723FB181B78CB
:101760002CE01E23FB181B881E22BA18591C11805E
:101770001A00BB689B181422BA181288D2B21A70C9
:10178000FB689B79012B10D11E23FB181B881E229E
:10179000BA18591C11801A00BB689B181422BA1879
:1017A0001288120A92B2D2B21A70BB1D1B88BA1DDF
:1017B000591E1180002B00D069E700231800BD4698
:1017C00009B090BDCD10000015120000F51000000A
:1017D000451100001D110000102700008D110000B0
:1017E00080B58AB000AFF860B960BB1D1A80FB6895
:1017F00038229B5CDBB2052B01D1052370E1BB1DB8
:101800001B88002B01D117236AE1FB685B79002B51
:1018100009D1FB681800B44B9847031E03D0FB683E
:101820001800B24B98472623FB1800221A80242365
:10183000FB18BA1D12881A80FEE0FB685B79002B4A
:101840002AD100233B6208E0FB681800A84B9847A8
:10185000031E07D13B6A01333B623B6AA54A9342B0
:10186000F2D900E0C046FB6818009F4B9847031E62
:1018700005D0FB6818009D4B9847042330E1FB68B6
:1018800018009B4B984703001A0001235340DBB21A
:10189000002B01D0122323E1C046FB681800944BB3
:1018A000984703001A0001235340DBB2002BF4D108
:1018B0002623FB181B882622BA18591C11801A00EF
:1018C000BB689B181A781E23FB181A80FB689B794B
:1018D000012B15D12623FB181B882622BA18591C68
:1018E00011801A00BB689B181B781B021AB21E23BA
:1018F000FB1800215B5E13431AB21E23FB181A80EB
:101900001E23FB181A88FB68110018007A4B9847B1
:10191000FB68DB792422BA18242179180988118000
:10192000002B00D188E0FB685B79002B00D069E0D8
:101930000023BB6147E0BB1D1B88002B3AD0FB682E
:1019400018006B4B9847031E34D02623FB181B88C6
:101950002622BA18591C11801A00BB689B181A78E5
:101960001E23FB181A80FB689B79012B15D12623B7
:10197000FB181B882622BA18591C11801A00BB6854
:101980009B181B781B021AB21E23FB1800215B5EFA
:1019900013431AB21E23FB181A801E23FB181A8841
:1019A000FB6811001800544B9847BB1D1A88BB1DDB
:1019B000013A1A80FB681800504B9847031E07D164
:1019C000BB690133BB61BB694A4A9342B3D900E0AA
:1019D000C046FB681800444B9847031E05D0FB68BF
:1019E0001800424B984704237AE0FB681800434BE9
:1019F000984703001A0001235340DBB2002B01D0AB
:101A000012236DE0C046FB6818003C4B984703006A
:101A10001A0001235340DBB2002BF4D11223FA1831
:101A2000FB6811001800364B98472423FB181A88CE
:101A30002423FB18013A1A80BB1D1B88BA1D591EAE
:101A40001180002B00D0F8E6FB685B79012B0BD1ED
:101A5000C046FB681800244B984703001A00012376
:101A60005340DBB2002BF4D1FB685B79002B36D1FD
:101A7000FB68DB79002B32D02CE000237B6108E08F
:101A8000FB6818001D4B9847031E07D17B69013383
:101A90007B617B69174A9342F2D900E0C046FB683C
:101AA0001800164B984703001A0001235340DBB27D
:101AB000002B01D0122313E01023FA18FB68110049
:101AC00018000F4B98472423FB181A882423FB186F
:101AD000013A1A802423FB181B88002BCDD1002348
:101AE0001800BD460AB080BDCD10000015120000E0
:101AF000F510000010270000451100001D11000026
:101B00008D11000080B584B000AF78607B681B68E1
:101B1000BB607B68DB6A1B78DAB20E23FB181A8085
:101B20007B68DB6A5A1C7B68DA627B689B79012BD5
:101B300013D17B68DB6A1B78DBB21B021AB20E235F
:101B4000FB1800215B5E13431AB20E23FB181A80A8
:101B50007B68DB6A5A1C7B68DA620E23FB181B88E1
:101B6000DB05DA0DBB689A627B689B8E9BB2013BFA
:101B70009AB27B689A86C046BD4604B080BD00001C
:101B800080B584B000AF78607B681B68FB60084B51
:101B90001B881A00FB689A627B685B8E9BB2013BD4
:101BA0009AB27B685A86C046BD4604B080BDC04626
:101BB000D402002080B584B000AF78607B681B68D9
:101BC000FB600A23FB1800221A80FB689A6A0A232A
:101BD000FB181A807B685B8E9BB2013B9AB27B68D4
:101BE0005A86C046BD4604B080BD80B584B000AF03
:101BF00078607B681B68FB60FB689B6A9AB20A236B
:101C0000FB18D205D20D1A807B689B6A0A22BA188B
:101C10001288D2B21A707B689B6A5A1C7B689A62DF
:101C20007B689B79012B0DD17B689B6A0A22BA18CD
:101C30001288120A92B2D2B21A707B689B6A5A1C3E
:101C40007B689A627B681B8E9BB2013B9AB27B6871
:101C50001A86C046BD4604B080BD000080B586B07F
:101C600000AF0200FB1D1A70FB1D1A78B94B9200E1
:101C7000D3587B617B691B683B617B6937229A5C27
:101C80007B693621595C0F23FB180A401A703B69A7
:101C90001B7EDAB20C23FB181A803B699B7DDBB2FA
:101CA0009AB20C23FB180C21791809880A401A8073
:101CB0000C23FB181B880122134041D07B695B7900
:101CC000012B10D17B695B7ADBB2002B0BD17B69D6
:101CD0001800A14B98477B695B8E9BB2002B02D109
:101CE0003B6901221A757B695B79012B04D17B6901
:101CF0005B7ADBB2002B08D17B695B79002B1FD1AB
:101D00007B695B7ADBB2002B1AD07B691800934B9E
:101D100098477B699B8E9BB2002B11D13B690122B6
:101D20001A757B695B7ADBB2012B09D17B69DB79A0
:101D300001225340DBB2002B02D03B6902229A758C
:101D40000C23FB181B880422134000D17EE03B6962
:101D50005B8B9BB21A000423134022D07B695B7A11
:101D6000DBB2012B14D07B6938221E2199547B6988
:101D700003225A723B6905221A750F23FB181B7840
:101D80000822134004D07B699B697A691000984748
:101D90003B699A6A0A23FB181A803B6904225A831A
:101DA00054E07B695B7ADBB2012B1ED17B691800A2
:101DB0006B4B98477B695B8E9BB2002B46D13B698E
:101DC00004221A757B693822002199547B69032209
:101DD0005A720F23FB181B780122134036D07B69FF
:101DE000DB687A691000984730E07B6918005D4B2A
:101DF00098477B691B8E9BB2002B27D17B693822C9
:101E0000002199543B6904221A757B695B7ADBB225
:101E1000022B0BD10F23FB181B780422134015D083
:101E20007B695B697A69100098470FE07B695B7A90
:101E3000DBB2002B0AD10F23FB181B7802221340C0
:101E400004D07B691B697A69100098470C23FB1842
:101E50001B880222134046D07B695B79002B1DD181
:101E60003B6907221A753B6902221A767B690322B5
:101E70005A727B6900229A867B6900221A867B69E6
:101E80003822002199540F23FB181B78102213408D
:101E900004D07B69DB697A69100098477B695B79BC
:101EA000012B20D17B695B7ADBB2012B1BD17B69D3
:101EB000DB7901225340DBB2002B14D03B690222B4
:101EC0001A757B6903225A727B6938220021995462
:101ED0000F23FB181B780122134004D07B69DB68B9
:101EE0007A69100098470C23FB181B8808221340BE
:101EF00014D07B695B79002B10D13B6908221A75DD
:101F00003B6908221A760F23FB181B782022134006
:101F100004D07B691B6A7A69100098470C23FB1870
:101F20001B888022134010D03B6980221A753B69C0
:101F300080221A760F23FB181B784022134004D00E
:101F40007B695B6A7A6910009847C046BD4606B057
:101F500080BDC046BC030020811B0000051B0000A3
:101F6000B51B0000EB1B000080B588B000AF3A60E5
:101F7000BB1D021C1A807B1D0A1C1A700023FB610A
:101F80007B1D1B785A1E9341DBB27A1D1278013AF1
:101F9000511E8A41D2B21340DBB21A007B1D1B785E
:101FA000023B591E8B41DBB2134001D0012379E083
:101FB0001023FB187A1D12781A703C4B40221A80AD
:101FC0003A4B02225A80394B1022BA185A60002329
:101FD000BB61FA239B007B610CE0BB695A1CBA61B0
:101FE0007A69934206D10123FB61314B1800314BD2
:101FF000984707E02D4A304B110018002F4B9847A7
:10200000031EEAD1FB69002B01D0FB694AE0BB1D2E
:102010001B88002B05D0BB1D1B881800284B984738
:1020200002E00120274B98470C23FB187A1D1278F9
:102030001A70254B40221A80234B03225A80224BD0
:102040000C22BA185A600023BB61FA239B007B6103
:102050000CE0BB695A1CBA617A69934206D11B4BEA
:102060001800144B98470123FB6107E0164A124BF6
:1020700011001800164B9847031EEAD1FB69002B8C
:1020800001D0FB690EE00C23FB181B789BB21B02EE
:102090009AB20C23FB185B789BB2D3189AB23B68B8
:1020A0001A8000231800BD4608B080BD080000203B
:1020B00000E20000559A000040030020253C00008B
:1020C000A1280000712800001400002014E2000084
:1020D0006D3A000080B586B000AF0200FB1D1A709B
:1020E0003B1D0A1C1A8000237B61FB1D1B785A1EB6
:1020F0009341DBB2FA1D1278023A511E8A41D2B2E4
:102100001340DBB2002B01D001233DE00823FB1874
:10211000FA1D12781A703B1D1B881B0A9BB2DAB29B
:102120000823FB185A703B1D1B88DAB20823FB18E2
:102130009A70174B40221A80154B02225A80144B7A
:102140000822BA185A6000233B61FA239B00FB6007
:102150000CE03B695A1C3A61FA68934206D10D4B78
:1021600018000D4B984701237B6107E0084A0B4B91
:10217000110018000A4B9847031EEAD17B69002B17
:1021800001D07B6900E000231800BD4606B080BD89
:102190000800002000E20000559A000040030020E3
:1021A000253C000090B589B000AF7860396000230D
:1021B0007B611323FB1800221A701223FB180022E4
:1021C0001A701123FB1800221A700E23FB181A0034
:1021D00002210A20774B984703007B617B69002B23
:1021E00005D0754B1800754B98477B69DEE01323CB
:1021F000FB181B789B021AB20E23FB181B881BB21C
:1022000013431BB29AB20E23FB181A801223FB1839
:102210001B781B021AB20E23FB181B881BB2134338
:102220001BB29AB20E23FB181A800E23FB181B88D0
:102230008022520113439AB20E23FB181A801123F5
:10224000FB181B785B031AB20E23FB181B881BB20A
:1022500013431BB29AB20E23FB181A800E23FB18ED
:102260001B8819000220564B984703007B617B694D
:10227000002B05D0534B1800504B98477B6995E0D5
:102280000E23FB181A00002196204A4B98470300A2
:102290007B617B69002B05D04B4B1800474B98475F
:1022A0007B6983E00E23FB181A88484B100098477F
:1022B00003000C00BB61FC61454C0022454BB86932
:1022C000F969A04703000C0018002100424C0022CD
:1022D000424BA04703000C0018002100404C002294
:1022E000404BA04703000C00BB61FC617A68BB69EE
:1022F000FC69136054600E23FB181A00012196201C
:102300002C4B984703007B610E23FB181B881A0097
:10231000354B1000984703000C00BB61FC617B69E2
:10232000002B05D0314B1800244B98477B693DE0CA
:102330000E23FB181A882E4B10009847021C2D4BB9
:10234000101C984703000C00BB61FC61204C00226C
:10235000204BB869F969A04703000C001800210060
:102360001D4C0022244BA04703000C00BB61FC6104
:10237000224C0022204BB869F969A047031E03D004
:1023800000231D4CBB61FC611D4C00220023B86979
:10239000F969A047031E03D000230024BB61FC6140
:1023A0003A68BB69FC691360546000231800BD469D
:1023B00009B090BD691F000028E20000559A000096
:1023C000D520000040E2000058E200004DDF000090
:1023D0008DCA00000000F040F5D2000000A064406B
:1023E000F5D7000000004440C9DE000070E20000A4
:1023F000E1C30000BDDF000000005940F5BD000052
:10240000CDBD000080B586B000AF0200FB1D1A7084
:10241000BB1D0A1C1A70194B1B68002B29D00C23FA
:10242000FB18FA1D12781A700C23FB18BA1D1278CB
:102430005A70134B39221A80114B02225A80104BCA
:102440000C22BA185A6000237B61FA239B003B617F
:1024500005E07B695A1C7A613A69934208D0084AC0
:10246000084B11001800084B9847031EF1D100E0FB
:10247000C046C046BD4606B080BDC04674020020BE
:10248000280000200C030020253C000080B500AF90
:1024900003218020024B9847C046BD4680BDC04600
:1024A0000524000080B500AF00218020024B984732
:1024B000C046BD4680BDC0460524000080B586B03C
:1024C00000AF0200FB1D1A701A4B1B68002B2CD0AA
:1024D000194B98470C23FB18FA1D12781A70174BEA
:1024E00039221A80154B02225A80144B0C22BA183A
:1024F0005A6000237B61FA239B003B6105E07B6906
:102500005A1C7A613A69934208D00C4A0C4B11006C
:1025100018000C4B9847031EF1D100E0C0460A4B4F
:1025200098470C23FB185B7800E000231800BD4699
:1025300006B080BD740200208D240000340000200D
:102540000C0300206D3A0000A524000080B586B081
:1025500000AF0200FB1D1A70284B1B68002B47D0F0
:10256000274B98470823FB18FA1D12781A70254B41
:1025700039221A80234B03225A80224B0822BA1890
:102580005A6000237B61FA239B003B6105E07B6975
:102590005A1C7A613A69934208D01A4A1A4B1100C0
:1025A00018001A4B9847031EF1D100E0C0460F23D4
:1025B000FB180822BA1852781A700E23FB1808224A
:1025C000BA1892781A700E23FB1800221A700E2384
:1025D000FB180E22B9180F22BA18097812780A438C
:1025E0001A700B4B98470E23FB181B789BB200E028
:1025F00000231800BD4606B080BDC046740200200E
:102600008D240000340000200C0300206D3A0000EF
:10261000A524000090B583B000AF0D4B1B68002BC4
:1026200001D0012310E00A4B01221A60FC1D0A2090
:10263000084B984703002370FB1D1B7801221340B1
:1026400001D0002300E001231800BD4603B090BD77
:1026500074020020BD24000080B58CB000AF0200E1
:10266000BB1D1A803B1D0A1C1A80BA1D2223FB18B1
:1026700012881B889A4206D83A1D2223FB1812881A
:102680001B889A4202D980235B027BE0BB1D1B881A
:10269000FA6953439B0ABB613B1D1B88FA6953438C
:1026A0009B0A7B610023FB62BB69002B07D07B691F
:1026B0009A02364BB969100098470300FB62FB6A27
:1026C00001335B083B613B69402B06D8F9235B0073
:1026D000BB62DF235B007B6242E03B69802B05D855
:1026E00085239B00BB622A4B7B6239E03B69C02B90
:1026F00004D8284BBB62284B7B6231E03A698023C7
:102700005B009A4205D89C239B00BB62234B7B62F3
:1027100026E03A699C235B009A4206D87023FF3377
:10272000BB62FE235B007B621AE03A69CD235B004B
:102730009A4204D8D223BB62FB237B6210E03B6940
:10274000174A934204D81823BB6212237B6207E026
:102750003B69134A934203D90023BB6200237B6287
:10276000BB69BA6A5A437B69796A4B43D31AFB60E7
:10277000FB688022920194466344FB60FB689B0BDC
:10278000BB60BB681800BD460CB080BDB5BA000088
:10279000D10200003F0200007B030000FE030000A6
:1027A0009A02000090B583B000AFBC1DAC200B4B6B
:1027B0009847030023803C1DAE20084B9847030038
:1027C00023803B1D1A88BB1D1B8811001800044B79
:1027D000984703001800BD4603B090BD4D2500008A
:1027E0005926000080B582B000AF78607B68002B6E
:1027F0000CD0084B7A685A60064B00229A60C0469B
:10280000044B1A6880235B021340F9D0C046BD46D2
:1028100002B080BD10E000E080B500AF00200F4B9B
:10282000984702000E4B1A600D4B18680D4BFA22A8
:102830009100984703001A00094B1A60084B18686A
:10284000084BFA229100984703001A00064B1A60C1
:10285000064B05221A60C046BD4680BD9D6600003D
:1028600040000020B5BA00004400002010E000E065
:1028700080B582B000AF786004E0074B1B68180099
:10288000064B98477B685A1E7A60002BF5D1C046EC
:10289000BD4602B080BDC04644000020E5270000D0
:1028A00080B582B000AF786004E0074B1B68180069
:1028B000064B98477B685A1E7A60002BF5D1C046BC
:1028C000BD4602B080BDC04640000020E5270000A4
:1028D00080B582B000AF78607B6800221A70C04675
:1028E000BD4602B080BD000080B582B000AF0200DE
:1028F0003960FB1D1A70FB1D1B78012B0AD0022BBF
:102900000FD0002B14D10E4B0D4A91693A680A433F
:102910009A610FE00A4B0A4AD1693A680A43DA61C0
:1029200008E0074B064A116A3A680A431A6201E056
:10293000172300E000231800BD4602B080BDC0464A
:102940000004004080B582B000AF78607B688022D0
:102950001A707B6800225A707B6801229A707B682B
:102960000022DA70C046BD4602B080BD80B582B09C
:1029700000AF0200FB1D1A70FB1D1B78002B02D05C
:10298000012B07D00DE0084B074A126C02210A43C5
:102990001A6406E0044B044A126C04210A431A64C8
:1029A000C046BD4602B080BD0008004080B584B07E
:1029B00000AF78607B681B68FB60FB685B7EDBB206
:1029C0005BB2002B01DA012300E000231800BD46B2
:1029D00004B080BD80B582B000AF78607B68002213
:1029E0001A707B6800225A707B6800225A807B68CC
:1029F00000221A717B6800221A767B6800221A6214
:102A00007B680022DA617B6800229A607B68002282
:102A10001A737B68C0225201DA817B6800221A7423
:102A20007B6800225A747B6800229A747B680022BB
:102A3000DA747B6800221A757B682A220021995477
:102A40007B6800225A757B6800229A757B68242275
:102A5000002199547B680022DA847B6800221A8561
:102A60007B680022DA757B682B22002199547B68F1
:102A70002C2200219954C046BD4602B080BD000002
:102A800080B598B000AF78600C23FA18154B100091
:102A9000190050231A00144B9847144BFB657B68B0
:102AA000132B1AD80C23FB187A689200D358FB65B5
:102AB0000823FB1818000E4B98470823FB18002228
:102AC0009A700823FB1801221A70FB6DDBB20822F2
:102AD000BA1811001800074B9847C046BD4618B0F9
:102AE00080BDC0468CE200000D8F0000FFFF00009B
:102AF00045290000616A0000F0B589B000AF786038
:102B000039601F23FB1800221A701023BB611723A2
:102B1000FB1800221A707B681B683B610C23FB18B2
:102B20001800CE4B98473B681A780C23FB181A7094
:102B30000C23FB1819001E20C94B98471E20C94BB7
:102B400098473B682C229B5C002B40D01623FB1837
:102B50003A682B21525C1A703B68197B1523FB18CD
:102B60001622BA1812788A181A703B682C22995CBF
:102B70000F23FB181522BA1812788A181A7018E059
:102B80001623FB181B780F2213403A68127B9B1800
:102B90001800B54B98471523FB181A781523FB1816
:102BA00001321A701623FB181A781623FB1801320B
:102BB0001A701523FA180F23FB1812781B789A4203
:102BC000DED33B68DB891800A74B984709E03B68D8
:102BD0001B7B1800A44B98473B68DB891800A24B6D
:102BE00098473B685B7D9B00DAB23B691A703B6893
:102BF0009B7DDB015AB23B685B785BB213435BB2EF
:102C0000DAB23B695A703B681B79342B46D89A007C
:102C1000964BD3181B689F461F23FB183A68527CBB
:102C20001A701723FB183A68127C1A701023BB61C4
:102C300036E01F23FB1801221A701723FB1802220B
:102C40001A701023BB612BE01F23FB1802221A709D
:102C50001723FB1804221A701023BB6120E01F23E6
:102C6000FB1801221A701723FB1806221A70102372
:102C7000BB6115E01F23FB1800221A701723FB18F5
:102C800008221A701023BB610AE03023BB6107E001
:102C90002023BB6104E00023BB6101E01723AEE108
:102CA0001F23FB181B781B01DBB270221340DAB222
:102CB0001723FB181B781343DAB23B699A703B6801
:102CC000DB7D3F2B01D9172399E13B68DA7D3B6916
:102CD000DA70C0467B681800654B9847031EF9D12F
:102CE0003B685A88BB699BB213439AB23B68242164
:102CF0005B5C9BB2DB009BB213439AB23B681B7DCB
:102D00009BB29B009BB213439AB23B689B7C9BB2E5
:102D1000DB189BB213439AB23B68DB7C9BB2134334
:102D20009AB23B699A803B681B7E002B00D1C4E0BD
:102D3000BB69102B00D176E002D8002B4DD0BCE04F
:102D4000202B23D0302B00D0B7E03B68DB7C002B5E
:102D500011D03B68DB697F2B0BDC3B68DB69803380
:102D600007DB3B681B6A7F2B03DC3B681B6A8033F5
:102D700001DA172343E13B68DB69FF2B04DC3B6886
:102D80001B6AFF2B00DC91E0172338E13B68DB7CFA
:102D9000002B15D03B68DB69364A93420EDC3B685A
:102DA000DB69354A934209DB3B681B6A314A93422F
:102DB00004DC3B681B6A304A934201DA17231EE1A8
:102DC0003B68DB692D4A934205DC3B681B6A2B4A52
:102DD000934200DC6CE0172311E13B68DB7C002BA5
:102DE00015D03B68DB69264A93420EDC3B68DB6901
:102DF000244A934209DB3B681B6A214A934204DC64
:102E00003B681B6A1F4A934201DA1723F7E03B68CD
:102E1000DB691D4A934204DC3B681B6A1A4A9342F1
:102E200048DD1723EBE03B68DB7C002B32D03B68AE
:102E3000DB69164A93420EDC3B68DB69144A934215
:102E400009DB3B681B6A114A934204DC3B681B6A3E
:102E50000F4A93421EDA1723D1E0C046D128000062
:102E600075670000B9670000812A0000DCE20000FD
:102E7000AD290000FF01000000FEFFFFFF0300007E
:102E8000FF07000000F8FFFFFF0F0000FF7F0000BA
:102E90000080FFFF3B68DB695B4A934204DC3B68D0
:102EA0001B6A594A934207DD1723A8E0C04604E095
:102EB000C04602E0C04600E0C046C0467B6818003D
:102EC000524B9847031EF9D13B681A7E3B691A7230
:102ED000C0467B6818004D4B9847031EF9D13B68EC
:102EE000DB699AB23B699A83C0467B681800474BFE
:102EF0009847031EF9D13B681B6A9AB23B691A8452
:102F00001423FB183A682C21525C1A701423FB1806
:102F10001B78002B06D01423FB181A781423FB18F7
:102F2000013A1A701423FB181B780F2B04D83B6846
:102F30002B229B5C0F2B01D9172360E0C0467B68D6
:102F40001800324B9847031EF9D13B689B683A68DA
:102F50002B21525C120513431422BA181278120462
:102F600013433A68D28913433A68127B1A433B6988
:102F70001A613B682A229A5C3B691A753B690F22E9
:102F80009A753B6824229B5C002B1ED03B68DB8C2F
:102F90001F4A934201D9172331E03B68DA8C3B6921
:102FA0009A843B6828229B5E1A4A934205DC3B6860
:102FB00028229B5E184A934201DA17231FE03B68E0
:102FC00028229B5E9AB23B69DA84144B1B68DB08AB
:102FD0009BB21B029AB2E023DB0013409AB2104B63
:102FE0005C681B686101DD0E0D43E60EABB2FF218C
:102FF0000B409BB213439AB23B691A850023180019
:10300000BD4609B0F0BDC046FFFF0000AD2900007D
:10301000FF0F0000FF07000000F8FFFF24608000A2
:103020002060800080B584B000AFF860B9607A603D
:10303000FB68BA681A6080235B0219000220154BF6
:103040009847BB681B78DBB21A000123134001D0FC
:1030500005231AE0BB681B78DBB21A000223134079
:1030600001D01C2311E07B685A78FB681A71FB6859
:103070001B79002B02D10120074B98477A68FB6827
:1030800011001800054B984703001800BD4604B016
:1030900080BDC046E92800006D290000F92A000023
:1030A00080B582B000AF78607B6800221A70C0469D
:1030B000BD4602B080BD000080B582B000AF020006
:1030C0003960FB1D1A70FB1D1B78012B0AD0022BE7
:1030D0000FD0002B14D10E4B0D4A91693A680A4368
:1030E0009A610FE00A4B0A4AD1693A680A43DA61E9
:1030F00008E0074B064A116A3A680A431A6201E07F
:10310000172300E000231800BD4602B080BDC04672
:103110000004004080B582B000AF78607B688022F8
:103120001A707B6800225A707B6801229A707B6853
:103130000022DA70C046BD4602B080BD80B500AF47
:10314000054B9B78DBB21A00022313405A1E9341B1
:10315000DBB21800BD4680BD0020004180B584B0C0
:1031600000AF78607B681B68FB60FB68DB69072247
:1031700013405A1E9341DBB21800BD4604B080BD17
:1031800080B582B000AF7860C0467B681800044B01
:103190009847031EF9D1C046BD4602B080BDC04667
:1031A0005D310000F0B597B000AF78613961002360
:1031B000FB6300233B650023FB643B231022944602
:1031C000BC44634400221A707B691B68BB637B6943
:1031D0001B687B6323231022BA18D4187B6B18005A
:1031E000C04B9847030023700C2310229446BC4424
:1031F00063441800BC4B98473B69DB697B643B69BF
:103200001B6A3B647B6C002B06D17B6B0021180092
:10321000B64B984703007B647B6CDAB20C23102119
:103220008C46BC4463441A700C2310229446BC4460
:10323000634402225A707B6C1B0CDBB20C221021FF
:103240008C46BC44624411001800A94B98473B6C63
:10325000002B06D17B6B01211800A44B984703007B
:103260003B643B6CDAB20C2310218C46BC446344B3
:103270001A700C2310229446BC44634402225A70F4
:103280003B6C1B0CDBB20C2210218C46BC4462440C
:1032900011001800964B98473B699A8A7B69DA803F
:1032A0003B69DA8A7B691A813B691B7E002B03D15B
:1032B000904B9847031E02D080237B6501E00023DA
:1032C0007B653B691B69002B04D03B691B697A6DE8
:1032D00013437B653B699B687A6D13437B653B6950
:1032E00024229B5C002B04D07B6D8022D2051343EB
:1032F0007B653B699B6A002B04D03B699B6A7A6DB6
:1033000013437B653B692C229B5C002B05D13B69F9
:103310009A6880239B049A4204D17B6D8022120517
:1033200013437B653B692D229B5C002B04D07B6D96
:103330008022120413437B653B692E229B5C002B89
:1033400004D07B6D8022D20313437B65BB6B1A686C
:103350007B6D1A43BB6B1A60BB6B802252005A60B4
:10336000232310229446BC4463441B781433DBB2FD
:103370001800614B98470300FB623B691B68FA2207
:1033800092005343BB623B695B68FA22920053434D
:103390007B623B691B8E3B62584BF86A984705007D
:1033A0000E00564BB86A9847B860F960534BF86AFC
:1033B0009847534C534A544BA04703000C003B60C2
:1033C0007C604E4B386A984702000B004C4C3868C2
:1033D0007968A04703000C00180021004B4C002224
:1033E0004B4BA04703000C001A002300444CB86864
:1033F000F968A04703000C001A002300454C280080
:103400003100A04703000C001D002600BB6A5A00D3
:103410003A4B1000984702000B003C4C280031004A
:10342000A04703000C00180021003A4C00223A4B40
:10343000A04703000C001D002600BB6A5A002F4B5A
:103440001000984702000B00344C28003100A047C0
:1034500003000C0019002200314B080011009847AE
:103460000300FB633B699A6880239B049A426AD1FC
:10347000224BF86A9847254C02000B00A047030036
:103480000C001D0026001D4B786A98471C4C00223A
:10349000244BA04703000C001A0023001F4C2800F7
:1034A0003100A04703000C0018002100194C002235
:1034B000194BA04703000C0019002200184B08000C
:1034C000110098470300FB64FB6C002B2ED0164BB9
:1034D000796AF86A984703009A1EFB6CD31A3B6519
:1034E00031E0C04615490000153100005947000081
:1034F000616A00003D310000996800004DDF000066
:10350000F5D2000095D626E80B2E113E6DC40000C2
:1035100000002440F5D700000000F03F8DCA0000F5
:1035200061DE000000000840B5BA00007B6A5A0066
:10353000FB6AD3185A1E7B6A59001D4B100098472E
:103540000300013B3B65FB6BFF2B08DCFB6B002B97
:1035500005DB3B6DFF2B02DC3B6D002B06DA3B23CA
:1035600010229446BC44634440221A703B2310222C
:103570009446BC4463441B78402B0ED0FB6BFF2267
:103580001A403B6D1B041900FF231B040B4013431F
:10359000FA6C12061A43BB6BDA603B231022944686
:1035A000BC4463441B781800BD4617B0F0BDC0464C
:1035B000B5BA000090B58BB000AFF860B9607A6022
:1035C000FB68BA681A60FB681B687B62FB681B6853
:1035D00018003B4B984703003B623B6A0233FB6198
:1035E0003B6A1433BB610122FB699A401300190046
:1035F0000220344B98471423FB181800324B98478D
:103600007B681A7B1423FB181A70BB69DBB2142287
:10361000BA18110018002D4B9847BB69DBB218008F
:103620002B4B98477B681B7B00211800294B984740
:103630007B6A1B680222134001D01C233BE07B6A9B
:103640001B680122134001D0052334E0FB681B688E
:103650001722BC1818001A4B9847030023701E4A03
:103660001723FB181B78110018001C4B98471723D1
:10367000FB181A781A4B9200F968D150FB680022A7
:103680001A76FB6800225A76FB6800225A83FB6890
:1036900000229A83FB68252200219954FB680022AE
:1036A0001A627B6A14221A607A68FB68110018009B
:1036B0000C4B984703001800BD460BB090BDC046A8
:1036C00015490000B9300000A13000007567000006
:1036D000B9670000CD460000254100009157000069
:1036E000BC030020A531000080B584B000AF786035
:1036F0007B681B68FB60FB681B7EDBB21A00022341
:1037000013400BD0FB6802221A76FB685B8B9BB2DE
:103710001A000223134011D0412310E0FB685B8B99
:103720009BB21A000423134008D0FB685B68C022D8
:1037300092021A43FB685A60182300E00023180025
:10374000BD4604B080BD80B584B000AF78607B68B2
:103750001B68BB600E23FB1800221A800FE00E23AB
:10376000FB180E22BA18128801321A807B681B8956
:103770000E22BA1812889A4201D312230EE0BB68B7
:103780001B7EDBB21A000123134006D1BB681B7EEF
:10379000DBB21A0002231340E1D000231800BD461B
:1037A00004B080BD90B585B000AF78600A00FB1C06
:1037B0001A707B681B68FB60FB685B688022D20222
:1037C0001A43FB685A60FB1C1A78FB685A620B2389
:1037D000FC187B681800074B984703002370FB68B0
:1037E00001221A760B23FB181B781800BD4605B082
:1037F00090BDC0464737000090B587B000AF7860F5
:1038000039607B681B68FB601423FB183A68528898
:103810001A801223FB1800221A80FB681B681B0108
:10382000DB0FDBB21A000B23FB18511E8A411A7002
:103830003B685B7A002B06D03B689A7A7B68110064
:103840001800854B9847FB685B68844A1A40FB6800
:103850005A603B681B7A002B42D03B681B885A0099
:103860003B685B7A9B0313431A0080231B021A43B5
:10387000FB685A621723FC187B681800784B98473E
:1038800003002370FB685B68744A1A40FB685A6047
:103890001723FB181B78002B07D11723FC187B6814
:1038A0001800704B9847030023701723FB181B78F0
:1038B000002B11D13B681B881B0A9BB27822134353
:1038C0009BB25A003B685B7A9B031343012213436C
:1038D0001A00FB685A620FE01723FB181B78B6E04A
:1038E0003B681B885B0001221A433B685B7A9B03A1
:1038F00013431A00FB685A621723FC187B681800F0
:10390000574B9847030023700B23FB181B78002BA1
:103910000BD03B685B88012B07D1FB685B6880227A
:10392000D2021A43FB685A6005E0FB685B684B4AA9
:103930001A40FB685A601723FB181B78002B07D12D
:103940001723FC187B681800464B98470300237028
:103950001723FB181B78002B00D075E04BE0FB68A9
:103960005B8B9BB21A002023134001D141236EE0F0
:103970007B68DB7A002B1ED00B23FB181B780122FF
:103980005340DBB2002B04D01423FB181B88002B00
:1039900009D00B23FB181B78002B0CD01423FB1829
:1039A0001B88012B07D1FB685B688022D2021A4377
:1039B000FB685A601AE07B6818002B4B98473B68FD
:1039C0005A681223FB181B8812217918581C08808A
:1039D000D318FA682821525CD2B21A701723FC1847
:1039E0007B6818001E4B9847030023701723FB18B1
:1039F0001B78002B09D11423FB181B881422BA183A
:103A0000591E1180002BAAD100E0C0467B689B7A2A
:103A1000002B0AD07B681800134B9847FB685B6843
:103A2000C02292021A43FB685A607B6818000E4B52
:103A300098473B685A681223FB181B88D318FA680A
:103A40002821525CD2B21A701723FB181B78180079
:103A5000BD4607B090BDC046A5370000FFFFFBFF85
:103A600047370000E93600008131000080B582B0A0
:103A700000AF786039607B689B8B9BB2002B01D0D4
:103A800005230CE07B6801229A727B680122DA72BE
:103A90003A687B6811001800034B98470300180030
:103AA000BD4602B080BDC046F937000090B587B072
:103AB00000AF786039607B681B68FB601423FB18DB
:103AC0003A6852881A807B681800514B98473B68C7
:103AD0005B7A002B06D03B689A7A7B68110018004D
:103AE0004C4B9847FB685B684B4A1A40FB685A602E
:103AF0003B681B7A002B0DD03B681B885A003B6843
:103B00005B7A9B0313431A0080231B021A43FB6852
:103B10005A6209E03B681B885A003B685B7A9B034A
:103B200013431A00FB685A621723FC187B681800BD
:103B30003A4B9847030023701723FB181B78002B80
:103B400007D11723FC187B681800354B98470300F2
:103B500023701723FB181B78002B52D11223FB185C
:103B600000221A8033E0FB685B8B9BB21A00202393
:103B7000134001D1412347E07B681800244B98474C
:103B80003B685A681223FB181B8812217918581CAD
:103B90000880D3181978FB68282299541723FC1839
:103BA0007B6818001D4B9847030023701723FB18F0
:103BB0001B78002B15D1FB685B8B9BB21A0004238A
:103BC000134004D01723FB181E221A700AE0142396
:103BD000FB181B881422BA18591E1180002BC2D161
:103BE00000E0C0467B689B7A002B0AD07B681800F7
:103BF000074B9847FB685B68C02292021A43FB6838
:103C00005A601723FB181B781800BD4607B090BDFB
:103C100081310000A5370000FFFFFBFF47370000A0
:103C2000E936000080B582B000AF786039607B680B
:103C30009B8B9BB2002B01D005230CE07B680122FB
:103C40009A727B680122DA723A687B681100180068
:103C5000034B984703001800BD4602B080BDC04624
:103C6000AD3A000080B582B000AF786039607B6803
:103C70009B8B9BB2002B01D005230CE07B680022BC
:103C80009A727B680122DA723A687B681100180028
:103C9000034B984703001800BD4602B080BDC046E4
:103CA000AD3A000080B584B000AF78607B681B68D7
:103CB000FB607B681800064B9847FB685B68C02276
:103CC00092021A43FB685A60C046BD4604B080BDEC
:103CD0008131000080B584B000AF78607B681B68DC
:103CE000FB60FB68DB69072213405A1E9341DBB27D
:103CF0001800BD4604B080BD80B582B000AF7860CA
:103D0000C0467B681800044B9847031EF9D1C04693
:103D1000BD4602B080BDC046D53C000080B584B031
:103D200000AF78607B681B68FB60FB681B681B0149
:103D3000DB0FDBB21A000B23FB18511E8A411A70ED
:103D40000823FB187A68528B1A807B689B8B9AB287
:103D50000823FB180821791809888A1A1A807B68B9
:103D60009B8B9BB2013B9AB27B689A830B23FB1817
:103D70001B78002B10D07B68DB7A002B1CD07B6873
:103D80009B8B9BB2012B17D1FB685B688022D20210
:103D90001A43FB685A600FE07B68DB7A002B0BD07C
:103DA0007B689B8B9BB2002B06D1FB685B688022F3
:103DB000D2021A43FB685A607B689B8B9BB2002B34
:103DC0000ED17B689B7A002B0AD07B6818000E4BC3
:103DD0009847FB685B68C02292021A43FB685A60EE
:103DE0007B681800084B98477B681A6A0823FB1801
:103DF0001B88D318FA682821525CD2B21A70C046C8
:103E0000BD4604B080BDC046F93C000080B584B01A
:103E100000AF78607B681B68FB60FB685B8B9BB2C4
:103E20001A000423134004D07B6825221E219954D4
:103E300024E00A23FB187A68528B1A807B689B8BDC
:103E40009AB20A23FB180A21791809888A1A1A805B
:103E50007B689B8B9BB2013B9AB27B689A837B68A1
:103E60001800084B98477B681A6A0A23FB181B88BE
:103E7000D3181B78D9B2FB6828229954BD4604B0E8
:103E800080BDC046F93C000080B584B000AF7860CA
:103E90007B681B68FB60FB681B7EDBB21A0001239A
:103EA00013402BD0FB6801221A76FB685B8B9BB218
:103EB0001A000223134004D07B6825224121995423
:103EC0001CE0FB685B8B9BB21A000423134015D0E7
:103ED0007B682522182199547B6800229A837B688D
:103EE0009B7A002B0AD07B681800134B9847FB681D
:103EF0005B68C02292021A43FB685A607B689B8B06
:103F00009AB27B685A837B6825229B5CDBB2052BC7
:103F10000ED17B6824229B5CDBB2002B04D17B6832
:103F20001800064B984703E07B681800044B98473D
:103F3000C046BD4604B080BDF93C00000D3E000007
:103F40001D3D000080B584B000AFF860B960FB1D76
:103F50001A70FB1D1B78FA6802339B00D3180433D8
:103F6000BA681A60FB681B7EDBB25AB2FB1D1B7875
:103F7000012199400B005BB213435BB2DAB2FB68DC
:103F80001A76C046BD4604B080BD000090B587B02B
:103F900000AF786039607B681B683B613B685A689A
:103FA0007B681A623B685A887B689A837B68242204
:103FB000012199547B682522052199543B691B688E
:103FC0001B01DB0FDBB21A000F23FB18511E8A41C5
:103FD0001A703B685B7A002B06D03B689A7A7B6844
:103FE000110018003B4B98470F23FB181B78002B40
:103FF0000BD03B685B88012B07D13B695B68802253
:10400000D2021A433B695A6005E03B695B68324A59
:104010001A403B695A603B681B7A002B45D03B68CD
:104020001B885A003B685B7A9B0313431A0080236A
:104030001B021A433B695A621723FC187B6818005D
:10404000264B9847030023703B695B68224A1A405D
:104050003B695A601723FB181B78002B07D11723E5
:10406000FC187B6818001E4B984703002370172329
:10407000FB181B78002B14D13B6903229A753B680F
:104080001B881B0A9BB2782213439BB25A003B68E1
:104090005B7A9B031343012213431A003B695A6264
:1040A00012E01723FB181B780FE03B6903229A7577
:1040B0003B681B885B0001221A433B685B7A9B03C9
:1040C00013431A003B695A6200231800BD4607B02B
:1040D00090BDC046A5370000FFFFFBFF473700003B
:1040E000E936000080B582B000AF786039607B6847
:1040F0009B8B9BB2002B01D005230CE07B68012237
:104100009A727B680122DA723A687B6811001800A3
:10411000034B984703001800BD4602B080BDC0465F
:104120008D3F000080B586B000AF0200FB1D1A7005
:10413000FB1D1A78934B9200D3587B617B691B68F7
:104140003B613B691B681B01DB0FDBB21A000F23CD
:10415000FB18511E8A411A700E23FB187A69527E91
:104160001A707B691B7EDAB20E23FB180E217918B8
:1041700009780A401A707B695B8B9BB2002B09D1CE
:104180007B699B8B9BB2002B04D07B6918007E4B14
:10419000984770E07B695B8B9BB2002B39D07B69C1
:1041A0009B8B9BB2002B34D17B6925229B5CDBB2BD
:1041B000052B2ED17B6924229B5CDBB2002B28D1FE
:1041C0003B6903221A757B6900225A837B69252289
:1041D000002199547B699B7A002B0BD07B691800D6
:1041E0006A4B98473B695B68C02292021A433B695D
:1041F0005A6002E03B6901221A760E23FB181B78F5
:104200000122134037D07B69DB687A691000984738
:1042100031E07B695B8B9BB2002B2CD07B699B8B45
:104220009BB2002B27D03B695B8B9BB21A002023EB
:10423000134011D10F23FB181B7801225340DBB22E
:10424000002B04D17B699B8B9BB2012B04D07B6933
:104250002522412199540EE07B6924229B5CDBB22C
:10426000002B04D17B691800494B984703E07B6918
:104270001800484B98477B695B8B9BB2002B47D05B
:104280007B699B8B9BB2002B42D17B6925229B5C77
:10429000DBB2052B3CD17B6924229B5CDBB2012B7A
:1042A00036D13B691B7EDBB21A000223134002D0D9
:1042B0003B6902221A763B6903221A757B69002248
:1042C0005A837B692522002199540E23FB181B7801
:1042D000022213400BD07B6924229B5CDBB2012BB2
:1042E00005D17B691B697A691000984710E00E239D
:1042F000FB181B78012213400AD07B6924229B5CA7
:10430000DBB2002B04D17B69DB687A691000984727
:104310007B6925229B5CDBB2052B2ED07B69252295
:104320009B5CDBB2002B28D03B6903221A757B69AA
:1043300000225A837B6900229A837B6925229B5C39
:10434000DBB2412B0ED07B699B7A002B0AD07B69B4
:1043500018000E4B98473B695B68E022D2021A4373
:104360003B695A600E23FB181B780422134004D0CB
:104370007B695B697A6910009847C046BD4606B004
:1043800080BDC046BC030020893E0000F93C00000F
:104390000D3E00001D3D000080B582B000AF78608A
:1043A0007B6800221A70C046BD4602B080BDF0B5E1
:1043B0008DB000AFB860F9603A607B6000230024E4
:1043C0003B627C6200230024BB61FC613F23FB62F3
:1043D00053E0FB6A203B002B04DB01229A401300D0
:1043E0007B610BE0FB6A2022D31A0122DA40130022
:1043F0000021FA6A91400A0013437B610122FB6AA3
:104400009A4013003B61BB69FC69DB186441BB61E6
:10441000FC61BB683A691A401500FB687A691A406A
:1044200016002B00334307D0BB6901221343BB6145
:10443000FB6900221343FB617A68FB699A4219D831
:104440007A68FB699A4203D13A68BB699A4211D8EB
:10445000B969FA693B687C68C91AA2410B0014006B
:10446000BB61FC613A6A3B6913433B627A6A7B69D0
:1044700013437B62FB6A013BFB62FB6A002BA8DAF9
:104480003B6A7C6A18002100BD460DB0F0BD80B5C6
:1044900086B000AFF860B9607A601623FB1800227E
:1044A0001A80BB683B61BB685A08FB689A4201D21C
:1044B000402326E0BB685B083B610AE03A69FB6881
:1044C000D31A3B611623FB181A881623FB180132F6
:1044D0001A803A69FB689A42F0D21623FB1816221A
:1044E000BA181288013A1A801623FB181B88FF2B72
:1044F00001D9402305E07B681622BA1812881A8079
:1045000000231800BD4606B080BD0000F0B5A1B084
:1045100000AFF864B9647A644322BA1813700023B8
:1045200000243B677C6700230024BB66FC660023F5
:104530000024BB67FC6700237B6658234022944617
:10454000BC4463441A78FB6C5A43BB6C9A4201D951
:104550004023B3E04323FB181B78002B3DD15823A5
:1045600040229446BC4463441B78DBB23B61002389
:104570007B61FB6CBB600023FB60524CBA68FB683C
:1045800038697969A04703000C001B00FB65002314
:10459000BB65BB6C3B6000237B60B86DF96D3A680E
:1045A0007B68494CA04703000C003B677C670021F7
:1045B00001223B6F7C6FC91AA2410B001400BB663D
:1045C000FC66BB6E1B0CFA6E16041E43BB6E1D040C
:1045D0003300BB670023FB676AE04323FB181B78AB
:1045E000012B65D1FB6C3B6300237B635823402286
:1045F0009446BC4463441B78DBB2BB620023FB627D
:10460000304CBA6AFB6A386B796BA04703000C0028
:10461000BB65FC65BB6C3B6200237B62BB6DFC6DC4
:104620001A002300386A796A274CA04703000C005F
:104630007B667A6E80239B019A4201D940233DE03C
:10464000BB6CBB610023FB61B969FA690B005B0FAE
:104650001000C000F863F86B1843F8630B00DB0030
:10466000BB63BB6DFC6D1A002300B86BF96B164C75
:10467000A04703000C00BB65FC65BB6DFC6DD9B2A7
:104680007B6EDBB2DB00DAB2172340208446BC44E9
:1046900063448A1A1A70172340229446BC44634428
:1046A0001B785B031A007B6E1343BB670023FB6719
:1046B000BB6FFC6F9AB27B6C1A8000231800BD465A
:1046C00021B0F0BD1DBE0000AF43000080B584B036
:1046D00000AF0200FB1D1A70BB1D0A1C1A701A4B9A
:1046E0001B7801225340DBB2002B03D1BB1D1B788A
:1046F000002B1BD00C23FB181800144B98470C23DD
:10470000FB18FA1D12781A700C23FB1819001320DD
:104710000F4B984713200F4B98470B4BFA1D1278FD
:104720005A70094B01221A70002308E0064B5B788F
:10473000FA1D12789A4201D1002300E01D231800CF
:10474000BD4604B080BDC0467802002099430000F9
:1047500075670000B967000080B582B000AF78606F
:104760000A00FB1C1A707B684D4A93423FD04C4AAA
:10477000934206D84B4A93420FD04B4A934221D0E2
:1047800089E04A4A934200D15BE0494A934200D112
:104790006CE0484A93423FD07DE0FB1C1B78012B24
:1047A0000AD002DC002B05D075E0022B06D0032BCB
:1047B00006D070E0404B6FE0404B6DE0404B6BE04B
:1047C000404B69E0FB1C1B78012B0AD002DC002B5C
:1047D00005D060E0022B06D0032B06D05BE003235C
:1047E0005AE0394B58E0394B56E0394B54E0FB1C4A
:1047F0001B78012B0AD002DC002B05D04BE0022BEA
:1048000006D0032B06D046E0324B45E0324B43E066
:10481000324B41E0324B3FE0FB1C1B78012B0AD0AE
:1048200002DC002B05D036E0022B06D0032B06D08D
:1048300031E02C4B30E02C4B2EE02C4B2CE02C4B61
:104840002AE0FB1C1B78012B0AD002DC002B05D0D0
:1048500021E0022B06D0032B06D01CE0254B1BE0E9
:10486000254B19E0254B17E0254B15E0FB1C1B7869
:10487000012B0AD002DC002B05D00CE0022B06D065
:10488000032B06D007E01F4B06E01F4B04E01F4B35
:1048900002E01F4B00E000231800BD4602B080BDBF
:1048A0000010004200080042000C004200180042C4
:1048B000001C004200140042030004000300050035
:1048C00003000600030007000300010003001E00B0
:1048D00003001F00030008000300090003000A0092
:1048E00003000B000300100003001100030012007E
:1048F0000300130003000C0003000D0003000E0072
:1049000003000F0003001600030017000300180047
:104910000300190090B58BB000AF78600C23FB1832
:104920000F4A13CA13C313CA13C300237B620EE0DA
:104930000C23FB187A6A9200D3581A007B689A42BB
:1049400002D17B6ADBB206E07B6A01337B627B6A61
:10495000052BEDD900231800BD460BB090BDC04615
:10496000B0E3000080B586B000AFF860B9607A604F
:1049700000237B61FB68002B12D001235B4213E014
:104980000B4B1A680B4B1B68B96818009047BB6843
:104990000133BB607B6901337B617B68013B7B60DA
:1049A0007B68002BECDC7B691800BD4606B080BD3F
:1049B000B0030020B803002080B586B000AFF860D7
:1049C000B9607A6000237B61FB68012B1DD0FB6816
:1049D000022B1AD0FB68032B17D001235B4218E08F
:1049E0000E4B1A680E4B1868BB68591CB9601B78CF
:1049F00019009047031E02DA01235B4209E07B693C
:104A000001337B617B68013B7B607B68002BE7D1D6
:104A10007B691800BD4606B080BDC046B4030020C7
:104A2000B803002080B582B000AF78607B680022B8
:104A30001A70C046BD4602B080BD000080B582B08D
:104A400000AF02003960FB1D1A70FB1D1B78012BA3
:104A50000AD0022B0FD0002B14D10E4B0D4A9169B6
:104A60003A680A439A610FE00A4B0A4AD1693A68E8
:104A70000A43DA6108E0074B064A116A3A680A43BA
:104A80001A6201E0172300E000231800BD4602B0BF
:104A900080BDC0460004004080B582B000AF7860A1
:104AA0007B6880221A707B6800225A707B68012222
:104AB0009A707B680022DA70C046BD4602B080BDA5
:104AC00080B500AF054B9B78DBB21A000223134080
:104AD0005A1E9341DBB21800BD4680BD0020004144
:104AE00080B584B000AF78607B681B68FB60FB68B2
:104AF000DB695A1E9341DBB21800BD4604B080BD8D
:104B000080B582B000AF7860C0467B681800044B67
:104B10009847031EF9D1C046BD4602B080BDC046CD
:104B2000E14A0000B0B58CB002AF786039607B68B4
:104B30001B68BB617B681B681800AB4B9847030080
:104B40007B617B6914333B6100237B6200233B6202
:104B50000A23FB1800221A801F23FB1800221A7058
:104B60001E23FB1810221A703B681B8A8022D20178
:104B700093421CD08022D201934206DC002B0DD040
:104B800080229201934224D035E0C022D201934288
:104B900028D080221202934212D02CE01F23FB184F
:104BA00000221A701E23FB1810221A7023E01F2304
:104BB000FB1800221A701E23FB1808221A701AE034
:104BC0001F23FB1800221A701E23FB1803221A70E1
:104BD00011E01F23FB1801221A701E23FB1810225C
:104BE0001A7008E01F23FB1801221A701E23FB18FD
:104BF00008221A70C0463B681A683B68DB681A4393
:104C00003B685B6913433A68128A13433A68127E21
:104C1000120213433A682621525C520713437B6207
:104C20001D23FB1800221A703B685B68FB60FB6861
:104C3000002B1ED08022520593424FD13B68272281
:104C40009B5C01225340DBB2002B46D03B681D6ABF
:104C50003B69DBB21800654B984701001D23FC1827
:104C60000A23FB181A002800614B984703002370A1
:104C700033E03B6827229B5C002B14D03B68186A0A
:104C80003B68996A1D23FC181F23FB181D780A2313
:104C9000FA181E23FB181B7800932B00554DA847CC
:104CA000030023701AE03B681D6A3B69DBB2180001
:104CB0004E4B98471D23FC181F23FB1819780A2315
:104CC000FA181E23FB181B7800930B000100280024
:104CD000484DA8470300237000E0C0461D23FB1881
:104CE0001B78002B03D01D23FB181B7877E03B6853
:104CF0005B7E002B03D03B689A7EBB699A737B680E
:104D000018003D4B98470A23FB181A88BB699A8103
:104D10007A6AFB6813437B623B6827229B5C012213
:104D20005340DBB2002B03D07B6A042213437B6227
:104D30003B685B7E9A023B681B7F5B021A433B68C1
:104D40005B7F1B021A433B6824215B5C5B041A43B4
:104D50003B6825215B5C1B0413433B623B689B7AE9
:104D60001A003B6A13433B623B68DB7A1A003B6ADA
:104D700013433B623B681B89FF2B0BD07B6A80226D
:104D8000520413437B623B681B891A003B6A13433E
:104D90003B6208E03B68DB7E002B04D07B6A80220C
:104DA000D20413437B623B682C229B5C002B03D113
:104DB000124B9847031E03D07B6A802213437B6209
:104DC0007B6818000C4B9847BB693A6A5A607B684D
:104DD0001800094B9847BB697A6A1A6000231800CB
:104DE000BD460AB0B0BDC046154900009968000034
:104DF0008F4400000D450000014B0000C14A000037
:104E000090B593B000AFF860B9607A603B23FB18AF
:104E100000221A70FB68BA681A60FB681B687B6323
:104E2000FB681B681800864B984703003B633B6B8D
:104E30000233FB623B6B1433BB627B6B1B6801224A
:104E4000134001D00523F6E07B6B1B680222134060
:104E500001D01C23EFE00122FB6A9A4013001900E5
:104E60000220784B98472423FB181800764B98476C
:104E70007B682D229A5C2423FB181A70BB6ADBB274
:104E80002422BA1811001800704B9847BB6ADBB295
:104E900018006F4B98477B682D229B5C00211800FF
:104EA0006C4B98477B68DA7AFB685A717B682422DE
:104EB0009A5CFB689A717B6825229A5CFB68DA71C0
:104EC0007B68DA7EFB681A727B681A7FFB685A720D
:104ED0003B23FC187A68FB68110018005E4B98476A
:104EE000030023703B23FB181B78002B03D03B23CC
:104EF000FB181B789FE02023FB181800574B98479E
:104F00002023FB1800225A702023FB1800229A70DD
:104F10007B681A6B1023FB181A607B685A6B10238E
:104F2000FB185A607B689A6B1023FB189A607B68A9
:104F3000DA6B1023FB18DA604723FB1800221A7083
:104F40002CE04723FB181A781023FB189200D35843
:104F50003B643B6C002B09D14723FB181A78BB68D4
:104F6000110018003E4B984703003B643B6C013333
:104F70000DD03B6CDAB22023FB181A703B6C1B0C73
:104F8000DBB22022BA1811001800364B984747238D
:104F9000FB181A784723FB1801321A704723FB18B5
:104FA0001B78032BCDD90023FB630AE0FA68FB6B67
:104FB00002339B00D318043300221A60FB6B0133C9
:104FC000FB63FB6B052BF1D9FB6800229A62FB683F
:104FD00000225A62FB680022DA85FB6800229A856B
:104FE000FB68302200219954FB683122002199543A
:104FF000FB68322200219954FB6833220021995426
:10500000FB681B682722BC1818000D4B984703004B
:105010002370154A2723FB181B7811001800134B27
:1050200098472723FB181A78114B9200F968D15042
:105030003B23FB181B781800BD4613B090BDC0463B
:10504000154900003D4A0000254A00007567000030
:10505000B9670000CD460000254B0000994A0000CA
:1050600059470000616A00003D540000915700005C
:10507000BC03002080B584B000AF78600A00BB1C80
:105080001A807B681B68FB607B68DB7901225340D8
:10509000DBB2002B01D01C2317E07B68DB8D9BB2B9
:1050A000002B01D0052310E07B681800094B9847BE
:1050B000FB68BA1C12881A85C046FB681B7EDBB2EF
:1050C0001A0002231340F8D000231800BD4604B094
:1050D00080BDC046014B000080B584B000AF786051
:1050E00039607B681B68FB607B689B7901225340B9
:1050F000DBB2002B01D01C235EE07B689B8D9BB252
:10510000002B01D0052357E0FB681B7EDBB21A00A1
:105110000423134001D105234EE07B681800284B7F
:105120009847FB685B8B9BB2DAB20B23FB183F21DD
:105130000A401A700B23FB181B78002B36D00B2368
:10514000FB181B780222134004D0FB6802225A830A
:105150001A2331E00B23FB181B780422134004D0E0
:10516000FB6804225A831E2326E00B23FB181B78BE
:105170000122134004D0FB6801225A8313231BE051
:105180000B23FB181B781022134004D0FB6810225D
:105190005A83422310E00B23FB181B782022134074
:1051A00004D0FB6820225A83412305E0FB681B8D55
:1051B0009AB23B681A8000231800BD4604B080BD37
:1051C000014B000080B58AB000AFF860B960BB1D2C
:1051D0001A80BB1D1B88002B01D117237EE0FB68C2
:1051E000DB7901225340DBB2002B01D01C2375E098
:1051F000FB681B687B61FB6818003A4B98472623C5
:10520000FB1800221A8048E000233B620FE07B6914
:105210001B7EDBB21A00012313400DD13B6A324AD8
:10522000934201D1122359E03B6A01333B623B6A4E
:105230002D4A9342EBD900E0C0462623FB181B8879
:105240002622BA18591C11801A00BB689B181A78BC
:105250001E23FB181A80FB685B79012B15D12623CE
:10526000FB181B882622BA18591C11801A00BB682B
:105270009B181B781B021AB21E23FB1800215B5ED1
:1052800013431AB21E23FB181A801E23FB181A8818
:10529000FB6811001800154B9847BB1D1B88BA1DF1
:1052A000591E1180002BAFD10023BB610FE07B6939
:1052B0001B7EDBB21A00022313400DD1BB690A4AE0
:1052C000934201D1122309E0BB690133BB61BB6981
:1052D000054A9342EBD900E0C04600231800BD46C2
:1052E0000AB080BD014B0000FFFF000075500000B8
:1052F00090B589B000AFF860B960BB1D1A80BB1DC6
:105300001B88002B01D117236DE0FB689B790122DC
:105310005340DBB2002B01D01C2364E0FB681B6808
:105320007B611E23FB1800221A8054E00023BB611E
:105330000FE07B691B7EDBB21A00042313400DD102
:10534000BB692B4A934201D112234CE0BB69013364
:10535000BB61BB69264A9342EBD900E0C0461023EB
:10536000FB1800221A801323FC181023FA18FB687C
:10537000110018001F4B9847030023701323FB18DC
:105380001B78002B03D01323FB181B782BE01E2364
:10539000FB181B881E22BA18591C11801A00BB6802
:1053A0009B181022BA181288D2B21A70FB685B7967
:1053B000012B10D11E23FB181B881E22BA18591C62
:1053C00011801A00BB689B181022BA181288120AA2
:1053D00092B2D2B21A70BB1D1B88BA1D591E118021
:1053E000002BA3D100231800BD4609B090BDC046D4
:1053F000FFFF0000D950000080B584B000AF786096
:105400007B681B68FB60FB68DB695A1E9341DBB25B
:105410001800BD4604B080BD80B582B000AF786092
:10542000C0467B681800044B9847031EF9D1C0465C
:10543000BD4602B080BDC046F953000080B588B0BB
:1054400000AF0200FB1D1A70FB1D1A78A34B9200DF
:10545000D358BB61BB691B687B61BB691800A04B5B
:1054600098477B691B7EDAB21223FB181A807B698E
:105470009B7DDBB29AB21223FB181221791809889E
:105480000A401A80BB6930229B5CBA693121525CA8
:105490001340DAB21023FB181A801223FB181B8862
:1054A0000122134044D0BB69DB8D9BB2002B3CD062
:1054B000BB699B6A1B78DAB21C23FB181A80BB6994
:1054C0009B6A5A1CBB699A62BB695B79012B13D139
:1054D000BB699B6A1B78DBB21B021AB21C23FB1848
:1054E00000215B5E13431AB21C23FB181A80BB69B0
:1054F0009B6A5A1CBB699A621C23FB181B88DB053C
:10550000DB0D9AB27B691A85BB69DB8D9BB2013BCF
:105510009BB2BA69191CD185002B09D17B69012284
:105520001A757B6902229A7502E07B6901221A755D
:105530001223FB181B880222134011D07B69022220
:105540001A75BB693322002199541023FB181B885C
:105550000122134004D0BB69DB68BA691000984788
:105560001223FB181B880422134000D1BDE0BB6945
:105570009B8D9BB2002B00D1B4E07B695B8B9BB20F
:10558000DAB21F23FB183F210A401A701F23FB18B1
:105590001B780822134007D01F23FB181F22BA18BC
:1055A000127808218A431A701F23FB181B78002BDE
:1055B00050D01F23FB181B780222134007D0BB6971
:1055C00032221A2199547B6902225A8336E01F2322
:1055D000FB181B780422134007D0BB6932221E211E
:1055E00099547B6904225A8328E01F23FB181B78F7
:1055F0000122134007D0BB693222132199547B69E1
:1056000001225A831AE01F23FB181B781022134033
:1056100007D0BB693222422199547B6910225A83F8
:105620000CE01F23FB181B782022134006D0BB6917
:105630003222412199547B6920225A831023FB187E
:105640001B880422134050D0BB695B69BA69100003
:1056500098474AE07B691B8D9AB20E23FB18D2054E
:10566000D20D1A80BB695B6A0E22BA181288D2B2B8
:105670001A70BB695B6A5A1CBB695A62BB695B7969
:10568000012B0DD1BB695B6A0E22BA181288120A6F
:1056900092B2D2B21A70BB695B6A5A1CBB695A6279
:1056A000BB699B8D9BB2013B9BB2BA69191C91856A
:1056B000002B1AD17B6904221A75BB6932220021A2
:1056C00099541023FB181B88022213400DD0BB698C
:1056D0001B69BA691000984707E0C046BC03002068
:1056E000195400007B6904221A751223FB181B88C9
:1056F0001022134010D07B6910221A757B6910228A
:105700001A761023FB181B881022134004D0BB69A3
:10571000DB69BA69100098471223FB181B88202206
:10572000134010D07B6920221A757B6920221A76DB
:105730001023FB181B880822134004D0BB699B6907
:10574000BA69100098471223FB181B8808221340DF
:1057500010D07B6908221A757B6908221A761023FB
:10576000FB181B882022134004D0BB691B6ABA694E
:1057700010009847C046BD4608B080BD80B582B0D5
:1057800000AF0200FB1D1A70C046BD4602B080BDCE
:1057900080B584B000AF02003960FB1D1A70134B56
:1057A0001B7801225340DBB2002B15D00023FB6095
:1057B0000CE00F4BFA6892000E49D1500E4BFA687C
:1057C00092000021D150FB680133FB60FB68052B80
:1057D000EFD9064B01221A70FB1D1A78044B920078
:1057E0003968D150C046BD4604B080BD7A02002061
:1057F0007C0200207D570000BC03002090B585B0DE
:1058000000AF78600823FB180B4A11681960928872
:105810009A800F23FC187B681800084B98470300F8
:1058200023700F23FB181B780822BA18D35C5BB2D5
:105830001800BD4605B090BDC8E300001549000042
:1058400080B500AF034B1B6800209847C046BD469B
:1058500080BDC0467C02002080B500AF034B5B6872
:1058600001209847C046BD4680BDC0467C0200204E
:1058700080B500AF034B9B6802209847C046BD46E9
:1058800080BDC0467C02002080B500AF034BDB68C2
:1058900003209847C046BD4680BDC0467C0200201C
:1058A00080B500AF034B1B6904209847C046BD4636
:1058B00080BDC0467C02002080B500AF034B5B6911
:1058C00005209847C046BD4680BDC0467C020020EA
:1058D00080B582B000AF104B1B68002B12D1EFF3E4
:1058E00010837B607B68002B09D172B6BFF35F8F9A
:1058F0000A4B00221A700A4B01221A7002E0084B70
:1059000000221A70044B1B685A1C034B1A60C046D5
:10591000BD4602B080BDC046940200204800002071
:105920009802002080B500AF0B4B1B685A1E0A4B33
:105930001A60094B1B68002B0AD1084B1B78DBB29D
:10594000002B05D0064B01221A70BFF35F8F62B6A1
:10595000C046BD4680BDC04694020020980200208B
:105960004800002080B584B000AF0200FB1D1A7013
:105970000F23FB18FA1D1278D2091A700E23FB1898
:10598000FA1D127852091A700D4BBB600F23FB18D9
:105990001B78002B0FD10F23FB181B789B001022C4
:1059A0009446BC446344083B1A680E23FB181B78DA
:1059B000DB01D31800E000231800BD4604B080BD11
:1059C0000044004180B582B000AF0200FB1D1A7098
:1059D000FB1D1B781800034B984703001800BD46B9
:1059E00002B080BD6559000080B582B000AF78601C
:1059F0007B6800221A707B6801225A707B68002243
:105A00009A70C046BD4602B080BD000080B584B02B
:105A100000AF0200FB1D1A70BB1D0A1C1A70FB1D93
:105A20001B7818000D4B98470300FB60FB1D1B788B
:105A30001F22134001229A401300BB60BB1D1B783C
:105A4000002B03D0FB68BA689A6102E0FB68BA6871
:105A50005A61C046BD4604B080BDC046C55900006D
:105A600080B582B000AF3B1D18000E4B98473B1D20
:105A700001221A703B1D190017200B4B984701217A
:105A800017200A4B98473B1D00221A703B1D01222C
:105A90005A703B1D19003720034B9847C046BD463E
:105AA00002B080BDE9590000D95A00000D5A00002B
:105AB00080B582B000AF78607B6880221A707B6806
:105AC00000225A707B6801229A707B680022DA708B
:105AD000C046BD4602B080BD80B584B000AF0200B4
