:10000000A0220020411400003D1400003D14000017
:1000100000000000000000000000000000000000E0
:100020000000000000000000000000003D1400007F
:1000300000000000000000003D1400003D1400001E
:100040003D1400003D1400003D1400003D1400006C
:100050003D1400003D1400003D1400003D1400005C
:100060003D140000750B0000850B0000950B00008F
:10007000A50B0000B50B0000C50B00003D140000EF
:100080003D1400003D1400003D1400003D1400002C
:100090003D14000000000000000000003D140000BE
:1000A0003D1400003D1400003D1400003D1400000C
:1000B0000000000010B5064C2378002B07D1054B3B
:1000C000002B02D0044800E000BF0123237010BDC4
:1000D000D40100200000000060380000084B10B57B
:1000E000002B03D00749084800E000BF0748036819
:1000F000002B00D110BD064B002BFBD09847F9E731
:1001000000000000D80100206038000060380000C6
:1001100000000000F0B5DE4657464E464546E0B5C5
:1001200087B08046049116001F00002200230021A2
:100130008B463F2401202100009601975C460394E2
:100140004446059413E02024641A0500E540A846BF
:1001500014E0009C019D121BAB415C464D462C43B4
:10016000A346039C45462C430394013925D3202400
:1001700064420C19E7D40500A540A84604008C4051
:10018000A14692185B4114001D00059E4F463E405B
:10019000B446049E47463E40B246664657463E43F6
:1001A00003D00600264332002B00009C019D9D4297
:1001B000DBD8CED19442D8D8CBE7039B5846190060
:1001C00007B03CBC90469946A246AB46F0BD10B580
:1001D000490840230024814202D2180010BD1C00AF
:1001E000091A631C9BB28842F9D94023FF2CF4D82A
:1001F00014800023F1E70000F0B583B00F00160073
:1002000008AA117804004C434022BC4202D91000D5
:1002100003B0F0BD002B14D1020008000021194CDE
:10022000A04701003A0000230020174CA0470022FD
:100230000123121A8B41120C1B041A433280002234
:10024000E5E70022012BF9D10A00002300210D4C23
:10025000A04702000B0000920193380000210A4CD5
:10026000A047050080239B0140229842CFD8790FF8
:10027000F800009A019BA047EA00821AD2B252030A
:100280002A43DBE77D1800001501000010B582B09D
:1002900004000E4B1B78002B07D0002905D10B4B17
:1002A0005B78834210D01D200CE001A90C70132054
:1002B000074B98471320074B9847044B5C7001226B
:1002C0001A70002002B010BD0020FBE7F0010020F2
:1002D000E512000059120000404B984231D00AD973
:1002E0003F4B98424DD03F4B98425AD03E4B98429C
:1002F00037D0002070473D4B98420CD03C4B984281
:10030000F7D1012917D000295DD0022915D0032982
:1003100015D00020EEE7012907D0002951D002298D
:1003200005D0032905D00020E4E73248E2E732484F
:10033000E0E73248DEE73248DCE73248DAE73248C5
:10034000D8E7012907D000293FD0022905D0032989
:1003500005D00020CEE72D48CCE72D48CAE72D4830
:10036000C8E7012907D0002931D0022905D0032987
:1003700005D00020BEE72848BCE72848BAE728484F
:10038000B8E7012907D0002923D0022905D0032985
:1003900005D00020AEE72348ACE72348AAE723486E
:1003A000A8E7012907D0002915D0022905D0032983
:1003B00005D000209EE71E489CE71E489AE71E488D
:1003C00098E71E4896E7032094E71D4892E71D48EA
:1003D00090E71D488EE71D488CE7C046001000429C
:1003E00000180042001C00420014004200080042B5
:1003F000000C004203000500030006000300070094
:100400000300010003001E0003001F000300090099
:1004100003000A0003000B00030011000300120098
:100420000300130003000D0003000E0003000F0083
:100430000300170003001800030019000300040064
:10044000030008000300100003000C000300160066
:1004500030B587B00B4B6A4632CB32C232CB32C298
:10046000009B83420BD001239A0069465258824276
:1004700006D00133062BF7D1002007B030BD002392
:10048000D8B2FAE7E8350000F0B5C64600B50C0072
:10049000904600280FD1002A11DD8F18094E0A4D11
:1004A000306821002B6898470134BC42F8D140469F
:1004B00004BC9046F0BD01235B429846F7E78046B6
:1004C000F5E7C0464002002038020020F0B5C646DD
:1004D00000B50E0015000138022810D8002A11D0EE
:1004E00000240C4B98460C4F43461868315D3B681E
:1004F0009847002808DB0134A542F5D106E0012425
:10050000644203E0140001E001246442200004BCC2
:100510009046F0BD400200203C020020F0B5DE46CF
:1005200057464E464546E0B591B005000C00160012
:1005300029600800BC4B9847020023680520DB07B0
:1005400006D511B03CBC90469946A246AB46F0BDDC
:10055000236817309B07F4D4B449086A971C012319
:10056000BB4003430B620FA92D27F35D0B701432C0
:10057000D3B202931800AE4B98470298AD4B984700
:10058000F05D0021AC4B9847F37A6B712423F35C48
:10059000AB712523F35CEB71F37E2B72337F6B72AF
:1005A0002B6898461800A04B9847143000220E2361
:1005B00006A98C4663441A80328A02928023DB01AA
:1005C0009A4200D19EE00FD9C023DB01029A9A42E1
:1005D00000D192E080231B029A4200D01FE1032346
:1005E00006930023079308E080239B019A4200D0E2
:1005F00015E1102306930F3B079333680593F368C7
:10060000039373690493337E9B462623F35C9A46D7
:1006100073689946002B00D1A0E080235B059945C3
:1006200000D184E0737E002B02D0B37E42469373E8
:100630002A68029FD369002BFCD10E3306AA944688
:1006400063441B8842469381059B039A1343049A93
:1006500013434A4613431F435B461B021F43534643
:100660005B071F432723F35C002B01D104331F4397
:10067000737E9B02327F52021343727F1202134336
:100680002422B25C520413432522B25C12041343A9
:10069000B17AF27A114319433389FF2B00D181E0FB
:1006A00080225204174319432C23F35C002B03D1FF
:1006B000624B9B789B0701D580231F432A68D3692F
:1006C000002BFCD1434659602A68D369002BFCD12A
:1006D00043461F600EAB80221A7000225A70DA70F7
:1006E0009A70336B0A93736B0B93B36B0C93F36B2E
:1006F00002930D9300270AAE63E008230693073B9D
:1007000007937AE733680593F36803937369049357
:10071000337E9B462623F35C9A4673689946002BEA
:1007200018D080235B05994501D0002025E02723C0
:10073000F35C002B00D075E7336A1F00C0B2404B5A
:10074000984701000E2206AB9C46624438003D4BA0
:10075000984712E008230693002307932723F35CAE
:10076000002B0ED0069B0093079B0E2206A98C46F9
:100770006244B16A306A344FB847002800D0E0E6DE
:1007800050E7336A1F00C0B22D4B98470100069B0B
:100790000093079B0E2206A88446624438002A4F25
:1007A000B847EAE7F37E002B00D17DE78023DB0426
:1007B0001F4379E72000254B984707E00137042FB6
:1007C0000DD0F9B2BB0098590028F3D0431CF5D0E6
:1007D0000EA90870000CC0B21D4B9847EEE700232D
:1007E000EB602B616B61AB61EB612B62AB626B62A7
:1007F0000022EB85AB853033EA540133EA540133F0
:10080000EA540133EA542868074B98470400114919
:10081000114B9847A400114BE550002091E610239E
:10082000069300230793E8E651040000000400400B
:10083000E5120000591200008D0200000020004166
:1008400001130000CF010000F9010000D9020000EF
:10085000DD13000071090000090B000044020020B4
:10086000C2791C23002A01D118007047C28D92B2B0
:10087000173B002AF8D10368DA69002AFCD11985F0
:1008800002211A7E0A42FCD00023EDE782791C2364
:10089000002A01D118007047828D92B2173B002ABE
:1008A000F8D10268107E4007F4D5D369002BFCD143
:1008B000538BDBB298061DD0980703D502235383D0
:1008C0001833E7E7580703D5042353831A33E1E7C6
:1008D000D80703D5012353831233DBE7D80603D5AA
:1008E000102353833233D5E79B0603D5202353834C
:1008F0002133CFE7138D0B800023CBE7F8B506003B
:100900000C00150007680A4B9847F38D9BB2002B2B
:1009100003D0084B98470520F8BDF585054B98474F
:10092000B46205223323F254323BBB750020F3E757
:10093000D50B0000150C0000931C9B00C3185960D8
:100940003021012393401A00435C13434354704702
:1009500010B51723002A01D1180010BDC479053342
:10096000002CF9D0014B98470300F5E7FD08000083
:10097000F8B58000624BC5582C68E369002BFCD1A8
:10098000237EA67D1E403023EB5C3122AF5C1F40EE
:10099000F30722D5EB8D9BB2002B1CD0AA6A1378EB
:1009A000DBB2511CA962697901290ED09BB2DB052B
:1009B000DB0D2385EB8D013B9BB2EB85002B0CD12E
:1009C000013323750133A37507E0517809020B4306
:1009D0000232AA62EBE701232375B30706D502238F
:1009E000237500223133EA54FB071AD4730765D507
:1009F000AB8D9BB2002B5FD0638BDBB21A0714D494
:100A00003F221340002B34D09A0711D51A223223EB
:100A1000EA54303B63837B0750D528006B699847C5
:100A20004CE02800EB689847E0E737221340E9E7FD
:100A30005A0705D51E223223EA542E3B6383EAE788
:100A4000DA0705D513223223EA54313B6383E2E708
:100A5000DA0605D542223223EA54223B6383DAE7E1
:100A600020221A42D7D021323223EA54123B638328
:100A7000D1E7238DDB05DB0DDAB2696A0A706A6A99
:100A8000511C69626979012910D0AB8D013B9BB281
:100A9000AB85002B12D10433237500222E33EA5488
:100AA000BB070BD528002B69984707E01B0A53703A
:100AB0006B6A01336B62E8E704232375F30604D500
:100AC000102323752376FB060ED4B30604D520230A
:100AD000237523763B070BD4330704D508232375EE
:100AE0002376BB0608D4F8BD2800EB699847ECE7ED
:100AF0002800AB699847EFE72B6A28009847F2E790
:100B00004402002070470000F0B50A4B1B78002B10
:100B10000CD1094F094E0A4D0024DE515A191460B8
:100B20000433182BF9D10122024B1A708000024BBA
:100B3000C150F0BDF2010020F4010020050B0000BF
:100B40004402002000B583B009236A4613700133C4
:100B50005370013393700133D37001331371013338
:100B60005371034B98476B46185603B000BDC046FF
:100B70005104000010B5024B1B680020984710BDBF
:100B8000F401002010B5024B5B680120984710BDAE
:100B9000F401002010B5024B9B680220984710BD5D
:100BA000F401002010B5024BDB680320984710BD0C
:100BB000F401002010B5024B1B690420984710BDBA
:100BC000F401002010B5024B5B690520984710BD69
:100BD000F40100200C4B1B68002B06D1EFF31083AF
:100BE000002B07D00022094B1A70074A1368013303
:100BF0001360704772B6BFF35F8F0022044B1A7008
:100C00000132024B1A70F0E70C02002010020020A3
:100C100000000020084B1A68013A1A601B68002B7C
:100C200009D1064B1B78002B05D00122044B1A700A
:100C3000BFF35F8F62B670470C02002010020020E5
:100C400000000020F0B583B001AC012565700027DD
:100C5000A770257021001720064EB047802212048D
:100C6000054B9A612770657021003720B04703B0AB
:100C7000F0BDC0467D0C00000044004100B583B0CB
:100C800001AB80221A700A785A704A789A708A7872
:100C9000DA701900014B984703B000BDDD13000066
:100CA00010B5082803D880001B4B1B589F46002016
:100CB00030E01A4B18692DE0194B1B6A9B059B0FFE
:100CC0001848D84026E0154B586923E0134B1B68A1
:100CD00000209B071ED512491022CB681A42FCD077
:100CE0000E4B1B685B0701D40F4813E000200F4B2D
:100CF00098470A4B9B681B041B0C58430AE050237F
:100D0000074AD35C00205B0704D5044BD86801E098
:100D10008020000210BDC0460036000014020020F2
:100D20000008004000127A00006CDC020113000091
:100D300070B50C490B6A0478857840780122104020
:100D400080014026B34303432A40D20180208343DD
:100D500013430322224012020348034013430B6251
:100D600070BDC04600080040FFFCFFFFF0B5DE4646
:100D700057464E464546E0B50100264B9B469B8AAA
:100D8000457800784242424191468878CA78944634
:100D90000A7990464E7B0F7B8C7B8A681E494A619C
:100DA00001214A4692009146042293434A46134346
:100DB00042460A40D20090460822934342461343DB
:100DC00062460A401201944610229343624613433E
:100DD000084040012022934303430F40BF014020BD
:100DE00083433B430E40F60140308343334379381D
:100DF00005402D02094803402B43214009030848C0
:100E000003400B435A4693823CBC90469946A24607
:100E1000AB46F0BD0008004014020020FFF8FFFFC1
:100E2000FFEFFFFF10B5037A9B061B0C428992056A
:100E3000920D134318494B608379C279134342885A
:100E40008488224313434278D20113430B60037812
:100E5000042B11D0202B0ED1037B9B06028A134357
:100E6000C28912040D490A4013430B4A936011686A
:100E70000B4B0B43136010BD037B9B06028A13438D
:100E8000C289120405490A401343034A9360136858
:100E900004210B431360EEE7140200200000FF035F
:100EA00024040000082803D88000254B1B589F46C7
:100EB000172044E0234A136A02210B4313620020E7
:100EC0003DE0204A936902210B439361002036E004
:100ED0001C4A138A02210B43138200202FE0194A77
:100EE000938A02210B439382002028E016490B6865
:100EF000022213430B60134B9A8419000E32CB6805
:100F00001A42FCD0104A91680E4BD96252689A621C
:100F100000229A8419001032CB681A42FCD00A4B86
:100F20001B689BB2074A9384002008E005494422CD
:100F30008B5C022003438B54002000E000207047AC
:100F4000243600000008004014020020F0B58FB0E5
:100F5000C222D200474B9A60474A53681E218B43F6
:100F60001A390B435360022201AB1A700024434D1F
:100F7000E0B201A9A8470134252CF9D10AA8002321
:100F800003708370802212028260C370012202719A
:100F900003738373023242704373394B98470520C1
:100FA000384B984733490222CB681A42FCD0314A69
:100FB000938A80210B43938205AB00210022598044
:100FC00099809A71DA713F3159813B3919705A70A1
:100FD0002D4B1B689B0E3F2B4AD005A803722B4B51
:100FE0000382072303733833C381294B984704A82E
:100FF00000254570012686700570264B984706200F
:10100000204FB847244B984701AC02966570257273
:1010100065720523237021000120204B9847012091
:101020001F4B9847267021000020144B9847002042
:101030001C4B98470720B8470E49D022CB68134075
:10104000D02BFBD1184A0023137253729372D372C0
:1010500001A901224A604B700B724B7207330B706F
:1010600000200E4B984700200D4B98470FB0F0BD65
:10107000203BB2E70008004000400041E5120000BC
:101080006D0D0000A50E000024608000B905000071
:10109000250E0000310D0000AD100000D110000041
:1010A000891100005912000000040040064A9369AB
:1010B00008210B4393610122044B1A7019000B782D
:1010C0001342FCD17047C04600040040000C0040B1
:1010D00070B5060004000D782D0205434B78002BF7
:1010E00002D08023DB021D434B7A002B02D08023E9
:1010F0001B031D434868012810D9431E184234D1F0
:10110000022830D90223002201325B009842FBD82A
:1011100012023243140080235B031D430B7A002B21
:1011200002D080239B031D43134A53785BB2002BEC
:10113000FBDB124B9847124B1E700F4A53785BB281
:10114000002BFBDB0C4B9C601A0053785BB2002B2E
:10115000FBDB094A5368802149020B401D4355605F
:10116000084B984770BD0022D2E704023443802325
:101170009B021D43D2E7C046000C0040D50B000087
:10118000080C0040150C000010B504000B4A537801
:101190005BB2002BFBDB0A4B98470A4B1C70074ADB
:1011A00053785BB2002BFBDB044A516880235B025F
:1011B0000B435360044B984710BDC046000C0040E1
:1011C000D50B0000040C0040150C000070B50400A5
:1011D0001A4A53785BB2002BFBDB194B9847194B2B
:1011E0001C70164A53785BB2002BFBDB134E706801
:1011F000C004C00E144B98470500124B1C70766853
:10120000F602F60F114B1C700C4A53785BB2002BA0
:10121000FBDB0A4B9C682402240C0D4B9847002EE4
:1012200007D1012C07D9210028000A4B9847050057
:1012300001E00134E540280070BDC046000C0040CC
:10124000D50B0000040C0040A10C0000080C00406D
:10125000150C00006517000010B50400064B9847F8
:10126000064B1C70064A53888021C9010B435380EA
:10127000044B984710BDC046D50B0000020C00403F
:10128000000C0040150C000010B504000F4B9847EF
:101290000F4B1C700F4A53881B05180F53880E49BB
:1012A0000B40538053880D490B405380110080221E
:1012B000D2014B881342FCD106494A8803020648F2
:1012C000024013434B80064B984710BDD50B0000DE
:1012D000020C0040000C0040FFF0FFFFFFBFFFFFCB
:1012E000150C000010B50C7824020443024B9847FB
:1012F000A4B2024B5C8010BD89120000000C0040BB
:1013000010B50400064B9847064B1C70064B5C88D2
:101310002405240F054B98472000054B984710BD26
:10132000D50B0000020C0040000C0040150C000022
:10133000CD11000030B5D378002B35D11378802B38
:1013400029D01B0680246402234354780225AC4331
:1013500006D19478002C20D18024A402234341603C
:101360005478013C012C1CD90D042D0CA024E4055B
:101370002C431C4384620D0CD02424062C431C43B4
:101380008462D478002C22D15B031CD59378012B86
:101390001ED0416117E00023D7E7C024E4022343B5
:1013A000DDE70D4C2340DFE741600C04240CA02353
:1013B000DB05234383620C0CD0231B06234383628B
:1013C000D378002B03D15378013B012B02D930BDD8
:1013D0008161F8E78160FAE7FFFFFBFF10B50A00C3
:1013E000C1090023002904D14309DB0105498C46CA
:1013F00063441F242040012181401800024B98477C
:1014000010BDC04600440041351300007047000085
:1014100010B5054B9847054B9847054B9847054B2A
:101420009847054B984710BD4D0F0000450C000034
:101430000D1400000D1400000D140000FEE7000064
:10144000F8B52A4A2A4B9A4211D01A00294B9A42DF
:101450000DD2294A03339B1A9B0801339B000022BB
:10146000234822498C58845004329A42FAD1234AA4
:10147000234B9A420AD2D34321495B1803218B4361
:1014800004339B18002102C29342FCD11D4AFF2164
:101490001D4B8B439360FD3990235B001B4AD15059
:1014A0001B4AD3780325AB4302242343D370D3785C
:1014B0000C27BB4308263343D370164B987B30224E
:1014C0009043202210439873997BB9433143997319
:1014D0009A7BAA4322439A730F4A536880210B4395
:1014E00053600E4B98470E4B9847FEE7603800005C
:1014F00000000020D401002004000020D4010020BE
:101500009C02002000ED00E000000000007000419F
:10151000005000410048004100400041D118000047
:10152000F91600000300064A1268002A04D0044A93
:101530001068C318136070470249014A1160F6E74A
:101540002C020020A022002001204042704780236E
:101550009B014B60002070470120704700207047BE
:1015600080221204014BDA617047C04600440041FA
:1015700070B582B005000E0000226B46DA80064C82
:101580006B46991D2800A0470028F9D16B46063309
:101590001B88337002B070BD8D08000070B5050067
:1015A0008CB2034E21002800B0470028FAD170BD4C
:1015B0006108000010B5052202490348034B984713
:1015C00010BDC046900200205C02002051090000BE
:1015D000F0B591B08023DB05009300230193FF2237
:1015E00069460A8100228B72CB720124242168464D
:1015F00044540131445401314354013143540A935A
:10160000053143540131435405930382C376027676
:1016100002774276132383764277E1235B020893B5
:10162000C4239B03039301235B420C930D93174B3D
:101630000E93174B0F93174D174B1D60174A184BFE
:101640001A60184A184B1A606A4618492800184B45
:101650009847184F3B6898680021174EB0473B6881
:1016600058680021B0472E683000144B98471F235C
:1016700018408440124B1C602A68D369002BFCD1AF
:10168000336802221343336011B0F0BD030014002D
:10169000030015005C020020400200209D150000A0
:1016A0003C020020711500003802002000140042A6
:1016B0001D0500000400002091190000450B0000EA
:1016C00000E100E070B5084C002208492000084DF8
:1016D000A847012207492000A8473122A35C032123
:1016E0000B43A35470BDC0465C020020611500008E
:1016F00039090000B515000070B592B0104B98473D
:101700000122104B1A70BFF35F8F62B60E4B9847E1
:101710000E4B98470EA80E4B020032CB32C21988EE
:1017200011809B7893700B4B98470B4E0B4D0C4CD4
:1017300001A93000A84701A92000064B9847F7E708
:101740001114000000000020D1150000C516000093
:101750006436000029190000483600005D190000B9
:101760004C360000002243088B4274D303098B429D
:101770005FD3030A8B4244D3030B8B4228D3030C61
:101780008B420DD3FF22090212BA030C8B4202D303
:101790001212090265D0030B8B4219D300E0090A2B
:1017A000C30B8B4201D3CB03C01A5241830B8B4234
:1017B00001D38B03C01A5241430B8B4201D34B031D
:1017C000C01A5241030B8B4201D30B03C01A524182
:1017D000C30A8B4201D3CB02C01A5241830A8B4207
:1017E00001D38B02C01A5241430A8B4201D34B02F0
:1017F000C01A5241030A8B4201D30B02C01A524154
:10180000CDD2C3098B4201D3CB01C01A5241830907
:101810008B4201D38B01C01A524143098B4201D341
:101820004B01C01A524103098B4201D30B01C01A6C
:101830005241C3088B4201D3CB00C01A52418308E6
:101840008B4201D38B00C01A524143088B4201D313
:101850004B00C01A5241411A00D201465241104673
:101860007047FFE701B5002000F006F802BDC04652
:101870000029F7D076E770477047C046F0B5CE46EE
:10188000474615042D0C2E0080B50704140C3F0CA0
:101890009946030C7E435D43674363437F19340CD1
:1018A000E4199C46A54203D980235B029846C444B0
:1018B0004B46514343433604360C250C24046544FF
:1018C000A4195918491920000CBC90469946F0BD3E
:1018D00070B500260C4D0D4C641BA410A64209D116
:1018E000002601F0ADFF0A4D0A4C641BA410A6426D
:1018F00005D170BDB300EB5898470136EEE7B30051
:10190000EB5898470136F2E74C3800004C3800009D
:101910004C3800005038000003008218934200D178
:10192000704719700133F9E70FB40B4B13B51C68FE
:10193000002C05D0A369002B02D1200000F0EAF9A9
:1019400005AB049AA1682000019300F0DBFB16BCF4
:1019500008BC04B01847C046040000200FB40B4B6D
:1019600013B51C68002C05D0A369002B02D1200000
:1019700000F0D0F905AB049A61682000019300F0F3
:10198000EBFF16BC08BC04B01847C046040000209A
:101990004A424A41802310B55200DB0000F002F8B1
:1019A00010BD0000F0B51D004F4B85B01E6804004F
:1019B0000F000092002E05D0B369002B02D1300039
:1019C00000F0A8F9494B9C4250D17468009B022B4F
:1019D00005D0012B00D984E0002D00DA81E0210040
:1019E000300000F015F9616B002908D02300443362
:1019F000994202D0300000F0B5FA0023636300235F
:101A0000A3616360A3891B0603D52169300000F040
:101A1000A9FAA389364A1340A381009B022B5AD00E
:101A200003AB02AA2100300000F026FAA389184374
:101A3000A081002D24D1029D280000F089FA019593
:101A4000071E42D1029B0193AB4239D10120404293
:101A50000223A2891343A3810023A36023004733F9
:101A6000236023610123636105B0F0BD214B9C42DB
:101A700001D1B468AAE7204B9C42A7D1F468A5E73E
:101A8000002FD9D0B369002B02D1300000F042F909
:101A9000009B012B03D1A389009A1A43A28108203D
:101AA000A389276027616561184018D0012018407C
:101AB0000023984211D06D42A360A5611800D3E7BE
:101AC000019800F045FA071EC0D08023A289019D2D
:101AD0001343A381D6E70020BAE7A560C4E7A0605E
:101AE000C2E701204042BFE7040000209836000012
:101AF0005CF3FFFFB836000078360000F7B58A893E
:101B000005000C00130760D44B68002B04DC0B6C41
:101B1000002B01DC0020FEBDE76A002FFAD0002375
:101B20002E682B6080235B011A4034D0606DA3893E
:101B30005B0706D56368C01A636B002B01D0236C6A
:101B4000C01A0200216A00232800E76AB847A18969
:101B5000431C06D12B681D2B31D82C4ADA40D30701
:101B60002DD50023636023692360CB0405D5431C76
:101B700002D12B68002B00D16065616B2E600029BB
:101B8000C8D023004433994202D0280000F0EAF97B
:101B900000206063BFE70123216A2800B847431C87
:101BA000C5D12B68002BC2D01D2B01D0162B01D123
:101BB0002E60AFE74023A2891343A381ABE7402304
:101BC0000B430120A3814042A5E70F69002FA1D05C
:101BD0000B680F60DB1B01930023920700D14B6958
:101BE000A360019B002B00DC94E7019B3A00216A73
:101BF0002800A66AB047002803DC4023A2891343CB
:101C0000DFE7019B3F181B1A0193EAE70100402020
:101C10000B6970B505000C00002B01D1002070BDD0
:101C2000002804D08369002B01D100F073F80B4B1E
:101C30009C4209D16C680C22A35E002BEED02100DF
:101C40002800FFF75BFFEAE7054B9C4201D1AC6837
:101C5000F1E7044B9C42EED1EC68ECE798360000CB
:101C6000B83600007836000010B5011E05D1054BCE
:101C70000549186800F0DEF810BD044B1868FFF73E
:101C8000C7FFF9E774360000111C000004000020B3
:101C900010B5024900F0CEF810BDC046111C00007E
:101CA000002310B5040003604360836081814366B4
:101CB000C281036143618361190008225C30FFF730
:101CC0002BFE054B24626362044BA362044BE36268
:101CD000044B236310BDC046312E0000592E000076
:101CE000912E0000BD2E000070B568254A1E554398
:101CF0000E002900743100F07FF9041E08D0002185
:101D00002A00016046600C30A0606832FFF704FED4
:101D1000200070BD836913B50400002B28D18364B3
:101D2000C3640365134B144A1B6882620193984293
:101D300001D101238361200000F020F860602000C1
:101D400000F01CF8A060200000F018F80022E0600D
:101D500004216068FFF7A4FF01220921A068FFF7B2
:101D60009FFF02221221E068FFF79AFF0123A3617F
:101D700013BDC04674360000911C0000F8B51E4B20
:101D800007001E68B369002B02D13000FFF7C2FFC5
:101D90004836B4687368013B04D53368002B07D01C
:101DA0003668F6E70C22A55E002D0DD06834F2E708
:101DB00004213800FFF798FF30600028F0D10C2391
:101DC00004003B602000F8BD012320005B42E3815A
:101DD0000233A38165662560A56065602561656144
:101DE000A561082229005C30FFF796FD6563A563B5
:101DF000A564E564E6E7C04674360000F7B54830F0
:101E0000040000260191002C01D13000FEBDA56820
:101E10006768013F01D52468F5E7AB89012B07D935
:101E20000E22AB5E013303D02800019B9847064386
:101E30006835EEE7F7B50400070000260191483445
:101E4000002C01D13000FEBD6368A5680093009BA3
:101E5000013B009301D52468F2E7AB89012B08D937
:101E60000E22AB5E013304D029003800019B984755
:101E700006436835EBE7000070B50E001D000E2329
:101E8000C95E90B01400002907DA00232B60B389E3
:101E90001B0611D48023DB000FE001AA01F0E4FA55
:101EA0000028F2DBF022029B12021340054A9B1825
:101EB0005A4253412B60EDE740230020236010B0CD
:101EC00070BDC04600E0FFFFF7B502268B89050014
:101ED0000C00334206D023004733236023610123E3
:101EE0006361F7BD01AB6A46FFF7C6FF00990700C3
:101EF000280000F081F8002808D10C22A35E9A0582
:101F0000EFD4032293431E43A681E4E70F4BAB6259
:101F10008023A28920601343A381009B2061636119
:101F2000019B002B0DD00E23E15E280001F0AEFADC
:101F3000002806D00322A38993431A0001231343E8
:101F4000A381A0893843A081CBE7C046911C000043
:101F500010B5034B0100186800F04EF810BDC046E4
:101F60000400002070B50500002910D00C1F236864
:101F7000002B00DAE418280001F0E6FA1D4A136885
:101F8000002B05D163601460280001F0DEFA70BDFB
:101F9000A34209D9216860188342F3D118685B68AD
:101FA00041182160EEE713005A68002A01D0A242CE
:101FB000F9D919685818A0420BD120680918581887
:101FC00019608242E0D110685268411819605A6065
:101FD000DAE7A04202D90C232B60D5E7216860180C
:101FE000824203D1106852684118216062605C60CF
:101FF000CAE7C04630020020032370B5CD1C9D43C4
:10200000083506000C2D1ED20C25A9421DD8300023
:1020100001F09AFA254A14682100002919D1244CAC
:102020002368002B03D1300000F0BEFE20602900A1
:10203000300000F0B9FE431C2CD10C23300033607B
:1020400001F083FA03E0002DDFDA0C233360002077
:1020500070BD0B685B1B1AD40B2B03D90B60CC181B
:10206000256003E08C420ED163681360300001F0FC
:102070006CFA200007220B30231D9043C31AE7D0CF
:102080005A42E250E4E74B6863600C00EEE70C0054
:102090004968C2E70323C41C9C43A042E0D0211A34
:1020A000300000F081FE431CDAD1C6E73002002088
:1020B00034020020936810B5013B9360002B05DAD1
:1020C0009469A34208DBCBB20A2B05D01368581CD5
:1020D00010601970C8B210BD01F0D4F8FBE7F8B574
:1020E00006000F001400D518AC4201D1002007E013
:1020F00021783A003000FFF7DDFF0134431CF3D1B3
:10210000F8BD0000F0B59FB006000F001400059365
:10211000002804D08369002B01D1FFF7FBFD7F4B22
:102120009F425CD17768BB891B0762D53B69002B56
:102130005FD0002306AD6B6120336B761033AB7636
:102140000294029C2378002B5DD1029BE31A049336
:102150000DD0049B029A39003000FFF7C0FF431CEA
:1021600000D1CCE06A69049B944663446B61237898
:10217000002B00D1C3E00122002352426A6002A971
:102180005432521801342B60EB60AB601370AB65B6
:1021900021780522624801F0C3F9631C9C4600289F
:1021A00035D12968CB0604D5532302AA20309B18C9
:1021B00018700B0704D553232B2002AA9B18187004
:1021C00023782A2B2CD000200A21099B2278303A30
:1021D000092A00D86BE000282AD0099328E0514B47
:1021E0009F4201D1B7689EE74F4B9F429BD1F76852
:1021F00099E73900300001F0AFF8002899D00120AC
:1022000040421FB0F0BD252B9FD001349AE7444BCC
:102210002968C01A012383400B432B606446B7E74B
:10222000059B181D1B680590002B3ADB099364463B
:1022300023782E2B0BD16378621C2A2B3FD1059B70
:1022400002341A1D1B680592002B35DB0793217899
:102250000322364801F064F9002807D0334B2A687E
:10226000C01A4023834013432B6001342178631C40
:1022700006222F480293297601F052F9002844D013
:102280002C4B002B2FD12968059B0722C90528D587
:102290009B189343083305936B69039A9B186B61F2
:1022A0004FE75B42EB6002230B432B60BFE74B43DE
:1022B00001349B18012089E701235B42C6E7002314
:1022C00014000A201A006B6021783039092903D9DB
:1022D000002BBCD00792BAE74243013452180123C5
:1022E000F2E70733D5E705AB00933A00124B29001C
:1022F000300000E000BF0390039B0133CCD1BB89C9
:102300005B0600D57BE70B987BE705AB00933A00B3
:10231000094B2900300000F07FF8ECE79836000008
:10232000D8360000B836000078360000DE360000EF
:10233000E236000000000000DF200000F7B51500C5
:1023400001938A680B6900900C00934200DA130035
:1023500022002B6043321278002A01D001332B6017
:1023600023689B0602D52B6802332B60062723685F
:102370001F4027D0230043331B785A1E9341226805
:10238000920630D42200019943320098089EB0474B
:10239000431C25D0062320682A68E16803400025F5
:1023A000042B03D18D1AEB43DB171D40A368226970
:1023B000934201DD9B1AED180027BD4220D1002079
:1023C00010E00137E3682A689B1A9F42D2DA2200A4
:1023D0000123193201990098089EB047431CF0D19F
:1023E00001204042FEBD3020E11843310870210039
:1023F0005A1C45310978A218433202331170C1E7E3
:10240000220001231A3201990098089EB047431C0C
:10241000E6D00137D1E70000F0B58BB006920A0094
:1024200043320793059004920A7E0C00109B6E2A9B
:1024300000D18FE017D8632A2CD008D8002A00D109
:1024400099E0582A54D026004236327029E0642A96
:1024500001D0692AF7D121681A68080623D5111D11
:102460001960156825E0732A00D188E008D86F2A22
:1024700029D0702AE7D1202209680A43226003E0AC
:10248000752A20D0782ADED12200782145321170B9
:102490006C4A30E00E001A684236111D196013684C
:1024A0003370012379E04906D9D5111D1960002345
:1024B000D55E002D03DA2D23049A6D421370624B12
:1024C0000A2703932FE020681968050603D5081D25
:1024D00018600D6805E04006F9D50D68081D186004
:1024E000ADB2594B082703936F2A18D00A2716E07C
:1024F00045310A70544A03921A682168101D186009
:102500001568080622D5CB0702D520231943216080
:102510001027002D03D1202322689A432260230034
:10252000002243331A706368A360002B5CDB042233
:10253000216891432160002D58D1049E002B64D066
:102540002600039B42361B7833705EE04806DAD5DE
:10255000ADB2D8E709681A68080605D5111D1960DB
:10256000136862691A6006E04906F7D5111D196003
:102570001368A28A1A800023049E236154E01A681B
:10258000111D1960166800216268300000F0C8FF54
:10259000002801D0801B6060636823610023049AD7
:1025A000137041E02369320006990598079DA847FA
:1025B000431C43D0236800259B070FD4099BE06888
:1025C00098423DDA18003BE02200012319320699B7
:1025D0000598079EB047431C30D00135E368099A3F
:1025E0009B1A9D42F0DBE9E7002DA9D0049E28004C
:1025F0003900FFF73DF9039B013E5B5C2800337017
:102600003900FFF7AFF8051EF1D1082F09D1236873
:10261000DB0706D563682269934202DC3023013E62
:102620003370049B9B1B2361079B09AA0093210025
:10263000069B0598FFF782FE431CB3D10120404260
:102640000BB0F0BDFA360000E9360000F0B5BD4C25
:102650008625A544039300234893499305AB4A93E9
:10266000BE236D0000900C0002A8B7495B00401922
:10267000C027C15002AB5B191500B4497F00D95186
:102680002B78002B00D15BE100F016FF08222B789D
:10269000C01801934378134041D1019A6E1C252A3A
:1026A00000D0A8E0479345936B782A2B02D11A3BC0
:1026B0004593AE1C35000A2229780B00303B092BCC
:1026C00048D9A34E0322300000F02AFF002807D08B
:1026D0000123801B8340459A0135134302924593A1
:1026E0002B786E1C672B58D8652B00D3DDE0472B69
:1026F00038D8452B00D3D8E0002B00D11DE1252B85
:1027000079D003234B930733469353E0499A01331F
:1027100001920132499262682360013A6260636803
:10272000002B0BDD00F0C8FE082123681A78801802
:1027300042780A42EAD16E1C3500A1E7862202AB3C
:1027400052009B18DB5921000098019398470028FC
:10275000E8D0F0E7479B013502935343303B5918CB
:102760004791A9E75B2B00D177E00FD8582BC8D150
:10277000459A01928022019992000A4345921022C3
:10278000469203226E2B14DD013212E0632B00D13E
:1027900071E0642BB5D10A22F2E7702B52D022D817
:1027A0006E2B00D16FE054D8692BAAD100230322ED
:1027B00046934B926368002B00DC78E0459B0193C5
:1027C0005B0600D48BE04B9B022B00DD9DE003AB4E
:1027D000220045A9009800F0E7F8012800D1AFE0F9
:1027E0000228A9D125E0752BD5D0782BC0D0732B2A
:1027F00087D102233DE06368002B0FDD2368019938
:102800001A78914200D09BE0013362682360499BB3
:10281000013A01930133626049938DE7862202AB4E
:1028200052009B18DB59210000980293984700281A
:10283000E4D04898002800D07BE00138A7239B0013
:102840009D44F0BD459A0192202201990A43459288
:102850008EE7082304224693ABE7310005A800F079
:10286000B5FA459B060001934023019A1343459313
:1028700001234B939EE7459B01934023019A134309
:1028800045930023F5E74599CB0600D554E7039B14
:10289000499AC80704D5191D03911B681A804BE794
:1028A000191D03911B681A6046E70523E1E786229C
:1028B00002AB52009B18DB59210000980193984706
:1028C000002800D17AE7B4E7499A0192013249928F
:1028D0006268013A6260002A0BDD0133236000F078
:1028E000EBFD082123681A78801842780A42EBD160
:1028F00069E7862202AB52009B18DB592100009841
:10290000019398470028EAD093E7042B06DC03AB39
:10291000220045A9009800F0ABF85EE70D4B002BB4
:1029200000D109E703AB220045A9009800E000BFF1
:1029300053E7A3895B0600D480E7012040427DE78E
:1029400048987BE764FDFFFFA1310000892C00005F
:10295000DE36000000000000F8B504000D0016008F
:102960001F00002804D08369002B01D1FFF7D2F9A2
:102970000A4B9D4207D165683B00320029002000C8
:10298000FFF764FEF8BD064B9D4201D1A568F3E751
:10299000044B9D42F0D1E568EEE7C0469836000052
:1029A000B836000078360000F7B515008A68019047
:1029B0000C00002A06D18A69511E8A410121524227
:1029C0000A43A2602268D20603D41A68111D196056
:1029D00017680026A369002B1CD0012B08D12B6897
:1029E00062691B78D35C002B14D1002E30D106E035
:1029F000022B06D0002E2BD1A369012B28D1012058
:102A0000FEBD00F059FD08222B681B78C0184378E2
:102A10001342EFD1102223680136134203D12B68F1
:102A20001B783B7001372A686B6801322A60A26804
:102A3000013B013A6B60A260002A09D0002BC9DC7F
:102A4000C0235B00E3582900019898470028C1D0B3
:102A500010232268134006D1E2680132E260A269C5
:102A6000002A00D03B70236900209E192661C7E729
:102A7000F0B50C008DB00293774B0590160009AAB3
:102A800023CB23C2754B0693A369032B01D0744B50
:102A90000693AE220020A3685200591E0490914272
:102AA00005D95E3BFF3B04935E23FF33A360230005
:102AB0001C330193D023002722681B01134323609A
:102AC000019B0393336809A81978BB0002221858A8
:102AD00000F026FD00282BD0012F5FD16368002B6A
:102AE00006D1083322686360F933FF331343236050
:102AF0005C4B226813402360A3685A1EA260002B1F
:102B000016D0039B5D1C33685A1C32601B78039AF5
:102B1000039513707368013B7360002B08DCC023BE
:102B20005B00E358310005980793984700287DD152
:102B30000137032FC6D16368002B01D10A336360CC
:102B40001021002763686069C91A474BC91800F053
:102B50003DF9039DA368002B41D03268606911786C
:102B6000405C00283BD0302928D18020216800011A
:102B7000014223D0049A0137002A03D0013A0133DD
:102B80000492A3607368013B7360002B1EDD336801
:102B900001333360A368013BA360DBE7022FABD1B5
:102BA000C02180232268C90011409B009942C2D1F4
:102BB000F13BFF3B6360F03313439CE721682B4BF1
:102BC0000B40236013782B700135DBE7C0235B00DB
:102BD000E35831000598039398470028DAD023681A
:102BE000DB050ED5019B9D4207D9BE23013D5B004D
:102BF0002978E358320005989847019B01209D42AF
:102C000027D0102223681A401CD12A7063680199CA
:102C10000598069EB047029B22681B68910607D55F
:102C200002991A1D0A601B68186008E00027D6E7A1
:102C3000D107F5D502991A1D0A601B681880E36850
:102C40000133E3600020019BED1A2369EF19DF19BE
:102C500027610DB0F0BDC0460C370000D52F000035
:102C600005310000FFFAFFFF18370000FFF6FFFFF5
:102C7000092210B5838913400022092B02D1FEF7E7
:102C8000F3FF0200100010BDF8B505000C0000288D
:102C900004D08369002B01D1FFF73CF83D4B9C42E7
:102CA0000AD16C68002363600C23E25E93B299063C
:102CB0000CD50120404268E0374B9C4201D1AC6802
:102CC000F0E7364B9C42EDD1EC68EBE759074AD46C
:102CD000D90605D409232B6037331343A381E8E7D2
:102CE000082633420AD021002800FEF791FF002871
:102CF000DFD1A389A060B343A381A0610423A2898B
:102D00001343A3812369002B03D121002800FFF77F
:102D1000DBF80C23E75EBEB2B3070FD00123A3811B
:102D20001F4B20491868FFF769F80923A7811E4047
:102D30009E4203D121002800FEF7E0FE23692269AC
:102D4000236028006369216A656AA8470200606001
:102D50000020824219DCA189824217D120230B4333
:102D6000A381013811E0616B0029CBD023004433EB
:102D7000994202D02800FFF7F5F80020236C606329
:102D800063608342BED0E36B2360F8BD4023606084
:102D90000B43A3E798360000B836000078360000F1
:102DA00074360000712C0000002370B5064C05003D
:102DB00008002360FEF7B6FB431C03D12368002BF9
:102DC00000D02B6070BDC0469802002070B50B7813
:102DD0005E2B0DD04A1C00210400451CFF352170DC
:102DE0000134A542FBD1002B06D1013A100070BD81
:102DF0008A1C4B780121EFE701244C401100C45498
:102E00000D784A1C2D2D07D05D2DEFD0002D01D15E
:102E10000A00EBE72B00F1E74E785D2EFAD0B342C3
:102E2000F8DC02310133C4549E42FBDCE8E70000C9
:102E300070B50C000E25495F00F0AEFB002803DBE7
:102E4000636D1B18636570BDA389024A1340A3819B
:102E5000F9E7C046FFEFFFFFF8B51F008B890500BB
:102E60000C001600DB0505D50E23C95E00220223E7
:102E700000F030FBA389054A28001340A3813200EB
:102E80000E23E15E3B0000F053FAF8BDFFEFFFFFB9
:102E900070B50C000E25495F00F01CFBA389421C95
:102EA00003D1054A1340A38170BD80225201134310
:102EB000A3816065F8E7C046FFEFFFFF10B50E2362
:102EC000C95E00F0BFFA10BDF0B51F000E0087B05C
:102ED0000590039102920C98347800F0E9FA0822E8
:102EE00000194378751C13400CD12D2C0CD10133E3
:102EF0002C780193B51C002F0CD0102F14D1302C3E
:102F00000AD011E02E00E6E701932B2CF3D12C78A8
:102F1000B51CF0E7302C2FD120222B789343582B6F
:102F200051D110276C780235019B294A39009E182F
:102F30003000FEF79DFC300004913900FEF712FCD2
:102F400001210023494202008C461800210030393B
:102F5000092913D80C00A7421CDD591C09D063466F
:102F6000824206D302D10499A14202DB01237843B5
:102F700020182C780135E9E70A27D5E721004139E7
:102F8000192901D8373CE6E721006139192901D810
:102F9000573CE0E75A1C08D1059A23331360029B83
:102FA0003000002B0BD107B0F0BD019A002A00D0F1
:102FB0004042029A002AF6D0039A002B00D06A1EE3
:102FC000029B1A60EFE73024002FADD10837ABE742
:102FD000FFFFFF7F13B5054C2468246A002C00D145
:102FE000034C0094FFF770FF16BDC046040000209C
:102FF00068000020F0B51F000E0087B00590039117
:1030000001920C98347800F053FA082200194378A2
:10301000751C13400CD12D2C0CD101332C7802934C
:10302000B51C002F0CD0102F14D1302C0AD011E079
:103030002E00E6E702932B2CF3D12C78B51CF0E799
:10304000302C2FD120222B789343582B54D110278A
:103050006C780235012039004042FEF783FB060000
:10306000012039004042FEF703FC002304910121B6
:10307000012218008C46524221003039092913D808
:103080000C00A7421EDD002B1ADB1300864206D37C
:1030900002D10499A14202DB6346784320182C78C0
:1030A0000135E9E70A27D5E721004139192901D877
:1030B000373CE6E721006139192903D8573CE0E79E
:1030C0001300ECE7002B09DA22230120059A404285
:1030D0001360019B002B0BD107B0F0BD029A002AB0
:1030E00000D04042019A002AF6D0039A002B00D06B
:1030F0006A1E019B1A60EFE73024002FAAD108371F
:10310000A8E7000013B5054C2468246A002C00D100
:10311000034C0094FFF76EFF16BDC046040000206C
:10312000680000200B00F7B54D6B44330C009D4246
:103130001CD18026F6003100FEF75EFF002802D188
:1031400001204042FEBD23006063A66346331A7827
:10315000104BC254230045331A780F4BC2542A78BF
:103160000E4BC254C01820600020EBE78E6B290084
:1031700073001A00019300F0E9F9051EE0D08719E9
:1031800001003200380000F0D6F9019B276065632A
:10319000A363E9E7FF030000FE030000FD03000056
:1031A000F8B505000E0014004B1C03D10126764231
:1031B0003000F8BD002804D08369002B01D1FEF750
:1031C000A9FD2D4B9C422DD16C682022A3899343ED
:1031D0001BB2A3819BB25A0713D4DA06E6D508279F
:1031E0003B420AD021002800FEF712FD0028DDD165
:1031F000A389A060BB43A381A0610423A2891343D8
:10320000A381626BF7B26368F6B2002A1BD0A26B8F
:10321000934211DA2368013B23601F706368013316
:103220006360C5E7154B9C4201D1AC68CDE7144BF8
:103230009C42CAD1EC68C8E721002800FFF772FF62
:103240000028E7D0B2E721692268002907D091421F
:1032500005D2511E0878864201D12160DFE7236440
:103260002300443363630323A36323004633E263F1
:103270001F7023600123D3E798360000B8360000A2
:1032800078360000F8B505000E001400002804D0C0
:103290008369002B01D1FEF73DFD224B9C422DD1CD
:1032A0006C68A369A360A3891B0731D52369002B30
:1032B0002ED023682269F7B2981A6369F6B2984251
:1032C00005DB21002800FEF7A3FC002826D1A36817
:1032D0000130013BA36023685A1C22601F706369A0
:1032E000984204D0A389DB071AD50A2E18D12100F1
:1032F0002800FEF78DFC002812D00FE00A4B9C42FC
:1033000001D1AC68CDE7094B9C42CAD1EC68C8E753
:103310002100280000F020F80028CAD001267642BB
:103320003000F8BD98360000B8360000783600004E
:1033300070B50500080011000022064C22601A003A
:10334000FDF7C4F8431C03D12368002B00D02B6089
:1033500070BDC04698020020364B70B51D6806004F
:103360000C00002D05D0AB69002B02D12800FEF720
:10337000D1FC314B9C420FD16C680C23E25E93B2BE
:1033800019072DD4D90611D409230120336037330E
:103390001343A381404270BD284B9C4201D1AC68CD
:1033A000EBE7274B9C42E8D1EC68E6E75B0713D5D7
:1033B000616B002908D023004433994202D03000C9
:1033C000FEF7D0FD002363632422A3899343A381E6
:1033D00000236360236923600823A2891343A38128
:1033E0002369002B0BD1A0218022A38989009200A0
:1033F0000B40934203D021003000FEF765FD01230E
:10340000A289134011D00023A36063695B42A361CA
:10341000002023698342BED10C23E25E1306BAD595
:1034200040231343A3810138B5E7920700D46369B1
:10343000A360EDE70400002098360000B8360000D5
:1034400078360000002370B5064C050008002360A4
:10345000FEF77AF8431C03D12368002B00D02B60C1
:1034600070BDC04698020020002370B5064C0500D0
:10347000080011002360FEF76AF8431C03D123689B
:10348000002B00D02B6070BD98020020002370B587
:10349000064C050008002360FEF75EF8431C03D1CC
:1034A0002368002B00D02B6070BDC046980200201E
:1034B000EC30006870470000044B1B681B6A002B4F
:1034C00000D1034BEC3318687047C046040000205D
:1034D0006800002070B50500080011000022064CAD
:1034E00022601A00FEF73AF8431C03D12368002B30
:1034F00000D02B6070BDC0469802002082B0002929
:1035000000D101A9101E06D0002B06D013780B6045
:103510001078431E984102B0704702204042FAE7FB
:10352000C9B28218904201D10020704703788B42C3
:10353000FBD00130F6E7002310B59A4200D110BD50
:10354000CC5CC4540133F8E770477047F8B5070006
:103550000D001600002905D11100FEF74DFD0400F5
:103560002000F8BD002A03D1FEF7FCFC3400F7E789
:1035700000F032F82C008642F2D931003800FEF714
:103580003BFD041EECD029003200FFF7D4FF2900D8
:103590003800FEF7E7FCE3E770B50500080011000E
:1035A0000022064C22601A00FCF76EFF431C03D178
:1035B0002368002B00D02B6070BDC046980200200D
:1035C0000B1E04D0FF2A04D98A2303608B3B18000A
:1035D00070470A700123FAE70B1F1B68181F002BA6
:1035E00001DA0B58C018704700080042000C004276
:1035F000001000420014004200180042001C00426B
:10360000B20C0000AE0C0000AE0C0000100D00006B
:10361000100D0000C60C0000B80C0000CC0C00001F
:10362000FE0C0000D00E0000B00E0000B00E000036
:103630003C0F0000C20E0000DE0E0000B40E0000C1
:10364000EC0E00002C0F000025730000676F742043
:1036500074686520666F6C6C6F77696E673A2025B9
:10366000730D0A0048656C6C6F20576F726C642193
:103670000D0A00000800002000000000000000000B
:10368000000000000000000000000000000000003A
:10369000000000000000000000000000000000002A
:1036A000000000000000000000000000000000001A
:1036B000000000000000000000000000000000000A
:1036C00000000000000000000000000000000000FA
:1036D0000000000000000000232D302B2000686C4B
:1036E0004C00656667454647003031323334353625
:1036F000373839414243444546003031323334355E
:103700003637383961626364656600002A37000025
:103710002D37000030370000412D46612D663839C5
:1037200030313233343536375D002B2D00303000E8
:103730007858004300504F534958002E0000202075
:103740002020202020202028282828282020202051
:103750002020202020202020202020202020881011
:103760001010101010101010101010101010040471
:103770000404040404040404101010101010104178
:1037800041414141410101010101010101010101E9
:10379000010101010101010101101010101010427E
:1037A00042424242420202020202020202020202B9
:1037B0000202020202020202021010101020000097
:1037C00000000000000000000000000000000000F9
:1037D00000000000000000000000000000000000E9
:1037E00000000000000000000000000000000000D9
:1037F00000000000000000000000000000000000C9
:1038000000000000000000000000000000000000B8
:1038100000000000000000000000000000000000A8
:103820000000000000000000000000000000000098
:103830000000000000000000000000000000000088
:10384000F8B5C046F8BC08BC9E467047DD000000D5
:10385000F8B5C046F8BC08BC9E467047B5000000ED
:103860000100000008000020000000009836000061
:10387000B8360000783600000000000000000000AC
:103880000000000000000000000000000000000038
:103890000000000000000000000000000000000028
:1038A0000000000000000000000000000000000018
:1038B0000000000000000000000000000000000008
:1038C00000000000000000004300000000000000B5
:1038D00000000000000000000000000000000000E8
:1038E0000000000000000000430000000000000095
:1038F00000000000000000000000000000000000C8
:103900000000000000000000430000000000000074
:1039100000000000000000000000000000000000A7
:103920000000000000000000430000000000000054
:103930000000000000000000000000000000000087
:103940000000000000000000430000000000000034
:103950000000000000000000000000000000000067
:103960000000000000000000430000000000000014
:103970000000000000000000000000000000000047
:1039800000000000000000004300000000000000F4
:103990000000000000000000000000000000000027
:1039A0000000000000000000C1350000FD340000F0
:1039B000000000003D3700003B370000DD3600000E
:1039C000DD360000DD360000DD360000DD360000AB
:1039D000DD360000DD360000DD360000DD3600009B
:1039E000FFFFFFFFFFFFFFFFFFFFFFFFFFFF0000E5
:1039F000010041534349490000000000000000005D
:103A000000000000000000000000000000000000B6
:103A1000000041534349490000000000000000003D
:103A20000000000000000000000000000000000096
:043A30000000000092
:0400000300001441A4
:00000001FF
