S0180000476363426F61726450726F6A656374312E737265630F
S1130000A02300206D4700006548000065480000FB
S113001000000000000000000000000000000000DC
S1130020000000000000000000000000654800001F
S11300300000000000000000654800006548000062
S113004065480000654800006548000065480000F8
S113005065480000654800006548000065480000E8
S113006065480000C5340000DD340000F5340000AC
S11300700D350000253500003D35000065480000C1
S113008065480000654800006548000065480000B8
S11300906548000000000000000000006548000002
S11300A06548000065480000654800006548000098
S11300B00000000010B5064C2378002B07D1054B37
S11300C0002B02D0044800E000BF0123237010BDC0
S11300D01C020020000000008C970000084B10B5A3
S11300E0002B03D00749084800E000BF0748036815
S11300F0002B00D110BD064B002BFBD09847F9E72D
S113010000000000200200208C9700008C97000063
S11301100000000080B586B000AF0200FB1D1A701D
S1130120BB1D0A1C1A70194B1B68002B29D00C2309
S1130130FB18FA1D12781A700C23FB18BA1D1278DA
S11301405A70134B39221A80114B02225A80104BD9
S11301500C22BA185A6000237B61FA239B003B618E
S113016005E07B695A1C7A613A69934208D0084ACF
S1130170084B11001800084B9847031EF1D100E00A
S1130180C046C046BD4606B080BDC0464002002001
S113019008000020C8020020A918000080B500AFA4
S11301A003218020024B9847C046BD4680BDC0460F
S11301B01501000080B500AF00218020024B984754
S11301C0C046BD4680BDC0461501000080B586B05E
S11301D000AF0200FB1D1A701A4B1B68002B2CD0B9
S11301E0194B98470C23FB18FA1D12781A70174BF9
S11301F039221A80154B02225A80144B0C22BA1849
S11302005A6000237B61FA239B003B6105E07B6914
S11302105A1C7A613A69934208D00C4A0C4B11007B
S113022018000C4B9847031EF1D100E0C0460A4B5E
S113023098470C23FB185B7800E000231800BD46A8
S113024006B080BD400200209D0100001400002083
S1130250C8020020F1160000B501000080B586B088
S113026000AF0200FB1D1A70284B1B68002B47D0FF
S1130270274B98470823FB18FA1D12781A70254B50
S113028039221A80234B03225A80224B0822BA189F
S11302905A6000237B61FA239B003B6105E07B6984
S11302A05A1C7A613A69934208D01A4A1A4B1100CF
S11302B018001A4B9847031EF1D100E0C0460F23E3
S11302C0FB180822BA1852781A700E23FB18082259
S11302D0BA1892781A700E23FB1800221A700E2393
S11302E0FB180E22B9180F22BA18097812780A439B
S11302F01A700B4B98470E23FB181B789BB200E037
S113030000231800BD4606B080BDC0464002002050
S11303109D01000014000020C8020020F116000016
S1130320B501000090B583B000AF0E4B1B68002BE5
S113033001D0012312E00C4B98470A4B01221A60AA
S1130340FC1D0A20094B984703002370FB1D1B78F2
S11303500122134001D0002300E001231800BD4610
S113036003B090BD400200209D5A0000CD01000062
S113037080B58CB000AF0200BB1D1A803B1D0A1C67
S11303801A80BA1D2223FB1812881B889A4206D8A9
S11303903A1D2223FB1812881B889A4202D9802313
S11303A05B027BE0BB1D1B88FA6953439B0ABB615C
S11303B03B1D1B88FA6953439B0A7B610023FB6244
S11303C0BB69002B07D07B699A02364BB9691000D0
S11303D098470300FB62FB6A01335B083B613B699E
S11303E0402B06D8F9235B00BB62DF235B007B62F2
S11303F042E03B69802B05D885239B00BB622A4BD6
S11304007B6239E03B69C02B04D8284BBB62284B84
S11304107B6231E03A6980235B009A4205D89C23D1
S11304209B00BB62234B7B6226E03A699C235B0002
S11304309A4206D87023FF33BB62FE235B007B62C3
S11304401AE03A69CD235B009A4204D8D223BB62F6
S1130450FB237B6210E03B69174A934204D81823BC
S1130460BB6212237B6207E03B69134A934203D9C0
S11304700023BB6200237B62BB69BA6A5A437B696F
S1130480796A4B43D31AFB60FB688022920194463D
S11304906344FB60FB689B0BBB60BB681800BD46F4
S11304A00CB080BD615F0000D10200003F0200007B
S11304B07B030000FE0300009A02000090B583B0A5
S11304C000AFBC1DAC200B4B9847030023803C1DA0
S11304D0AE20084B9847030023803B1D1A88BB1DA0
S11304E01B8811001800044B984703001800BD46F0
S11304F003B090BD5D0200007103000080B500AF41
S113050000200F4B984702000E4B1A600D4B1868E1
S11305100D4BFA229100984703001A00094B1A6008
S1130520084B1868084BFA229100984703001A00F8
S1130530064B1A60064B05221A60C046BD4680BDB4
S11305402143000020000020615F000024000020FF
S113055010E000E080B582B000AF78607B680022D4
S11305601A70C046BD4602B080BD000080B582B09E
S113057000AF02003960FB1D1A70FB1D1B78012BB4
S11305800AD0022B0FD0002B14D10E4B0D4A9169C7
S11305903A680A439A610FE00A4B0A4AD1693A68F9
S11305A00A43DA6108E0074B064A116A3A680A43CB
S11305B01A6201E0172300E000231800BD4602B0D0
S11305C080BDC0460004004080B582B000AF7860B2
S11305D07B6880221A707B6800225A707B68012233
S11305E09A707B680022DA70C046BD4602B080BDB6
S11305F080B582B000AF0200FB1D1A70FB1D1B7892
S1130600002B02D0012B07D00DE0084B074A126CD7
S113061002210A431A6406E0044B044A126C0421C2
S11306200A431A64C046BD4602B080BD00080040BB
S113063080B584B000AF78607B681B68FB60FB68A2
S11306405B7EDBB25BB2002B01DA012300E0002306
S11306501800BD4604B080BD80B582B000AF78609C
S11306607B6800221A707B6800225A707B68002223
S11306705A807B6800221A717B6800221A767B6894
S113068000221A627B680022DA617B6800229A6089
S11306907B6800221A737B68C0225201DA817B686E
S11306A000221A747B6800225A747B6800229A74B0
S11306B07B680022DA747B6800221A757B682A2220
S11306C0002199547B6800225A757B6800229A7530
S11306D07B682422002199547B680022DA847B6899
S11306E000221A857B680022DA757B682B220021A0
S11306F099547B682C2200219954C046BD4602B00F
S113070080BD000080B598B000AF78600C23FA1863
S1130710154B1000190050231A00144B9847144B22
S1130720FB657B68132B1AD80C23FB187A6892009C
S1130730D358FB650823FB1818000E4B9847082371
S1130740FB1800229A700823FB1801221A70FB6D13
S1130750DBB20822BA1811001800074B9847C046AC
S1130760BD4618B080BDC046AC8D0000C97A0000FB
S1130770FFFF0000C9050000E5460000F0B589B0A0
S113078000AF786039601F23FB1800221A70102311
S1130790BB611723FB1800221A707B681B683B613E
S11307A00C23FB181800CE4B98473B681A780C238F
S11307B0FB181A700C23FB1819001E20C94B98470C
S11307C01E20C94B98473B682C229B5C002B40D0D1
S11307D01623FB183A682B21525C1A703B68197B6C
S11307E01523FB181622BA1812788A181A703B6857
S11307F02C22995C0F23FB181522BA1812788A1838
S11308001A7018E01623FB181B780F2213403A685D
S1130810127B9B181800B54B98471523FB181A78C0
S11308201523FB1801321A701623FB181A781623A5
S1130830FB1801321A701523FA180F23FB181278CB
S11308401B789A42DED33B68DB891800A74B984794
S113085009E03B681B7B1800A44B98473B68DB8985
S11308601800A24B98473B685B7D9B00DAB23B695A
S11308701A703B689B7DDB015AB23B685B785BB2C4
S113088013435BB2DAB23B695A703B681B79342B71
S113089046D89A00964BD3181B689F461F23FB1813
S11308A03A68527C1A701723FB183A68127C1A7043
S11308B01023BB6136E01F23FB1801221A70172393
S11308C0FB1802221A701023BB612BE01F23FB18B4
S11308D002221A701723FB1804221A701023BB611A
S11308E020E01F23FB1801221A701723FB1806228D
S11308F01A701023BB6115E01F23FB1800221A7025
S11309001723FB1808221A701023BB610AE0302356
S1130910BB6107E02023BB6104E00023BB6101E06D
S11309201723AEE11F23FB181B781B01DBB27022D7
S11309301340DAB21723FB181B781343DAB23B696E
S11309409A703B68DB7D3F2B01D9172399E13B6803
S1130950DA7D3B69DA70C0467B681800654B9847BE
S1130960031EF9D13B685A88BB699BB213439AB200
S11309703B6824215B5C9BB2DB009BB213439AB2BD
S11309803B681B7D9BB29B009BB213439AB23B68AE
S11309909B7C9BB2DB189BB213439AB23B68DB7C13
S11309A09BB213439AB23B699A803B681B7E002B2F
S11309B000D1C4E0BB69102B00D176E002D8002B33
S11309C04DD0BCE0202B23D0302B00D0B7E03B68C7
S11309D0DB7C002B11D03B68DB697F2B0BDC3B6895
S11309E0DB69803307DB3B681B6A7F2B03DC3B68D6
S11309F01B6A803301DA172343E13B68DB69FF2B71
S1130A0004DC3B681B6AFF2B00DC91E0172338E110
S1130A103B68DB7C002B15D03B68DB69364A93428C
S1130A200EDC3B68DB69354A934209DB3B681B6A91
S1130A30314A934204DC3B681B6A304A934201DA30
S1130A4017231EE13B68DB692D4A934205DC3B68B2
S1130A501B6A2B4A934200DC6CE0172311E13B68CC
S1130A60DB7C002B15D03B68DB69264A93420EDC05
S1130A703B68DB69244A934209DB3B681B6A214AD1
S1130A80934204DC3B681B6A1F4A934201DA172332
S1130A90F7E03B68DB691D4A934204DC3B681B6A50
S1130AA01A4A934248DD1723EBE03B68DB7C002BBA
S1130AB032D03B68DB69164A93420EDC3B68DB6943
S1130AC0144A934209DB3B681B6A114A934204DCD3
S1130AD03B681B6A0F4A93421EDA1723D1E0C046D3
S1130AE055050000F94300003D44000005070000DF
S1130AF0FC8D000031060000FF01000000FEFFFF36
S1130B00FF030000FF07000000F8FFFFFF0F0000D5
S1130B10FF7F00000080FFFF3B68DB695B4A934274
S1130B2004DC3B681B6A594A934207DD1723A8E09B
S1130B30C04604E0C04602E0C04600E0C046C046ED
S1130B407B681800524B9847031EF9D13B681A7E04
S1130B503B691A72C0467B6818004D4B9847031EC8
S1130B60F9D13B68DB699AB23B699A83C0467B68DA
S1130B701800474B9847031EF9D13B681B6A9AB289
S1130B803B691A841423FB183A682C21525C1A70AE
S1130B901423FB181B78002B06D01423FB181A7897
S1130BA01423FB18013A1A701423FB181B780F2B1B
S1130BB004D83B682B229B5C0F2B01D9172360E0E0
S1130BC0C0467B681800324B9847031EF9D13B6836
S1130BD09B683A682B21525C120513431422BA18FD
S1130BE01278120413433A68D28913433A68127B89
S1130BF01A433B691A613B682A229A5C3B691A755D
S1130C003B690F229A753B6824229B5C002B1ED003
S1130C103B68DB8C1F4A934201D9172331E03B68C0
S1130C20DA8C3B699A843B6828229B5E1A4A934279
S1130C3005DC3B6828229B5E184A934201DA17239D
S1130C401FE03B6828229B5E9AB23B69DA84144B0E
S1130C501B68DB089BB21B029AB2E023DB00134043
S1130C609AB2104B5C681B686101DD0E0D43E60E01
S1130C70ABB2FF210B409BB213439AB23B691A8576
S1130C8000231800BD4609B0F0BDC046FFFF0000B8
S1130C9031060000FF0F0000FF07000000F8FFFF0F
S1130CA0246080002060800080B584B000AFF860CC
S1130CB0B9607A60FB68BA681A6080235B02190025
S1130CC00220154B9847BB681B78DBB21A0001233E
S1130CD0134001D005231AE0BB681B78DBB21A006D
S1130CE00223134001D01C2311E07B685A78FB686F
S1130CF01A71FB681B79002B02D10120074B98471E
S1130D007A68FB6811001800054B98470300180027
S1130D10BD4604B080BDC0466D050000F10500006D
S1130D207D07000080B582B000AF78607B68002248
S1130D301A70C046BD4602B080BD000080B582B0C6
S1130D4000AF02003960FB1D1A70FB1D1B78012BDC
S1130D500AD0022B0FD0002B14D10E4B0D4A9169EF
S1130D603A680A439A610FE00A4B0A4AD1693A6821
S1130D700A43DA6108E0074B064A116A3A680A43F3
S1130D801A6201E0172300E000231800BD4602B0F8
S1130D9080BDC0460004004080B582B000AF7860DA
S1130DA07B6880221A707B6800225A707B6801225B
S1130DB09A707B680022DA70C046BD4602B080BDDE
S1130DC080B500AF054B9B78DBB21A0002231340B9
S1130DD05A1E9341DBB21800BD4680BD002000417D
S1130DE080B584B000AF78607B681B68FB60FB68EB
S1130DF0DB69072213405A1E9341DBB21800BD463B
S1130E0004B080BD80B582B000AF7860C0467B6816
S1130E101800044B9847031EF9D1C046BD4602B0E2
S1130E2080BDC046E10D0000F0B597B000AF786119
S1130E3039610023FB6300233B650023FB643B23F0
S1130E4010229446BC44634400221A707B691B68D8
S1130E50BB637B691B687B6323231022BA18D418F5
S1130E607B6B1800C04B9847030023700C2310229F
S1130E709446BC4463441800BC4B98473B69DB6907
S1130E807B643B691B6A3B647B6C002B06D17B6BE8
S1130E9000211800B64B984703007B647B6CDAB2E0
S1130EA00C2310218C46BC4463441A700C2310227A
S1130EB09446BC44634402225A707B6C1B0CDBB224
S1130EC00C2210218C46BC44624411001800A94B2A
S1130ED098473B6C002B06D17B6B01211800A44B77
S1130EE0984703003B643B6CDAB20C2310218C4618
S1130EF0BC4463441A700C2310229446BC446344DB
S1130F0002225A703B6C1B0CDBB20C2210218C4663
S1130F10BC44624411001800964B98473B699A8A76
S1130F207B69DA803B69DA8A7B691A813B691B7EBB
S1130F30002B03D1904B9847031E02D080237B657E
S1130F4001E000237B653B691B69002B04D03B69EE
S1130F501B697A6D13437B653B699B687A6D134308
S1130F607B653B6924229B5C002B04D07B6D802233
S1130F70D20513437B653B699B6A002B04D03B6914
S1130F809B6A7A6D13437B653B692C229B5C002B27
S1130F9005D13B699A6880239B049A4204D17B6DF6
S1130FA08022120513437B653B692D229B5C002B39
S1130FB004D07B6D8022120413437B653B692E228F
S1130FC09B5C002B04D07B6D8022D20313437B6592
S1130FD0BB6B1A687B6D1A43BB6B1A60BB6B8022B8
S1130FE052005A60232310229446BC4463441B7865
S1130FF01433DBB21800614B98470300FB623B6972
S11310001B68FA2292005343BB623B695B68FA2275
S1131010920053437B623B691B8E3B62584BF86AD8
S1131020984705000E00564BB86A9847B860F960B7
S1131030534BF86A9847534C534A544BA047030008
S11310400C003B607C604E4B386A984702000B00F2
S11310504C4C38687968A04703000C001800210044
S11310604B4C00224B4BA04703000C001A002300FA
S1131070444CB868F968A04703000C001A00230028
S1131080454C28003100A04703000C001D00260039
S1131090BB6A5A003A4B1000984702000B003C4CC4
S11310A028003100A04703000C00180021003A4C2E
S11310B000223A4BA04703000C001D002600BB6A27
S11310C05A002F4B1000984702000B00344C2800A4
S11310D03100A04703000C0019002200314B080026
S11310E0110098470300FB633B699A6880239B04C3
S11310F09A426AD1224BF86A9847254C02000B00A9
S1131100A04703000C001D0026001D4B786A984779
S11311101C4C0022244BA04703000C001A0023009F
S11311201F4C28003100A04703000C0018002100C8
S1131130194C0022194BA04703000C00190022008F
S1131140184B0800110098470300FB64FB6C002B4C
S11311502ED0164B796AF86A984703009A1EFB6CE6
S1131160D31A3B6531E0C04699250000990D000073
S1131170DD230000E5460000C10D00001D45000010
S11311806D790000556D000095D626E80B2E113EB2
S1131190CD60000000002440557200000000F03FC4
S11311A0ED6600008178000000000840615F0000E7
S11311B07B6A5A00FB6AD3185A1E7B6A59001D4B7E
S11311C0100098470300013B3B65FB6BFF2B08DCD9
S11311D0FB6B002B05DB3B6DFF2B02DC3B6D002B17
S11311E006DA3B2310229446BC44634440221A701E
S11311F03B2310229446BC4463441B78402B0ED0FE
S1131200FB6BFF221A403B6D1B041900FF231B04D8
S11312100B401343FA6C12061A43BB6BDA603B2390
S113122010229446BC4463441B781800BD4617B092
S1131230F0BDC046615F000090B58BB000AFF860B0
S1131240B9607A60FB68BA681A60FB681B687B62E5
S1131250FB681B6818003B4B984703003B623B6AE2
S11312600233FB613B6A1433BB610122FB699A4080
S1131270130019000220344B98471423FB1818005C
S1131280324B98477B681A7B1423FB181A70BB698E
S1131290DBB21422BA18110018002D4B9847BB6911
S11312A0DBB218002B4B98477B681B7B002118008E
S11312B0294B98477B6A1B680222134001D01C23E8
S11312C03BE07B6A1B680122134001D0052334E014
S11312D0FB681B681722BC1818001A4B98470300B8
S11312E023701E4A1723FB181B78110018001C4B8F
S11312F098471723FB181A781A4B9200F968D150B3
S1131300FB6800221A76FB6800225A76FB680022EA
S11313105A83FB6800229A83FB6825220021995492
S1131320FB6800221A627B6A14221A607A68FB68DE
S1131330110018000C4B984703001800BD460BB071
S113134090BDC046992500003D0D0000250D00000C
S1131350F94300003D44000051230000A91D000092
S11313601534000004030020290E000080B584B069
S113137000AF78607B681B68FB60FB681B7EDBB298
S11313801A00022313400BD0FB6802221A76FB6872
S11313905B8B9BB21A000223134011D0412310E04F
S11313A0FB685B8B9BB21A000423134008D0FB68D4
S11313B05B68C02292021A43FB685A60182300E05B
S11313C000231800BD4604B080BD80B584B000AFD2
S11313D078607B681B68BB600E23FB1800221A80B0
S11313E00FE00E23FB180E22BA18128801321A805D
S11313F07B681B890E22BA1812889A4201D31223E1
S11314000EE0BB681B7EDBB21A000123134006D139
S1131410BB681B7EDBB21A0002231340E1D0002319
S11314201800BD4604B080BD90B585B000AF7860AB
S11314300A00FB1C1A707B681B68FB60FB685B6816
S11314408022D2021A43FB685A60FB1C1A78FB689C
S11314505A620B23FC187B681800074B984703005B
S11314602370FB6801221A760B23FB181B781800E3
S1131470BD4605B090BDC046CB13000090B587B003
S113148000AF786039607B681B68FB601423FB182D
S11314903A6852881A801223FB1800221A80FB68CB
S11314A01B681B01DB0FDBB21A000B23FB18511E58
S11314B08A411A703B685B7A002B06D03B689A7AA3
S11314C07B6811001800854B9847FB685B68844A69
S11314D01A40FB685A603B681B7A002B42D03B6879
S11314E01B885A003B685B7A9B0313431A008023D2
S11314F01B021A43FB685A621723FC187B68180006
S1131500784B984703002370FB685B68744A1A4061
S1131510FB685A601723FB181B78002B07D117238D
S1131520FC187B681800704B98470300237017233E
S1131530FB181B78002B11D13B681B881B0A9BB23C
S1131540782213439BB25A003B685B7A9B03134394
S1131550012213431A00FB685A620FE01723FB1899
S11315601B78B6E03B681B885B0001221A433B688A
S11315705B7A9B0313431A00FB685A621723FC1817
S11315807B681800574B9847030023700B23FB1804
S11315901B78002B0BD03B685B88012B07D1FB68C1
S11315A05B688022D2021A43FB685A6005E0FB683C
S11315B05B684B4A1A40FB685A601723FB181B7878
S11315C0002B07D11723FC187B681800464B98475B
S11315D0030023701723FB181B78002B00D075E041
S11315E04BE0FB685B8B9BB21A002023134001D1B4
S11315F041236EE07B68DB7A002B1ED00B23FB18A3
S11316001B7801225340DBB2002B04D01423FB18B7
S11316101B88002B09D00B23FB181B78002B0CD044
S11316201423FB181B88012B07D1FB685B688022FD
S1131630D2021A43FB685A601AE07B6818002B4BED
S113164098473B685A681223FB181B8812217918A3
S1131650581C0880D318FA682821525CD2B21A7038
S11316601723FC187B6818001E4B9847030023704F
S11316701723FB181B78002B09D11423FB181B8894
S11316801422BA18591E1180002BAAD100E0C046BA
S11316907B689B7A002B0AD07B681800134B984711
S11316A0FB685B68C02292021A43FB685A607B683D
S11316B018000E4B98473B685A681223FB181B8886
S11316C0D318FA682821525CD2B21A701723FB1877
S11316D01B781800BD4607B090BDC0462914000011
S11316E0FFFFFBFFCB1300006D130000050E00008D
S11316F080B582B000AF786039607B689B8B9BB209
S1131700002B01D005230CE07B6801229A727B68D0
S11317100122DA723A687B6811001800034B98477B
S113172003001800BD4602B080BDC0467D14000011
S113173090B587B000AF786039607B681B68FB6048
S11317401423FB183A6852881A807B681800514B9E
S113175098473B685B7A002B06D03B689A7A7B6893
S1131760110018004C4B9847FB685B684B4A1A40C1
S1131770FB685A603B681B7A002B0DD03B681B88C2
S11317805A003B685B7A9B0313431A0080231B02B5
S11317901A43FB685A6209E03B681B885A003B689D
S11317A05B7A9B0313431A00FB685A621723FC18E5
S11317B07B6818003A4B9847030023701723FB18E3
S11317C01B78002B07D11723FC187B681800354BB6
S11317D09847030023701723FB181B78002B52D162
S11317E01223FB1800221A8033E0FB685B8B9BB248
S11317F01A002023134001D1412347E07B681800DD
S1131800244B98473B685A681223FB181B88122103
S11318107918581C0880D3181978FB682822995421
S11318201723FC187B6818001D4B9847030023708E
S11318301723FB181B78002B15D1FB685B8B9BB21D
S11318401A000423134004D01723FB181E221A7015
S11318500AE01423FB181B881422BA18591E11809D
S1131860002BC2D100E0C0467B689B7A002B0AD0D3
S11318707B681800074B9847FB685B68C02292029C
S11318801A43FB685A601723FB181B781800BD46DF
S113189007B090BD050E000029140000FFFFFBFFF8
S11318A0CB1300006D13000080B582B000AF7860E8
S11318B039607B689B8B9BB2002B01D005230CE025
S11318C07B6801229A727B680122DA723A687B682B
S11318D011001800034B984703001800BD4602B0DE
S11318E080BDC0463117000080B582B000AF78607B
S11318F039607B689B8B9BB2002B01D005230CE0E5
S11319007B6800229A727B680122DA723A687B68EB
S113191011001800034B984703001800BD4602B09D
S113192080BDC0463117000080B584B000AF786038
S11319307B681B68FB607B681800064B9847FB6854
S11319405B68C02292021A43FB685A60C046BD46D7
S113195004B080BD050E000080B584B000AF78608F
S11319607B681B68FB60FB68DB69072213405A1E17
S11319709341DBB21800BD4604B080BD80B582B08F
S113198000AF7860C0467B681800044B9847031E7C
S1131990F9D1C046BD4602B080BDC0465919000009
S11319A080B584B000AF78607B681B68FB60FB681F
S11319B01B681B01DB0FDBB21A000B23FB18511E43
S11319C08A411A700823FB187A68528B1A807B6844
S11319D09B8B9AB20823FB180821791809888A1A64
S11319E01A807B689B8B9BB2013B9AB27B689A837B
S11319F00B23FB181B78002B10D07B68DB7A002BA1
S1131A001CD07B689B8B9BB2012B17D1FB685B6856
S1131A108022D2021A43FB685A600FE07B68DB7AAB
S1131A20002B0BD07B689B8B9BB2002B06D1FB68F1
S1131A305B688022D2021A43FB685A607B689B8BE6
S1131A409BB2002B0ED17B689B7A002B0AD07B685B
S1131A5018000E4B9847FB685B68C02292021A4339
S1131A60FB685A607B681800084B98477B681A6AC1
S1131A700823FB181B88D318FA682821525CD2B2B9
S1131A801A70C046BD4604B080BDC0467D19000032
S1131A9080B584B000AF78607B681B68FB60FB682E
S1131AA05B8B9BB21A000423134004D07B6825226D
S1131AB01E21995424E00A23FB187A68528B1A8059
S1131AC07B689B8B9AB20A23FB180A217918098830
S1131AD08A1A1A807B689B8B9BB2013B9AB27B6803
S1131AE09A837B681800084B98477B681A6A0A2314
S1131AF0FB181B88D3181B78D9B2FB682822995489
S1131B00BD4604B080BDC0467D19000080B584B0D8
S1131B1000AF78607B681B68FB60FB681B7EDBB2F0
S1131B201A00012313402BD0FB6801221A76FB68AC
S1131B305B8B9BB21A000223134004D07B682522DE
S1131B40412199541CE0FB685B8B9BB21A0004236F
S1131B50134015D07B682522182199547B680022F4
S1131B609A837B689B7A002B0AD07B681800134BFE
S1131B709847FB685B68C02292021A43FB685A606C
S1131B807B689B8B9AB27B685A837B6825229B5C1B
S1131B90DBB2052B0ED17B6824229B5CDBB2002BCD
S1131BA004D17B681800064B984703E07B68180053
S1131BB0044B9847C046BD4604B080BD7D19000063
S1131BC0911A0000A119000080B584B000AFF8603C
S1131BD0B960FB1D1A70FB1D1B78FA6802339B0069
S1131BE0D3180433BA681A60FB681B7EDBB25AB29E
S1131BF0FB1D1B78012199400B005BB213435BB2C0
S1131C00DAB2FB681A76C046BD4604B080BD000057
S1131C1090B587B000AF786039607B681B683B6122
S1131C203B685A687B681A623B685A887B689A8367
S1131C307B682422012199547B682522052199542B
S1131C403B691B681B01DB0FDBB21A000F23FB1877
S1131C50511E8A411A703B685B7A002B06D03B68A0
S1131C609A7A7B68110018003B4B98470F23FB18A6
S1131C701B78002B0BD03B685B88012B07D13B6999
S1131C805B688022D2021A433B695A6005E03B69D3
S1131C905B68324A1A403B695A603B681B7A002BE6
S1131CA045D03B681B885A003B685B7A9B0313430F
S1131CB01A0080231B021A433B695A621723FC183B
S1131CC07B681800264B9847030023703B695B68C8
S1131CD0224A1A403B695A601723FB181B78002BD1
S1131CE007D11723FC187B6818001E4B9847030084
S1131CF023701723FB181B78002B14D13B69032294
S1131D009A753B681B881B0A9BB2782213439BB2CB
S1131D105A003B685B7A9B031343012213431A0066
S1131D203B695A6212E01723FB181B780FE03B69EA
S1131D3003229A753B681B885B0001221A433B68A7
S1131D405B7A9B0313431A003B695A620023180011
S1131D50BD4607B090BDC04629140000FFFFFBFF3D
S1131D60CB1300006D13000080B582B000AF786023
S1131D7039607B689B8B9BB2002B01D005230CE060
S1131D807B6801229A727B680122DA723A687B6866
S1131D9011001800034B984703001800BD4602B019
S1131DA080BDC046111C000080B586B000AF0200A3
S1131DB0FB1D1A70FB1D1A78934B9200D3587B615C
S1131DC07B691B683B613B691B681B01DB0FDBB252
S1131DD01A000F23FB18511E8A411A700E23FB1898
S1131DE07A69527E1A707B691B7EDAB20E23FB1865
S1131DF00E21791809780A401A707B695B8B9BB2B3
S1131E00002B09D17B699B8B9BB2002B04D07B698F
S1131E1018007E4B984770E07B695B8B9BB2002B6C
S1131E2039D07B699B8B9BB2002B34D17B692522F3
S1131E309B5CDBB2052B2ED17B6924229B5CDBB23D
S1131E40002B28D13B6903221A757B6900225A832F
S1131E507B692522002199547B699B7A002B0BD046
S1131E607B6918006A4B98473B695B68C022920201
S1131E701A433B695A6002E03B6901221A760E2339
S1131E80FB181B780122134037D07B69DB687A6921
S1131E901000984731E07B695B8B9BB2002B2CD000
S1131EA07B699B8B9BB2002B27D03B695B8B9BB2DE
S1131EB01A002023134011D10F23FB181B78012291
S1131EC05340DBB2002B04D17B699B8B9BB2012B6B
S1131ED004D07B692522412199540EE07B69242298
S1131EE09B5CDBB2002B04D17B691800494B9847FB
S1131EF003E07B691800484B98477B695B8B9BB276
S1131F00002B47D07B699B8B9BB2002B42D17B6912
S1131F1025229B5CDBB2052B3CD17B6924229B5C94
S1131F20DBB2012B36D13B691B7EDBB21A000223E4
S1131F30134002D03B6902221A763B6903221A75C8
S1131F407B6900225A837B692522002199540E2340
S1131F50FB181B78022213400BD07B6924229B5C64
S1131F60DBB2012B05D17B691B697A6910009847A4
S1131F7010E00E23FB181B78012213400AD07B6962
S1131F8024229B5CDBB2002B04D17B69DB687A6979
S1131F90100098477B6925229B5CDBB2052B2ED071
S1131FA07B6925229B5CDBB2002B28D03B69032292
S1131FB01A757B6900225A837B6900229A837B69A4
S1131FC025229B5CDBB2412B0ED07B699B7A002BD4
S1131FD00AD07B6918000E4B98473B695B68E02286
S1131FE0D2021A433B695A600E23FB181B78042261
S1131FF0134004D07B695B697A6910009847C04636
S1132000BD4606B080BDC046040300200D1B000081
S11320107D190000911A0000A119000080B582B05A
S113202000AF78607B6800221A70C046BD4602B0DB
S113203080BDF0B58DB000AFB860F9603A607B60E8
S1132040002300243B627C6200230024BB61FC610A
S11320503F23FB6253E0FB6A203B002B04DB01229D
S11320609A4013007B610BE0FB6A2022D31A012201
S1132070DA4013000021FA6A91400A0013437B619D
S11320800122FB6A9A4013003B61BB69FC69DB18BF
S11320906441BB61FC61BB683A691A401500FB6886
S11320A07A691A4016002B00334307D0BB6901221A
S11320B01343BB61FB6900221343FB617A68FB692C
S11320C09A4219D87A68FB699A4203D13A68BB6983
S11320D09A4211D8B969FA693B687C68C91AA24165
S11320E00B001400BB61FC613A6A3B6913433B6219
S11320F07A6A7B6913437B62FB6A013BFB62FB6A7E
S1132100002BA8DA3B6A7C6A18002100BD460DB09A
S1132110F0BD80B586B000AFF860B9607A60162370
S1132120FB1800221A80BB683B61BB685A08FB6835
S11321309A4201D2402326E0BB685B083B610AE077
S11321403A69FB68D31A3B611623FB181A881623D5
S1132150FB1801321A803A69FB689A42F0D21623BE
S1132160FB181622BA181288013A1A801623FB1893
S11321701B88FF2B01D9402305E07B681622BA187F
S113218012881A8000231800BD4606B080BD0000E6
S1132190F0B5A1B000AFF864B9647A644322BA1808
S11321A01370002300243B677C6700230024BB6674
S11321B0FC6600230024BB67FC6700237B6658236E
S11321C040229446BC4463441A78FB6C5A43BB6C6B
S11321D09A4201D94023B3E04323FB181B78002B18
S11321E03DD1582340229446BC4463441B78DBB25F
S11321F03B6100237B61FB6CBB600023FB60524CA2
S1132200BA68FB6838697969A04703000C001B00B1
S1132210FB650023BB65BB6C3B6000237B60B86D32
S1132220F96D3A687B68494CA04703000C003B6792
S11322307C67002101223B6F7C6FC91AA2410B000D
S11322401400BB66FC66BB6E1B0CFA6E16041E43C0
S1132250BB6E1D043300BB670023FB676AE04323A6
S1132260FB181B78012B65D1FB6C3B6300237B635C
S1132270582340229446BC4463441B78DBB2BB62BF
S11322800023FB62304CBA6AFB6A386B796BA04757
S113229003000C00BB65FC65BB6C3B6200237B62E6
S11322A0BB6DFC6D1A002300386A796A274CA0477D
S11322B003000C007B667A6E80239B019A4201D94D
S11322C040233DE0BB6CBB610023FB61B969FA6943
S11322D00B005B0F1000C000F863F86B1843F86341
S11322E00B00DB00BB63BB6DFC6D1A002300B86BF5
S11322F0F96B164CA04703000C00BB65FC65BB6D75
S1132300FC6DD9B27B6EDBB2DB00DAB2172340205E
S11323108446BC4463448A1A1A70172340229446A4
S1132320BC4463441B785B031A007B6E1343BB6796
S11323300023FB67BB6FFC6F9AB27B6C1A8000238F
S11323401800BD4621B0F0BD7960000033200000C4
S113235080B584B000AF0200FB1D1A70BB1D0A1CBF
S11323601A701A4B1B7801225340DBB2002B03D1A5
S1132370BB1D1B78002B1BD00C23FB181800144B1F
S113238098470C23FB18FA1D12781A700C23FB18BB
S1132390190013200F4B984713200F4B98470B4BF2
S11323A0FA1D12785A70094B01221A70002308E0B2
S11323B0064B5B78FA1D12789A4201D1002300E0A3
S11323C01D231800BD4604B080BDC0464402002051
S11323D01D200000F94300003D44000080B582B098
S11323E000AF78600A00FB1C1A707B684D4A934268
S11323F03FD04C4A934206D84B4A93420FD04B4AA3
S1132400934221D089E04A4A934200D15BE0494A91
S1132410934200D16CE0484A93423FD07DE0FB1CDC
S11324201B78012B0AD002DC002B05D075E0022BAF
S113243006D0032B06D070E0404B6FE0404B6DE0BC
S1132440404B6BE0404B69E0FB1C1B78012B0AD02E
S113245002DC002B05D060E0022B06D0032B06D053
S11324605BE003235AE0394B58E0394B56E0394BD3
S113247054E0FB1C1B78012B0AD002DC002B05D096
S11324804BE0022B06D0032B06D046E0324B45E04E
S1132490324B43E0324B41E0324B3FE0FB1C1B78B4
S11324A0012B0AD002DC002B05D036E0022B06D02B
S11324B0032B06D031E02C4B30E02C4B2EE02C4B80
S11324C02CE02C4B2AE0FB1C1B78012B0AD002DCED
S11324D0002B05D021E0022B06D0032B06D01CE0F4
S11324E0254B1BE0254B19E0254B17E0254B15E048
S11324F0FB1C1B78012B0AD002DC002B05D00CE05E
S1132500022B06D0032B06D007E01F4B06E01F4B1F
S113251004E01F4B02E01F4B00E000231800BD46FF
S113252002B080BD0010004200080042000C0042CE
S113253000180042001C0042001400420300040082
S11325400300050003000600030007000300010068
S113255003001E0003001F0003000800030009001D
S113256003000A0003000B00030010000300110025
S1132570030012000300130003000C0003000D000D
S113258003000E0003000F000300160003001700F1
S1132590030018000300190090B58BB000AF7860F9
S11325A00C23FB180F4A13CA13C313CA13C3002303
S11325B07B620EE00C23FB187A6A9200D3581A004F
S11325C07B689A4202D17B6ADBB206E07B6A013304
S11325D07B627B6A052BEDD900231800BD460BB046
S11325E090BDC046D08E000080B586B000AFF860C4
S11325F0B9607A6000237B61FB68002B12D0012351
S11326005B4213E00B4B1A680B4B1B68B96818004C
S11326109047BB680133BB607B6901337B617B6896
S1132620013B7B607B68002BECDC7B691800BD46BA
S113263006B080BDF80200200003002080B586B0FB
S113264000AFF860B9607A6000237B61FB68012BFE
S11326501DD0FB68022B1AD0FB68032B17D0012373
S11326605B4218E00E4B1A680E4B1868BB68591C85
S1132670B9601B7819009047031E02DA01235B42FC
S113268009E07B6901337B617B68013B7B607B688C
S1132690002BE7D17B691800BD4606B080BDC0465B
S11326A0FC0200200003002080B582B000AF7860F7
S11326B07B6800221A70C046BD4602B080BD00008F
S11326C080B582B000AF02003960FB1D1A70FB1D9B
S11326D01B78012B0AD0022B0FD0002B14D10E4BE8
S11326E00D4A91693A680A439A610FE00A4B0A4A13
S11326F0D1693A680A43DA6108E0074B064A116A6D
S11327003A680A431A6201E0172300E00023180024
S1132710BD4602B080BDC0460004004080B582B012
S113272000AF78607B6880221A707B6800225A7040
S11327307B6801229A707B680022DA70C046BD462D
S113274002B080BD80B500AF054B9B78DBB21A00A8
S1132750022313405A1E9341DBB21800BD4680BDCC
S11327600020004180B584B000AF78607B681B68AE
S1132770FB60FB68DB695A1E9341DBB21800BD465F
S113278004B080BD80B582B000AF7860C0467B687D
S11327901800044B9847031EF9D1C046BD4602B049
S11327A080BDC04665270000B0B58CB002AF78602C
S11327B039607B681B68BB617B681B681800AB4B86
S11327C0984703007B617B6914333B6100237B6280
S11327D000233B620A23FB1800221A801F23FB18E4
S11327E000221A701E23FB1810221A703B681B8AE1
S11327F08022D20193421CD08022D201934206DC73
S1132800002B0DD080229201934224D035E0C022C7
S1132810D201934228D080221202934212D02CE09B
S11328201F23FB1800221A701E23FB1810221A7093
S113283023E01F23FB1800221A701E23FB18082212
S11328401A701AE01F23FB1800221A701E23FB18AB
S113285003221A7011E01F23FB1801221A701E2391
S1132860FB1810221A7008E01F23FB1801221A70AB
S11328701E23FB1808221A70C0463B681A683B687E
S1132880DB681A433B685B6913433A68128A134353
S11328903A68127E120213433A682621525C5207A8
S11328A013437B621D23FB1800221A703B685B688C
S11328B0FB60FB68002B1ED08022520593424FD14F
S11328C03B6827229B5C01225340DBB2002B46D09D
S11328D03B681D6A3B69DBB21800654B98470100F1
S11328E01D23FC180A23FB181A002800614B984783
S11328F00300237033E03B6827229B5C002B14D039
S11329003B68186A3B68996A1D23FC181F23FB184F
S11329101D780A23FA181E23FB181B7800932B003A
S1132920554DA847030023701AE03B681D6A3B69B4
S1132930DBB218004E4B98471D23FC181F23FB18CD
S113294019780A23FA181E23FB181B7800930B002E
S113295001002800484DA8470300237000E0C0464A
S11329601D23FB181B78002B03D01D23FB181B7899
S113297077E03B685B7E002B03D03B689A7EBB69A3
S11329809A737B6818003D4B98470A23FB181A88F2
S1132990BB699A817A6AFB6813437B623B6827228E
S11329A09B5C01225340DBB2002B03D07B6A0422E0
S11329B013437B623B685B7E9A023B681B7F5B022E
S11329C01A433B685B7F1B021A433B6824215B5C10
S11329D05B041A433B6825215B5C1B0413433B6285
S11329E03B689B7A1A003B6A13433B623B68DB7A81
S11329F01A003B6A13433B623B681B89FF2B0BD0D5
S1132A007B6A8022520413437B623B681B891A0051
S1132A103B6A13433B6208E03B68DB7E002B04D037
S1132A207B6A8022D20413437B623B682C229B5C2A
S1132A30002B03D1124B9847031E03D07B6A8022DC
S1132A4013437B627B6818000C4B9847BB693A6A56
S1132A505A607B681800094B9847BB697A6A1A6008
S1132A6000231800BD460AB0B0BDC0469925000039
S1132A701D4500001321000091210000852700005E
S1132A804527000090B593B000AFF860B9607A6054
S1132A903B23FB1800221A70FB68BA681A60FB68B3
S1132AA01B687B63FB681B681800864B9847030010
S1132AB03B633B6B0233FB623B6B1433BB627B6B4C
S1132AC01B680122134001D00523F6E07B6B1B68D1
S1132AD00222134001D01C23EFE00122FB6A9A403A
S1132AE0130019000220784B98472423FB18180080
S1132AF0764B98477B682D229A5C2423FB181A7026
S1132B00BB6ADBB22422BA1811001800704B984734
S1132B10BB6ADBB218006F4B98477B682D229B5C25
S1132B20002118006C4B98477B68DA7AFB685A716D
S1132B307B6824229A5CFB689A717B6825229A5CE4
S1132B40FB68DA717B68DA7EFB681A727B681A7F2D
S1132B50FB685A723B23FC187A68FB681100180062
S1132B605E4B9847030023703B23FB181B78002B14
S1132B7003D03B23FB181B789FE02023FB1818008D
S1132B80574B98472023FB1800225A702023FB1828
S1132B9000229A707B681A6B1023FB181A607B68FA
S1132BA05A6B1023FB185A607B689A6B1023FB182E
S1132BB09A607B68DA6B1023FB18DA604723FB18F2
S1132BC000221A702CE04723FB181A781023FB18F4
S1132BD09200D3583B643B6C002B09D14723FB186C
S1132BE01A78BB68110018003E4B984703003B64F9
S1132BF03B6C01330DD03B6CDAB22023FB181A7006
S1132C003B6C1B0CDBB22022BA1811001800364BA7
S1132C1098474723FB181A784723FB1801321A7088
S1132C204723FB181B78032BCDD90023FB630AE051
S1132C30FA68FB6B02339B00D318043300221A603A
S1132C40FB6B0133FB63FB6B052BF1D9FB680022A3
S1132C509A62FB6800225A62FB680022DA85FB68EC
S1132C6000229A85FB68302200219954FB683122A6
S1132C7000219954FB68322200219954FB683322C5
S1132C8000219954FB681B682722BC1818000D4BBF
S1132C90984703002370154A2723FB181B7811005B
S1132CA01800134B98472723FB181A78114B9200EE
S1132CB0F968D1503B23FB181B781800BD4613B0AC
S1132CC090BDC04699250000C1260000A926000039
S1132CD0F94300003D44000051230000A9270000EF
S1132CE01D270000DD230000E5460000C130000080
S1132CF0153400000403002080B584B000AF786070
S1132D000A00BB1C1A807B681B68FB607B68DB794C
S1132D1001225340DBB2002B01D01C2317E07B6857
S1132D20DB8D9BB2002B01D0052310E07B681800DB
S1132D30094B9847FB68BA1C12881A85C046FB6881
S1132D401B7EDBB21A0002231340F8D000231800C4
S1132D50BD4604B080BDC0468527000080B584B060
S1132D6000AF786039607B681B68FB607B689B7987
S1132D7001225340DBB2002B01D01C235EE07B68B0
S1132D809B8D9BB2002B01D0052357E0FB681B7E73
S1132D90DBB21A000423134001D105234EE07B6803
S1132DA01800284B9847FB685B8B9BB2DAB20B2365
S1132DB0FB183F210A401A700B23FB181B78002BC9
S1132DC036D00B23FB181B780222134004D0FB6877
S1132DD002225A831A2331E00B23FB181B780422A6
S1132DE0134004D0FB6804225A831E2326E00B23DD
S1132DF0FB181B780122134004D0FB6801225A837C
S1132E0013231BE00B23FB181B781022134004D060
S1132E10FB6810225A83422310E00B23FB181B7813
S1132E202022134004D0FB6820225A83412305E06A
S1132E30FB681B8D9AB23B681A8000231800BD46BC
S1132E4004B080BD8527000080B58AB000AFF8606B
S1132E50B960BB1D1A80BB1D1B88002B01D1172331
S1132E607EE0FB68DB7901225340DBB2002B01D00A
S1132E701C2375E0FB681B687B61FB6818003A4BF8
S1132E8098472623FB1800221A8048E000233B625F
S1132E900FE07B691B7EDBB21A00012313400DD1C6
S1132EA03B6A324A934201D1122359E03B6A01330F
S1132EB03B623B6A2D4A9342EBD900E0C04626238D
S1132EC0FB181B882622BA18591C11801A00BB68EB
S1132ED09B181A781E23FB181A80FB685B79012B58
S1132EE015D12623FB181B882622BA18591C1180D9
S1132EF01A00BB689B181B781B021AB21E23FB180E
S1132F0000215B5E13431AB21E23FB181A801E2392
S1132F10FB181A88FB6811001800154B9847BB1D55
S1132F201B88BA1D591E1180002BAFD10023BB6131
S1132F300FE07B691B7EDBB21A00022313400DD124
S1132F40BB690A4A934201D1122309E0BB690133E8
S1132F50BB61BB69054A9342EBD900E0C04600233C
S1132F601800BD460AB080BD85270000FFFF0000A1
S1132F70F92C000090B589B000AFF860B960BB1DB2
S1132F801A80BB1D1B88002B01D117236DE0FB6841
S1132F909B7901225340DBB2002B01D01C2364E057
S1132FA0FB681B687B611E23FB1800221A8054E017
S1132FB00023BB610FE07B691B7EDBB21A00042394
S1132FC013400DD1BB692B4A934201D112234CE02B
S1132FD0BB690133BB61BB69264A9342EBD900E06C
S1132FE0C0461023FB1800221A801323FC18102358
S1132FF0FA18FB68110018001F4B98470300237050
S11330001323FB181B78002B03D01323FB181B7806
S11330102BE01E23FB181B881E22BA18591C118092
S11330201A00BB689B181022BA181288D2B21A7000
S1133030FB685B79012B10D11E23FB181B881E2211
S1133040BA18591C11801A00BB689B181022BA18B0
S11330501288120A92B2D2B21A70BB1D1B88BA1D12
S1133060591E1180002BA3D100231800BD4609B0BE
S113307090BDC046FFFF00005D2D000080B584B008
S113308000AF78607B681B68FB60FB68DB695A1ED5
S11330909341DBB21800BD4604B080BD80B582B058
S11330A000AF7860C0467B681800044B9847031E45
S11330B0F9D1C046BD4602B080BDC0467D30000097
S11330C080B588B000AF0200FB1D1A70FB1D1A7892
S11330D0A34B9200D358BB61BB691B687B61BB697E
S11330E01800A04B98477B691B7EDAB21223FB18A9
S11330F01A807B699B7DDBB29AB21223FB181221E2
S1133100791809880A401A80BB6930229B5CBA6925
S11331103121525C1340DAB21023FB181A801223B7
S1133120FB181B880122134044D0BB69DB8D9BB282
S1133130002B3CD0BB699B6A1B78DAB21C23FB18BA
S11331401A80BB699B6A5A1CBB699A62BB695B792A
S1133150012B13D1BB699B6A1B78DBB21B021AB229
S11331601C23FB1800215B5E13431AB21C23FB18BB
S11331701A80BB699B6A5A1CBB699A621C23FB18A0
S11331801B88DB05DB0D9AB27B691A85BB69DB8D75
S11331909BB2013B9BB2BA69191CD185002B09D1A2
S11331A07B6901221A757B6902229A7502E07B69A8
S11331B001221A751223FB181B880222134011D016
S11331C07B6902221A75BB693322002199541023AA
S11331D0FB181B880122134004D0BB69DB68BA6961
S11331E0100098471223FB181B880422134000D1B7
S11331F0BDE0BB699B8D9BB2002B00D1B4E07B6921
S11332005B8B9BB2DAB21F23FB183F210A401A7072
S11332101F23FB181B780822134007D01F23FB1819
S11332201F22BA18127808218A431A701F23FB1828
S11332301B78002B50D01F23FB181B78022213404D
S113324007D0BB6932221A2199547B6902225A831E
S113325036E01F23FB181B780422134007D0BB69F8
S113326032221E2199547B6904225A8328E01F23A9
S1133270FB181B780122134007D0BB6932221321AB
S113328099547B6901225A831AE01F23FB181B7887
S11332901022134007D0BB693222422199547B6922
S11332A010225A830CE01F23FB181B7820221340A2
S11332B006D0BB693222412199547B6920225A836A
S11332C01023FB181B880422134050D0BB695B6990
S11332D0BA69100098474AE07B691B8D9AB20E23A5
S11332E0FB18D205D20D1A80BB695B6A0E22BA188C
S11332F01288D2B21A70BB695B6A5A1CBB695A62E3
S1133300BB695B79012B0DD1BB695B6A0E22BA18CC
S11333101288120A92B2D2B21A70BB695B6A5A1C42
S1133320BB695A62BB699B8D9BB2013B9BB2BA6974
S1133330191C9185002B1AD17B6904221A75BB696B
S11333403222002199541023FB181B8802221340B7
S11333500DD0BB691B69BA691000984707E0C046E5
S1133360040300209D3000007B6904221A75122397
S1133370FB181B881022134010D07B6910221A7589
S11333807B6910221A761023FB181B881022134025
S113339004D0BB69DB69BA69100098471223FB1893
S11333A01B882022134010D07B6920221A757B6968
S11333B020221A761023FB181B880822134004D0FD
S11333C0BB699B69BA69100098471223FB181B88D4
S11333D00822134010D07B6908221A757B690822E1
S11333E01A761023FB181B882022134004D0BB69D3
S11333F01B6ABA6910009847C046BD4608B080BD34
S113340080B582B000AF0200FB1D1A70C046BD46F5
S113341002B080BD80B584B000AF02003960FB1DEE
S11334201A70134B1B7801225340DBB2002B15D0CA
S11334300023FB600CE00F4BFA6892000E49D15058
S11334400E4BFA6892000021D150FB680133FB60F7
S1133450FB68052BEFD9064B01221A70FB1D1A7865
S1133460044B92003968D150C046BD4604B080BDBB
S1133470460200204802002001340000040300201A
S113348090B585B000AF78600823FB180B4A11682B
S1133490196092889A800F23FC187B681800084BE7
S11334A09847030023700F23FB181B780822BA18CF
S11334B0D35C5BB21800BD4605B090BDE88E000039
S11334C09925000080B500AF034B1B680020984786
S11334D0C046BD4680BDC0464802002080B500AF4E
S11334E0034B5B6801209847C046BD4680BDC0467B
S11334F04802002080B500AF034B9B680220984728
S1133500C046BD4680BDC0464802002080B500AF1D
S1133510034BDB6803209847C046BD4680BDC046C8
S11335204802002080B500AF034B1B690420984774
S1133530C046BD4680BDC0464802002080B500AFED
S1133540034B5B6905209847C046BD4680BDC04615
S11335504802002080B582B000AF104B1B68002BDE
S113356012D1EFF310837B607B68002B09D172B614
S1133570BFF35F8F0A4B00221A700A4B01221A70A4
S113358002E0084B00221A70044B1B685A1C034BC0
S11335901A60C046BD4602B080BDC046600200202D
S11335A0280000206402002080B500AF0B4B1B688C
S11335B05A1E0A4B1A60094B1B68002B0AD1084B90
S11335C01B78DBB2002B05D0064B01221A70BFF327
S11335D05F8F62B6C046BD4680BDC0466002002013
S11335E0640200202800002080B584B000AF0200EF
S11335F0FB1D1A700F23FB18FA1D1278D2091A70DA
S11336000E23FB18FA1D127852091A700D4BBB6079
S11336100F23FB181B78002B0FD10F23FB181B78EB
S11336209B0010229446BC446344083B1A680E2352
S1133630FB181B78DB01D31800E000231800BD46FB
S113364004B080BD0044004180B582B000AF0200E8
S1133650FB1D1A70FB1D1B781800034B98470300D1
S11336601800BD4602B080BDE935000080B582B0C7
S113367000AF78607B6800221A707B6801225A7060
S11336807B6800229A70C046BD4602B080BD00002F
S113369080B584B000AF0200FB1D1A70BB1D0A1C6C
S11336A01A70FB1D1B7818000D4B98470300FB6034
S11336B0FB1D1B781F22134001229A401300BB609C
S11336C0BB1D1B78002B03D0FB68BA689A6102E02B
S11336D0FB68BA685A61C046BD4604B080BDC046A6
S11336E04936000080B582B000AF3B1D18000E4B78
S11336F098473B1D01221A703B1D190017200B4BE4
S11337009847012117200A4B98473B1D00221A7045
S11337103B1D01225A703B1D19003720034B98476B
S1133720C046BD4602B080BD6D3600005D37000066
S11337309136000080B582B000AF78607B6880224B
S11337401A707B6800225A707B6801229A707B6829
S11337500022DA70C046BD4602B080BD80B584B098
S113376000AF02003960FB1D1A700C23FB1818000F
S1133770104B98470C23FB1880221A703B681A7868
S11337800C23FB185A703B685A780C23FB189A7068
S11337903B689A780C23FB18DA700C23FA18FB1D8B
S11337A01B7811001800044B9847C046BD4604B06E
S11337B080BDC04635370000E546000080B582B0C4
S11337C000AF78607B6801225A607B6800225A70DF
S11337D07B6806221A707B6800221A727B680022BA
S11337E05A72C046BD4602B080BD80B582B000AFFB
S11337F078607B6800221A70C046BD4602B080BD66
S113380080B582B000AF78607B6800221A707B6854
S113381004225A707B6800229A707B68802212020C
S11338209A607B680022DA707B6801221A717B68D7
S113383000221A737B6801225A737B6800229A73F0
S1133840C046BD4602B080BD80B582B000AF78608E
S11338507B6803221A707B6800225A707B680122FD
S11338609A70C046BD4602B080BD80B582B000AF3C
S113387078607B6800221A707B6800225A807B681B
S113388000229A807B6800229A717B680022DA7198
S11338907B6801225A707B6807221A727B683F2278
S11338A05A817B6801221A737B680122DA817B6862
S11338B006221A82C046BD4602B080BD80B582B0E1
S11338C000AF0200FB1D1A70034AFB1D1B78137224
S11338D0C046BD4602B080BD0004004080B582B041
S11338E000AF0200FB1D1A70BB1D0A1C1A70FB1DE1
S11338F01B78012B08D0022B0BD0002B0ED10B4AC6
S1133900BB1D1B7853720BE0084ABB1D1B789372D6
S113391006E0064ABB1D1B78D37201E0172300E0C2
S113392000231800BD4602B080BDC046000400401C
S113393080B582B000AF0200FB1D1A70084AFB1D5F
S11339401B780F210B40D9B253680F200140490066
S11339501E2083430B435360C046BD4602B080BD66
S11339600040004180B500AFC046044BDB68102224
S11339701340FAD0C046BD4680BDC0460008004092
S113398080B500AF0C4B02229A840C4B98470A4A2C
S11339900B4B9B68D362084A094B5B689362064BE6
S11339A000229A84054B9847034A054B1B689BB237
S11339B09384C046BD4680BD0008004065390000C0
S11339C06802002080B582B000AF0200FB1D1A70AF
S11339D0FB1D1B78082B40D89A00224BD3181B6878
S11339E09F46214B1B6939E0204B1B6A9B059B0FAB
S11339F0DBB21A001E4BD34030E080231B022DE0C3
S1133A0080231B022AE0184B5B6927E0164B1B68D6
S1133A100222134001D1002320E0164B9847124B99
S1133A201B680422134009D00020134B984702005E
S1133A300D4B9B681B041B0C53430FE00F4B0DE015
S1133A400A4A5023D35CDBB21A000423134001D189
S1133A50002303E0044BDB6800E000231800BD46AC
S1133A6002B080BDF08E0000680200200008004013
S1133A7000127A00653900001D450000006CDC026C
S1133A8080B584B000AF78601A4B1B6AFB607B681A
S1133A901B781A1C03231340DAB20D23FB180321ED
S1133AA00A4010001A7803218A43111C021C0A439D
S1133AB01A707B689A780C23FB18D0011A787F213E
S1133AC00A40111C021C0A431A707B685A780C23A2
S1133AD0FB1801210A4090011A7840218A43111CE5
S1133AE0021C0A431A70034BFA681A62C046BD46A8
S1133AF004B080BD0008004080B584B000AF786099
S1133B00434A0C23FB18928A1A807B685B781A1C40
S1133B1007231340DAB20C23FB1807210A401000D4
S1133B205A7807218A43111C021C0A435A707B6885
S1133B301B78002B06D10C23FB181A7804210A43A6
S1133B401A7005E00C23FB181A7804218A431A70B2
S1133B507B689A780C23FB1801210A4050011A78DB
S1133B6020218A43111C021C0A431A707B68DA78EC
S1133B700C23FB1801210A4010011A7810218A43F2
S1133B80111C021C0A431A707B681A790C23FB1857
S1133B9001210A40D0001A7808218A43111C021C12
S1133BA00A431A707B685A7B0C23FB18D0011A78DD
S1133BB07F210A40111C021C0A431A707B681A7B7D
S1133BC00C23FB1801210A4090011A7840218A43F2
S1133BD0111C021C0A431A707B689A7B0C23FB1885
S1133BE001210A4010015A7810218A43111C021C39
S1133BF00A435A707B689A68064B5A61044A0C233C
S1133C00FB181B889382C046BD4604B080BDC046E5
S1133C10000800406802002080B582B000AF7860E0
S1133C207B681B7A9B021B041A0C7B685B899B05CF
S1133C309B0D1A432A4B5A607B689A797B68DB791F
S1133C401343DBB21A007B685B8813437A6892885B
S1133C501A437B685B78DB011A43214B1A607B684B
S1133C601B78042B16D17B681B7B9B061A007B6890
S1133C70DB891B0419001B4B0B4013437A68128A1F
S1133C801A43174B9A60164B1B687A6812781A43CA
S1133C90134B1A607B681B78202B1CD17B681B7B21
S1133CA09B061A007B68DB891B0419000D4B0B4033
S1133CB013437A68128A1A43094B9A60084B1B68AB
S1133CC07A68127804210A43D2B213438022D200C4
S1133CD01A43034B1A60C046BD4602B080BDC046BD
S1133CE0680200200000FF0380B582B000AF02002C
S1133CF0FB1D1A70FB1D1B78082B3BD89A00214B27
S1133D00D3181B689F46204B1F4A126A02210A439C
S1133D101A62002331E01C4B1B4A926902210A43B8
S1133D209A6129E0184A184B1B8A9BB202210B4363
S1133D309BB2138220E0144A134B9B8A9BB202214C
S1133D400B439BB2938217E0104B1B6802221A4369
S1133D500E4B1A600E4B98470EE00B4A0A49442357
S1133D60CB5CDBB202210B43D9B24423D15403E030
S1133D70002302E0172300E000231800BD4602B030
S1133D8080BDC046148F0000000800406802002077
S1133D908139000080B584B000AF0200FB1D1A70A9
S1133DA00023FB60FB1D1B78082B21D89A00184BBD
S1133DB0D3181B689F460823FB601BE00423FB60A9
S1133DC018E00123FB6015E00223FB6012E0D0231E
S1133DD0FB600FE00F4A5023D35CDBB21A000323CD
S1133DE01340033B5A425341DBB20CE001230AE087
S1133DF0002308E0074BDB68FA681A40FB68D31A13
S1133E005A425341DBB21800BD4604B080BDC046DF
S1133E10388F00000008004080B582B000AF3B003E
S1133E2002221A7000237B6009E07B68DBB23A004F
S1133E3011001800054B98477B6801337B607B6851
S1133E40242BF2D9C046BD4602B080BDF943000020
S1133E5080B5AAB000AF874BC222D2009A6002207C
S1133E60854B9847854B98479423FB181800844B3F
S1133E7098479423FB18802212029A609423FB181B
S1133E8000221A709423FB1803225A709423FB18FF
S1133E9000229A709423FB180022DA709423FB18F2
S1133EA001221A719423FB1800225A739423FB18DD
S1133EB000221A739423FB181800724B98470520AC
S1133EC0714B9847C0460520704B984703001A0071
S1133ED001235340DBB2002BF5D1664A938A80213B
S1133EE00B4393828023FB181800694B9847802367
S1133EF0FB1804221A708023FB1800225A70654BA9
S1133F001B689B0EA422BA181360A423FB181B6819
S1133F103F2B03D11F23A422BA181360A423FB1838
S1133F201B68DAB28023FB181A728023FB18002264
S1133F305A808023FB180022DA718023FB180022A8
S1133F409A718023FB1800229A808023FB18524A1E
S1133F501A828023FB1807221A738023FB183F223E
S1133F60DA818023FB1818004C4B98477C23FB18FC
S1133F7018004B4B98477C23FB1800221A707C23B3
S1133F80FB1801229A707C23FB1800225A707C23B0
S1133F90FB181800434B984706203B4B9847424B6D
S1133FA098476423FB181800404B98476423FB1878
S1133FB005221A706423FB1801225A606423FB183B
S1133FC000221A726423FB1800225A726423FB181D
S1133FD019000120364B98470120364B98470C2393
S1133FE0FB181800344B98470C23FB1801221A7055
S1133FF00C23FB1819000020304B98470020304B4D
S113400098470720204B9847C04607201F4B9847E6
S113401003001A0001235340DBB2002BF5D100202A
S1134020284B984700210020274B98470021012066
S1134030254B984700210220234B98473B0018004A
S11340401A4B98473B0007221A703B0001225A6022
S11340503B0000221A723B0000225A723B001900F6
S11340600020134B98470020124B9847C046BD468A
S11340702AB080BD0008004031390000193E00001C
S113408001380000F93A0000E93C0000953D0000C9
S11340906B38000024608000B9050000193C000062
S11340A049380000813A000071410000BD3700002A
S11340B0A1410000C5420000EB370000F9430000B5
S11340C03D440000BD380000DD38000080B582B0FA
S11340D000AF02003960FB1D1A70FB1D1B78012B19
S11340E00AD0022B0FD0002B14D10E4B0D4A91692C
S11340F03A680A439A610FE00A4B0A4AD1693A685E
S11341000A43DA6108E0074B064A116A3A680A432F
S11341101A6201E0172300E000231800BD4602B034
S113412080BDC0460004004080B500AF024B9847F4
S1134130C046BD4680BDC0465535000080B500AFC1
S1134140024B9847C046BD4680BDC046A935000015
S113415080B500AF054B5B78DBB25BB2002B01DAB4
S1134160012300E000231800BD4680BD000C004080
S113417080B500AF08210020074B9847074B012268
S11341801A70C046054B1B78DBB21A00012313409A
S1134190F8D1C046BD4680BDCD400000000C0040B3
S11341A080B586B000AF02003960FB1D1A70FB1D9C
S11341B01B787B61FB1D1B783B613B681B781B02F2
S11341C01A007B6913437B613B685B78002B04D046
S11341D07B698022D20213437B613B685B7A002BAC
S11341E004D07B698022120313437B613B685B68C4
S11341F0012B2CD93B685A683B685B68013B134030
S11342001AD10023FB600223BB6005E0FB68013385
S1134210FB60BB685B00BB603B685A68BB689A4242
S1134220F4D8FB681B023A6913433B617B69802223
S1134230520313437B610AE03B685B681B023A69E3
S113424013433B617B698022920213437B613B6889
S11342501B7A002B04D07B698022920313437B6179
S1134260C046134B9847031EFBD1124B9847124A82
S1134270FB1D1B781370C0460D4B9847031EFBD1E2
S11342800E4B3A699A60C046094B9847031EFBD10E
S11342900A4B0A4A51688022520211407A690A4341
S11342A05A60074B9847C046BD4606B080BDC0461D
S11342B05141000029410000080C0040000C00405E
S11342C03D41000080B582B000AF0200FB1D1A70B2
S11342D0C0460E4B9847031EFBD10D4B98470D4A21
S11342E0FB1D1B781370C046084B9847031EFBD177
S11342F0094B094A5268802149020A435A60074B14
S11343009847C046BD4602B080BDC046514100003A
S113431029410000040C0040000C00403D41000015
S113432080B586B000AF0200FB1D1A70C0462A4B50
S11343309847031EFBD1294B9847294AFB1D1B783C
S11343401370C046244B9847031EFBD1254B5B6872
S1134350DB04DB0EDBB21800234B984703007B61C0
S11343601F4AFB1D1B7813701E4B5B68DB02DB0FBF
S1134370DAB21323FB181A701C4AFB1D1B78137046
S1134380C046154B9847031EFBD1164B9B681B0276
S11343901B0C9BB2FB60164B98471323FB181B782E
S11343A0002B09D1FB68012B06D9124BF9687869F7
S11343B0984703007B610AE01323FB181B78002B4A
S11343C005D0FB6801337A69DA4013007B617B69AD
S11343D01800BD4606B080BD5141000029410000CF
S11343E0040C0040000C0040C5390000080C0040DB
S11343F03D410000615F000080B584B000AF020061
S11344003960FB1D1A70FB1D1B78FB603B681B7831
S11344101B021A00FB681343FB60FB1D1B7818008A
S1134420044B9847044BFA6892B25A80C046BD4682
S113443004B080BD85440000000C004080B582B00B
S113444000AF0200FB1D1A700A4B98470A4AFB1D75
S11344501B7813700949094B5B889BB28022D201F7
S113446013439BB24B80064B9847C046BD4602B0EF
S113447080BDC04629410000020C0040000C0040F1
S11344803D41000080B584B000AF0200FB1D1A70EE
S11344901C4B98471C4AFB1D1B7813701B4B5B88F5
S11344A01B051B0FDBB2FB60184A538818490B40ED
S11344B05380164A154B5B889BB216490B409BB23E
S11344C05380C046114B5B889BB21A008023DB01EA
S11344D01340F7D10D4AFB68DBB2191C0F230B40C4
S11344E0D9B25388081C0F210140080208490B4027
S11344F0191C031C0B435380074B9847C046BD4609
S113450004B080BD29410000020C0040000C0040B2
S1134510FFF0FFFFFFBFFFFF3D41000080B584B007
S113452000AF0200FB1D1A700D4B98470D4AFB1D8E
S11345301B7813700C4B5B881B051B0FDAB20F231F
S1134540FB181A70094B98470F23FB181B781800A7
S1134550074B984703001800BD4604B080BDC04611
S113456029410000020C0040000C00403D410000C5
S11345702143000080B584B000AF0200FB1D1A7017
S11345800F23FB18FA1D1278D2091A700E23FB1898
S1134590FA1D127852091A700D4BBB600F23FB18D9
S11345A01B78002B0FD10F23FB181B789B001022C4
S11345B09446BC446344083B1A680E23FB181B78DA
S11345C0DB01D31800E000231800BD4604B080BD11
S11345D00044004180B588B000AFF860B9607A60EB
S11345E00023FB617B68DB7801225340DBB2002BA4
S11345F035D07B681B78802B0BD0FB69802252025C
S11346001343FB617B681B781B061A00FB69134389
S1134610FB617B685B78002B03D07B685B78022BA3
S113462010D1FB69802292021343FB617B689B7863
S1134630002B04D0FB698022D2021343FB61FB6888
S1134640BA685A607B685B78012B03D07B685B781F
S1134650022B07D1FB69224A1340FB6102E0FB688D
S1134660BA685A60BB681B041B0CBB61BB681B0C9B
S11346707B61BA69FB691343A022D2051A43FB6824
S11346809A627A69FB691343D02212061A43FB68C3
S11346909A627B68DB7801225340DBB2002B1AD08C
S11346A0FA698023DB0213400AD07B689B78012BD4
S11346B003D1FB68BA689A6102E0FB68BA685A6180
S11346C07B685B78012B03D07B685B78022B02D17B
S11346D0FB68BA689A60C046BD4608B080BDC04653
S11346E0FFFFFBFF80B584B000AF02003960FB1D03
S11346F01A70FB1D1B7818000A4B98470300FB60D7
S1134700FB1D1B781F22134001229A401300BB603B
S11347103A68B968FB681800034B9847C046BD4621
S113472004B080BD75450000D545000080B500AFDC
S1134730C046BD4680BD000080B500AF064B98471B
S1134740064B9847064B9847064B9847064B9847A5
S1134750C046BD4680BDC046513E0000E53600005F
S11347602D4700002D4700002D47000080B582B082
S113477000AF2F4B7B602F4B3B607A683B689A42BB
S11347800CD007E03B681A1D3A607A68111D796005
S113479012681A603A68284B9A42F3D3274B3B605D
S11347A004E03B681A1D3A6000221A603A68244B00
S11347B09A42F6D3234B7B60234B7A68FF218A43CA
S11347C09A60224A90235B000221D150204AD37878
S11347D003218B43191C02230B43D3701C4AD37847
S11347E00C218B43191C08230B43D370194A937B68
S11347F030218B43191C20230B439373154A937B5D
S11348000C218B43191C08230B439373114A937B8C
S113481003218B43191C02230B4393730E4A5368E1
S113482080210B4353600D4B98470D4B9847FEE78F
S11348308C970000000000201C0200201C020020B5
S11348409C0300200000000000ED00E00070004127
S1134850005000410048004100400041257A00001A
S1134860A55E000080B500AFFEE7000080B584B00F
S113487000AF78600A4B1B68002B02D1084B094A31
S11348801A60074B1B68FB60054B1A687B68D218DB
S1134890034B1A60FB681800BD4604B080BDC046D7
S11348A080020020A023002080B582B000AF786091
S11348B001235B421800BD4602B080BD80B582B0C2
S11348C000AF786039603B68802292015A6000230F
S11348D01800BD4602B080BD80B582B000AF7860DC
S11348E001231800BD4602B080BD80B584B000AF7E
S11348F0F860B9607A6000231800BD4604B080BD3A
S113490080B584B000AF0200FB1D1A700F23FB18A2
S1134910FA1D1278D2091A700E23FB18FA1D1278A8
S113492052091A700D4BBB600F23FB181B78002B28
S11349300FD10F23FB181B789B0010229446BC4414
S11349406344083B1A680E23FB181B78DB01D31859
S113495000E000231800BD4604B080BD00440041BF
S113496080B584B000AF78607B681B68FB60FB682F
S11349705B7EDBB25BB2002B01DA012300E0002393
S11349801800BD4604B080BD80B586B000AF786025
S11349907B681B683B613B691B7EDBB2FB600023C9
S11349A07B61FB680122134003D07B69012213431E
S11349B07B61FB680422134003D07B69022213430A
S11349C07B61FB680222134003D07B6904221343FA
S11349D07B617B691800BD4606B080BD80B584B09C
S11349E000AF786039607B681B68BB600023FB60A4
S11349F03B680122134003D0FB6801221343FB6090
S1134A003B680222134003D0FB6804221343FB607B
S1134A103B680422134003D0FB6802221343FB606B
S1134A20FB68DAB2BB681A76C046BD4604B080BDE6
S1134A3080B584B000AF78607B681B68FB60C046BB
S1134A407B6818000E4B9847031EF9D1FB680F22B0
S1134A509A75FB680F221A76FB681B78DBB2022278
S1134A601343DAB2FB681A70C0467B681800044B23
S1134A709847031EF9D100231800BD4604B080BD39
S1134A806149000080B584B000AF78607B681B6822
S1134A90FB60C0467B6818000B4B9847031EF9D196
S1134AA0FB681B7BDBB202221343DAB2FB681A7386
S1134AB0C0467B681800044B9847031EF9D1C046D2
S1134AC0BD4604B080BDC0466149000080B584B0D5
S1134AD000AF786039607B681800184B9847020073
S1134AE00123134001D1052323E07B681B68FB608D
S1134AF0C0467B681800124B9847031EF9D1FB6827
S1134B005B8B9AB23B681A807B68012118000D4BBD
S1134B1098477B681800094B984702000423134008
S1134B2006D07B6804211800064B98471E2300E03A
S1134B3000231800BD4604B080BDC046894900006A
S1134B4061490000DD49000080B582B000AF020079
S1134B50FB1D1A70064BFA1D127811001F220A4021
S1134B60012191400A001A60C046BD4602B080BDD2
S1134B7000E100E080B584B000AF78607B681B681A
S1134B80FB60FB68DB69072213405A1E9341DBB2CA
S1134B901800BD4604B080BD80B582B000AF786017
S1134BA0C0467B681800044B9847031EF9D1C046E1
S1134BB0BD4602B080BDC046754B000080B582B0D2
S1134BC000AF78607B6864221A607B681B4A5A6075
S1134BD07B6800229A607B6800221A737B6800223B
S1134BE01A767B68802292031A617B680122524202
S1134BF0DA827B68012252429A827B680022DA615F
S1134C007B6800221A627B682422002199547B6805
S1134C1000229A627B682C22002199547B682D2201
S1134C20002199547B682E22002199547B68D72255
S1134C301A86C046BD4602B080BDC046480D00007D
S1134C4080B584B000AF78607B681B68BB600023CC
S1134C50FB607B681800144B9847BB681B680222F2
S1134C601A43BB681A607B681B6818000F4B98478F
S1134C70030018000E4B98470CE0FB680133FB60FF
S1134C807B68DB881A00FB689A4203D8BB68102251
S1134C905A8306E0BB685B8B9BB21A001023134057
S1134CA0EBD0BD4604B080BD994B000081340000B8
S1134CB0494B000080B582B000AF0200FB1D1A70A2
S1134CC0FB1D1B781800034B984703001800BD46D2
S1134CD002B080BD0149000080B582B000AF7860A9
S1134CE07B6800221A707B6801225A707B6800225C
S1134CF09A70C046BD4602B080BD000080B584B045
S1134D0000AF0200FB1D1A70FB1D1B7818000B4B33
S1134D1098470300FB60FB1D1B781F2213400122F0
S1134D209A401300BB60FB681B6ABA6813405A1EA2
S1134D309341DBB21800BD4604B080BDB54C000001
S1134D4080B584B000AF0200FB1D1A70BB1D0A1CA5
S1134D501A70FB1D1B7818000D4B98470300FB606D
S1134D60FB1D1B781F22134001229A401300BB60D5
S1134D70BB1D1B78002B03D0FB68BA689A6102E064
S1134D80FB68BA685A61C046BD4604B080BDC046DF
S1134D90B54C000080B582B000AF78600A00FB1CFF
S1134DA01A707B685B7EDBB25AB2FB1C1B78012154
S1134DB099400B005BB213435BB2DAB27B685A765C
S1134DC0C046BD4602B080BD80B584B000AF7860F7
S1134DD07B681B68FB60FB68DB695A1E9341DBB28E
S1134DE01800BD4604B080BD80B582B000AF7860C5
S1134DF0C0467B681800044B9847031EF9D1C0468F
S1134E00BD4602B080BDC046C94D000080B582B029
S1134E1000AF78607B688022D2051A607B6800222C
S1134E205A607B68FF221A817B6800229A727B6831
S1134E300022DA727B68962292011A627B6824222D
S1134E40012199547B682522012199547B682622EB
S1134E50002199547B682722002199547B68002201
S1134E609A627B6888225203DA607B682C220021D4
S1134E7099547B682D22002199547B6800221A637F
S1134E807B6800225A637B6800229A637B68002255
S1134E90DA637B6800225A617B6800221A827B688D
S1134EA00022DA767B6800221A767B6800221A7761
S1134EB07B6800225A767B6813229A767B680022EC
S1134EC05A77C046BD4602B080BD000080B584B0AC
S1134ED000AF78607B681B68FB607B681B68180008
S1134EE0094B984703001800084B98477B68180043
S1134EF0074B9847FB681B6802221A43FB681A6039
S1134F00C046BD4604B080BD81340000494B00005A
S1134F10E94D000080B584B000AFF860B9607A60F4
S1134F207A68B968FB681800054B9847031E01D1DD
S1134F30012300E000231800BD4604B080BDC04634
S1134F40852A000080B582B000AF78600A00FB1C9F
S1134F501A70C046FB1C1B789AB27B6811001800BB
S1134F60044B9847031EF5D100231800BD4602B038
S1134F7080BDC046F92C000080B584B000AF7860D5
S1134F8039600E23FB1800221A80C0460E23FA183B
S1134F907B6811001800074B9847031EF6D10E23B7
S1134FA0FB181B88DAB23B681A70C046BD4604B0D1
S1134FB080BDC0465D2D000080B584B000AFF860B0
S1134FC0B9607A60104BFA681A60104B104A1A6084
S1134FD0104B114A1A607A68B968FB6818000F4BC5
S1134FE098470F4B1B689B68002118000D4B98478E
S1134FF00B4B1B685B68002118000A4B9847C0469E
S1135000BD4604B080BDC04600030020FC02002061
S1135010454F0000F8020020794F0000154F0000B2
S11350204C000020697D000090B587B002AF0200FB
S11350303960FB1D1A7001235B42FB60FB1D1B786A
S1135040612B02D0622B15D028E03B68082B02D0DC
S1135050092B03D005E00823FB600BE00923FB6068
S113506008E01148032300930223092208210F4C6E
S1135070A047C0463B68022B02D0032B03D005E0B7
S11350802223FB600AE02323FB6007E00648032396
S11350900093022309220821044CA047FB6818004E
S11350A0BD4605B090BDC0465C8F00003D7C00004D
S11350B080B500AF034B1800034B9847C046BD466C
S11350C080BDC046888F0000317D000080B500AFF0
S11350D0044A054B11001800044B9847C046BD46CE
S11350E080BDC04638920000409200003D7C000024
S11350F080B500AF044A054B11001800044B9847D3
S1135100C046BD4680BDC0463892000040920000B3
S11351103D7C000080B584B000AF02003960FB1D07
S11351201A703A68FB1D1B78110018000D4B984744
S11351300300FB60FB6801330FD03B6818000A4B87
S11351409847FB68DBB201211800084B9847FA68BE
S1135150074B11001800074B9847C046BD4604B0E2
S113516080BDC04629500000315C0000414D000064
S1135170509200003D7C000080B584B000AF020076
S11351803960FB1D1A703A68FB1D1B78110018006A
S11351900D4B98470300FB60FB6801330FD03B685D
S11351A018000A4B9847FB68DBB200211800084B33
S11351B09847FA68074B11001800074B9847C046F8
S11351C0BD4604B080BDC04629500000315C0000DB
S11351D0414D0000649200003D7C000080B584B025
S11351E000AF02003960FB1D1A703A68FB1D1B7882
S11351F0110018000C4B98470300FB603B68180033
S11352000A4B9847FB68DBB21800094B9847030028
S1135210BB60BA68F968074B1800074B9847C0464B
S1135220BD4604B080BDC046295000006D5C00003E
S1135230FD4C0000789200003D7C000080B500AF7A
S1135240034B1800034B9847C046BD4680BDC0467B
S11352508C920000317D000080B500AF034B180034
S1135260034B9847C046BD4680BDC0469C92000093
S1135270317D000080B586B000AFF860B9607A6017
S1135280FA680B4B110018000A4B9847031E0BD108
S1135290094B9847094B984703007B617A69084B8F
S11352A011001800074B9847C046BD4606B080BDA4
S11352B0B0920000D57E000025030000BD0400006C
S11352C0B49200003D7C000080B586B000AF0200BF
S11352D03960FB1D1A7001235B427B61FB1D1B7847
S11352E0612B23D13B68022B02D100237B611DE09B
S11352F061233B612D4B984702003B690133D3186E
S11353001B781A0003231340022B02D13B69203B74
S113531000E03B69264802221900264B98473A6868
S1135320254B11001800234B9847C0466123FB60AE
S11353301E4B98470200FB680133D3181B781A00F0
S113534003231340022B02D1FB68203B00E0FB68DF
S11353501A4802221900174B9847FB1D1B781800A6
S1135360144B9847C0467B6901331AD07B691800F7
S1135370134B9847134B1800134B98470A23FA18FA
S1135380104B11001800114B98470300052BF5D062
S11353900A23FB181B881A0079690D4B1800054B6A
S11353A09847C046BD4606B080BDC046757A000029
S11353B0C89200003D7C0000189300001C9300007C
S11353C0D15B0000F0020020854A0000CD4A0000B5
S11353D06C930000F0B585B000AF18237B607B6848
S11353E01800364B9847364B1800364B98473A000E
S11353F0334B11001800344B98470300052BF6D0AB
S11354003B001B881BB2002B22DB3B001B881B0AC2
S11354109BB21A002D4B1000984705000E003B006C
S11354201B881B110F221A40284B10009847284C48
S11354300022284BA04703000C001A002300264C2E
S113544028003100A04703000C00BB60FC6026E08C
S11354503B001A88BB1C52421A80BB1C1B881B0AC7
S11354609BB25A42194B1000984705000E00BB1C12
S11354701B881B110F221A40144B10009847144C20
S11354800022144BA04703000C001A002300134C05
S113549028003100A04703000C00BB60FC60104BE7
S11354A0B868F968984702000E4B110018000E4BBB
S11354B09847C046BD4605B0F0BDC046D15B00006C
S11354C0F0020020854A0000CD4A0000E97800007F
S11354D0556D00000000E03FCD60000055720000F3
S11354E081780000849300003D7C000090B583B077
S11354F000AF214B9847214B984700237B6033E052
S11355007B689AB21E4B1A807B689AB21D4B1A8034
S11355101B4B01225A801C4B05221A70184B1A4A45
S11355205A60FC1C164A194B11001800184B984776
S113553003002370FB1C1B78002B0ED1FC1C114AAA
S1135540124B11001800134B9847030023707A681C
S1135550114B11001800114B98470C4B1800104BBD
S113556098477B6801337B607B687F2BC8DDC0462E
S1135570BD4603B090BDC0469D5A00002D5B00009F
S113558034000020400000202C000020C80200202D
S1135590E9180000F11600009C9300003D7C000017
S11355A02919000080B582B000AF78607A68044B96
S11355B011001800034B9847C046BD4602B080BD99
S11355C0B49300003D7C000090B585B000AFF86056
S11355D0B9607A607B68BA68F9680348034CA047ED
S11355E0C046BD4605B090BD009400003D7C00005F
S11355F080B598B000AF786039603B681A68CD4BCD
S113560011001800CC4B9847031E0FD10123FB65F2
S11356107A68FB6D9A4206D07A68F96DC54B18001A
S1135620C64B98471BE2C64B984718E23B681A687A
S1135630C44B11001800C04B9847031E0FD101231F
S1135640BB657A68BB6D9A4206D07A68B96DBD4B6A
S11356501800BA4B984702E2BB4B9847FFE13B68FE
S11356601A68BA4B11001800B34B9847031E0FD1A8
S113567001237B657A687B6D9A4206D07A68796DDE
S1135680B24B1800AD4B9847E9E1B14B9847E6E1BE
S11356903B681A68AF4B11001800A74B9847031ECC
S11356A034D103233B657A683B6D9A4206D07A680D
S11356B0396DA84B1800A14B9847D0E13B680433DF
S11356C01A684F23FB1812781A703B6808331B685A
S11356D01800A14B98470300BB64A04B98470200F5
S11356E0BB6C0133D3181B781A000423134008D071
S11356F0BA6C4F23FB181B7811001800984B98477D
S1135700ADE1944B1800974B9847A8E13B681A68A1
S1135710954B11001800884B9847031E34D103237E
S11357207B647A687B6C9A4206D07A68796C8E4B7B
S11357301800824B984792E13B6804331A6843236C
S1135740FB1812781A703B6808331B681800824BE8
S113575098470300FB63814B98470200FB6B0133BE
S1135760D3181B781A000423134008D0FA6B432380
S1135770FB181B78110018007C4B98476FE17A4B9B
S11357801800784B98476AE13B681A68784B110017
S11357901800694B9847031E34D10323BB637A680E
S11357A0BB6B9A4206D07A68B96B714B1800634B95
S11357B0984754E13B6804331A683723FB1812787E
S11357C01A703B6808331B681800634B9847030042
S11357D03B63624B984702003B6B0133D3181B7841
S11357E01A000423134008D03A6B3723FB181B78A4
S11357F0110018005F4B984731E15D4B1800594B7D
S113580098472CE13B681A685B4B110018004A4B1F
S11358109847031E0FD10123FB627A68FB6A9A4200
S113582006D07A68F96A544B1800444B984716E13D
S1135830524B984713E13B681A68514B110018000A
S11358403D4B9847031E0FD10123BB627A68BB6AA4
S11358509A4206D07A68B96A494B1800374B984780
S1135860FDE0484B9847FAE03B681A68464B110044
S11358701800314B9847031E46D104237B627A6893
S11358807B6A9A4206D07A68796A3F4B18002B4BA0
S11358909847E4E03B6808331B6818002E4B984790
S11358A003003B623B680C331B6818002A4B984783
S11358B00300FB61294B984702003B6808331B68CF
S11358C01B780133D3181B781A000423134016D015
S11358D0224B984702003B680C331B681B7801334A
S11358E0D3181B781A000423134008D03B680433F0
S11358F01B68FA69396A1800244B9847AFE0224BB9
S11359001800184B9847AAE03B681A68204B11000E
S11359101800094B9847031E67D10323BB617A68BB
S1135920BB699A4236D07A68B969194B1800034B9F
S1135930984794E06C940000D57E0000C95500009F
S1135940B150000074940000CD5000007C9400001D
S1135950F150000084940000197A0000757A000068
S113596015510000A55500009094000079510000E5
S11359709C940000DD510000A89400003D520000FA
S1135980AC94000059520000B0940000755200001D
S1135990B89400003B6804331A681723FB18127884
S11359A01A703B6808331B6818002E4B9847030095
S11359B03B612D4B984702003B6808331B681B78FA
S11359C00133D3181B781A000423134008D03A6912
S11359D01723FB181B7811001800244B98473EE04E
S11359E0234B1800234B984739E03B681A68224B35
S11359F011001800214B9847031E0FD10123FB60AF
S1135A007A68FB689A4206D07A68F9681A4B1800DB
S1135A101B4B984723E01B4B984720E03B681A68D0
S1135A20194B11001800154B9847031E13D101237D
S1135A30BB607A68BB689A4206D07A68B968124B30
S1135A4018000F4B98470AE0104B1800104B98476A
S1135A50104B984703E0104B18000D4B9847BD4678
S1135A6018B080BD197A0000757A0000C952000090
S1135A70B8940000A5550000C0940000D57E000035
S1135A80C9550000D5530000CC940000D894000000
S1135A90317D0000ED540000EC94000080B58EB020
S1135AA000AF3B1D1800104B98473B1D012252428A
S1135AB0DA823B1D0D4ADA613B1D0D4A1A623B1D19
S1135AC000221A73C0463A1D0A490B4B18000B4BAF
S1135AD09847031EF7D1084B1800094B9847C04656
S1135AE0BD460EB080BDC046BD4B0000030008009B
S1135AF00300090000100042C8020020391200000F
S1135B00414C000080B582B000AF7860044A054B78
S1135B1011001800044B9847C046BD4602B080BD32
S1135B2040000020C8020020691D000080B500AFBD
S1135B300649074B00221800064B9847044B0021E6
S1135B401800054B9847C046BD4680BD055B000064
S1135B50C8020020C91B0000954D000080B590B01C
S1135B6000AF3B001800134B98473B00962292016C
S1135B701A623B00C4229203DA603B0001225242C3
S1135B801A633B00012252425A633B000A4A9A6359
S1135B903B000A4ADA633A0009490A4B18000A4BE7
S1135BA09847084B1800094B9847C046BD4610B0AB
S1135BB080BDC0460D4E000003002A0003002B00E8
S1135BC00018004294020020B94F0000CD4E00009E
S1135BD080B58EB000AF78600823FB1818000F4B17
S1135BE098477B68DAB20823FB181A730823FB185A
S1135BF002225A700823FB18802292005A8008233C
S1135C00FA180749074B1800074B9847054B18002B
S1135C10064B9847C046BD460EB080BD59060000ED
S1135C2000400042F0020020A90C0000314A0000AC
S1135C3080B584B000AF78600C23FB181800094BC2
S1135C4098470C23FB1801221A707B68DBB20C22E4
S1135C50BA1811001800044B9847C046BD4604B05A
S1135C6080BDC046D94C00005D37000080B584B0CB
S1135C7000AF78600C23FB1818000B4B98470C23DB
S1135C80FB1800221A700C23FB1801225A707B683F
S1135C90DBB20C22BA1811001800044B9847C04616
S1135CA0BD4604B080BDC046D94C00005D3700003D
S1135CB080B500AF044B01221A70BFF35F8F62B648
S1135CC0C046BD4680BDC0462800002080B582B0D5
S1135CD000AFF91D324B01221800324B98470300E4
S1135CE01A00BB1D1A70BB1D1B78DBB2002B01D040
