:1000000070230020D1230000CD230000CD23000069
:1000100000000000000000000000000000000000E0
:10002000000000000000000000000000CD230000E0
:100030000000000000000000CD230000CD230000E0
:10004000CD230000CD230000CD230000CD230000F0
:10005000CD230000CD230000CD230000CD230000E0
:10006000CD230000051B0000151B0000251B000010
:10007000351B0000451B0000551B0000CD23000070
:10008000CD230000CD230000CD230000CD230000B0
:10009000CD2300000000000000000000CD23000080
:1000A000CD230000CD230000CD230000CD23000090
:1000B0000000000010B5064C2378002B07D1054B3B
:1000C000002B02D0044800E000BF0123237010BDC4
:1000D000FC01002000000000CC670000084B10B5B8
:1000E000002B03D00749084800E000BF0748036819
:1000F000002B00D110BD064B002BFBD09847F9E731
:100100000000000000020020CC670000CC67000067
:100110000000000070B50020084B98470500084C0F
:10012000FA218900A047074B186007492800A0471B
:10013000064B18600522064B1A6070BD5D21000059
:10014000793000000000002040420F000400002031
:1001500010E000E010B50022002302704270002180
:100160004280017103760262C26182600373C0241F
:100170006401C481037443748374C37403752A24B3
:10018000035543758375063C0355C2840285C175CA
:100190002B23C1540133C15410BD0000F0B5D64625
:1001A0004F464646C0B596B0070016000160CB4AE0
:1001B000106A80235B02034313620B780520DB0780
:1001C00005D516B01CBC90469946A246F0BD0B78EA
:1001D00017309B07F5D473783B71002B04D1C04ACC
:1001E000136C04210B4313643B68984633786A46CA
:1001F000137069461E20BB4B98471E20BA4B984788
:100200002C23F25C002A54D0013BF55C337BEB18C5
:10021000DBB2D118C9B28B4221D25219D3B299465E
:10022000B24B9A4603E00135EDB2A94517D00F2431
:100230002C40337BE4185022AD4902A8D047132C40
:10024000F1D8A40002ABE05801A900234B70CB7099
:100250008B7001330B70C0B2A64B9847E3E7F4896B
:100260005022A34902A8A14B9847132C13D9737DA0
:100270009B00DBB242461370B37DDB0172781343FF
:10028000DBB2424653703379342B00D978E19B00BE
:10029000994AD3589F46A40002ABE05801A9002315
:1002A0004B70CB708B7001330B70C0B2914B984781
:1002B000DDE7347B50228E4902A88C4B9847132CE3
:1002C00015D9F48950228A4902A8884B9847132CE3
:1002D000CDD8A40002ABE05801A900234B70CB702D
:1002E0008B7001330B70C0B2824B9847BFE7A400FC
:1002F00002ABE05801A900234B70CB708B70013327
:100300000B70C0B27B4B9847DBE70423102402211B
:100310001AE0717C337C102416E00623102401219E
:1003200012E00823102400210EE0002330240021D5
:100330000AE000232024002106E0002300240021FD
:1003400002E0022310240121090170220A40134314
:1003500042469370F37D17203F2B00D931E7D370CD
:100360003A68537E5BB2002BFBDBF37C728813434D
:100370002422B25CD2001343327D92001343B27C3C
:1003800052001343234342469380337E002B20D0F8
:10039000102C00D1D6E000D880E0202C00D1B3E0B2
:1003A000302C16D1F27C002A0AD0F2698032172054
:1003B000FF2A00D905E7326A8032FF2A00D900E718
:1003C0001720F269FF2A00DDFBE6326AFF2A00DD12
:1003D000F7E639684A7E52B2002AFBDB42461372C6
:1003E0003A68537E5BB2002BFBDBB38B42469383B0
:1003F0003A68537E5BB2002BFBDB338C424613849E
:100400002C23F35C002B05D0013BDBB217200F2B14
:1004100000D9D6E62B22B15C17200F2900D9D0E6EF
:100420003868427E52B2002AFBDBF289307B0243FD
:10043000B068024309050A431B0413434246136193
:100440002A23F35C13750F2393751533F35C002B8C
:1004500012D0F38C294A1720934200D9B1E64246C4
:100460009384328D80231B01D31824499BB28B4285
:1004700000D9A6E64346DA84214B1B685B01E022E3
:10048000D20013401F4A516849011268D20E0A4334
:10049000D2B2134342461385002092E6002C98D135
:1004A000F27C002A0FD0F269802109018C46624457
:1004B000124917208A4200D983E6326A62440F4902
:1004C0008A4200D97DE60D4A1720F169914200DD8C
:1004D00077E6316A914200DD73E67AE70004004076
:1004E0000008004075220000E92100005D4B00007B
:1004F000145F00006D230000405E0000FF0F00004D
:100500002460800020608000F27C002A0FD0F26915
:10051000802189008C4662441A4917208A4200D9FA
:100520004FE6326A624417498A4200D949E6154AC1
:100530001720F169914200DD43E6316A914200DD06
:100540003FE646E7F27C002A0FD0F26980210902DB
:100550008C4662440C4917208A4200D931E6326A3F
:10056000624409498A4200D92BE6074A1720F169FB
:10057000914200DD25E6316A914200DD21E628E75F
:1005800017201EE6FF030000FFFF0000016807229E
:10059000CB691A42FCD17047F0B5D6464F46464665
:1005A000C0B58AB006000F00140031600800A04BEF
:1005B0009847A04A116A851C0123AB400B43136284
:1005C00009A9237B0B701430C5B228009A4B9847B9
:1005D00028009A4B9847207B0021994B98473B680D
:1005E0001C209B0705D50AB01CBC90469946A24624
:1005F000F0BD3B681738DB07F5D430688C4B994663
:10060000984705008F49904B9847AD008F4BEE50AF
:1006100000233376737600257383B3832522B55484
:10062000336214333B60336898461800C8478146EC
:10063000802308AA1370557001239370D570E06968
:10064000276A002800D1AFE008AB1870022308AA7F
:100650005370000CC0B211007D4B9847002F00D1A1
:10066000A7E008AB1F70022308AA53703F0CF8B232
:100670001100774B9847A38AF380E38A3381237E66
:100680008022002B04D1734B9B789B07DB0FDA0190
:10069000A16823690B4313432422A25C002A02D0E1
:1006A0008022D2051343A26A13432C22A25C002AA3
:1006B00003D180229204914202D180221205134379
:1006C0002D22A25C002A02D08022120413432E2283
:1006D000A25C002A02D08022D20313434246126851
:1006E00013434246136080235B0053604846143036
:1006F000C0B2594B98470790FA239B0022685A438F
:10070000914663689A46554DA847009001914B4623
:100710005800A84702900391208EA84704900591A5
:100720004F4F504A504B00980199B84702000B00B8
:1007300004980599B8474D4E00224D4BB0470490A0
:1007400005914846A84702000B0004980599B84750
:1007500002000B00474D00980199A847029A039B9D
:10076000B0470022444BA847029A039B434DA84739
:10077000434B9847050080239B04A2689A421ED0F1
:1007800003004020FF2D00D92DE700240020FF2585
:100790001D40240625430004FF231B041840054385
:1007A0004346DD6000201EE700214046354B984758
:1007B0004AE701214046334B9847070051E7FA26A4
:1007C000B60053465E430098019902000B00274C87
:1007D000A047009001913000204B984700222A4BFF
:1007E000B84702000B0000980199244CA047002252
:1007F000214B204CA047224B9847041E0CD03100BF
:100800000798224B98470238001B2B00FF2D0CD86D
:10081000FF28BCD94020E6E67100481E079B9C4695
:1008200060441A4B98470138EFE74020DBE6C046AA
:10083000FD1200000004004075220000E9210000C4
:1008400039110000D50D0000991A00007402002033
:100850006D2300000020004191220000014A0000A9
:100860006D3E000095D626E80B2E113EE5310000C6
:10087000000024406D4300000000F03F05380000F8
:1008800099490000851100000000084079300000FF
:1008900003681A7E920707D502221A765B8B9B07A4
:1008A0004120DB17184070475A8B520706D559680C
:1008B000C02292020A435A601820F4E70020F2E7AF
:1008C00030B50268002301240225117E21420BD19C
:1008D000117E294206D101339BB201899942F4D895
:1008E000122002E0002000E0002030BD10B50468B6
:1008F00062688023DB02134363606162024B9847A6
:100900000123237610BDC046C1080000F0B5DE46C5
:1009100057464E464546E0B583B006008946056811
:100920004C882B681B01DB0F9A464B7A002B2BD18E
:100930006B68584A13406B604B461B7A002B27D1DB
:100940004B461B885B004A46527A920313430122AE
:1009500013436B623000504B984701905346002B75
:1009600003D04B465B88012B3BD06B68494A134050
:100970006B60019B002B3AD0019803B03CBC9046C1
:100980009946A246AB46F0BD897A444B9847CFE7DB
:100990004B461B885B004A46527A920313438022DF
:1009A000120213436B6230003B4B984701906B6817
:1009B000384A13406B600028DED13000384B98472E
:1009C00001900028D8D14B461B881B0A782213437C
:1009D0005B004A46527A920301210A4313436B6239
:1009E000B8E76A688023DB0213436B60C1E730001D
:1009F0002B4B984701900028BED1013CA4B2804601
:100A0000284B9B4615E0012C20D03000264B984700
:100A100043465F1CBFB22823EB5C4A4652684146FE
:100A2000535430001C4B9847013CA4B2002815D108
:100A3000B8465C4514D06B8B9B0627D5F37A002B08
:100A4000E3D05346002BDED1002CDED16A68802330
:100A5000DB0213436B60013CA4B2EAE7B8460190A5
:100A6000B37A002B09D130000F4B98472823EA5C5A
:100A70004B465B6841465A547EE730000A4B984724
:100A80006A68C0239B0213436B60ECE74123019328
:100A900072E7C046FFFFFBFFC1080000ED08000041
:100AA00091080000FFFF00008D050000F0B5DE4654
:100AB00057464E464546E0B583B006000F00056830
:100AC0004C88324B98477B7A002B1DD16B68304A9B
:100AD00013406B603B7A002B1BD03B885B007A7A1B
:100AE000920313438022120213436B623000294B9E
:100AF00098470190002813D0019803B03CBC904661
:100B00009946A246AB46F0BDB97A3000224B9847D1
:100B1000DCE73B885B007A7A920313436B62E5E77C
:100B200030001E4B9847031E0190E5D1A0460024DB
:100B300020339946154B9B46164B9A46444515D093
:100B40006B8B4A4613421DD03000D8477B681A5D34
:100B50002823EA543000D047002806D16B8B01349B
:100B60005B07EBD51E23019300E00190B37A002BC5
:100B7000C2D03000054B98476A68C0239B021343DC
:100B80006B60B9E741230193B6E7C0468D050000CD
:100B9000FFFFFBFFC1080000ED0800009108000006
:100BA00010B5838B9BB20522002B01D0100010BD25
:100BB00001338372C372024B98470200F6E7C046C6
:100BC0000D09000010B5838B9BB20522002B01D0CC
:100BD000100010BD83720133C372024B98470200AC
:100BE000F6E7C046AD0A000010B50468034B98470D
:100BF0006268C0239B021343636010BD8D05000033
:100C000001680722CB691A42FCD1704770B5040015
:100C100006683268458B838BED1AADB2838B013B3E
:100C20009BB2838313011DD5C37A002B03D0838B22
:100C30009BB2012B10D0A38B9BB2002B02D1A37AC5
:100C4000002B1CD12000124B9847236A5D192823E2
:100C5000F35CDBB22B7070BD72688023DB02134340
:100C60007360E8E7C37A002BE5D0838B9BB2002B3F
:100C7000E1D172688023DB0213437360DBE720005D
:100C8000034B98477268C0239B0213437360D9E7F4
:100C9000010C000070B5040005686B8B5B0703D581
:100CA0001E222523C25470BD468B838BF61AB6B222
:100CB000838B013B9BB28383044B9847236A9E1925
:100CC0003378DBB22822AB54EDE7C046010C0000BC
:100CD000F8B505000C0006684B6803624B888383F7
:100CE00001222423C25404320133C25437683F0125
:100CF000FF0F4B7A002B17D1002F02D06388012BF6
:100D000016D07368204A13407360237A002B15D1E4
:100D10000323B37523885B00627A92031343012295
:100D2000134373620020F8BD897A184B9847E3E7B4
:100D300072688023DB0213437360E6E723885B005D
:100D4000627A9203134380221202134373622800D3
:100D50000F4B984773680C4A134073600028E2D128
:100D600028000C4B98470028DDD10323B375238856
:100D70001B0A782213435B00627A920301210A4323
:100D800013437362CFE7C046FFFFFBFFED0800008F
:100D9000C108000091080000931C9B00C318596013
:100DA000037E012191400B43DBB2037670470000C4
:100DB00010B5838B9BB20522002B01D0100010BD13
:100DC00001338372C372024B98470200F6E7C046B4
:100DD000D10C000070B58000754BC45825682B6895
:100DE0001B01DA0F637E267E1E40638B9BB2002BB5
:100DF00003D1A38B9BB2002B23D1638B9BB2002B1F
:100E000008D0A38B9BB2002B04D12533E35C052BC8
:100E100000D16DE0638B9BB2002B24D0A38B9BB2DF
:100E2000002B20D06B8B9B0600D581E0002A04D0DC
:100E3000A38B9BB2012B00D17AE041222523E254FF
:100E400011E02B7EDB0707D501232B766B8B9B07ED
:100E50002ED541222523E254A38B9BB26383252305
:100E6000E35C052B38D0638B9BB2002B07D0A38BA0
:100E70009BB2002B03D12533E35C052B64D02523E3
:100E8000E35C052B13D02523E35C002B0FD0032359
:100E90002B7500236383A3832533E35C412B03D0AD
:100EA000A37A002B00D075E0730700D57BE070BDFE
:100EB0006B8B5B07D0D518222523E2540023A38334
:100EC000A37A002BC8D020003A4B98476A68C02309
:100ED0009B0213436B60BFE71F33E35C002B03D01F
:100EE0002000354B9847BEE72000344B9847BAE7BF
:100EF0001F33E35C002B00D08CE703332B750023FA
:100F0000638325330022E254A37A002B07D1012307
:100F10002B76F307A7D5E36820009847A3E72000C6
:100F2000244B98476A68C0239B0213436B60F0E729
:100F30002423E35C002B03D12000204B984792E749
:100F400020001D4B98478EE71F33E35C012B96D1A1
:100F50002B7E9B0701D502232B7603232B750023C1
:100F6000638325330022E254B30703D52423E35CD3
:100F7000012B0BD0F30700D481E72423E35C002B83
:100F800000D07CE7E3682000984778E723692000D9
:100F9000984774E72000074B98476A68E023DB0214
:100FA00013436B6080E76369200098477FE7C04682
:100FB00074020020010C00000D0C0000950C0000D4
:100FC000F0B5DE4657464E464546E0B587B080460A
:100FD000049116001F000022002300218B463F24AD
:100FE00001202100009601975C4603944446059435
:100FF00013E02024641A0500E540A84614E0009C94
:10100000019D121BAB415C464D462C43A346039CFD
:1010100045462C430394013925D3202464420C19FE
:10102000E7D40500A540A84604008C40A1469218CC
:101030005B4114001D00059E4F463E40B446049E91
:1010400047463E40B246664657463E4303D00600FA
:10105000264332002B00009C019D9D42DBD8CED15F
:101060009442D8D8CBE7039B5846190007B03CBC44
:1010700090469946A246AB46F0BD10B549084023BC
:101080000024814202D2180010BD1C00091A631C02
:101090009BB28842F9D94023FF2CF4D81480002356
:1010A000F1E70000F0B583B00F00160008AA117830
:1010B00004004C434022BC4202D9100003B0F0BDF2
:1010C000002B14D1020008000021194CA047010098
:1010D0003A0000230020174CA04700220123121AD7
:1010E0008B41120C1B041A4332800022E5E70022D8
:1010F000012BF9D10A00002300210D4CA04702006A
:101100000B0000920193380000210A4CA047050013
:1011100080239B0140229842CFD8790FF800009A93
:10112000019BA047EA00821AD2B252032A43DBE7AE
:1011300091310000C10F000010B582B004000E4BC9
:101140001B78002B07D0002905D10B4B5B7883421D
:1011500010D01D200CE001A90C701320074B9847FC
:101160001320074B9847044B5C7001221A70002033
:1011700002B010BD0020FBE718020020752200001D
:10118000E9210000404B984231D00AD93F4B9842A8
:101190004DD03F4B98425AD03E4B984237D000201A
:1011A00070473D4B98420CD03C4B9842F7D10129F7
:1011B00017D000295DD0022915D0032915D00020B1
:1011C000EEE7012907D0002951D0022905D00329D3
:1011D00005D00020E4E73248E2E73248E0E7324851
:1011E000DEE73248DCE73248DAE73248D8E701295F
:1011F00007D000293FD0022905D0032905D00020BF
:10120000CEE72D48CCE72D48CAE72D48C8E701298D
:1012100007D0002931D0022905D0032905D00020AC
:10122000BEE72848BCE72848BAE72848B8E70129BC
:1012300007D0002923D0022905D0032905D000209A
:10124000AEE72348ACE72348AAE72348A8E70129EB
:1012500007D0002915D0022905D0032905D0002088
:101260009EE71E489CE71E489AE71E4898E71E48DE
:1012700096E7032094E71D4892E71D4890E71D4834
:101280008EE71D488CE7C04600100042001800425F
:10129000001C00420014004200080042000C004202
:1012A000030005000300060003000700030001001F
:1012B00003001E0003001F000300090003000A00D2
:1012C00003000B00030011000300120003001300D1
:1012D00003000D0003000E0003000F0003001700C1
:1012E00003001800030019000300040003000800B5
:1012F0000300100003000C000300160030B587B097
:101300000B4B6A4632CB32C232CB32C2009B834295
:101310000BD001239A0069465258824206D001330D
:10132000062BF7D1002007B030BD0023D8B2FAE772
:10133000645F0000F0B5C64600B50C00904600287A
:101340000FD1002A11DD8F18094E0A4D3068210097
:101350002B6898470134BC42F8D1404604BC904603
:10136000F0BD01235B429846F7E78046F5E7C046AB
:101370007002002068020020F0B5C64600B50E00DD
:1013800015000138022810D8002A11D000240C4B77
:1013900098460C4F43461868315D3B6898470028D3
:1013A00008DB0134A542F5D106E00124644203E0E4
:1013B000140001E001246442200004BC9046F0BD0A
:1013C000700200206C020020F0B5DE4657464E4603
:1013D0004546E0B591B005000C00160029600800F4
:1013E000BC4B9847020023680520DB0706D511B0E7
:1013F0003CBC90469946A246AB46F0BD23681730E8
:101400009B07F4D4B449086A971C0123BB400343EB
:101410000B620FA92D27F35D0B701432D3B2029328
:101420001800AE4B98470298AD4B9847F05D0021ED
:10143000AC4B9847F37A6B712423F35CAB71252393
:10144000F35CEB71F37E2B72337F6B722B689846E3
:101450001800A04B9847143000220E2306A98C4692
:1014600063441A80328A02928023DB019A4200D1BF
:101470009EE00FD9C023DB01029A9A4200D192E08C
:1014800080231B029A4200D01FE10323069300230E
:10149000079308E080239B019A4200D015E11023B6
:1014A00006930F3B079333680593F36803937369BF
:1014B0000493337E9B462623F35C9A4673689946D1
:1014C000002B00D1A0E080235B05994500D184E08A
:1014D000737E002B02D0B37E424693732A68029F2C
:1014E000D369002BFCD10E3306AA944663441B88B3
:1014F00042469381059B039A1343049A13434A4639
:1015000013431F435B461B021F4353465B071F43A6
:101510002723F35C002B01D104331F43737E9B020E
:10152000327F52021343727F120213432422B25CB1
:10153000520413432522B25C12041343B17AF27AA7
:10154000114319433389FF2B00D181E080225204DB
:10155000174319432C23F35C002B03D1624B9B7878
:101560009B0701D580231F432A68D369002BFCD138
:10157000434659602A68D369002BFCD143461F605B
:101580000EAB80221A7000225A70DA709A70336B98
:101590000A93736B0B93B36B0C93F36B02930D93E2
:1015A00000270AAE63E008230693073B07937AE718
:1015B00033680593F368039373690493337E9B4602
:1015C0002623F35C9A4673689946002B18D0802333
:1015D0005B05994501D0002025E02723F35C002B13
:1015E00000D075E7336A1F00C0B2404B9847010036
:1015F0000E2206AB9C46624438003D4B984712E0F1
:1016000008230693002307932723F35C002B0ED0B7
:10161000069B0093079B0E2206A98C466244B16A82
:10162000306A344FB847002800D0E0E650E7336A0C
:101630001F00C0B22D4B98470100069B0093079BEB
:101640000E2206A88446624438002A4FB847EAE7CB
:10165000F37E002B00D17DE78023DB041F4379E775
:101660002000254B984707E00137042F0DD0F9B231
:10167000BB0098590028F3D0431CF5D00EA9087080
:10168000000CC0B21D4B9847EEE70023EB602B61C6
:101690006B61AB61EB612B62AB626B620022EB852D
:1016A000AB853033EA540133EA540133EA54013351
:1016B000EA542868074B984704001149114B984792
:1016C000A400114BE550002091E61023069300235F
:1016D0000793E8E6FD1200000004004075220000B8
:1016E000E921000039110000002000419122000092
:1016F0007B100000A5100000851100006D23000084
:1017000001190000991A000074020020C2791C23FC
:10171000002A01D118007047C28D92B2173B002AEF
:10172000F8D10368DA69002AFCD1198502211A7EF2
:101730000A42FCD00023EDE782791C23002A01D164
:1017400018007047828D92B2173B002AF8D10268C8
:10175000107E4007F4D5D369002BFCD1538BDBB24C
:1017600098061DD0980703D5022353831833E7E763
:10177000580703D5042353831A33E1E7D80703D569
:10178000012353831233DBE7D80603D51023538399
:101790003233D5E79B0603D5202353832133CFE78C
:1017A000138D0B800023CBE7F0B5CE46474680B5BE
:1017B00083B0050001911720002A04D103B00CBCAE
:1017C00090469946F0BDEB790530002BF6D02C6899
:1017D000E369002BFCD1013A93B299460026012718
:1017E0001F4B984611E0731C9BB2019A915D6A7978
:1017F000012A17D089B21E0028001A4B98474B4681
:10180000013B9BB29946434513D0237E3B42EAD12C
:10181000134B227E3A42E6D1012B19D0013B002B1B
:10182000F7D1E0E70236B6B2019AD35C1B02194346
:10183000E2E7237E9B070DD4094B0221227E0A4258
:101840000AD1012B0AD0013B002BF7D10020B5E7CC
:101850001220B3E70020B1E70020AFE71220ADE788
:10186000FFFF00000D170000F0B5D64600B584B0AC
:10187000040001911720002A03D104B004BC924651
:10188000F0BDA3790530002BF7D02668013A93B25A
:101890009A460025042719E0002302AAD380911D4F
:1018A0002000154B98470028E7D1691C89B202AB8C
:1018B000DB88019A53556279012A14D00D005346F2
:1018C000013B9BB29A460D4B9A45D6D0337E3B42A4
:1018D000E2D10A4B327E3A42DED1012B09D0013BE4
:1018E000002BF7D1D8E70235ADB21B0A019A535449
:1018F000E5E71220C1E7C04639170000FFFF0000EE
:10190000F8B58000624BC5582C68E369002BFCD108
:10191000237EA67D1E403023EB5C3122AF5C1F404E
:10192000F30722D5EB8D9BB2002B1CD0AA6A13784B
:10193000DBB2511CA962697901290ED09BB2DB058B
:10194000DB0D2385EB8D013B9BB2EB85002B0CD18E
:10195000013323750133A37507E0517809020B4366
:101960000232AA62EBE701232375B30706D50223EF
:10197000237500223133EA54FB071AD4730765D567
:10198000AB8D9BB2002B5FD0638BDBB21A0714D4F4
:101990003F221340002B34D09A0711D51A2232234C
:1019A000EA54303B63837B0750D528006B69984726
:1019B0004CE02800EB689847E0E737221340E9E75E
:1019C0005A0705D51E223223EA542E3B6383EAE7E9
:1019D000DA0705D513223223EA54313B6383E2E769
:1019E000DA0605D542223223EA54223B6383DAE742
:1019F00020221A42D7D021323223EA54123B638389
:101A0000D1E7238DDB05DB0DDAB2696A0A706A6AF9
:101A1000511C69626979012910D0AB8D013B9BB2E1
:101A2000AB85002B12D10433237500222E33EA54E8
:101A3000BB070BD528002B69984707E01B0A53709A
:101A40006B6A01336B62E8E704232375F30604D560
:101A5000102323752376FB060ED4B30604D520236A
:101A6000237523763B070BD4330704D5082323754E
:101A70002376BB0608D4F8BD2800EB699847ECE74D
:101A80002800AB699847EFE72B6A28009847F2E7F0
:101A90007402002070470000F0B50A4B1B78002B41
:101AA0000CD1094F094E0A4D0024DE515A19146019
:101AB0000433182BF9D10122024B1A708000024B1B
:101AC000C150F0BD1A0200201C020020951A00002F
:101AD0007402002000B583B009236A4613700133F5
:101AE0005370013393700133D37001331371013399
:101AF0005371034B98476B46185603B000BDC04660
:101B0000FD12000010B5024B1B680020984710BD65
:101B10001C02002010B5024B5B680120984710BDE5
:101B20001C02002010B5024B9B680220984710BD94
:101B30001C02002010B5024BDB680320984710BD43
:101B40001C02002010B5024B1B690420984710BDF1
:101B50001C02002010B5024B5B690520984710BDA0
:101B60001C0200200C4B1B68002B06D1EFF31083E6
:101B7000002B07D00022094B1A70074A1368013363
:101B80001360704772B6BFF35F8F0022044B1A7068
:101B90000132024B1A70F0E73402002038020020B4
:101BA00008000020084B1A68013A1A601B68002BD5
:101BB00009D1064B1B78002B05D00122044B1A706B
:101BC000BFF35F8F62B670473402002038020020F6
:101BD00008000020F0B583B001AC01256570002736
:101BE000A770257021001720064EB04780221204EE
:101BF000054B9A612770657021003720B04703B00C
:101C0000F0BDC0460D1C00000044004100B583B08B
:101C100001AB80221A700A785A704A789A708A78D2
:101C2000DA701900014B984703B000BD6D23000026
:101C300010B5082803D880001B4B1B589F46002076
:101C400030E01A4B18692DE0194B1B6A9B059B0F5E
:101C50001848D84026E0154B586923E0134B1B6801
:101C600000209B071ED512491022CB681A42FCD0D7
:101C70000E4B1B685B0701D40F4813E000200F4B8D
:101C800098470A4B9B681B041B0C58430AE05023DF
:101C9000074AD35C00205B0704D5044BD86801E0F9
:101CA0008020000210BDC0467C5F00003C02002086
:101CB0000008004000127A00006CDC029122000053
:101CC00070B50C490B6A0478857840780122104081
:101CD00080014026B34303432A40D201802083433E
:101CE00013430322224012020348034013430B62B2
:101CF00070BDC04600080040FFFCFFFFF0B5DE46A7
:101D000057464E464546E0B50100264B9B469B8A0A
:101D1000457800784242424191468878CA78944694
:101D20000A7990464E7B0F7B8C7B8A681E494A61FC
:101D300001214A4692009146042293434A461343A6
:101D400042460A40D200904608229343424613433B
:101D500062460A401201944610229343624613439E
:101D6000084040012022934303430F40BF0140201D
:101D700083433B430E40F60140308343334379387D
:101D800005402D02094803402B4321400903084820
:101D900003400B435A4693823CBC90469946A24668
:101DA000AB46F0BD000800403C020020FFF8FFFFFA
:101DB000FFEFFFFF10B5037A9B061B0C42899205CB
:101DC000920D134318494B608379C27913434288BB
:101DD0008488224313434278D20113430B60037873
:101DE000042B11D0202B0ED1037B9B06028A1343B8
:101DF000C28912040D490A4013430B4A93601168CB
:101E00000B4B0B43136010BD037B9B06028A1343ED
:101E1000C289120405490A401343034A93601368B8
:101E200004210B431360EEE73C0200200000FF0397
:101E300024040000082803D88000254B1B589F4627
:101E4000172044E0234A136A02210B431362002047
:101E50003DE0204A936902210B439361002036E064
:101E60001C4A138A02210B43138200202FE0194AD7
:101E7000938A02210B439382002028E016490B68C5
:101E8000022213430B60134B9A8419000E32CB6865
:101E90001A42FCD0104A91680E4BD96252689A627D
:101EA00000229A8419001032CB681A42FCD00A4BE7
:101EB0001B689BB2074A9384002008E0054944222E
:101EC0008B5C022003438B54002000E0002070470D
:101ED000A05F0000000800403C020020F0B58FB079
:101EE000C222D200474B9A60474A53681E218B4357
:101EF0001A390B435360022201AB1A700024434D80
:101F0000E0B201A9A8470134252CF9D10AA8002381
:101F100003708370802212028260C37001220271FA
:101F200003738373023242704373394B9847052021
:101F3000384B984733490222CB681A42FCD0314AC9
:101F4000938A80210B43938205AB002100225980A4
:101F500099809A71DA713F3159813B3919705A7001
:101F60002D4B1B689B0E3F2B4AD005A803722B4BB1
:101F70000382072303733833C381294B984704A88E
:101F800000254570012686700570264B984706206F
:101F9000204FB847244B984701AC029665702572D4
:101FA00065720523237021000120204B98470120F2
:101FB0001F4B9847267021000020144B98470020A3
:101FC0001C4B98470720B8470E49D022CB681340D6
:101FD000D02BFBD1184A0023137253729372D37221
:101FE00001A901224A604B700B724B7207330B70D0
:101FF00000200E4B984700200D4B98470FB0F0BDC6
:10200000203BB2E70008004000400041752200007C
:10201000FD1C0000351E000024608000B905000092
:10202000B51D0000C11C00003D2000006120000023
:1020300019210000E921000000040040064A9369CC
:1020400008210B4393610122044B1A7019000B788D
:102050001342FCD17047C04600040040000C004011
:1020600070B5060004000D782D0205434B78002B57
:1020700002D08023DB021D434B7A002B02D0802349
:102080001B031D434868012810D9431E184234D150
:10209000022830D90223002201325B009842FBD88B
:1020A00012023243140080235B031D430B7A002B82
:1020B00002D080239B031D43134A53785BB2002B4D
:1020C000FBDB124B9847124B1E700F4A53785BB2E2
:1020D000002BFBDB0C4B9C601A0053785BB2002B8F
:1020E000FBDB094A5368802149020B401D435560C0
:1020F000084B984770BD0022D2E704023443802386
:102100009B021D43D2E7C046000C0040651B000047
:10211000080C0040A51B000010B504000B4A5378C2
:102120005BB2002BFBDB0A4B98470A4B1C70074A3B
:1021300053785BB2002BFBDB044A516880235B02BF
:102140000B435360044B984710BDC046000C004041
:10215000651B0000040C0040A51B000070B50400C6
:102160001A4A53785BB2002BFBDB194B9847194B8B
:102170001C70164A53785BB2002BFBDB134E706861
:10218000C004C00E144B98470500124B1C707668B3
:10219000F602F60F114B1C700C4A53785BB2002B01
:1021A000FBDB0A4B9C682402240C0D4B9847002E45
:1021B00007D1012C07D9210028000A4B98470500B8
:1021C00001E00134E540280070BDC046000C00402D
:1021D000651B0000040C0040311C0000080C00408E
:1021E000A51B00007930000010B50400064B98478D
:1021F000064B1C70064A53888021C9010B4353804B
:10220000044B984710BDC046651B0000020C0040FF
:10221000000C0040A51B000010B504000F4B9847B0
:102220000F4B1C700F4A53881B05180F53880E491B
:102230000B40538053880D490B405380110080227E
:10224000D2014B881342FCD106494A880302064852
:10225000024013434B80064B984710BD651B00009E
:10226000020C0040000C0040FFF0FFFFFFBFFFFF2B
:10227000A51B000010B50C7824020443024B9847BC
:10228000A4B2024B5C8010BD19220000000C00407B
:1022900010B50400064B9847064B1C70064B5C8833
:1022A0002405240F054B98472000054B984710BD87
:1022B000651B0000020C0040000C0040A51B000044
:1022C0005D21000030B5D378002B35D11378802BF9
:1022D00029D01B0680246402234354780225AC4392
:1022E00006D19478002C20D18024A402234341609D
:1022F0005478013C012C1CD90D042D0CA024E405BC
:102300002C431C4384620D0CD02424062C431C4314
:102310008462D478002C22D15B031CD59378012BE6
:102320001ED0416117E00023D7E7C024E402234315
:10233000DDE70D4C2340DFE741600C04240CA023B3
:10234000DB05234383620C0CD0231B0623438362EB
:10235000D378002B03D15378013B012B02D930BD38
:102360008161F8E78160FAE7FFFFFBFF10B50A0023
:10237000C1090023002904D14309DB0105498C462A
:1023800063441F242040012181401800024B9847DC
:1023900010BDC04600440041C52200007047000047
:1023A00010B5054B9847054B9847054B9847054B8B
:1023B0009847054B984710BDDD1E0000D51B000057
:1023C0009D2300009D2300009D230000FEE70000E8
:1023D000F8B52A4A2A4B9A4211D01A00294B9A4240
:1023E0000DD2294A03339B1A9B0801339B0000221C
:1023F000234822498C58845004329A42FAD1234A05
:10240000234B9A420AD2D34321495B1803218B43C1
:1024100004339B18002102C29342FCD11D4AFF21C4
:102420001D4B8B439360FD3990235B001B4AD150B9
:102430001B4AD3780325AB4302242343D370D378BC
:102440000C27BB4308263343D370164B987B3022AE
:102450009043202210439873997BB9433143997379
:102460009A7BAA4322439A730F4A536880210B43F5
:1024700053600E4B98470E4B9847FEE7CC67000021
:1024800000000020FC01002004000020FC010020CE
:102490007003002000ED00E000000000007000412B
:1024A000005000410048004100400041B94A00008E
:1024B000E52F00000300064A1268002A04D0044AEF
:1024C0001068C318136070470249014A1160F6E7AB
:1024D00054020020702300200120404270478023D6
:1024E0009B014B600020704701207047002070471F
:1024F00010B502490248034B984710BD0C0000205C
:10250000C0020020B10D000070B582B005000E00C1
:1025100000226B46DA80064C6B46991D2800A047C6
:102520000028F9D16B4606331B88337002B070BDAA
:102530003917000070B505008CB2034E2100280049
:10254000B0470028FAD170BD0D17000030B583B038
:102550000C00612806D0622813D001256D422800A6
:1025600003B030BD082914D0092914D003230093E7
:10257000013B092208210E480E4DA84701256D4256
:1025800001E001256D42022C0FD0032C04D123253C
:10259000E5E70D00F7E70D0003230093013B092257
:1025A00008210348034CA047D9E72225D7E7C046B6
:1025B00064600000D14C000010B50248024B9847FF
:1025C00010BDC046CC600000C54D000010B50249EA
:1025D0000248034B984710BD486500005065000055
:1025E000D14C000010B502490248034B984710BD7A
:1025F0004865000050650000D14C000010B502484D
:10260000024B984710BDC0465C640000C54D0000F9
:1026100010B50248024B984710BDC0464864000000
:10262000C54D000010B501000148024B984710BD90
:10263000F0640000D14C000010B513000A00010046
:102640000148024CA04710BD84640000D14C00003A
:1026500030B58FB001AB64220192224A029200226F
:1026600003921A731A768021890305910121494248
:10267000D982998225315A540B9208315A5401312A
:102680005A5401315A54D7321A86174A0892174AB7
:102690000992174D174C01AA17492800A047002896
:1026A000F9D1134B1C680722E3691A42FCD1236855
:1026B0000222134323600E4D2868104B98471F23B6
:1026C00018401E3B83400E4A1360E8880023102107
:1026D000628B0A4204D101338342F9D3102363830E
:1026E0000FB030BD480D00000300080003000900D2
:1026F000C00200209905000000100042D51A000019
:1027000000E100E010B5054C002205492000054B12
:102710009847637E01221343637610BDC0020020F8
:10272000F1240000990D0000F8B5144B9847144BA4
:1027300098470024134D144E370005E01348144BFE
:1027400098470134802C17D0A3B22B80114A1380F4
:1027500001236B80043333706F6029000B480E4BEC
:1027600098470028EAD10B4908480C4B98472100AC
:102770000B480C4B9847E1E7F8BDC04651260000D6
:10278000052700002000002018000020C0020020C3
:10279000E90B00000C000020C50B0000A10B00009D
:1027A00098630000D14C0000F0B591B08023DB05A8
:1027B000009300230193FF2269460A8100228B7255
:1027C000CB72012424216846445401314454013120
:1027D0004354013143540A93053143540131435466
:1027E00005930382C37602760277427613238376BB
:1027F0004277E1235B020893C4239B0303930123E5
:102800005B420C930D93174B0E93174B0F93174D81
:10281000174B1D60174A184B1A60184A184B1A605C
:102820006A4618492800184B9847184F3B68986823
:102830000021174EB0473B6858680021B0472E680A
:102840003000144B98471F2318408440124B1C60E3
:102850002A68D369002BFCD133680222134333600A
:1028600011B0F0BD03001400030015008C0200201D
:1028700070020020352500006C02002009250000B0
:102880006802002000140042C91300002C00002040
:10289000FD4D0000D51A000000E100E010B58CB03D
:1028A00004006846114B98476B461C7302236A4626
:1028B0005370FF33FF3353800D4C0E4920000E4BF5
:1028C00098472268537E5BB2002BFBDB0F23937586
:1028D0001376137802210B431370054B1A68537E4D
:1028E0005BB2002BFBDB0CB010BDC04655010000F5
:1028F000E8020020004000429D01000070B5612800
:1029000015D1022967D13A4B98476223C25C5F3BDD
:102910001340022B08D00026612102223548364B95
:102920009847731C13D170BD00264121F5E7304B49
:1029300098476223C25C5F3B1340022B05D06121A4
:1029400002222E482C4B9847EDE74121F8E7300052
:102950002B4B98472B4B19684B7E5BB2002BFBDB54
:102960000B7B022213430B734B7E5BB2002BFBDB12
:1029700001200425022401E010420AD10B7EDBB2C3
:1029800002001A401D4200D022431C42F4D02A43C8
:10299000F2E74B7E5BB2002BFBDB4A8B92B201234A
:1029A0000B76087EC0B20340440701D502242343BE
:1029B000800701D5042003435B0701D502230B7672
:1029C000310011480C4B9847ADE7022241210948DC
:1029D000094B9847A7E7064B98476223C25C5F3BC9
:1029E0001340022BF1D001267642612195E7C046C3
:1029F000094B0000C45F0000D14C000008600000DB
:102A00009D280000E80200204C60000070B51820EE
:102A10001D4B98471D4B1868437E5BB2002BFBDBB8
:102A2000037B022213430373437E5BB2002BFBDB69
:102A300001210425022401E011420AD1037EDBB208
:102A40000A001A401D4200D022431C42F4D02A43FF
:102A5000F2E7437E5BB2002BFBDB418B89B20123A3
:102A60000376027ED2B21340540701D502242343D9
:102A7000920701D5042213435B0701D50223037695
:102A80000348044B984770BD9D280000E8020020D1
:102A90006C640000D14C000000B583B001A9012393
:102AA0004B7000228A700B70C0B2024B984703B083
:102AB00000BDC0460D1C000070B50D000D4B9847C1
:102AC0000400431C14D028000B4B9847E2B20023AB
:102AD000210604D45309DB0108498C4663441F21B5
:102AE000114001228A409A6121000548054B984710
:102AF00070BDC0464D250000992A000000440041E9
:102B0000B8600000D14C000070B50D000D4B984727
:102B10000400431C14D028000B4B9847E2B200235A
:102B2000210604D45309DB0108498C4663441F2164
:102B3000114001228A405A6121000548054B9847FF
:102B400070BDC0464D250000992A00000044004198
:102B500090600000D14C000000B583B001A90023B3
:102B60000B7001224A708B70C0B2024B984703B0C1
:102B700000BDC0460D1C000070B50D000D4B984700
:102B8000040028000C4B9847E0B20023220604D42E
:102B90004309DB01094A944663441A6A1F21014034
:102BA00001238B401A40531E9A4121000448054BD3
:102BB000984770BD4D250000592B0000004400418E
:102BC000A4600000D14C000070B505000E000C6838
:102BD00021008F488F4B984700280AD1012D05D03E
:102BE0002A0001218A488C4B984770BD8B4B98472F
:102BF000FBE721008A48874B984700280AD1012D1E
:102C000005D02A0001218648834B9847EDE7854B84
:102C10009847EAE7210084487E4B984700280AD16C
:102C2000012D05D02A0001217F487B4B9847DCE726
:102C30007E4B9847D9E721007D48764B984700287E
:102C40001CD1032D05D02A0003217948724B9847E7
:102C5000CBE773681D78B068764B98470400764BD5
:102C60009847001943785B0704D521002800734B6F
:102C70009847BAE76E48724B9847B6E7210071480B
:102C8000644B984700281CD1032D05D02A0003214E
:102C90006C48614B9847A8E773681D78B068654B2E
:102CA00098470400644B9847001943785B0704D5A4
:102CB00021002800644B984797E76248604B98478B
:102CC00093E721006148534B984700281CD1032DFE
:102CD00005D02A0003215D484F4B984785E773686C
:102CE0001D78B068534B98470400534B9847001920
:102CF00043785B0704D521002800554B984774E7BB
:102D000052484F4B984770E721005248414B984733
:102D100000280AD1012D05D02A0001214D483E4B43
:102D2000984762E74C4B98475FE721004B48394B87
:102D3000984700280AD1012D05D02A0001214748D3
:102D4000354B984751E7464B98474EE72100454899
:102D5000304B9847002822D1042D05D02A000421A9
:102D600040482D4B984740E7B068324CA0470500DB
:102D7000F068A0470400304B9847401943785B0740
:102D800005D52D4B9847001943785B0703D4354888
:102D90002B4B984729E73448344B984725E72100C7
:102DA00033481C4B984700280CD1032D05D02A002E
:102DB00003212F48184B984717E73079B1682D4BFE
:102DC000984712E721002C48124B984700280AD157
:102DD000012D05D02A00012127480F4B984704E711
:102DE000264B984701E7210025480A4B98470028C1
:102DF0000AD1012D05D02A0001212148064B984710
:102E0000F3E6204B9847F0E61F48184B9847ECE64E
:102E1000B0630000694F000039260000B9250000AA
:102E2000B8630000CD250000C0630000E525000068
:102E3000C8630000AD4A0000094B0000B92A000039
:102E400025260000D4630000092B0000E063000089
:102E5000792B0000EC630000FD250000F06300000A
:102E600011260000F46300003C650000C54D000021
:102E7000FC630000FD280000046400000D2A00002F
:102E800010640000292700001C64000000B583B016
:102E900001226B46D91D2448244B98476B469871F4
:102EA00006331B780020002B3CD16B4606331B7881
:102EB000002B18D06B4607331B780A2B1CD00D2B28
:102EC0001AD0082B25D01A4A1278632A04D8501C2D
:102ED0001749087017498B54154B1B780021154A68
:102EE000D15400201EE001226B46D91D0E48124B22
:102EF00098476B465871DDE70D4B1B7800210D4A52
:102F0000D1540020002B0DD00022094B1A70013043
:102F100008E0074A1378013BDBB213700021054A31
:102F2000D154002003B000BD8C02002069180000BD
:102F30006803002004030020A9170000F8B5CE465E
:102F4000474680B5070004682578002D16D0002676
:102F50000C4B99460323984606E0227001363B68E5
:102F60009C192578002D09D0C8474019437842465E
:102F700013402A00012BF0D12032EEE70CBC904622
:102F80009946F8BD094B000070B582B00E490F4854
:102F90000F4B98470190002813D00E4E0E4C0F4D4A
:102FA00001A8B04723785A1C22709B0058590199F8
:102FB0000B4B984704490020054B98470190002887
:102FC000EED102B070BDC046606500000403002071
:102FD0008D4F00003D2F000000030020F002002074
:102FE0007D4F0000F8B5164B98470122154B1A701B
:102FF000BFF35F8F62B6144B9847144B9847002479
:10300000134E144D1920B04728510434102CF9D117
:103010001148124B98471248124B9847124C134FC5
:103020000C4EA0470028FCD0B847114D287831003D
:10303000104B984700232B7009480A4B9847F0E73C
:10304000A12300000800002015010000A9270000AE
:10305000254B0000F002002064650000C54D000013
:1030600084650000D14C00008D2E0000892F0000E7
:1030700000030020C92B0000002243088B4274D3B8
:1030800003098B425FD3030A8B4244D3030B8B4269
:1030900028D3030C8B420DD3FF22090212BA030C72
:1030A0008B4202D31212090265D0030B8B4219D353
:1030B00000E0090AC30B8B4201D3CB03C01A524173
:1030C000830B8B4201D38B03C01A5241430B8B42BB
:1030D00001D34B03C01A5241030B8B4201D30B03A4
:1030E000C01A5241C30A8B4201D3CB02C01A5241CB
:1030F000830A8B4201D38B02C01A5241430A8B428E
:1031000001D34B02C01A5241030A8B4201D30B0276
:10311000C01A5241CDD2C3098B4201D3CB01C01A90
:10312000524183098B4201D38B01C01A524143099A
:103130008B4201D34B01C01A524103098B4201D388
:103140000B01C01A5241C3088B4201D3CB00C01AF5
:10315000524183088B4201D38B00C01A524143086D
:103160008B4201D34B00C01A5241411A00D2014692
:10317000524110467047FFE701B5002000F006F805
:1031800002BDC0460029F7D076E770477047C046B9
:10319000F0B5CE46474615042D0C2E0080B5070429
:1031A000140C3F0C9946030C7E435D436743634315
:1031B0007F19340CE4199C46A54203D980235B0295
:1031C0009846C4444B46514343433604360C250CC1
:1031D00024046544A4195918491920000CBC9046D0
:1031E0009946F0BDF8B54546DE4657464E460C03B7
:1031F000E0B54E00C90F88460D00610A440F0C432C
:10320000C70019035800DB0F9B464B0A510F0B43B5
:10321000760D400D1900D200D84500D1AEE0351A28
:10322000002D00DCF6E000280FD1134300D1DBE0D5
:103230006B1E002B00D037E1BA1A9742BF41641AC7
:103240007F42E41B0126170024E0C64B9E424DD06E
:1032500080231B041943382D00DD07E11F2D00DDFD
:1032600038E12020431B9A460B0050468340994684
:1032700013004846EB401843030050468240501E5E
:103280008241E9401A43BA1A611A9742A4411700D1
:1032900064420C1B230262D56402650A002D00D132
:1032A000DFE0280001F0E4FB0300083B1F2B00DDFA
:1032B000D2E020223C00D21A9D40D4409F402543BA
:1032C0009E4200DDC4E09E1B731C1F2B00DDF1E05D
:1032D000202238002900D21AD840914097402C0073
:1032E0000143781E8741DC4000260F437B0709D04D
:1032F0000F233B40042B05D03B1DBB42BF417F4207
:10330000E4191F0023022CD5964B01369E4200D1B2
:103310009AE04546944BFF081C406007760564021E
:103320000743240B760D00212403230B0C0D8F4A39
:1033300024051C431440330523435B00ED075B0861
:103340002B43380019003CBC90469946A246AB4638
:10335000F8BD6446044300D111E2040067467B07D0
:10336000C6D145466007FF080743E4087D4B9E42EF
:1033700030D024037605240B760DD4E7331A9A4611
:10338000002B78DD002831D076488642AED08020F0
:10339000000401435346382B00DCE9E00A43511E88
:1033A0008A410021D219BA42BF4109197C42170053
:1033B0000C192302D3D56B4B01369E4200D13AE162
:1033C0000120694B1C407B0807401F43E00707436F
:1033D00064088BE723003B4300D1CBE1802212033A
:1033E00014432403240B9EE72E007FE708001043BC
:1033F00000D1B4E0581E002800D0DEE0BA18BA426E
:103400009B4164185B42E418170001262302A6D5ED
:103410000226D5E7002D6ED1701C4005400D012815
:1034200000DCF9E0B81A844687428041E51A404240
:103430002D1A280200D489E0D71BBA4292411C1BE6
:103440005242A51AD84629E74546002400276AE7D4
:10345000454CF61A2C4049E73D00283885400027A6
:103460002EE7380001F004FB20301DE70A43511E0F
:103470008A41002107E7002B00D0F3E0701C4305D0
:103480005B0D012B00DCADE0364B984200D1D1E062
:10349000BA18BA42BF4164187F42E419E7075208DC
:1034A00017436408060021E72E48854200D193E0C7
:1034B0001D00D0E629001F3EF140202B00D18DE0F9
:1034C0004022D31A9D402F437D1EAF4100240F435D
:1034D000002644E72B000800203BD8400300202DA5
:1034E00000D17DE04020451BA9400A43511E8A417E
:1034F00000211A43C7E6002E50D01A4EB04257D0D2
:1035000080266B429946360434434B46382B00DD07
:10351000D6E01F2B00DD35E12026F51A2600AE404F
:10352000B2463E00DE40AC46350056462E43654668
:10353000AF407D1EAF41DC403743D71BBA429241BA
:103540000C1B5242A41A0600D846A3E664466746FE
:103550002C4300D0A2E600250026002706E71E0027
:10356000C4E6C046FF070000FFFF7FFFFFFF0F809C
:103570001F2B63DC2020C31A080098409C4683461A
:1035800053461000D84003005846184363469A40FB
:10359000531E9A4153460243D94003E726003E4357
:1035A00006D0EB439946002BC7D0944EB042ACD125
:1035B0000C0017000600D84698E6904B9A450BD0B1
:1035C0008246E7E6002800D09EE01800104300D1B4
:1035D000E9E01C001700D846884E87E6002572E710
:1035E000002182E723003B43002E00D0ABE0002BFC
:1035F00000D1E7E00B00134300D177E6BA18BA42D6
:10360000BF4164187F42E419230200D4F2E07C4BEE
:1036100017001C40060069E620003843002ED1D177
:1036200000285BD11C00144300D1A8E01C00170047
:10363000D8465BE606000024002797E650460B00BC
:103640002038C34099465346202B00D195E04023B3
:1036500050461B1A99400A43511E8A414B4600218D
:103660001A439FE6002E30D126003E4367D0DB434D
:103670009A46002B1CD0614EB04260D05346382B86
:1036800000DD96E01F2B00DD9FE02026F31A2600C8
:103690009E409C46B34653463E00DE4033005E46A5
:1036A0001E4363469F407B1E9F415346DC40374389
:1036B000BF189742924164185242A418060078E657
:1036C00027437C1EA741002437E74C4EB04236D03A
:1036D00080265B4236049A463443CFE718001043F5
:1036E00000D103E6B81A84466745AD41E01A6D4241
:1036F000401B050200D42CE6D71BBA4292411C1B8A
:103700005242A41AD846F1E51800104300D163E7ED
:10371000F808670707438020E4080003044208D044
:10372000DD08054205D1D208590711430F002C00CE
:10373000D8467B0FE4001C43FF00304ED6E50C005A
:1037400017000600D2E5002B38D00B00134300D140
:1037500042E7F808670707438020E40800030442B3
:10376000E7D0CB080342E4D1D208490711430F0048
:103770001C00DEE700270024D5E500216BE70025CB
:103780000027F3E54E462500203EF5404B462E002F
:10379000202B2DD04025ED1AAC4027437C1EA7419D
:1037A00000243743C9E6802400252403134E002754
:1037B000DCE527437C1EA741002479E70C001700B5
:1037C0000E4E93E50C00170090E556462300203E70
:1037D000F34099465346202B0ED0402356469B1B60
:1037E0009C4027437C1EA7414B4600241F435FE7B4
:1037F0000024D2E71700B2E50024F2E7FF0700003B
:10380000FFFF7FFFF0B557464546DE464E46E0B522
:103810004C000E0387B0834692461D008046360B4F
:10382000640DCF0F002C4FD06F4B9C4235D08023BE
:10383000420F1B04F600134333439946C3009846D6
:103840006A4B00269C460023644403932B031B0B06
:103850009B466B00ED0F50465B0D01955ED0624AB2
:10386000934253D05A46D1008022400F12040243A3
:103870000A4393465246D1005C4A94460022634470
:103880003800684084460290E41A16430F2E00D98F
:10389000B4E0574BB6009B599F460300334399460B
:1038A0006CD100239846023308260393CEE7CB461B
:1038B0004146039A0197022A65D1019B4A4C9C46D6
:1038C0000023002298466BE00300334399464ED014
:1038D000002E00D1BCE1300001F0CAF803000B3B20
:1038E0001C2B00DDACE11D22D31A5A460100DA4040
:1038F00008398E401300334399465B468B40984607
:1039000000233C4C0026241A03939FE751465A4655
:10391000114329D1002293460232B1E759460143AF
:103920001ED05B46002B00D19EE1584601F0A0F866
:1039300003000B3B1C2B00DD8FE102005946083AC7
:1039400091408B461D21CB1A5146D9400B00594658
:103950000B4351469B469140264B00221B1A8FE792
:10396000002301229B468BE75146032288E7002370
:103970009846013304260024039367E70323B146E6
:1039800003930C2662E7032A00D15CE2019B012A23
:1039900000D0E4E113409C46002300240022984616
:1039A00000211203130B0A0D12051A432305124CB2
:1039B00040462240134362465B00D2075B08134334
:1039C000190007B03CBC90469946A246AB46F0BDF4
:1039D000002380229C4612039846034CE0E7002314
:1039E000014C00229846DBE7FF07000001FCFFFFC7
:1039F000886500000DFCFFFFFFFF0F80D94500D94F
:103A000039E100D134E1002346464D469A46013C57
:103A10005B460A0E1B021A430B02170C0393130496
:103A20001B0C3900280090460193FFF725FB02008C
:103A3000019B83465A43280039009146FFF7A2FBB9
:103A4000350C09040D43A9450DD95B464544013B9E
:103A5000A84500D93AE1A94500D837E102235B42E5
:103A60009C464544E3444B46EB1A39001800049346
:103A7000FFF702FB019B0500434339000498994678
:103A8000FFF780FB330409041B0C0B43994509D94C
:103A900043446A1E984500D91AE1994500D817E1B8
:103AA000023D43444A469B1A5A4612042A4303994C
:103AB0009346100C0A0C914609045A46090C4E46CE
:103AC0000D001204120C454305915143724370439B
:103AD00052190E0CB218954203D980256D02AC46DE
:103AE0006044150C09041204090C2818521883426A
:103AF00000D2CEE000D1C8E01D1A53469E1AB2454E
:103B000092415242AB1A9A46984500D117E13900CA
:103B10001800FFF7B1FA019B0500434339005046F6
:103B20000493FFF72FFB04980B04310C19438842D0
:103B300009D941446B1E884500D907E1884200D865
:103B400004E1023D4144049BCB1A18003900049360
:103B5000FFF792FA019B8246434339000498019390
:103B6000FFF710FB01980B043104090C194388423C
:103B70000DD953464144013B884500D9E8E08842CD
:103B800000D8E5E002235B429C464144E244019BAD
:103B90002D04CE1A51462943059D4F462A000B0499
:103BA000080C1B0C5A4345437B4378435B19170CA5
:103BB000FB189D4203D980256D02AC4660441D0C64
:103BC00012041B04120C28189B18864200D293E0A2
:103BD00000D18EE001231943A04BE318002B00DC39
:103BE00099E04A0700D09EE05A46D20106D55A46CF
:103BF0009B4B1A4080239346DB00E318994A93427B
:103C000068DD0123029A984C1A4000239446984696
:103C10000022C5E680224B46120313420AD05B46BF
:103C2000134206D11A431203120BAC4688468E4C3F
:103C3000B6E64B461A431203120BBC468A4CAFE65B
:103C400003005A46283B9A4000239146984657E67F
:103C5000584600F00DFF203040E603005246283B56
:103C60009A400021934677E600F002FF20305FE69D
:103C7000884500D2C7E64B46DE075D0843465B0831
:103C80001E434346DB079A46C2E60025924500D311
:103C900033E7039E5946B446E244B245AD416D4216
:103CA0004544EB180139984507D2984200D97FE086
:103CB00000D1BCE01D1A8B461FE79845FAD1039D41
:103CC0005545F2D943468B461D1A16E79B46CAE670
:103CD0001500E7E65A46C90852070A435B059046B5
:103CE0005C0D5A460123029952021940120B8C4670
:103CF00056E6002B00D16FE746444A1EB04529D94D
:103D00001100864200D065E7039A934200D061E734
:103D100062E7012149420120C21A382A21DD029BB3
:103D200003409C4638E60F220A40042A00D15BE794
:103D30000A00111D914292415242934454E7474B6D
:103D4000E318002BE5DD01225242F2E71D00FAE6FE
:103D50009A461CE7B04239D86ED011003AE7029378
:103D60003AE71F2A3CDC20239B1A0C005846994056
:103D700098404B1E99415B46D440D34020430843B2
:103D80001A00430709D00F230340042B05D001007C
:103D9000081D88429B415B42D21813023AD5012389
:103DA000029A01241A400023944698460022F7E51F
:103DB000022149428C46039DE344AC46E244AA45B5
:103DC000AD416D424544ED182D1A96E68A1E0399C1
:103DD0004D008D42894149424144761803958FE751
:103DE0001F204042C31A5846D8400300202A28D03A
:103DF00040205D46821A954029434A1E914119434D
:103E0000072300220B4009D00F2300220B4008009B
:103E1000042BBDD1010053075202120BC9081943EC
:103E2000012388460299002419408C46B8E5524582
:103E3000BED88B46002560E6039D9D42C6D3110087
:103E400062E70025D8E780225B4612031A43019BF4
:103E50001203120B9C468846034CA1E5FF030000A9
:103E6000FFFFFFFEFE070000FF070000F0B557460A
:103E70004546DE464E46E0B50C0398464E00230B01
:103E800087B0070092469B46760DCD0F002E6BD073
:103E90006D4B9E4235D080245B46420F2404DB00EC
:103EA00014431C43C3009946684BA3469C46002319
:103EB00000276644029343461C035A00DB0F50461A
:103EC000240B520D984600D176E05F4B9A426DD09C
:103ED0008023410F1B040B435C49E4008C461C43C8
:103EE000C300002062444146B6186940721C01912B
:103EF000944607430F2F00D9B0E0554ABF00D2596E
:103F000097465B460343994600D087E000239B46D3
:103F1000023308270293CEE742460192022867D077
:103F2000032800D10EE2012800D062E10023002422
:103F30000022994601990140CDB2002112030B0DD8
:103F4000120B1B051343434A240513401C43640012
:103F5000ED0764082C434846210007B03CBC90465E
:103F60009946A246AB46F0BD034399464FD05B4607
:103F7000002B00D189E1584600F07AFD03000B3B8D
:103F80001C2B00DD7AE11D22D31A3A0001005C46A9
:103F9000DA4008398C4013008F4023439B46B946D2
:103FA00000232D4E0027361A029384E753462343FD
:103FB0002AD10024022096E75346234320D0002C28
:103FC00000D157E1200000F053FD03000B3B1C2BF8
:103FD00000DD49E11D21CB1A51460200D94053466C
:103FE000083A944093400C431B4A121A00207AE787
:103FF0000125019B144C1D400023002299469CE79B
:104000000024002201206EE7534603206BE70023C3
:104010009B4601330427002602934CE70323814685
:104020000C27029347E780220023002512039946BC
:10403000054C82E75C464B4602986FE75C464B4670
:10404000019502986AE7C046FF07000001FCFFFFE8
:10405000C8650000FFFF0F800DFCFFFF4A46494680
:10406000170C1A0C1B041B0C08041900000C41430C
:104070001500884619007D43794303958946290038
:10408000150045434D44029545462D0CAA46029D18
:104090005544A94506D98A46802149028946CA4421
:1040A00051460391290C0491414609042D04090C41
:1040B00088462900250C24044144240C0591210044
:1040C00041438846210079438A466843414650442B
:1040D0008146080C48446F43824503D98021490238
:1040E00089464F44010C89463900494402914146B2
:1040F0000F0404993F0C88460004C01980444146CF
:10410000049159460F0C0904090C884659438A4604
:1041100039005143894641464A435146090C8B4672
:104120007B43D2185A44934203D980235B029B46B7
:10413000D94451460904090C8A46414661437C43EF
:10414000130C12044B445244A1468A463C0041469B
:104150006C434D4351464D440F0C7D19A94503D97D
:104160008021490288464444049F0399B84641444B
:104170008B468345804141428846514608042F04BE
:10418000000C3F18584602991018894690429241F7
:104190004F44BA46524299469346C244D144CB4416
:1041A0008F42BF41C245894199459B419345924108
:1041B0007F4249422D0C52420F435B4213437F1909
:1041C000FF185B463C19DB0D059A64021C43430251
:1041D00013435D1EAB415A46C00D034352021343C5
:1041E000E20156D501205A0803401343E207134366
:1041F00064085A48604400284DDD5A0709D00F2250
:104200001A40042A05D01A1D9A429B415B42E418C9
:104210001300E20104D58020514AC00014406044DC
:10422000504A904200DDE3E60125DB0862071A43AD
:104230006402019B9146220B4405640D1D407CE6FF
:10424000802259461203114208D0144206D122435B
:104250001203120B45469946434C6EE65B461A43E1
:104260001203120B404C68E603005446283B9C4066
:104270000023B9E600F0FCFB2030A6E60300283B53
:104280009F400023BB4699468AE600F0F1FB2030B0
:1042900074E6B446ADE701252A1A382A06DD019BEB
:1042A00000241D4000230022994646E61F2A21DCF7
:1042B00020252000AD1A1E00AB40A840D6405D1E50
:1042C000AB4130431843D440430709D00F23034088
:1042D000042B05D00300181D98429B415B42E41853
:1042E000230221D50125019B01241D40002300222A
:1042F000994622E61F2521006D42281AC140080078
:10430000202A1DD05F35AA1A944023435C1EA34186
:10431000072503431D400022002D09D00F22002451
:104320001A401800042AD6D1030065076402220B44
:10433000DB082B4301259946019B00241D40FCE529
:104340000024E2E78022012512032243019912038F
:10435000120B0D409946044CEFE5C046FF030000E8
:10436000FFFFFFFEFE070000FF070000F0B5464616
:10437000D6464F460C03C0B5CD0F4E00610A440F20
:104380000C43C1005800400D84468A460F001903B3
:10439000500F490A0143C648760DA846DB0FD200EC
:1043A000844500D1D8E001204340AB4200D1A6E0D3
:1043B0006046351A002D00DC05E1002810D10B0005
:1043C000134300D1D7E06B1E002B00D04BE15346C6
:1043D0009F1ABA458041641A4042241A01261EE001
:1043E000B34B9E4248D080231B041943382D00DD77
:1043F00019E11F2D00DD4CE120230F005B1B100095
:104400009A409F40E840531E9A41E94007431743B2
:104410005346DF1B611ABA45A44164420C1B2302B8
:1044200000D4C5E06402650A002D00D1F6E0280042
:1044300000F01EFB0300083B1F2B00DDE9E02022FB
:104440003C00D21A9D40D4409F4025439E4200DD4F
:10445000DBE09E1B731C1F2B00DD0AE120223800CD
:10446000D21A290097402C009140D8407A1E9741DB
:10447000DC40002601430F437B0709D00F233B405C
:10448000042B05D03B1DBB42BF417F42E4191F00F6
:10449000230225D5864B01369E4200D1AFE0854BE5
:1044A00001251C4043466207FF0864027605174356
:1044B000240B760D1D4000212403230B0C0D7E4A96
:1044C00024051C431440330523435B00ED075B08C0
:1044D0002B43380019001CBC90469946A246F0BDFB
:1044E000012543466207FF081743E4081D40704B4F
:1044F0009E4236D024037605240B760DDBE7634617
:10450000F31A002B00DC94E06046002835D06848A0
:104510008642B1D080273F043943382B00DCFDE0D0
:104520000A43170000217A1E97415744574580419E
:10453000091944420C1923023AD55D4B01369E42BB
:1045400000D14BE101225B4B1C407B0817401F430D
:10455000E207174364088FE70800104300D024E700
:1045600021E723003B4300D1B9E180221203144329
:104570002403240B9FE72E007EE70800104300D1A0
:10458000CAE0581E8446002800D0E7E05244524555
:10459000804164184042241817000126230207D5E1
:1045A0000226CFE764462C4300D1B3E12C006746D6
:1045B0007B0700D062E76307FF081F4301254346DE
:1045C000E4081D4093E7002D78D1751C6D056D0D35
:1045D000012D00DCF2E05046801A8245BF41651A89
:1045E0007F42ED1B8446280200D48CE05046171A07
:1045F000BA4292410C1B5542651B984614E70125AF
:10460000434600241D40002755E72A4CF61A2C404B
:1046100032E73D0028388540002717E7380000F0D2
:1046200027FA203006E70A43170000217A1E974137
:10463000EEE6002B00D0E5E0731C9C465B055B0DAD
:10464000012B00DC9FE01A4B9C4500D1C5E0524491
:1046500052458041641840422418E7075208174326
:104660006408664608E71248854200D185E01D00CF
:10467000BCE629001F3EF140202B00D17FE0402204
:10468000D31A9D402F437D1EAF4100240F430026C7
:104690008EE72B000F00203BDF40202D71D0402300
:1046A0005D1BA9400A43511E8A4100211743AFE612
:1046B000FF070000FFFF7FFFFFFF0F80002E3ED0AF
:1046C000B34EB44545D0802636046D423443382D70
:1046D00000DDA8E01F2D00DD1FE120262700504649
:1046E000761BB740E84007435046B040461EB041F5
:1046F000EC403843171ABA4292410C1B5242A41A9A
:10470000664698468BE6644667462C4300D08BE6A7
:10471000002500260027EAE61E00ADE61F2B60DC20
:104720002027F81A0F00844687401000D84007431E
:1047300060468240501E8241D9401743F5E626006C
:104740005046064305D0ED43002DD3D0904EB445DE
:10475000BDD10C001700664698468DE68C48834212
:104760000BD06346D9E6002D00D096E00800104338
:1047700000D1E2E00C0017009846854E7CE600254B
:1047800080E700218EE7230050460343002E00D02F
:10479000A8E0002B00D1DEE00B00134300D16BE654
:1047A00052445245804164184042241817002302A5
:1047B00000D4FDE6774B66461C405DE6250050467A
:1047C0000543002ECFD1002D4FD10C00144300D152
:1047D000A0E00C00170098464EE66646002400272D
:1047E00085E61F000800203FF8400700202B00D17D
:1047F0008EE04020C31A99400A43511E8A4100218D
:10480000174392E6002E14D126005046064362D08C
:10481000DB43002B5CD187189742924164185242C7
:10482000A418664687E650462043441EA041002453
:1048300060E7574EB4454ED0802636045B42344381
:10484000382B00DD7FE01F2B00DD8BE020262700CA
:104850005046F61AB740D84007435046B040461E6F
:10486000B0410743DC40BF18D6E70D00154300D127
:1048700002E65046801A8245BF41651A7F42ED1B11
:104880008446280200D48DE65046171ABA42924157
:104890000C1B5242A41A9846EEE50D00154300D1B8
:1048A0006BE750466707C00807438020E408000311
:1048B000044207D0CD08054204D12C009846D70801
:1048C00049070F437B0FE4001C43FF00304ED3E544
:1048D0002F4EB445B4D10C0017006646CCE5002736
:1048E0000024E8E5002B39D00B00134300D144E746
:1048F000C008670707438020E40800030442E1D0B2
:10490000CB080342DED1D70849070F431C00D9E783
:10491000002171E700250027E9E52E002700203E51
:10492000F740202D2FD04026751BAC405046204329
:10493000441EA04100243843DCE6802400252403E3
:10494000134E0027D3E5504620430700781E8741C9
:104950000024BF1860E70C0017008DE50C0017005D
:104960000B4E89E51E002700203EF740202B0CD07F
:104970004026F31A9C4050462043441EA041074362
:104980000024BF1848E70024D0E70024F3E7C0461E
:10499000FF070000FFFF7FFF30B5134D0A034B00F8
:1049A000120B5B0DC90F0024AB4210DD0F4CA3426C
:1049B0000FDC80240E4D64032243ED1A1F2D0BDD06
:1049C0000C48C31ADA405442002900D114002000D8
:1049D00030BD094BCC18FAE7084CE840A4466344C4
:1049E0009A400243EFE7C046FE0300001D040000AA
:1049F0003304000013040000FFFFFF7FEDFBFFFF07
:104A000010B5041E28D000F033F8154B154A1B1AB8
:104A1000D21A1F2A15DD144AD21A94400022240308
:104A20005B05240B5B0D0021100024030A0D240BF1
:104A3000120522430D4C1B05224013435B0059080D
:104A400010BD210091400A000B21081AC4405B05EB
:104A50002403240B5B0DE6E7002300240022E2E799
:104A60001E0400003304000013040000FFFF0F8049
:104A70001C2101231B04984201D3000C10391B0A8E
:104A8000984201D3000A08391B09984201D3000952
:104A9000043902A2105C40187047C04604030202A9
:104AA00001010101000000000000000010B50A2211
:104AB000002100F047FB10BD70B500260C4D0D4CD9
:104AC000641BA410A64209D1002601F06FFE0A4D16
:104AD0000A4C641BA410A64205D170BDB300EB586C
:104AE00098470136EEE7B300EB5898470136F2E7F6
:104AF000B8670000B8670000B8670000BC67000036
:104B0000EC30006870470000044B1B681B6A002BE8
:104B100000D1034BEC3318687047C0462C000020CE
:104B20009000002010B5034B0100186800F072F8E7
:104B300010BDC0462C00002082B0002900D101A980
:104B4000101E06D0002B06D013780B601078431E81
:104B5000984102B0704702204042FAE7002310B5A6
:104B60009A4200D110BDCC5CC4540133F8E7030075
:104B70008218934200D1704719700133F9E70000A1
:104B800070B50500002910D00C1F2368002B00DA37
:104B9000E418280000F0BCFD1D4A1368002B05D165
:104BA00063601460280000F0B4FD70BDA34209D911
:104BB000216860188342F3D118685B68411821604E
:104BC000EEE713005A68002A01D0A242F9D9196809
:104BD0005818A0420BD12068091858181960824251
:104BE000E0D110685268411819605A60DAE7A042B3
:104BF00002D90C232B60D5E721686018824203D1CB
:104C0000106852684118216062605C60CAE7C04663
:104C100060020020032370B5CD1C9D4308350600BB
:104C20000C2D1ED20C25A9421DD8300000F070FDBD
:104C3000254A14682100002919D1244C2368002B2F
:104C400003D1300000F0C8F820602900300000F0E7
:104C5000C3F8431C2CD10C233000336000F059FD05
:104C600003E0002DDFDA0C233360002070BD0B68F9
:104C70005B1B1AD40B2B03D90B60CC18256003E007
:104C80008C420ED163681360300000F042FD2000BA
:104C900007220B30231D9043C31AE7D05A42E2503B
:104CA000E4E74B6863600C00EEE70C004968C2E77C
:104CB0000323C41C9C43A042E0D0211A300000F022
:104CC0008BF8431CDAD1C6E76002002064020020A2
:104CD0000FB40B4B13B51C68002C05D0A369002B37
:104CE00002D1200000F012FC05AB049AA16820005C
:104CF000019300F037FD16BC08BC04B01847C0464D
:104D00002C00002070B505000E00002804D0836937
:104D1000002B01D100F0FAFBAB69AC68002B02D18B
:104D2000280000F0F3FB244B9C420FD16C68A38950
:104D30001B0702D52369002B20D12100280000F099
:104D400077FA00281AD00120404270BD1B4B9C42CC
:104D500001D1AC68EBE71A4B9C42E8D1EC68E6E77E
:104D6000013B0136A360002B04DAA269934216DBF3
:104D70000A2914D023685A1C226019703178A3685C
:104D80000029EDD1013BA360002B0FDA22000A318C
:104D9000280000F0EBF9431CD5D00A20D5E722000B
:104DA000280000F0E3F9431CE8D1CCE70A2023688F
:104DB0005A1C22601870C8E7386700005867000066
:104DC0001867000010B5034B01001868FFF79AFF41
:104DD00010BDC0462C000020002370B5064C050015
:104DE00008002360FDF766FB431C03D12368002BFA
:104DF00000D02B6070BDC0466C0300204A424A417F
:104E0000802310B55200DB0000F002F810BD000056
:104E1000F0B51D004F4B85B01E6804000F000092D6
:104E2000002E05D0B369002B02D1300000F06EFBDC
:104E3000494B9C4250D17468009B022B05D0012B3A
:104E400000D984E0002D00DA81E02100300000F07C
:104E5000EFFA616B002908D023004433994202D055
:104E60003000FFF78DFE002363630023A3616360BE
:104E7000A3891B0603D521693000FFF781FEA389B2
:104E8000364A1340A381009B022B5AD003AB02AADF
:104E90002100300000F0D0FBA3891843A081002D31
:104EA00024D1029D2800FFF73DFE0195071E42D147
:104EB000029B0193AB4239D1012040420223A289D7
:104EC0001343A3810023A36023004733236023619E
:104ED0000123636105B0F0BD214B9C4201D1B46850
:104EE000AAE7204B9C42A7D1F468A5E7002FD9D0B0
:104EF000B369002B02D1300000F008FB009B012BAE
:104F000003D1A389009A1A43A2810820A3892760AC
:104F100027616561184018D001201840002398428D
:104F200011D06D42A360A5611800D3E70198FFF787
:104F3000F9FD071EC0D08023A289019D1343A381E0
:104F4000D6E70020BAE7A560C4E7A060C2E7012069
:104F50004042BFE72C000020386700005CF3FFFFF1
:104F6000586700001867000002780B78002A03D009
:104F7000013001319A42F7D0D01A7047031C0A78E9
:104F800001311A700133002AF9D17047F8B5124B7C
:104F900006001D680F00AC6D002C16D15020FFF7E5
:104FA000C1FDA865046044608460C460046144611C
:104FB00084618462C462046344638463C46304647C
:104FC00044648464C46404774462AA6D3900300088
:104FD000012300F003F8F8BD2C000020F0B50028F4
:104FE00004D11068002801D1F0BD20000E00057822
:104FF000441C3778002F04D1002D10D115602800F3
:10500000F2E70136BD42F4D1002BEED114600370FB
:10501000EAE733000EE001351C00002F02D10D003D
:105020002678631C2F78BE42F5D1002EF1D00024E3
:10503000591E0C701360D7E7F0B51F000E0087B043
:105040000590039102920C983478FFF759FD0822DD
:1050500000194378751C13400CD12D2C0CD1013351
:105060002C780193B51C002F0CD0102F14D1302CAC
:105070000AD011E02E00E6E701932B2CF3D12C7817
:10508000B51CF0E7302C2FD120222B789343582BDE
:1050900051D110276C780235019B294A39009E189E
:1050A0003000FEF76FF8300004913900FDF7E4FF9F
:1050B00001210023494202008C46180021003039AA
:1050C000092913D80C00A7421CDD591C09D06346DE
:1050D000824206D302D10499A14202DB0123784324
:1050E00020182C780135E9E70A27D5E72100413956
:1050F000192901D8373CE6E721006139192901D87F
:10510000573CE0E75A1C08D1059A23331360029BF1
:105110003000002B0BD107B0F0BD019A002A00D05F
:105120004042029A002AF6D0039A002B00D06A1E51
:10513000029B1A60EFE73024002FADD10837ABE7B0
:10514000FFFFFF7F37B51300064A05001068046AA9
:10515000002C00D1044C0A0000942900FFF76CFFDA
:105160003EBDC0462C00002090000020F8B5050090
:105170000E001400002804D08369002B01D100F038
:10518000C5F9224B9C422DD16C68A369A360A38909
:105190001B0731D52369002B2ED023682269F7B273
:1051A000981A6369F6B2984205DB2100280000F0E6
:1051B0003FF9002826D1A3680130013BA360236892
:1051C0005A1C22601F706369984204D0A389DB07D0
:1051D0001AD50A2E18D12100280000F029F900283C
:1051E00012D00FE00A4B9C4201D1AC68CDE7094BCD
:1051F0009C42CAD1EC68C8E72100280000F018F8EA
:105200000028CAD0012676423000F8BD3867000079
:1052100058670000186700000B1E04D0FF2A04D94D
:105220008A2303608B3B180070470A700123FAE75A
:10523000364B70B51D6806000C00002D05D0AB691B
:10524000002B02D1280000F061F9314B9C420FD1B4
:105250006C680C23E25E93B219072DD4D90611D4E1
:1052600009230120336037331343A381404270BDCB
:10527000284B9C4201D1AC68EBE7274B9C42E8D11C
:10528000EC68E6E75B0713D5616B002908D02300C3
:105290004433994202D03000FFF772FC002363636D
:1052A0002422A3899343A38100236360236923609D
:1052B0000823A2891343A3812369002B0BD1A021CA
:1052C0008022A389890092000B40934203D02100E1
:1052D000300000F0D9F90123A289134011D0002336
:1052E000A36063695B42A361002023698342BED14E
:1052F0000C23E25E1306BAD540231343A381013881
:10530000B5E7920700D46369A360EDE72C000020A5
:10531000386700005867000018670000F7B58A89F1
:1053200005000C00130760D44B68002B04DC0B6CE9
:10533000002B01DC0020FEBDE76A002FFAD000231D
:105340002E682B6080235B011A4034D0606DA389E6
:105350005B0706D56368C01A636B002B01D0236C12
:10536000C01A0200216A00232800E76AB847A18911
:10537000431C06D12B681D2B31D82C4ADA40D307A9
:105380002DD50023636023692360CB0405D5431C1E
:1053900002D12B68002B00D16065616B2E60002963
:1053A000C8D023004433994202D02800FFF7E8FB1D
:1053B00000206063BFE70123216A2800B847431C2F
:1053C000C5D12B68002BC2D01D2B01D0162B01D1CB
:1053D0002E60AFE74023A2891343A381ABE74023AC
:1053E0000B430120A3814042A5E70F69002FA1D004
:1053F0000B680F60DB1B01930023920700D14B6900
:10540000A360019B002B00DC94E7019B3A00216A1A
:105410002800A66AB047002803DC4023A289134372
:10542000DFE7019B3F181B1A0193EAE701004020C8
:105430000B6970B505000C00002B01D1002070BD78
:10544000002804D08369002B01D100F05FF80B4BDA
:105450009C4209D16C680C22A35E002BEED0210087
:105460002800FFF75BFFEAE7054B9C4201D1AC68DF
:10547000F1E7044B9C42EED1EC68ECE738670000A2
:10548000586700001867000010B5024900F0B2F834
:1054900010BDC04631540000002310B50400036065
:1054A0004360836081814366C2810361436183619C
:1054B000190008225C30FFF75AFB054B2462636237
:1054C000044BA362044BE362044B236310BDC0464C
:1054D000AD5C0000D55C00000D5D0000395D000092
:1054E00070B568254A1E55430E0029007431FFF738
:1054F00091FB041E08D000212A00016046600C3098
:10550000A0606832FFF733FB200070BD836913B5DC
:105510000400002B28D18364C3640365134B144A31
:105520001B6882620193984201D1012383612000AC
:1055300000F020F86060200000F01CF8A06020005F
:1055400000F018F80022E06004216068FFF7A4FF73
:1055500001220921A068FFF79FFF02221221E068C3
:10556000FFF79AFF0123A36113BDC0460866000040
:1055700089540000F8B51E4B07001E68B369002B64
:1055800002D13000FFF7C2FF4836B4687368013BB0
:1055900004D53368002B07D03668F6E70C22A55EE9
:1055A000002D0DD06834F2E704213800FFF798FF92
:1055B00030600028F0D10C2304003B602000F8BDCF
:1055C000012320005B42E3810233A38165662560ED
:1055D000A560656025616561A561082229005C30D0
:1055E000FFF7C5FA6563A563A564E564E6E7C04611
:1055F00008660000F7B50400070000260191483452
:10560000002C01D13000FEBD6368A5680093009BAB
:10561000013B009301D52468F2E7AB89012B08D93F
:105620000E22AB5E013304D029003800019B98475D
:1056300006436835EBE7000070B50E001D000E2331
:10564000C95E90B01400002907DA00232B60B389EB
:105650001B0611D48023DB000FE001AA00F098FBA9
:105660000028F2DBF022029B12021340054A9B182D
:105670005A4253412B60EDE740230020236010B0D5
:1056800070BDC04600E0FFFFF7B502268B8905001C
:105690000C00334206D023004733236023610123EB
:1056A0006361F7BD01AB6A46FFF7C6FF00990700CB
:1056B0002800FFF7AFFA002808D10C22A35E9A0554
:1056C000EFD4032293431E43A681E4E70F4BAB6262
:1056D0008023A28920601343A381009B2061636122
:1056E000019B002B0DD00E23E15E280000F062FB31
:1056F000002806D00322A38993431A0001231343F1
:10570000A381A0893843A081CBE7C046895400001B
:1057100070477047936810B5013B9360002B05DA22
:105720009469A34208DBCBB20A2B05D01368581C3E
:1057300010601970C8B210BDFFF718FDFBE7F8B58F
:1057400006000F001400D518AC4201D1002007E07C
:1057500021783A003000FFF7DDFF0134431CF3D11C
:10576000F8BD0000F0B59FB006000F0014000593CF
:10577000002804D08369002B01D1FFF7C7FE7F4BBF
:105780009F425CD17768BB891B0762D53B69002BC0
:105790005FD0002306AD6B6120336B761033AB76A0
:1057A0000294029C2378002B5DD1029BE31A0493A0
:1057B0000DD0049B029A39003000FFF7C0FF431C54
:1057C00000D1CCE06A69049B944663446B61237802
:1057D000002B00D1C3E00122002352426A6002A9DB
:1057E0005432521801342B60EB60AB601370AB6520
:1057F00021780522624800F003FB631C9C460028C8
:1058000035D12968CB0604D5532302AA20309B1832
:1058100018700B0704D553232B2002AA9B1818706D
:1058200023782A2B2CD000200A21099B2278303A99
:10583000092A00D86BE000282AD0099328E0514BB0
:105840009F4201D1B7689EE74F4B9F429BD1F768BB
:1058500099E739003000FFF7EBFC002899D00120D0
:1058600040421FB0F0BD252B9FD001349AE7444B36
:105870002968C01A012383400B432B606446B7E7B5
:10588000059B181D1B680590002B3ADB09936446A5
:1058900023782E2B0BD16378621C2A2B3FD1059BDA
:1058A00002341A1D1B680592002B35DB0793217803
:1058B0000322364800F0A4FA002807D0334B2A68A8
:1058C000C01A4023834013432B6001342178631CAA
:1058D00006222F480293297600F092FA002844D03D
:1058E0002C4B002B2FD12968059B0722C90528D5F1
:1058F0009B189343083305936B69039A9B186B615C
:105900004FE75B42EB6002230B432B60BFE74B4347
:1059100001349B18012089E701235B42C6E700237D
:1059200014000A201A006B6021783039092903D944
:10593000002BBCD00792BAE742430134521801232E
:10594000F2E70733D5E705AB00933A00124B290085
:10595000300000E000BF0390039B0133CCD1BB8932
:105960005B0600D57BE70B987BE705AB00933A001D
:10597000094B2900300000F07FF8ECE738670000A1
:105980007867000058670000186700007E67000015
:1059900082670000000000003F570000F7B51500C7
:1059A00001938A680B6900900C00934200DA13009F
:1059B00022002B6043321278002A01D001332B6081
:1059C00023689B0602D52B6802332B6006272368C9
:1059D0001F4027D0230043331B785A1E934122686F
:1059E000920630D42200019943320098089EB047B5
:1059F000431C25D0062320682A68E168034000255F
:105A0000042B03D18D1AEB43DB171D40A3682269D9
:105A1000934201DD9B1AED180027BD4220D10020E2
:105A200010E00137E3682A689B1A9F42D2DA22000D
:105A30000123193201990098089EB047431CF0D108
:105A400001204042FEBD3020E118433108702100A2
:105A50005A1C45310978A218433202331170C1E74C
:105A6000220001231A3201990098089EB047431C76
:105A7000E6D00137D1E70000F0B58BB006920A00FE
:105A800043320793059004920A7E0C00109B6E2A05
:105A900000D18FE017D8632A2CD008D8002A00D173
:105AA00099E0582A54D026004236327029E0642A00
:105AB00001D0692AF7D121681A68080623D5111D7B
:105AC0001960156825E0732A00D188E008D86F2A8C
:105AD00029D0702AE7D1202209680A43226003E016
